{
	"ethereum/contracts/Logistics.sol": {
		"Logistics": {
			"abi": [
				{
					"inputs": [],
					"stateMutability": "nonpayable",
					"type": "constructor"
				},
				{
					"anonymous": false,
					"inputs": [
						{
							"indexed": true,
							"internalType": "uint256",
							"name": "id",
							"type": "uint256"
						},
						{
							"indexed": true,
							"internalType": "address",
							"name": "receiver",
							"type": "address"
						},
						{
							"indexed": true,
							"internalType": "enum Logistics.Status",
							"name": "product_status",
							"type": "uint8"
						}
					],
					"name": "ChangeOrderStatus",
					"type": "event"
				},
				{
					"anonymous": false,
					"inputs": [
						{
							"indexed": true,
							"internalType": "string",
							"name": "product_name",
							"type": "string"
						},
						{
							"indexed": true,
							"internalType": "bytes[]",
							"name": "components",
							"type": "bytes[]"
						},
						{
							"indexed": false,
							"internalType": "uint256",
							"name": "timestamp",
							"type": "uint256"
						}
					],
					"name": "FinalProductInfo",
					"type": "event"
				},
				{
					"anonymous": false,
					"inputs": [
						{
							"indexed": true,
							"internalType": "string",
							"name": "name",
							"type": "string"
						},
						{
							"indexed": true,
							"internalType": "address",
							"name": "addressManufacturer",
							"type": "address"
						},
						{
							"indexed": true,
							"internalType": "string",
							"name": "component",
							"type": "string"
						},
						{
							"indexed": false,
							"internalType": "uint256",
							"name": "timestamp",
							"type": "uint256"
						}
					],
					"name": "NewComponent",
					"type": "event"
				},
				{
					"anonymous": false,
					"inputs": [
						{
							"indexed": true,
							"internalType": "uint256",
							"name": "id",
							"type": "uint256"
						},
						{
							"indexed": true,
							"internalType": "address",
							"name": "customer",
							"type": "address"
						},
						{
							"indexed": true,
							"internalType": "uint256",
							"name": "orderID",
							"type": "uint256"
						}
					],
					"name": "PaymentStatus",
					"type": "event"
				},
				{
					"inputs": [
						{
							"internalType": "address",
							"name": "_newAdmin",
							"type": "address"
						}
					],
					"name": "addAdmin",
					"outputs": [
						{
							"internalType": "bool",
							"name": "",
							"type": "bool"
						}
					],
					"stateMutability": "nonpayable",
					"type": "function"
				},
				{
					"inputs": [
						{
							"internalType": "address",
							"name": "",
							"type": "address"
						}
					],
					"name": "admins",
					"outputs": [
						{
							"internalType": "bool",
							"name": "_isAdmin",
							"type": "bool"
						}
					],
					"stateMutability": "view",
					"type": "function"
				},
				{
					"inputs": [
						{
							"internalType": "uint256",
							"name": "_orderID",
							"type": "uint256"
						},
						{
							"internalType": "address",
							"name": "_receiver",
							"type": "address"
						}
					],
					"name": "canceled",
					"outputs": [],
					"stateMutability": "nonpayable",
					"type": "function"
				},
				{
					"inputs": [
						{
							"internalType": "string",
							"name": "_manufacturer",
							"type": "string"
						},
						{
							"internalType": "address",
							"name": "_manufacturerAddress",
							"type": "address"
						},
						{
							"internalType": "string",
							"name": "_componentName",
							"type": "string"
						}
					],
					"name": "component_income",
					"outputs": [
						{
							"internalType": "bytes32",
							"name": "",
							"type": "bytes32"
						}
					],
					"stateMutability": "nonpayable",
					"type": "function"
				},
				{
					"inputs": [
						{
							"internalType": "bytes32",
							"name": "",
							"type": "bytes32"
						}
					],
					"name": "component_info",
					"outputs": [
						{
							"internalType": "string",
							"name": "_manufacturerName",
							"type": "string"
						},
						{
							"internalType": "address",
							"name": "_manufacturerAddress",
							"type": "address"
						},
						{
							"internalType": "string",
							"name": "_componentName",
							"type": "string"
						},
						{
							"internalType": "uint256",
							"name": "_componentTimestampIncome",
							"type": "uint256"
						}
					],
					"stateMutability": "view",
					"type": "function"
				},
				{
					"inputs": [
						{
							"internalType": "uint256",
							"name": "orderID",
							"type": "uint256"
						},
						{
							"internalType": "bytes[]",
							"name": "_finalProductUniqueNumbers",
							"type": "bytes[]"
						}
					],
					"name": "createNewOrder",
					"outputs": [],
					"stateMutability": "nonpayable",
					"type": "function"
				},
				{
					"inputs": [
						{
							"internalType": "uint256",
							"name": "_orderID",
							"type": "uint256"
						},
						{
							"internalType": "address",
							"name": "_receiver",
							"type": "address"
						}
					],
					"name": "delivered",
					"outputs": [],
					"stateMutability": "nonpayable",
					"type": "function"
				},
				{
					"inputs": [
						{
							"internalType": "string",
							"name": "_productName",
							"type": "string"
						},
						{
							"internalType": "bytes[]",
							"name": "_componentUiniqueNumber",
							"type": "bytes[]"
						}
					],
					"name": "final_product",
					"outputs": [
						{
							"internalType": "bytes32",
							"name": "",
							"type": "bytes32"
						}
					],
					"stateMutability": "nonpayable",
					"type": "function"
				},
				{
					"inputs": [
						{
							"internalType": "uint256",
							"name": "orderID",
							"type": "uint256"
						}
					],
					"name": "getFullOrderInfoForDeparture",
					"outputs": [
						{
							"internalType": "uint256",
							"name": "",
							"type": "uint256"
						},
						{
							"internalType": "bytes[]",
							"name": "",
							"type": "bytes[]"
						},
						{
							"internalType": "uint256",
							"name": "",
							"type": "uint256"
						}
					],
					"stateMutability": "view",
					"type": "function"
				},
				{
					"inputs": [
						{
							"internalType": "bytes32",
							"name": "_uinqueProductNumber",
							"type": "bytes32"
						}
					],
					"name": "getFullProductInfo",
					"outputs": [
						{
							"internalType": "string",
							"name": "",
							"type": "string"
						},
						{
							"internalType": "bytes[]",
							"name": "",
							"type": "bytes[]"
						},
						{
							"internalType": "uint256",
							"name": "",
							"type": "uint256"
						}
					],
					"stateMutability": "view",
					"type": "function"
				},
				{
					"inputs": [
						{
							"internalType": "uint256",
							"name": "_orderID",
							"type": "uint256"
						},
						{
							"internalType": "address",
							"name": "_receiver",
							"type": "address"
						}
					],
					"name": "inProduction",
					"outputs": [],
					"stateMutability": "nonpayable",
					"type": "function"
				},
				{
					"inputs": [
						{
							"internalType": "uint256",
							"name": "_orderID",
							"type": "uint256"
						},
						{
							"internalType": "address",
							"name": "_receiver",
							"type": "address"
						}
					],
					"name": "inStock",
					"outputs": [],
					"stateMutability": "nonpayable",
					"type": "function"
				},
				{
					"inputs": [
						{
							"internalType": "uint256",
							"name": "",
							"type": "uint256"
						}
					],
					"name": "order_info",
					"outputs": [
						{
							"internalType": "uint256",
							"name": "_orderID",
							"type": "uint256"
						},
						{
							"internalType": "address",
							"name": "_receiver",
							"type": "address"
						},
						{
							"internalType": "enum Logistics.Status",
							"name": "_status",
							"type": "uint8"
						}
					],
					"stateMutability": "view",
					"type": "function"
				},
				{
					"inputs": [
						{
							"internalType": "uint256",
							"name": "",
							"type": "uint256"
						}
					],
					"name": "order_payments",
					"outputs": [
						{
							"internalType": "uint256",
							"name": "_amount",
							"type": "uint256"
						},
						{
							"internalType": "address",
							"name": "_customer",
							"type": "address"
						},
						{
							"internalType": "uint256",
							"name": "_orderID",
							"type": "uint256"
						}
					],
					"stateMutability": "view",
					"type": "function"
				},
				{
					"inputs": [
						{
							"internalType": "uint256",
							"name": "_orderID",
							"type": "uint256"
						},
						{
							"internalType": "address",
							"name": "_receiver",
							"type": "address"
						}
					],
					"name": "paid",
					"outputs": [],
					"stateMutability": "nonpayable",
					"type": "function"
				},
				{
					"inputs": [
						{
							"internalType": "uint256",
							"name": "_orderID",
							"type": "uint256"
						},
						{
							"internalType": "address",
							"name": "_receiver",
							"type": "address"
						}
					],
					"name": "returned",
					"outputs": [],
					"stateMutability": "nonpayable",
					"type": "function"
				},
				{
					"inputs": [
						{
							"internalType": "address payable",
							"name": "_manufacturerAddress",
							"type": "address"
						}
					],
					"name": "sendMoneyForComponents",
					"outputs": [],
					"stateMutability": "payable",
					"type": "function"
				},
				{
					"inputs": [
						{
							"internalType": "uint256",
							"name": "_ID",
							"type": "uint256"
						}
					],
					"name": "sendMoneyForOrder",
					"outputs": [],
					"stateMutability": "payable",
					"type": "function"
				},
				{
					"inputs": [
						{
							"internalType": "uint256",
							"name": "_orderID",
							"type": "uint256"
						},
						{
							"internalType": "address",
							"name": "_receiver",
							"type": "address"
						}
					],
					"name": "sent",
					"outputs": [],
					"stateMutability": "nonpayable",
					"type": "function"
				}
			],
			"devdoc": {
				"kind": "dev",
				"methods": {},
				"version": 1
			},
			"evm": {
				"assembly": "    /* \"ethereum/contracts/Logistics.sol\":66:7681  contract Logistics {... */\n  mstore(0x40, 0x80)\n    /* \"ethereum/contracts/Logistics.sol\":137:225  constructor() {... */\n  callvalue\n  dup1\n  iszero\n  tag_1\n  jumpi\n  0x00\n  dup1\n  revert\ntag_1:\n  pop\n    /* \"ethereum/contracts/Logistics.sol\":169:179  msg.sender */\n  caller\n    /* \"ethereum/contracts/Logistics.sol\":161:166  owner */\n  0x00\n  dup1\n    /* \"ethereum/contracts/Logistics.sol\":161:179  owner = msg.sender */\n  0x0100\n  exp\n  dup2\n  sload\n  dup2\n  0xffffffffffffffffffffffffffffffffffffffff\n  mul\n  not\n  and\n  swap1\n  dup4\n  0xffffffffffffffffffffffffffffffffffffffff\n  and\n  mul\n  or\n  swap1\n  sstore\n  pop\n    /* \"ethereum/contracts/Logistics.sol\":214:218  true */\n  0x01\n    /* \"ethereum/contracts/Logistics.sol\":189:195  admins */\n  0x03\n    /* \"ethereum/contracts/Logistics.sol\":189:202  admins[owner] */\n  0x00\n    /* \"ethereum/contracts/Logistics.sol\":196:201  owner */\n  dup1\n  0x00\n  swap1\n  sload\n  swap1\n  0x0100\n  exp\n  swap1\n  div\n  0xffffffffffffffffffffffffffffffffffffffff\n  and\n    /* \"ethereum/contracts/Logistics.sol\":189:202  admins[owner] */\n  0xffffffffffffffffffffffffffffffffffffffff\n  and\n  0xffffffffffffffffffffffffffffffffffffffff\n  and\n  dup2\n  mstore\n  0x20\n  add\n  swap1\n  dup2\n  mstore\n  0x20\n  add\n  0x00\n  keccak256\n    /* \"ethereum/contracts/Logistics.sol\":189:211  admins[owner]._isAdmin */\n  0x00\n  add\n  0x00\n    /* \"ethereum/contracts/Logistics.sol\":189:218  admins[owner]._isAdmin = true */\n  0x0100\n  exp\n  dup2\n  sload\n  dup2\n  0xff\n  mul\n  not\n  and\n  swap1\n  dup4\n  iszero\n  iszero\n  mul\n  or\n  swap1\n  sstore\n  pop\n    /* \"ethereum/contracts/Logistics.sol\":66:7681  contract Logistics {... */\n  dataSize(sub_0)\n  dup1\n  dataOffset(sub_0)\n  0x00\n  codecopy\n  0x00\n  return\nstop\n\nsub_0: assembly {\n        /* \"ethereum/contracts/Logistics.sol\":66:7681  contract Logistics {... */\n      mstore(0x40, 0x80)\n      jumpi(tag_1, lt(calldatasize, 0x04))\n      shr(0xe0, calldataload(0x00))\n      dup1\n      0xa031fb7f\n      gt\n      tag_21\n      jumpi\n      dup1\n      0xc100b815\n      gt\n      tag_22\n      jumpi\n      dup1\n      0xc100b815\n      eq\n      tag_16\n      jumpi\n      dup1\n      0xcbb11c37\n      eq\n      tag_17\n      jumpi\n      dup1\n      0xcca6fe54\n      eq\n      tag_18\n      jumpi\n      dup1\n      0xe65508d6\n      eq\n      tag_19\n      jumpi\n      dup1\n      0xf9f5d92d\n      eq\n      tag_20\n      jumpi\n      jump(tag_1)\n    tag_22:\n      dup1\n      0xa031fb7f\n      eq\n      tag_11\n      jumpi\n      dup1\n      0xa4375293\n      eq\n      tag_12\n      jumpi\n      dup1\n      0xa7c47525\n      eq\n      tag_13\n      jumpi\n      dup1\n      0xaeb13dee\n      eq\n      tag_14\n      jumpi\n      dup1\n      0xbbcccaf3\n      eq\n      tag_15\n      jumpi\n      jump(tag_1)\n    tag_21:\n      dup1\n      0x5eea0a75\n      gt\n      tag_23\n      jumpi\n      dup1\n      0x5eea0a75\n      eq\n      tag_6\n      jumpi\n      dup1\n      0x70480275\n      eq\n      tag_7\n      jumpi\n      dup1\n      0x734fb00c\n      eq\n      tag_8\n      jumpi\n      dup1\n      0x7527b350\n      eq\n      tag_9\n      jumpi\n      dup1\n      0x8cb6350b\n      eq\n      tag_10\n      jumpi\n      jump(tag_1)\n    tag_23:\n      dup1\n      0x0e17c6c3\n      eq\n      tag_2\n      jumpi\n      dup1\n      0x27739afe\n      eq\n      tag_3\n      jumpi\n      dup1\n      0x429b62e5\n      eq\n      tag_4\n      jumpi\n      dup1\n      0x4933c19e\n      eq\n      tag_5\n      jumpi\n    tag_1:\n      0x00\n      dup1\n      revert\n        /* \"ethereum/contracts/Logistics.sol\":4109:4591  function getFullOrderInfoForDeparture(uint orderID) public view onlyOwner returns (uint, bytes[] memory, uint) {... */\n    tag_2:\n      callvalue\n      dup1\n      iszero\n      tag_24\n      jumpi\n      0x00\n      dup1\n      revert\n    tag_24:\n      pop\n      tag_25\n      0x04\n      dup1\n      calldatasize\n      sub\n      dup2\n      add\n      swap1\n      tag_26\n      swap2\n      swap1\n      tag_27\n      jump\t// in\n    tag_26:\n      tag_28\n      jump\t// in\n    tag_25:\n      mload(0x40)\n      tag_29\n      swap4\n      swap3\n      swap2\n      swap1\n      tag_30\n      jump\t// in\n    tag_29:\n      mload(0x40)\n      dup1\n      swap2\n      sub\n      swap1\n      return\n        /* \"ethereum/contracts/Logistics.sol\":6189:6523  function sent(uint _orderID, address _receiver) public onlyOwner {... */\n    tag_3:\n      callvalue\n      dup1\n      iszero\n      tag_31\n      jumpi\n      0x00\n      dup1\n      revert\n    tag_31:\n      pop\n      tag_32\n      0x04\n      dup1\n      calldatasize\n      sub\n      dup2\n      add\n      swap1\n      tag_33\n      swap2\n      swap1\n      tag_34\n      jump\t// in\n    tag_33:\n      tag_35\n      jump\t// in\n    tag_32:\n      stop\n        /* \"ethereum/contracts/Logistics.sol\":1148:1187  mapping(address => Admin) public admins */\n    tag_4:\n      callvalue\n      dup1\n      iszero\n      tag_36\n      jumpi\n      0x00\n      dup1\n      revert\n    tag_36:\n      pop\n      tag_37\n      0x04\n      dup1\n      calldatasize\n      sub\n      dup2\n      add\n      swap1\n      tag_38\n      swap2\n      swap1\n      tag_39\n      jump\t// in\n    tag_38:\n      tag_40\n      jump\t// in\n    tag_37:\n      mload(0x40)\n      tag_41\n      swap2\n      swap1\n      tag_42\n      jump\t// in\n    tag_41:\n      mload(0x40)\n      dup1\n      swap2\n      sub\n      swap1\n      return\n        /* \"ethereum/contracts/Logistics.sol\":5293:5634  function inStock(uint _orderID, address _receiver) public onlyOwner {... */\n    tag_5:\n      callvalue\n      dup1\n      iszero\n      tag_43\n      jumpi\n      0x00\n      dup1\n      revert\n    tag_43:\n      pop\n      tag_44\n      0x04\n      dup1\n      calldatasize\n      sub\n      dup2\n      add\n      swap1\n      tag_45\n      swap2\n      swap1\n      tag_34\n      jump\t// in\n    tag_45:\n      tag_46\n      jump\t// in\n    tag_44:\n      stop\n        /* \"ethereum/contracts/Logistics.sol\":3444:3816  function getFullProductInfo(bytes32 _uinqueProductNumber) public view returns (string memory, bytes[] memory, uint) {... */\n    tag_6:\n      callvalue\n      dup1\n      iszero\n      tag_47\n      jumpi\n      0x00\n      dup1\n      revert\n    tag_47:\n      pop\n      tag_48\n      0x04\n      dup1\n      calldatasize\n      sub\n      dup2\n      add\n      swap1\n      tag_49\n      swap2\n      swap1\n      tag_50\n      jump\t// in\n    tag_49:\n      tag_51\n      jump\t// in\n    tag_48:\n      mload(0x40)\n      tag_52\n      swap4\n      swap3\n      swap2\n      swap1\n      tag_53\n      jump\t// in\n    tag_52:\n      mload(0x40)\n      dup1\n      swap2\n      sub\n      swap1\n      return\n        /* \"ethereum/contracts/Logistics.sol\":7553:7679  function addAdmin(address _newAdmin) public onlyOwner returns (bool) {... */\n    tag_7:\n      callvalue\n      dup1\n      iszero\n      tag_54\n      jumpi\n      0x00\n      dup1\n      revert\n    tag_54:\n      pop\n      tag_55\n      0x04\n      dup1\n      calldatasize\n      sub\n      dup2\n      add\n      swap1\n      tag_56\n      swap2\n      swap1\n      tag_39\n      jump\t// in\n    tag_56:\n      tag_57\n      jump\t// in\n    tag_55:\n      mload(0x40)\n      tag_58\n      swap2\n      swap1\n      tag_42\n      jump\t// in\n    tag_58:\n      mload(0x40)\n      dup1\n      swap2\n      sub\n      swap1\n      return\n        /* \"ethereum/contracts/Logistics.sol\":2657:2809  function sendMoneyForComponents(address payable _manufacturerAddress) public payable onlyOwner {... */\n    tag_8:\n      tag_59\n      0x04\n      dup1\n      calldatasize\n      sub\n      dup2\n      add\n      swap1\n      tag_60\n      swap2\n      swap1\n      tag_61\n      jump\t// in\n    tag_60:\n      tag_62\n      jump\t// in\n    tag_59:\n      stop\n        /* \"ethereum/contracts/Logistics.sol\":5640:6183  function delivered(uint _orderID, address _receiver) public onlyOwner {... */\n    tag_9:\n      callvalue\n      dup1\n      iszero\n      tag_63\n      jumpi\n      0x00\n      dup1\n      revert\n    tag_63:\n      pop\n      tag_64\n      0x04\n      dup1\n      calldatasize\n      sub\n      dup2\n      add\n      swap1\n      tag_65\n      swap2\n      swap1\n      tag_34\n      jump\t// in\n    tag_65:\n      tag_66\n      jump\t// in\n    tag_64:\n      stop\n        /* \"ethereum/contracts/Logistics.sol\":7238:7547  function sendMoneyForOrder(uint _ID) public payable {... */\n    tag_10:\n      tag_67\n      0x04\n      dup1\n      calldatasize\n      sub\n      dup2\n      add\n      swap1\n      tag_68\n      swap2\n      swap1\n      tag_27\n      jump\t// in\n    tag_68:\n      tag_69\n      jump\t// in\n    tag_67:\n      stop\n        /* \"ethereum/contracts/Logistics.sol\":4953:5287  function paid(uint _orderID, address _receiver) public onlyOwner {... */\n    tag_11:\n      callvalue\n      dup1\n      iszero\n      tag_70\n      jumpi\n      0x00\n      dup1\n      revert\n    tag_70:\n      pop\n      tag_71\n      0x04\n      dup1\n      calldatasize\n      sub\n      dup2\n      add\n      swap1\n      tag_72\n      swap2\n      swap1\n      tag_34\n      jump\t// in\n    tag_72:\n      tag_73\n      jump\t// in\n    tag_71:\n      stop\n        /* \"ethereum/contracts/Logistics.sol\":4597:4947  function inProduction(uint _orderID, address _receiver) public onlyOwner {... */\n    tag_12:\n      callvalue\n      dup1\n      iszero\n      tag_74\n      jumpi\n      0x00\n      dup1\n      revert\n    tag_74:\n      pop\n      tag_75\n      0x04\n      dup1\n      calldatasize\n      sub\n      dup2\n      add\n      swap1\n      tag_76\n      swap2\n      swap1\n      tag_34\n      jump\t// in\n    tag_76:\n      tag_77\n      jump\t// in\n    tag_75:\n      stop\n        /* \"ethereum/contracts/Logistics.sol\":1194:1234  mapping(uint => Order) public order_info */\n    tag_13:\n      callvalue\n      dup1\n      iszero\n      tag_78\n      jumpi\n      0x00\n      dup1\n      revert\n    tag_78:\n      pop\n      tag_79\n      0x04\n      dup1\n      calldatasize\n      sub\n      dup2\n      add\n      swap1\n      tag_80\n      swap2\n      swap1\n      tag_27\n      jump\t// in\n    tag_80:\n      tag_81\n      jump\t// in\n    tag_79:\n      mload(0x40)\n      tag_82\n      swap4\n      swap3\n      swap2\n      swap1\n      tag_83\n      jump\t// in\n    tag_82:\n      mload(0x40)\n      dup1\n      swap2\n      sub\n      swap1\n      return\n        /* \"ethereum/contracts/Logistics.sol\":1900:2651  function component_income(string memory _manufacturer, address _manufacturerAddress, string memory _componentName) public onlyOwner returns (bytes32) {... */\n    tag_14:\n      callvalue\n      dup1\n      iszero\n      tag_84\n      jumpi\n      0x00\n      dup1\n      revert\n    tag_84:\n      pop\n      tag_85\n      0x04\n      dup1\n      calldatasize\n      sub\n      dup2\n      add\n      swap1\n      tag_86\n      swap2\n      swap1\n      tag_87\n      jump\t// in\n    tag_86:\n      tag_88\n      jump\t// in\n    tag_85:\n      mload(0x40)\n      tag_89\n      swap2\n      swap1\n      tag_90\n      jump\t// in\n    tag_89:\n      mload(0x40)\n      dup1\n      swap2\n      sub\n      swap1\n      return\n        /* \"ethereum/contracts/Logistics.sol\":3822:4103  function createNewOrder(uint orderID, bytes[] memory _finalProductUniqueNumbers) public onlyOwner {... */\n    tag_15:\n      callvalue\n      dup1\n      iszero\n      tag_91\n      jumpi\n      0x00\n      dup1\n      revert\n    tag_91:\n      pop\n      tag_92\n      0x04\n      dup1\n      calldatasize\n      sub\n      dup2\n      add\n      swap1\n      tag_93\n      swap2\n      swap1\n      tag_94\n      jump\t// in\n    tag_93:\n      tag_95\n      jump\t// in\n    tag_92:\n      stop\n        /* \"ethereum/contracts/Logistics.sol\":6877:7232  function returned(uint _orderID, address _receiver) public onlyOwner {... */\n    tag_16:\n      callvalue\n      dup1\n      iszero\n      tag_96\n      jumpi\n      0x00\n      dup1\n      revert\n    tag_96:\n      pop\n      tag_97\n      0x04\n      dup1\n      calldatasize\n      sub\n      dup2\n      add\n      swap1\n      tag_98\n      swap2\n      swap1\n      tag_34\n      jump\t// in\n    tag_98:\n      tag_99\n      jump\t// in\n    tag_97:\n      stop\n        /* \"ethereum/contracts/Logistics.sol\":1241:1293  mapping(uint => OrderPayments) public order_payments */\n    tag_17:\n      callvalue\n      dup1\n      iszero\n      tag_100\n      jumpi\n      0x00\n      dup1\n      revert\n    tag_100:\n      pop\n      tag_101\n      0x04\n      dup1\n      calldatasize\n      sub\n      dup2\n      add\n      swap1\n      tag_102\n      swap2\n      swap1\n      tag_27\n      jump\t// in\n    tag_102:\n      tag_103\n      jump\t// in\n    tag_101:\n      mload(0x40)\n      tag_104\n      swap4\n      swap3\n      swap2\n      swap1\n      tag_105\n      jump\t// in\n    tag_104:\n      mload(0x40)\n      dup1\n      swap2\n      sub\n      swap1\n      return\n        /* \"ethereum/contracts/Logistics.sol\":6529:6871  function canceled(uint _orderID, address _receiver) public onlyOwner {... */\n    tag_18:\n      callvalue\n      dup1\n      iszero\n      tag_106\n      jumpi\n      0x00\n      dup1\n      revert\n    tag_106:\n      pop\n      tag_107\n      0x04\n      dup1\n      calldatasize\n      sub\n      dup2\n      add\n      swap1\n      tag_108\n      swap2\n      swap1\n      tag_34\n      jump\t// in\n    tag_108:\n      tag_109\n      jump\t// in\n    tag_107:\n      stop\n        /* \"ethereum/contracts/Logistics.sol\":1300:1357  mapping(bytes32 => ComponentIncome) public component_info */\n    tag_19:\n      callvalue\n      dup1\n      iszero\n      tag_110\n      jumpi\n      0x00\n      dup1\n      revert\n    tag_110:\n      pop\n      tag_111\n      0x04\n      dup1\n      calldatasize\n      sub\n      dup2\n      add\n      swap1\n      tag_112\n      swap2\n      swap1\n      tag_50\n      jump\t// in\n    tag_112:\n      tag_113\n      jump\t// in\n    tag_111:\n      mload(0x40)\n      tag_114\n      swap5\n      swap4\n      swap3\n      swap2\n      swap1\n      tag_115\n      jump\t// in\n    tag_114:\n      mload(0x40)\n      dup1\n      swap2\n      sub\n      swap1\n      return\n        /* \"ethereum/contracts/Logistics.sol\":2815:3438  function final_product(string memory _productName, bytes[] memory _componentUiniqueNumber) public onlyOwner returns (bytes32) {        ... */\n    tag_20:\n      callvalue\n      dup1\n      iszero\n      tag_116\n      jumpi\n      0x00\n      dup1\n      revert\n    tag_116:\n      pop\n      tag_117\n      0x04\n      dup1\n      calldatasize\n      sub\n      dup2\n      add\n      swap1\n      tag_118\n      swap2\n      swap1\n      tag_119\n      jump\t// in\n    tag_118:\n      tag_120\n      jump\t// in\n    tag_117:\n      mload(0x40)\n      tag_121\n      swap2\n      swap1\n      tag_90\n      jump\t// in\n    tag_121:\n      mload(0x40)\n      dup1\n      swap2\n      sub\n      swap1\n      return\n        /* \"ethereum/contracts/Logistics.sol\":4109:4591  function getFullOrderInfoForDeparture(uint orderID) public view onlyOwner returns (uint, bytes[] memory, uint) {... */\n    tag_28:\n        /* \"ethereum/contracts/Logistics.sol\":4192:4196  uint */\n      0x00\n        /* \"ethereum/contracts/Logistics.sol\":4198:4212  bytes[] memory */\n      0x60\n        /* \"ethereum/contracts/Logistics.sol\":4214:4218  uint */\n      0x00\n        /* \"ethereum/contracts/Logistics.sol\":279:289  msg.sender */\n      caller\n        /* \"ethereum/contracts/Logistics.sol\":270:289  owner == msg.sender */\n      0xffffffffffffffffffffffffffffffffffffffff\n      and\n        /* \"ethereum/contracts/Logistics.sol\":270:275  owner */\n      0x00\n      dup1\n      sload\n      swap1\n      0x0100\n      exp\n      swap1\n      div\n      0xffffffffffffffffffffffffffffffffffffffff\n      and\n        /* \"ethereum/contracts/Logistics.sol\":270:289  owner == msg.sender */\n      0xffffffffffffffffffffffffffffffffffffffff\n      and\n      eq\n        /* \"ethereum/contracts/Logistics.sol\":262:307  require(owner == msg.sender, \"Not an owner!\") */\n      tag_123\n      jumpi\n      mload(0x40)\n      0x08c379a000000000000000000000000000000000000000000000000000000000\n      dup2\n      mstore\n      0x04\n      add\n      tag_124\n      swap1\n      tag_125\n      jump\t// in\n    tag_124:\n      mload(0x40)\n      dup1\n      swap2\n      sub\n      swap1\n      revert\n    tag_123:\n        /* \"ethereum/contracts/Logistics.sol\":4292:4293  0 */\n      0x00\n        /* \"ethereum/contracts/Logistics.sol\":4234:4253  order_with_products */\n      0x08\n        /* \"ethereum/contracts/Logistics.sol\":4234:4262  order_with_products[orderID] */\n      0x00\n        /* \"ethereum/contracts/Logistics.sol\":4254:4261  orderID */\n      dup7\n        /* \"ethereum/contracts/Logistics.sol\":4234:4262  order_with_products[orderID] */\n      dup2\n      mstore\n      0x20\n      add\n      swap1\n      dup2\n      mstore\n      0x20\n      add\n      0x00\n      keccak256\n        /* \"ethereum/contracts/Logistics.sol\":4234:4288  order_with_products[orderID]._orderedProductsTimestamp */\n      0x01\n      add\n      sload\n        /* \"ethereum/contracts/Logistics.sol\":4234:4293  order_with_products[orderID]._orderedProductsTimestamp != 0 */\n      eq\n        /* \"ethereum/contracts/Logistics.sol\":4230:4585  if (order_with_products[orderID]._orderedProductsTimestamp != 0) {... */\n      tag_127\n      jumpi\n        /* \"ethereum/contracts/Logistics.sol\":4334:4341  orderID */\n      dup4\n        /* \"ethereum/contracts/Logistics.sol\":4359:4378  order_with_products */\n      0x08\n        /* \"ethereum/contracts/Logistics.sol\":4359:4387  order_with_products[orderID] */\n      0x00\n        /* \"ethereum/contracts/Logistics.sol\":4379:4386  orderID */\n      dup7\n        /* \"ethereum/contracts/Logistics.sol\":4359:4387  order_with_products[orderID] */\n      dup2\n      mstore\n      0x20\n      add\n      swap1\n      dup2\n      mstore\n      0x20\n      add\n      0x00\n      keccak256\n        /* \"ethereum/contracts/Logistics.sol\":4359:4414  order_with_products[orderID]._finalProductUniqueNumbers */\n      0x00\n      add\n        /* \"ethereum/contracts/Logistics.sol\":4432:4451  order_with_products */\n      0x08\n        /* \"ethereum/contracts/Logistics.sol\":4432:4460  order_with_products[orderID] */\n      0x00\n        /* \"ethereum/contracts/Logistics.sol\":4452:4459  orderID */\n      dup8\n        /* \"ethereum/contracts/Logistics.sol\":4432:4460  order_with_products[orderID] */\n      dup2\n      mstore\n      0x20\n      add\n      swap1\n      dup2\n      mstore\n      0x20\n      add\n      0x00\n      keccak256\n        /* \"ethereum/contracts/Logistics.sol\":4432:4486  order_with_products[orderID]._orderedProductsTimestamp */\n      0x01\n      add\n      sload\n        /* \"ethereum/contracts/Logistics.sol\":4309:4500  return (... */\n      dup2\n      dup1\n      sload\n      dup1\n      0x20\n      mul\n      0x20\n      add\n      mload(0x40)\n      swap1\n      dup2\n      add\n      0x40\n      mstore\n      dup1\n      swap3\n      swap2\n      swap1\n      dup2\n      dup2\n      mstore\n      0x20\n      add\n      0x00\n      swap1\n    tag_128:\n      dup3\n      dup3\n      lt\n      iszero\n      tag_129\n      jumpi\n      dup4\n      dup3\n      swap1\n      0x00\n      mstore\n      keccak256(0x00, 0x20)\n      add\n      dup1\n      sload\n      tag_131\n      swap1\n      tag_132\n      jump\t// in\n    tag_131:\n      dup1\n      0x1f\n      add\n      0x20\n      dup1\n      swap2\n      div\n      mul\n      0x20\n      add\n      mload(0x40)\n      swap1\n      dup2\n      add\n      0x40\n      mstore\n      dup1\n      swap3\n      swap2\n      swap1\n      dup2\n      dup2\n      mstore\n      0x20\n      add\n      dup3\n      dup1\n      sload\n      tag_133\n      swap1\n      tag_132\n      jump\t// in\n    tag_133:\n      dup1\n      iszero\n      tag_134\n      jumpi\n      dup1\n      0x1f\n      lt\n      tag_135\n      jumpi\n      0x0100\n      dup1\n      dup4\n      sload\n      div\n      mul\n      dup4\n      mstore\n      swap2\n      0x20\n      add\n      swap2\n      jump(tag_134)\n    tag_135:\n      dup3\n      add\n      swap2\n      swap1\n      0x00\n      mstore\n      keccak256(0x00, 0x20)\n      swap1\n    tag_136:\n      dup2\n      sload\n      dup2\n      mstore\n      swap1\n      0x01\n      add\n      swap1\n      0x20\n      add\n      dup1\n      dup4\n      gt\n      tag_136\n      jumpi\n      dup3\n      swap1\n      sub\n      0x1f\n      and\n      dup3\n      add\n      swap2\n    tag_134:\n      pop\n      pop\n      pop\n      pop\n      pop\n      dup2\n      mstore\n      0x20\n      add\n      swap1\n      0x01\n      add\n      swap1\n      jump(tag_128)\n    tag_129:\n      pop\n      pop\n      pop\n      pop\n      swap2\n      pop\n      swap3\n      pop\n      swap3\n      pop\n      swap3\n      pop\n      jump(tag_126)\n        /* \"ethereum/contracts/Logistics.sol\":4230:4585  if (order_with_products[orderID]._orderedProductsTimestamp != 0) {... */\n    tag_127:\n        /* \"ethereum/contracts/Logistics.sol\":4540:4574  revert(\"Such orderID not exists!\") */\n      mload(0x40)\n      0x08c379a000000000000000000000000000000000000000000000000000000000\n      dup2\n      mstore\n      0x04\n      add\n      tag_138\n      swap1\n      tag_139\n      jump\t// in\n    tag_138:\n      mload(0x40)\n      dup1\n      swap2\n      sub\n      swap1\n      revert\n        /* \"ethereum/contracts/Logistics.sol\":317:318  _ */\n    tag_126:\n        /* \"ethereum/contracts/Logistics.sol\":4109:4591  function getFullOrderInfoForDeparture(uint orderID) public view onlyOwner returns (uint, bytes[] memory, uint) {... */\n      swap2\n      swap4\n      swap1\n      swap3\n      pop\n      jump\t// out\n        /* \"ethereum/contracts/Logistics.sol\":6189:6523  function sent(uint _orderID, address _receiver) public onlyOwner {... */\n    tag_35:\n        /* \"ethereum/contracts/Logistics.sol\":279:289  msg.sender */\n      caller\n        /* \"ethereum/contracts/Logistics.sol\":270:289  owner == msg.sender */\n      0xffffffffffffffffffffffffffffffffffffffff\n      and\n        /* \"ethereum/contracts/Logistics.sol\":270:275  owner */\n      0x00\n      dup1\n      sload\n      swap1\n      0x0100\n      exp\n      swap1\n      div\n      0xffffffffffffffffffffffffffffffffffffffff\n      and\n        /* \"ethereum/contracts/Logistics.sol\":270:289  owner == msg.sender */\n      0xffffffffffffffffffffffffffffffffffffffff\n      and\n      eq\n        /* \"ethereum/contracts/Logistics.sol\":262:307  require(owner == msg.sender, \"Not an owner!\") */\n      tag_141\n      jumpi\n      mload(0x40)\n      0x08c379a000000000000000000000000000000000000000000000000000000000\n      dup2\n      mstore\n      0x04\n      add\n      tag_142\n      swap1\n      tag_125\n      jump\t// in\n    tag_142:\n      mload(0x40)\n      dup1\n      swap2\n      sub\n      swap1\n      revert\n    tag_141:\n        /* \"ethereum/contracts/Logistics.sol\":6280:6291  Status.Sent */\n      0x04\n        /* \"ethereum/contracts/Logistics.sol\":6264:6277  status_choice */\n      0x02\n      0x00\n        /* \"ethereum/contracts/Logistics.sol\":6264:6291  status_choice = Status.Sent */\n      0x0100\n      exp\n      dup2\n      sload\n      dup2\n      0xff\n      mul\n      not\n      and\n      swap1\n      dup4\n      0x06\n      dup2\n      gt\n      iszero\n      tag_144\n      jumpi\n      tag_145\n      tag_146\n      jump\t// in\n    tag_145:\n    tag_144:\n      mul\n      or\n      swap1\n      sstore\n      pop\n        /* \"ethereum/contracts/Logistics.sol\":6333:6341  _orderID */\n      dup2\n        /* \"ethereum/contracts/Logistics.sol\":6301:6311  order_info */\n      0x04\n        /* \"ethereum/contracts/Logistics.sol\":6301:6321  order_info[_orderID] */\n      0x00\n        /* \"ethereum/contracts/Logistics.sol\":6312:6320  _orderID */\n      dup5\n        /* \"ethereum/contracts/Logistics.sol\":6301:6321  order_info[_orderID] */\n      dup2\n      mstore\n      0x20\n      add\n      swap1\n      dup2\n      mstore\n      0x20\n      add\n      0x00\n      keccak256\n        /* \"ethereum/contracts/Logistics.sol\":6301:6330  order_info[_orderID]._orderID */\n      0x00\n      add\n        /* \"ethereum/contracts/Logistics.sol\":6301:6341  order_info[_orderID]._orderID = _orderID */\n      dup2\n      swap1\n      sstore\n      pop\n        /* \"ethereum/contracts/Logistics.sol\":6384:6393  _receiver */\n      dup1\n        /* \"ethereum/contracts/Logistics.sol\":6351:6361  order_info */\n      0x04\n        /* \"ethereum/contracts/Logistics.sol\":6351:6371  order_info[_orderID] */\n      0x00\n        /* \"ethereum/contracts/Logistics.sol\":6362:6370  _orderID */\n      dup5\n        /* \"ethereum/contracts/Logistics.sol\":6351:6371  order_info[_orderID] */\n      dup2\n      mstore\n      0x20\n      add\n      swap1\n      dup2\n      mstore\n      0x20\n      add\n      0x00\n      keccak256\n        /* \"ethereum/contracts/Logistics.sol\":6351:6381  order_info[_orderID]._receiver */\n      0x01\n      add\n      0x00\n        /* \"ethereum/contracts/Logistics.sol\":6351:6393  order_info[_orderID]._receiver = _receiver */\n      0x0100\n      exp\n      dup2\n      sload\n      dup2\n      0xffffffffffffffffffffffffffffffffffffffff\n      mul\n      not\n      and\n      swap1\n      dup4\n      0xffffffffffffffffffffffffffffffffffffffff\n      and\n      mul\n      or\n      swap1\n      sstore\n      pop\n        /* \"ethereum/contracts/Logistics.sol\":6434:6447  status_choice */\n      0x02\n      0x00\n      swap1\n      sload\n      swap1\n      0x0100\n      exp\n      swap1\n      div\n      0xff\n      and\n        /* \"ethereum/contracts/Logistics.sol\":6403:6413  order_info */\n      0x04\n        /* \"ethereum/contracts/Logistics.sol\":6403:6423  order_info[_orderID] */\n      0x00\n        /* \"ethereum/contracts/Logistics.sol\":6414:6422  _orderID */\n      dup5\n        /* \"ethereum/contracts/Logistics.sol\":6403:6423  order_info[_orderID] */\n      dup2\n      mstore\n      0x20\n      add\n      swap1\n      dup2\n      mstore\n      0x20\n      add\n      0x00\n      keccak256\n        /* \"ethereum/contracts/Logistics.sol\":6403:6431  order_info[_orderID]._status */\n      0x01\n      add\n      0x14\n        /* \"ethereum/contracts/Logistics.sol\":6403:6447  order_info[_orderID]._status = status_choice */\n      0x0100\n      exp\n      dup2\n      sload\n      dup2\n      0xff\n      mul\n      not\n      and\n      swap1\n      dup4\n      0x06\n      dup2\n      gt\n      iszero\n      tag_147\n      jumpi\n      tag_148\n      tag_146\n      jump\t// in\n    tag_148:\n    tag_147:\n      mul\n      or\n      swap1\n      sstore\n      pop\n        /* \"ethereum/contracts/Logistics.sol\":6502:6515  status_choice */\n      0x02\n      0x00\n      swap1\n      sload\n      swap1\n      0x0100\n      exp\n      swap1\n      div\n      0xff\n      and\n        /* \"ethereum/contracts/Logistics.sol\":6463:6516  ChangeOrderStatus(_orderID, _receiver, status_choice) */\n      0x06\n      dup2\n      gt\n      iszero\n      tag_149\n      jumpi\n      tag_150\n      tag_146\n      jump\t// in\n    tag_150:\n    tag_149:\n        /* \"ethereum/contracts/Logistics.sol\":6491:6500  _receiver */\n      dup2\n        /* \"ethereum/contracts/Logistics.sol\":6463:6516  ChangeOrderStatus(_orderID, _receiver, status_choice) */\n      0xffffffffffffffffffffffffffffffffffffffff\n      and\n        /* \"ethereum/contracts/Logistics.sol\":6481:6489  _orderID */\n      dup4\n        /* \"ethereum/contracts/Logistics.sol\":6463:6516  ChangeOrderStatus(_orderID, _receiver, status_choice) */\n      0xcc091c952960b84af994b58e2349b735a74341ba5869f73ed41ce589750b6441\n      mload(0x40)\n      mload(0x40)\n      dup1\n      swap2\n      sub\n      swap1\n      log4\n        /* \"ethereum/contracts/Logistics.sol\":6189:6523  function sent(uint _orderID, address _receiver) public onlyOwner {... */\n      pop\n      pop\n      jump\t// out\n        /* \"ethereum/contracts/Logistics.sol\":1148:1187  mapping(address => Admin) public admins */\n    tag_40:\n      mstore(0x20, 0x03)\n      dup1\n      0x00\n      mstore\n      keccak256(0x00, 0x40)\n      0x00\n      swap2\n      pop\n      swap1\n      pop\n      dup1\n      0x00\n      add\n      0x00\n      swap1\n      sload\n      swap1\n      0x0100\n      exp\n      swap1\n      div\n      0xff\n      and\n      swap1\n      pop\n      dup2\n      jump\t// out\n        /* \"ethereum/contracts/Logistics.sol\":5293:5634  function inStock(uint _orderID, address _receiver) public onlyOwner {... */\n    tag_46:\n        /* \"ethereum/contracts/Logistics.sol\":279:289  msg.sender */\n      caller\n        /* \"ethereum/contracts/Logistics.sol\":270:289  owner == msg.sender */\n      0xffffffffffffffffffffffffffffffffffffffff\n      and\n        /* \"ethereum/contracts/Logistics.sol\":270:275  owner */\n      0x00\n      dup1\n      sload\n      swap1\n      0x0100\n      exp\n      swap1\n      div\n      0xffffffffffffffffffffffffffffffffffffffff\n      and\n        /* \"ethereum/contracts/Logistics.sol\":270:289  owner == msg.sender */\n      0xffffffffffffffffffffffffffffffffffffffff\n      and\n      eq\n        /* \"ethereum/contracts/Logistics.sol\":262:307  require(owner == msg.sender, \"Not an owner!\") */\n      tag_152\n      jumpi\n      mload(0x40)\n      0x08c379a000000000000000000000000000000000000000000000000000000000\n      dup2\n      mstore\n      0x04\n      add\n      tag_153\n      swap1\n      tag_125\n      jump\t// in\n    tag_153:\n      mload(0x40)\n      dup1\n      swap2\n      sub\n      swap1\n      revert\n    tag_152:\n        /* \"ethereum/contracts/Logistics.sol\":5387:5402  Status.In_Stock */\n      0x02\n        /* \"ethereum/contracts/Logistics.sol\":5371:5384  status_choice */\n      dup1\n      0x00\n        /* \"ethereum/contracts/Logistics.sol\":5371:5402  status_choice = Status.In_Stock */\n      0x0100\n      exp\n      dup2\n      sload\n      dup2\n      0xff\n      mul\n      not\n      and\n      swap1\n      dup4\n      0x06\n      dup2\n      gt\n      iszero\n      tag_155\n      jumpi\n      tag_156\n      tag_146\n      jump\t// in\n    tag_156:\n    tag_155:\n      mul\n      or\n      swap1\n      sstore\n      pop\n        /* \"ethereum/contracts/Logistics.sol\":5444:5452  _orderID */\n      dup2\n        /* \"ethereum/contracts/Logistics.sol\":5412:5422  order_info */\n      0x04\n        /* \"ethereum/contracts/Logistics.sol\":5412:5432  order_info[_orderID] */\n      0x00\n        /* \"ethereum/contracts/Logistics.sol\":5423:5431  _orderID */\n      dup5\n        /* \"ethereum/contracts/Logistics.sol\":5412:5432  order_info[_orderID] */\n      dup2\n      mstore\n      0x20\n      add\n      swap1\n      dup2\n      mstore\n      0x20\n      add\n      0x00\n      keccak256\n        /* \"ethereum/contracts/Logistics.sol\":5412:5441  order_info[_orderID]._orderID */\n      0x00\n      add\n        /* \"ethereum/contracts/Logistics.sol\":5412:5452  order_info[_orderID]._orderID = _orderID */\n      dup2\n      swap1\n      sstore\n      pop\n        /* \"ethereum/contracts/Logistics.sol\":5495:5504  _receiver */\n      dup1\n        /* \"ethereum/contracts/Logistics.sol\":5462:5472  order_info */\n      0x04\n        /* \"ethereum/contracts/Logistics.sol\":5462:5482  order_info[_orderID] */\n      0x00\n        /* \"ethereum/contracts/Logistics.sol\":5473:5481  _orderID */\n      dup5\n        /* \"ethereum/contracts/Logistics.sol\":5462:5482  order_info[_orderID] */\n      dup2\n      mstore\n      0x20\n      add\n      swap1\n      dup2\n      mstore\n      0x20\n      add\n      0x00\n      keccak256\n        /* \"ethereum/contracts/Logistics.sol\":5462:5492  order_info[_orderID]._receiver */\n      0x01\n      add\n      0x00\n        /* \"ethereum/contracts/Logistics.sol\":5462:5504  order_info[_orderID]._receiver = _receiver */\n      0x0100\n      exp\n      dup2\n      sload\n      dup2\n      0xffffffffffffffffffffffffffffffffffffffff\n      mul\n      not\n      and\n      swap1\n      dup4\n      0xffffffffffffffffffffffffffffffffffffffff\n      and\n      mul\n      or\n      swap1\n      sstore\n      pop\n        /* \"ethereum/contracts/Logistics.sol\":5545:5558  status_choice */\n      0x02\n      0x00\n      swap1\n      sload\n      swap1\n      0x0100\n      exp\n      swap1\n      div\n      0xff\n      and\n        /* \"ethereum/contracts/Logistics.sol\":5514:5524  order_info */\n      0x04\n        /* \"ethereum/contracts/Logistics.sol\":5514:5534  order_info[_orderID] */\n      0x00\n        /* \"ethereum/contracts/Logistics.sol\":5525:5533  _orderID */\n      dup5\n        /* \"ethereum/contracts/Logistics.sol\":5514:5534  order_info[_orderID] */\n      dup2\n      mstore\n      0x20\n      add\n      swap1\n      dup2\n      mstore\n      0x20\n      add\n      0x00\n      keccak256\n        /* \"ethereum/contracts/Logistics.sol\":5514:5542  order_info[_orderID]._status */\n      0x01\n      add\n      0x14\n        /* \"ethereum/contracts/Logistics.sol\":5514:5558  order_info[_orderID]._status = status_choice */\n      0x0100\n      exp\n      dup2\n      sload\n      dup2\n      0xff\n      mul\n      not\n      and\n      swap1\n      dup4\n      0x06\n      dup2\n      gt\n      iszero\n      tag_157\n      jumpi\n      tag_158\n      tag_146\n      jump\t// in\n    tag_158:\n    tag_157:\n      mul\n      or\n      swap1\n      sstore\n      pop\n        /* \"ethereum/contracts/Logistics.sol\":5613:5626  status_choice */\n      0x02\n      0x00\n      swap1\n      sload\n      swap1\n      0x0100\n      exp\n      swap1\n      div\n      0xff\n      and\n        /* \"ethereum/contracts/Logistics.sol\":5574:5627  ChangeOrderStatus(_orderID, _receiver, status_choice) */\n      0x06\n      dup2\n      gt\n      iszero\n      tag_159\n      jumpi\n      tag_160\n      tag_146\n      jump\t// in\n    tag_160:\n    tag_159:\n        /* \"ethereum/contracts/Logistics.sol\":5602:5611  _receiver */\n      dup2\n        /* \"ethereum/contracts/Logistics.sol\":5574:5627  ChangeOrderStatus(_orderID, _receiver, status_choice) */\n      0xffffffffffffffffffffffffffffffffffffffff\n      and\n        /* \"ethereum/contracts/Logistics.sol\":5592:5600  _orderID */\n      dup4\n        /* \"ethereum/contracts/Logistics.sol\":5574:5627  ChangeOrderStatus(_orderID, _receiver, status_choice) */\n      0xcc091c952960b84af994b58e2349b735a74341ba5869f73ed41ce589750b6441\n      mload(0x40)\n      mload(0x40)\n      dup1\n      swap2\n      sub\n      swap1\n      log4\n        /* \"ethereum/contracts/Logistics.sol\":5293:5634  function inStock(uint _orderID, address _receiver) public onlyOwner {... */\n      pop\n      pop\n      jump\t// out\n        /* \"ethereum/contracts/Logistics.sol\":3444:3816  function getFullProductInfo(bytes32 _uinqueProductNumber) public view returns (string memory, bytes[] memory, uint) {... */\n    tag_51:\n        /* \"ethereum/contracts/Logistics.sol\":3523:3536  string memory */\n      0x60\n        /* \"ethereum/contracts/Logistics.sol\":3538:3552  bytes[] memory */\n      dup1\n        /* \"ethereum/contracts/Logistics.sol\":3554:3558  uint */\n      0x00\n        /* \"ethereum/contracts/Logistics.sol\":3591:3609  final_product_info */\n      0x07\n        /* \"ethereum/contracts/Logistics.sol\":3591:3631  final_product_info[_uinqueProductNumber] */\n      0x00\n        /* \"ethereum/contracts/Logistics.sol\":3610:3630  _uinqueProductNumber */\n      dup6\n        /* \"ethereum/contracts/Logistics.sol\":3591:3631  final_product_info[_uinqueProductNumber] */\n      dup2\n      mstore\n      0x20\n      add\n      swap1\n      dup2\n      mstore\n      0x20\n      add\n      0x00\n      keccak256\n        /* \"ethereum/contracts/Logistics.sol\":3591:3644  final_product_info[_uinqueProductNumber]._productName */\n      0x00\n      add\n        /* \"ethereum/contracts/Logistics.sol\":3658:3676  final_product_info */\n      0x07\n        /* \"ethereum/contracts/Logistics.sol\":3658:3698  final_product_info[_uinqueProductNumber] */\n      0x00\n        /* \"ethereum/contracts/Logistics.sol\":3677:3697  _uinqueProductNumber */\n      dup7\n        /* \"ethereum/contracts/Logistics.sol\":3658:3698  final_product_info[_uinqueProductNumber] */\n      dup2\n      mstore\n      0x20\n      add\n      swap1\n      dup2\n      mstore\n      0x20\n      add\n      0x00\n      keccak256\n        /* \"ethereum/contracts/Logistics.sol\":3658:3717  final_product_info[_uinqueProductNumber]._productComponents */\n      0x01\n      add\n        /* \"ethereum/contracts/Logistics.sol\":3732:3750  final_product_info */\n      0x07\n        /* \"ethereum/contracts/Logistics.sol\":3732:3772  final_product_info[_uinqueProductNumber] */\n      0x00\n        /* \"ethereum/contracts/Logistics.sol\":3751:3771  _uinqueProductNumber */\n      dup8\n        /* \"ethereum/contracts/Logistics.sol\":3732:3772  final_product_info[_uinqueProductNumber] */\n      dup2\n      mstore\n      0x20\n      add\n      swap1\n      dup2\n      mstore\n      0x20\n      add\n      0x00\n      keccak256\n        /* \"ethereum/contracts/Logistics.sol\":3732:3795  final_product_info[_uinqueProductNumber]._finalProductTimestamp */\n      0x02\n      add\n      sload\n        /* \"ethereum/contracts/Logistics.sol\":3570:3809  return (... */\n      dup3\n      dup1\n      sload\n      tag_162\n      swap1\n      tag_132\n      jump\t// in\n    tag_162:\n      dup1\n      0x1f\n      add\n      0x20\n      dup1\n      swap2\n      div\n      mul\n      0x20\n      add\n      mload(0x40)\n      swap1\n      dup2\n      add\n      0x40\n      mstore\n      dup1\n      swap3\n      swap2\n      swap1\n      dup2\n      dup2\n      mstore\n      0x20\n      add\n      dup3\n      dup1\n      sload\n      tag_163\n      swap1\n      tag_132\n      jump\t// in\n    tag_163:\n      dup1\n      iszero\n      tag_164\n      jumpi\n      dup1\n      0x1f\n      lt\n      tag_165\n      jumpi\n      0x0100\n      dup1\n      dup4\n      sload\n      div\n      mul\n      dup4\n      mstore\n      swap2\n      0x20\n      add\n      swap2\n      jump(tag_164)\n    tag_165:\n      dup3\n      add\n      swap2\n      swap1\n      0x00\n      mstore\n      keccak256(0x00, 0x20)\n      swap1\n    tag_166:\n      dup2\n      sload\n      dup2\n      mstore\n      swap1\n      0x01\n      add\n      swap1\n      0x20\n      add\n      dup1\n      dup4\n      gt\n      tag_166\n      jumpi\n      dup3\n      swap1\n      sub\n      0x1f\n      and\n      dup3\n      add\n      swap2\n    tag_164:\n      pop\n      pop\n      pop\n      pop\n      pop\n      swap3\n      pop\n      dup2\n      dup1\n      sload\n      dup1\n      0x20\n      mul\n      0x20\n      add\n      mload(0x40)\n      swap1\n      dup2\n      add\n      0x40\n      mstore\n      dup1\n      swap3\n      swap2\n      swap1\n      dup2\n      dup2\n      mstore\n      0x20\n      add\n      0x00\n      swap1\n    tag_167:\n      dup3\n      dup3\n      lt\n      iszero\n      tag_168\n      jumpi\n      dup4\n      dup3\n      swap1\n      0x00\n      mstore\n      keccak256(0x00, 0x20)\n      add\n      dup1\n      sload\n      tag_170\n      swap1\n      tag_132\n      jump\t// in\n    tag_170:\n      dup1\n      0x1f\n      add\n      0x20\n      dup1\n      swap2\n      div\n      mul\n      0x20\n      add\n      mload(0x40)\n      swap1\n      dup2\n      add\n      0x40\n      mstore\n      dup1\n      swap3\n      swap2\n      swap1\n      dup2\n      dup2\n      mstore\n      0x20\n      add\n      dup3\n      dup1\n      sload\n      tag_171\n      swap1\n      tag_132\n      jump\t// in\n    tag_171:\n      dup1\n      iszero\n      tag_172\n      jumpi\n      dup1\n      0x1f\n      lt\n      tag_173\n      jumpi\n      0x0100\n      dup1\n      dup4\n      sload\n      div\n      mul\n      dup4\n      mstore\n      swap2\n      0x20\n      add\n      swap2\n      jump(tag_172)\n    tag_173:\n      dup3\n      add\n      swap2\n      swap1\n      0x00\n      mstore\n      keccak256(0x00, 0x20)\n      swap1\n    tag_174:\n      dup2\n      sload\n      dup2\n      mstore\n      swap1\n      0x01\n      add\n      swap1\n      0x20\n      add\n      dup1\n      dup4\n      gt\n      tag_174\n      jumpi\n      dup3\n      swap1\n      sub\n      0x1f\n      and\n      dup3\n      add\n      swap2\n    tag_172:\n      pop\n      pop\n      pop\n      pop\n      pop\n      dup2\n      mstore\n      0x20\n      add\n      swap1\n      0x01\n      add\n      swap1\n      jump(tag_167)\n    tag_168:\n      pop\n      pop\n      pop\n      pop\n      swap2\n      pop\n      swap3\n      pop\n      swap3\n      pop\n      swap3\n      pop\n        /* \"ethereum/contracts/Logistics.sol\":3444:3816  function getFullProductInfo(bytes32 _uinqueProductNumber) public view returns (string memory, bytes[] memory, uint) {... */\n      swap2\n      swap4\n      swap1\n      swap3\n      pop\n      jump\t// out\n        /* \"ethereum/contracts/Logistics.sol\":7553:7679  function addAdmin(address _newAdmin) public onlyOwner returns (bool) {... */\n    tag_57:\n        /* \"ethereum/contracts/Logistics.sol\":7616:7620  bool */\n      0x00\n        /* \"ethereum/contracts/Logistics.sol\":279:289  msg.sender */\n      caller\n        /* \"ethereum/contracts/Logistics.sol\":270:289  owner == msg.sender */\n      0xffffffffffffffffffffffffffffffffffffffff\n      and\n        /* \"ethereum/contracts/Logistics.sol\":270:275  owner */\n      0x00\n      dup1\n      sload\n      swap1\n      0x0100\n      exp\n      swap1\n      div\n      0xffffffffffffffffffffffffffffffffffffffff\n      and\n        /* \"ethereum/contracts/Logistics.sol\":270:289  owner == msg.sender */\n      0xffffffffffffffffffffffffffffffffffffffff\n      and\n      eq\n        /* \"ethereum/contracts/Logistics.sol\":262:307  require(owner == msg.sender, \"Not an owner!\") */\n      tag_176\n      jumpi\n      mload(0x40)\n      0x08c379a000000000000000000000000000000000000000000000000000000000\n      dup2\n      mstore\n      0x04\n      add\n      tag_177\n      swap1\n      tag_125\n      jump\t// in\n    tag_177:\n      mload(0x40)\n      dup1\n      swap2\n      sub\n      swap1\n      revert\n    tag_176:\n        /* \"ethereum/contracts/Logistics.sol\":7668:7672  true */\n      0x01\n        /* \"ethereum/contracts/Logistics.sol\":7639:7645  admins */\n      0x03\n        /* \"ethereum/contracts/Logistics.sol\":7639:7656  admins[_newAdmin] */\n      0x00\n        /* \"ethereum/contracts/Logistics.sol\":7646:7655  _newAdmin */\n      dup5\n        /* \"ethereum/contracts/Logistics.sol\":7639:7656  admins[_newAdmin] */\n      0xffffffffffffffffffffffffffffffffffffffff\n      and\n      0xffffffffffffffffffffffffffffffffffffffff\n      and\n      dup2\n      mstore\n      0x20\n      add\n      swap1\n      dup2\n      mstore\n      0x20\n      add\n      0x00\n      keccak256\n        /* \"ethereum/contracts/Logistics.sol\":7639:7665  admins[_newAdmin]._isAdmin */\n      0x00\n      add\n      0x00\n        /* \"ethereum/contracts/Logistics.sol\":7639:7672  admins[_newAdmin]._isAdmin = true */\n      0x0100\n      exp\n      dup2\n      sload\n      dup2\n      0xff\n      mul\n      not\n      and\n      swap1\n      dup4\n      iszero\n      iszero\n      mul\n      or\n      swap1\n      sstore\n        /* \"ethereum/contracts/Logistics.sol\":7632:7672  return admins[_newAdmin]._isAdmin = true */\n      swap1\n      pop\n        /* \"ethereum/contracts/Logistics.sol\":7553:7679  function addAdmin(address _newAdmin) public onlyOwner returns (bool) {... */\n      swap2\n      swap1\n      pop\n      jump\t// out\n        /* \"ethereum/contracts/Logistics.sol\":2657:2809  function sendMoneyForComponents(address payable _manufacturerAddress) public payable onlyOwner {... */\n    tag_62:\n        /* \"ethereum/contracts/Logistics.sol\":279:289  msg.sender */\n      caller\n        /* \"ethereum/contracts/Logistics.sol\":270:289  owner == msg.sender */\n      0xffffffffffffffffffffffffffffffffffffffff\n      and\n        /* \"ethereum/contracts/Logistics.sol\":270:275  owner */\n      0x00\n      dup1\n      sload\n      swap1\n      0x0100\n      exp\n      swap1\n      div\n      0xffffffffffffffffffffffffffffffffffffffff\n      and\n        /* \"ethereum/contracts/Logistics.sol\":270:289  owner == msg.sender */\n      0xffffffffffffffffffffffffffffffffffffffff\n      and\n      eq\n        /* \"ethereum/contracts/Logistics.sol\":262:307  require(owner == msg.sender, \"Not an owner!\") */\n      tag_180\n      jumpi\n      mload(0x40)\n      0x08c379a000000000000000000000000000000000000000000000000000000000\n      dup2\n      mstore\n      0x04\n      add\n      tag_181\n      swap1\n      tag_125\n      jump\t// in\n    tag_181:\n      mload(0x40)\n      dup1\n      swap2\n      sub\n      swap1\n      revert\n    tag_180:\n        /* \"ethereum/contracts/Logistics.sol\":2762:2782  _manufacturerAddress */\n      dup1\n        /* \"ethereum/contracts/Logistics.sol\":2762:2791  _manufacturerAddress.transfer */\n      0xffffffffffffffffffffffffffffffffffffffff\n      and\n        /* \"ethereum/contracts/Logistics.sol\":2762:2802  _manufacturerAddress.transfer(msg.value) */\n      0x08fc\n        /* \"ethereum/contracts/Logistics.sol\":2792:2801  msg.value */\n      callvalue\n        /* \"ethereum/contracts/Logistics.sol\":2762:2802  _manufacturerAddress.transfer(msg.value) */\n      swap1\n      dup2\n      iszero\n      mul\n      swap1\n      mload(0x40)\n      0x00\n      mload(0x40)\n      dup1\n      dup4\n      sub\n      dup2\n      dup6\n      dup9\n      dup9\n      call\n      swap4\n      pop\n      pop\n      pop\n      pop\n      iszero\n      dup1\n      iszero\n      tag_184\n      jumpi\n      returndatasize\n      0x00\n      dup1\n      returndatacopy\n      revert(0x00, returndatasize)\n    tag_184:\n      pop\n        /* \"ethereum/contracts/Logistics.sol\":2657:2809  function sendMoneyForComponents(address payable _manufacturerAddress) public payable onlyOwner {... */\n      pop\n      jump\t// out\n        /* \"ethereum/contracts/Logistics.sol\":5640:6183  function delivered(uint _orderID, address _receiver) public onlyOwner {... */\n    tag_66:\n        /* \"ethereum/contracts/Logistics.sol\":279:289  msg.sender */\n      caller\n        /* \"ethereum/contracts/Logistics.sol\":270:289  owner == msg.sender */\n      0xffffffffffffffffffffffffffffffffffffffff\n      and\n        /* \"ethereum/contracts/Logistics.sol\":270:275  owner */\n      0x00\n      dup1\n      sload\n      swap1\n      0x0100\n      exp\n      swap1\n      div\n      0xffffffffffffffffffffffffffffffffffffffff\n      and\n        /* \"ethereum/contracts/Logistics.sol\":270:289  owner == msg.sender */\n      0xffffffffffffffffffffffffffffffffffffffff\n      and\n      eq\n        /* \"ethereum/contracts/Logistics.sol\":262:307  require(owner == msg.sender, \"Not an owner!\") */\n      tag_186\n      jumpi\n      mload(0x40)\n      0x08c379a000000000000000000000000000000000000000000000000000000000\n      dup2\n      mstore\n      0x04\n      add\n      tag_187\n      swap1\n      tag_125\n      jump\t// in\n    tag_187:\n      mload(0x40)\n      dup1\n      swap2\n      sub\n      swap1\n      revert\n    tag_186:\n        /* \"ethereum/contracts/Logistics.sol\":5736:5752  Status.Delivered */\n      0x03\n        /* \"ethereum/contracts/Logistics.sol\":5720:5733  status_choice */\n      0x02\n      0x00\n        /* \"ethereum/contracts/Logistics.sol\":5720:5752  status_choice = Status.Delivered */\n      0x0100\n      exp\n      dup2\n      sload\n      dup2\n      0xff\n      mul\n      not\n      and\n      swap1\n      dup4\n      0x06\n      dup2\n      gt\n      iszero\n      tag_189\n      jumpi\n      tag_190\n      tag_146\n      jump\t// in\n    tag_190:\n    tag_189:\n      mul\n      or\n      swap1\n      sstore\n      pop\n        /* \"ethereum/contracts/Logistics.sol\":5794:5802  _orderID */\n      dup2\n        /* \"ethereum/contracts/Logistics.sol\":5762:5772  order_info */\n      0x04\n        /* \"ethereum/contracts/Logistics.sol\":5762:5782  order_info[_orderID] */\n      0x00\n        /* \"ethereum/contracts/Logistics.sol\":5773:5781  _orderID */\n      dup5\n        /* \"ethereum/contracts/Logistics.sol\":5762:5782  order_info[_orderID] */\n      dup2\n      mstore\n      0x20\n      add\n      swap1\n      dup2\n      mstore\n      0x20\n      add\n      0x00\n      keccak256\n        /* \"ethereum/contracts/Logistics.sol\":5762:5791  order_info[_orderID]._orderID */\n      0x00\n      add\n        /* \"ethereum/contracts/Logistics.sol\":5762:5802  order_info[_orderID]._orderID = _orderID */\n      dup2\n      swap1\n      sstore\n      pop\n        /* \"ethereum/contracts/Logistics.sol\":5845:5854  _receiver */\n      dup1\n        /* \"ethereum/contracts/Logistics.sol\":5812:5822  order_info */\n      0x04\n        /* \"ethereum/contracts/Logistics.sol\":5812:5832  order_info[_orderID] */\n      0x00\n        /* \"ethereum/contracts/Logistics.sol\":5823:5831  _orderID */\n      dup5\n        /* \"ethereum/contracts/Logistics.sol\":5812:5832  order_info[_orderID] */\n      dup2\n      mstore\n      0x20\n      add\n      swap1\n      dup2\n      mstore\n      0x20\n      add\n      0x00\n      keccak256\n        /* \"ethereum/contracts/Logistics.sol\":5812:5842  order_info[_orderID]._receiver */\n      0x01\n      add\n      0x00\n        /* \"ethereum/contracts/Logistics.sol\":5812:5854  order_info[_orderID]._receiver = _receiver */\n      0x0100\n      exp\n      dup2\n      sload\n      dup2\n      0xffffffffffffffffffffffffffffffffffffffff\n      mul\n      not\n      and\n      swap1\n      dup4\n      0xffffffffffffffffffffffffffffffffffffffff\n      and\n      mul\n      or\n      swap1\n      sstore\n      pop\n        /* \"ethereum/contracts/Logistics.sol\":5895:5908  status_choice */\n      0x02\n      0x00\n      swap1\n      sload\n      swap1\n      0x0100\n      exp\n      swap1\n      div\n      0xff\n      and\n        /* \"ethereum/contracts/Logistics.sol\":5864:5874  order_info */\n      0x04\n        /* \"ethereum/contracts/Logistics.sol\":5864:5884  order_info[_orderID] */\n      0x00\n        /* \"ethereum/contracts/Logistics.sol\":5875:5883  _orderID */\n      dup5\n        /* \"ethereum/contracts/Logistics.sol\":5864:5884  order_info[_orderID] */\n      dup2\n      mstore\n      0x20\n      add\n      swap1\n      dup2\n      mstore\n      0x20\n      add\n      0x00\n      keccak256\n        /* \"ethereum/contracts/Logistics.sol\":5864:5892  order_info[_orderID]._status */\n      0x01\n      add\n      0x14\n        /* \"ethereum/contracts/Logistics.sol\":5864:5908  order_info[_orderID]._status = status_choice */\n      0x0100\n      exp\n      dup2\n      sload\n      dup2\n      0xff\n      mul\n      not\n      and\n      swap1\n      dup4\n      0x06\n      dup2\n      gt\n      iszero\n      tag_191\n      jumpi\n      tag_192\n      tag_146\n      jump\t// in\n    tag_192:\n    tag_191:\n      mul\n      or\n      swap1\n      sstore\n      pop\n        /* \"ethereum/contracts/Logistics.sol\":5935:5949  order_payments */\n      0x05\n        /* \"ethereum/contracts/Logistics.sol\":5935:5959  order_payments[_orderID] */\n      0x00\n        /* \"ethereum/contracts/Logistics.sol\":5950:5958  _orderID */\n      dup4\n        /* \"ethereum/contracts/Logistics.sol\":5935:5959  order_payments[_orderID] */\n      dup2\n      mstore\n      0x20\n      add\n      swap1\n      dup2\n      mstore\n      0x20\n      add\n      0x00\n      keccak256\n        /* \"ethereum/contracts/Logistics.sol\":5935:5968  order_payments[_orderID]._orderID */\n      0x02\n      add\n      sload\n        /* \"ethereum/contracts/Logistics.sol\":5923:5931  _orderID */\n      dup3\n        /* \"ethereum/contracts/Logistics.sol\":5923:5968  _orderID == order_payments[_orderID]._orderID */\n      sub\n        /* \"ethereum/contracts/Logistics.sol\":5919:6109  if (_orderID == order_payments[_orderID]._orderID) {... */\n      tag_193\n      jumpi\n        /* \"ethereum/contracts/Logistics.sol\":5992:5997  owner */\n      0x00\n      dup1\n      sload\n      swap1\n      0x0100\n      exp\n      swap1\n      div\n      0xffffffffffffffffffffffffffffffffffffffff\n      and\n        /* \"ethereum/contracts/Logistics.sol\":5984:6007  payable(owner).transfer */\n      0xffffffffffffffffffffffffffffffffffffffff\n      and\n        /* \"ethereum/contracts/Logistics.sol\":5984:6041  payable(owner).transfer(order_payments[_orderID]._amount) */\n      0x08fc\n        /* \"ethereum/contracts/Logistics.sol\":6008:6022  order_payments */\n      0x05\n        /* \"ethereum/contracts/Logistics.sol\":6008:6032  order_payments[_orderID] */\n      0x00\n        /* \"ethereum/contracts/Logistics.sol\":6023:6031  _orderID */\n      dup6\n        /* \"ethereum/contracts/Logistics.sol\":6008:6032  order_payments[_orderID] */\n      dup2\n      mstore\n      0x20\n      add\n      swap1\n      dup2\n      mstore\n      0x20\n      add\n      0x00\n      keccak256\n        /* \"ethereum/contracts/Logistics.sol\":6008:6040  order_payments[_orderID]._amount */\n      0x00\n      add\n      sload\n        /* \"ethereum/contracts/Logistics.sol\":5984:6041  payable(owner).transfer(order_payments[_orderID]._amount) */\n      swap1\n      dup2\n      iszero\n      mul\n      swap1\n      mload(0x40)\n      0x00\n      mload(0x40)\n      dup1\n      dup4\n      sub\n      dup2\n      dup6\n      dup9\n      dup9\n      call\n      swap4\n      pop\n      pop\n      pop\n      pop\n      iszero\n      dup1\n      iszero\n      tag_195\n      jumpi\n      returndatasize\n      0x00\n      dup1\n      returndatacopy\n      revert(0x00, returndatasize)\n    tag_195:\n      pop\n        /* \"ethereum/contracts/Logistics.sol\":5919:6109  if (_orderID == order_payments[_orderID]._orderID) {... */\n      jump(tag_196)\n    tag_193:\n        /* \"ethereum/contracts/Logistics.sol\":6072:6098  revert(\"Invalid order ID\") */\n      mload(0x40)\n      0x08c379a000000000000000000000000000000000000000000000000000000000\n      dup2\n      mstore\n      0x04\n      add\n      tag_197\n      swap1\n      tag_198\n      jump\t// in\n    tag_197:\n      mload(0x40)\n      dup1\n      swap2\n      sub\n      swap1\n      revert\n        /* \"ethereum/contracts/Logistics.sol\":5919:6109  if (_orderID == order_payments[_orderID]._orderID) {... */\n    tag_196:\n        /* \"ethereum/contracts/Logistics.sol\":6162:6175  status_choice */\n      0x02\n      0x00\n      swap1\n      sload\n      swap1\n      0x0100\n      exp\n      swap1\n      div\n      0xff\n      and\n        /* \"ethereum/contracts/Logistics.sol\":6123:6176  ChangeOrderStatus(_orderID, _receiver, status_choice) */\n      0x06\n      dup2\n      gt\n      iszero\n      tag_199\n      jumpi\n      tag_200\n      tag_146\n      jump\t// in\n    tag_200:\n    tag_199:\n        /* \"ethereum/contracts/Logistics.sol\":6151:6160  _receiver */\n      dup2\n        /* \"ethereum/contracts/Logistics.sol\":6123:6176  ChangeOrderStatus(_orderID, _receiver, status_choice) */\n      0xffffffffffffffffffffffffffffffffffffffff\n      and\n        /* \"ethereum/contracts/Logistics.sol\":6141:6149  _orderID */\n      dup4\n        /* \"ethereum/contracts/Logistics.sol\":6123:6176  ChangeOrderStatus(_orderID, _receiver, status_choice) */\n      0xcc091c952960b84af994b58e2349b735a74341ba5869f73ed41ce589750b6441\n      mload(0x40)\n      mload(0x40)\n      dup1\n      swap2\n      sub\n      swap1\n      log4\n        /* \"ethereum/contracts/Logistics.sol\":5640:6183  function delivered(uint _orderID, address _receiver) public onlyOwner {... */\n      pop\n      pop\n      jump\t// out\n        /* \"ethereum/contracts/Logistics.sol\":7238:7547  function sendMoneyForOrder(uint _ID) public payable {... */\n    tag_69:\n        /* \"ethereum/contracts/Logistics.sol\":7318:7327  msg.value */\n      callvalue\n        /* \"ethereum/contracts/Logistics.sol\":7300:7315  balanceReceived */\n      0x01\n        /* \"ethereum/contracts/Logistics.sol\":7300:7327  balanceReceived = msg.value */\n      dup2\n      swap1\n      sstore\n      pop\n        /* \"ethereum/contracts/Logistics.sol\":7369:7379  msg.sender */\n      caller\n        /* \"ethereum/contracts/Logistics.sol\":7337:7351  order_payments */\n      0x05\n        /* \"ethereum/contracts/Logistics.sol\":7337:7356  order_payments[_ID] */\n      0x00\n        /* \"ethereum/contracts/Logistics.sol\":7352:7355  _ID */\n      dup4\n        /* \"ethereum/contracts/Logistics.sol\":7337:7356  order_payments[_ID] */\n      dup2\n      mstore\n      0x20\n      add\n      swap1\n      dup2\n      mstore\n      0x20\n      add\n      0x00\n      keccak256\n        /* \"ethereum/contracts/Logistics.sol\":7337:7366  order_payments[_ID]._customer */\n      0x01\n      add\n      0x00\n        /* \"ethereum/contracts/Logistics.sol\":7337:7379  order_payments[_ID]._customer = msg.sender */\n      0x0100\n      exp\n      dup2\n      sload\n      dup2\n      0xffffffffffffffffffffffffffffffffffffffff\n      mul\n      not\n      and\n      swap1\n      dup4\n      0xffffffffffffffffffffffffffffffffffffffff\n      and\n      mul\n      or\n      swap1\n      sstore\n      pop\n        /* \"ethereum/contracts/Logistics.sol\":7419:7434  balanceReceived */\n      sload(0x01)\n        /* \"ethereum/contracts/Logistics.sol\":7389:7403  order_payments */\n      0x05\n        /* \"ethereum/contracts/Logistics.sol\":7389:7408  order_payments[_ID] */\n      0x00\n        /* \"ethereum/contracts/Logistics.sol\":7404:7407  _ID */\n      dup4\n        /* \"ethereum/contracts/Logistics.sol\":7389:7408  order_payments[_ID] */\n      dup2\n      mstore\n      0x20\n      add\n      swap1\n      dup2\n      mstore\n      0x20\n      add\n      0x00\n      keccak256\n        /* \"ethereum/contracts/Logistics.sol\":7389:7416  order_payments[_ID]._amount */\n      0x00\n      add\n        /* \"ethereum/contracts/Logistics.sol\":7389:7434  order_payments[_ID]._amount = balanceReceived */\n      dup2\n      swap1\n      sstore\n      pop\n        /* \"ethereum/contracts/Logistics.sol\":7475:7478  _ID */\n      dup1\n        /* \"ethereum/contracts/Logistics.sol\":7444:7458  order_payments */\n      0x05\n        /* \"ethereum/contracts/Logistics.sol\":7444:7463  order_payments[_ID] */\n      0x00\n        /* \"ethereum/contracts/Logistics.sol\":7459:7462  _ID */\n      dup4\n        /* \"ethereum/contracts/Logistics.sol\":7444:7463  order_payments[_ID] */\n      dup2\n      mstore\n      0x20\n      add\n      swap1\n      dup2\n      mstore\n      0x20\n      add\n      0x00\n      keccak256\n        /* \"ethereum/contracts/Logistics.sol\":7444:7472  order_payments[_ID]._orderID */\n      0x02\n      add\n        /* \"ethereum/contracts/Logistics.sol\":7444:7478  order_payments[_ID]._orderID = _ID */\n      dup2\n      swap1\n      sstore\n      pop\n        /* \"ethereum/contracts/Logistics.sol\":7536:7539  _ID */\n      dup1\n        /* \"ethereum/contracts/Logistics.sol\":7524:7534  msg.sender */\n      caller\n        /* \"ethereum/contracts/Logistics.sol\":7493:7540  PaymentStatus(balanceReceived, msg.sender, _ID) */\n      0xffffffffffffffffffffffffffffffffffffffff\n      and\n        /* \"ethereum/contracts/Logistics.sol\":7507:7522  balanceReceived */\n      sload(0x01)\n        /* \"ethereum/contracts/Logistics.sol\":7493:7540  PaymentStatus(balanceReceived, msg.sender, _ID) */\n      0xcfa45676592e00e4bcb2fc31b4369381509e94f94f38870561cb010fab2d3b33\n      mload(0x40)\n      mload(0x40)\n      dup1\n      swap2\n      sub\n      swap1\n      log4\n        /* \"ethereum/contracts/Logistics.sol\":7238:7547  function sendMoneyForOrder(uint _ID) public payable {... */\n      pop\n      jump\t// out\n        /* \"ethereum/contracts/Logistics.sol\":4953:5287  function paid(uint _orderID, address _receiver) public onlyOwner {... */\n    tag_73:\n        /* \"ethereum/contracts/Logistics.sol\":279:289  msg.sender */\n      caller\n        /* \"ethereum/contracts/Logistics.sol\":270:289  owner == msg.sender */\n      0xffffffffffffffffffffffffffffffffffffffff\n      and\n        /* \"ethereum/contracts/Logistics.sol\":270:275  owner */\n      0x00\n      dup1\n      sload\n      swap1\n      0x0100\n      exp\n      swap1\n      div\n      0xffffffffffffffffffffffffffffffffffffffff\n      and\n        /* \"ethereum/contracts/Logistics.sol\":270:289  owner == msg.sender */\n      0xffffffffffffffffffffffffffffffffffffffff\n      and\n      eq\n        /* \"ethereum/contracts/Logistics.sol\":262:307  require(owner == msg.sender, \"Not an owner!\") */\n      tag_203\n      jumpi\n      mload(0x40)\n      0x08c379a000000000000000000000000000000000000000000000000000000000\n      dup2\n      mstore\n      0x04\n      add\n      tag_204\n      swap1\n      tag_125\n      jump\t// in\n    tag_204:\n      mload(0x40)\n      dup1\n      swap2\n      sub\n      swap1\n      revert\n    tag_203:\n        /* \"ethereum/contracts/Logistics.sol\":5044:5055  Status.Paid */\n      0x01\n        /* \"ethereum/contracts/Logistics.sol\":5028:5041  status_choice */\n      0x02\n      0x00\n        /* \"ethereum/contracts/Logistics.sol\":5028:5055  status_choice = Status.Paid */\n      0x0100\n      exp\n      dup2\n      sload\n      dup2\n      0xff\n      mul\n      not\n      and\n      swap1\n      dup4\n      0x06\n      dup2\n      gt\n      iszero\n      tag_206\n      jumpi\n      tag_207\n      tag_146\n      jump\t// in\n    tag_207:\n    tag_206:\n      mul\n      or\n      swap1\n      sstore\n      pop\n        /* \"ethereum/contracts/Logistics.sol\":5097:5105  _orderID */\n      dup2\n        /* \"ethereum/contracts/Logistics.sol\":5065:5075  order_info */\n      0x04\n        /* \"ethereum/contracts/Logistics.sol\":5065:5085  order_info[_orderID] */\n      0x00\n        /* \"ethereum/contracts/Logistics.sol\":5076:5084  _orderID */\n      dup5\n        /* \"ethereum/contracts/Logistics.sol\":5065:5085  order_info[_orderID] */\n      dup2\n      mstore\n      0x20\n      add\n      swap1\n      dup2\n      mstore\n      0x20\n      add\n      0x00\n      keccak256\n        /* \"ethereum/contracts/Logistics.sol\":5065:5094  order_info[_orderID]._orderID */\n      0x00\n      add\n        /* \"ethereum/contracts/Logistics.sol\":5065:5105  order_info[_orderID]._orderID = _orderID */\n      dup2\n      swap1\n      sstore\n      pop\n        /* \"ethereum/contracts/Logistics.sol\":5148:5157  _receiver */\n      dup1\n        /* \"ethereum/contracts/Logistics.sol\":5115:5125  order_info */\n      0x04\n        /* \"ethereum/contracts/Logistics.sol\":5115:5135  order_info[_orderID] */\n      0x00\n        /* \"ethereum/contracts/Logistics.sol\":5126:5134  _orderID */\n      dup5\n        /* \"ethereum/contracts/Logistics.sol\":5115:5135  order_info[_orderID] */\n      dup2\n      mstore\n      0x20\n      add\n      swap1\n      dup2\n      mstore\n      0x20\n      add\n      0x00\n      keccak256\n        /* \"ethereum/contracts/Logistics.sol\":5115:5145  order_info[_orderID]._receiver */\n      0x01\n      add\n      0x00\n        /* \"ethereum/contracts/Logistics.sol\":5115:5157  order_info[_orderID]._receiver = _receiver */\n      0x0100\n      exp\n      dup2\n      sload\n      dup2\n      0xffffffffffffffffffffffffffffffffffffffff\n      mul\n      not\n      and\n      swap1\n      dup4\n      0xffffffffffffffffffffffffffffffffffffffff\n      and\n      mul\n      or\n      swap1\n      sstore\n      pop\n        /* \"ethereum/contracts/Logistics.sol\":5198:5211  status_choice */\n      0x02\n      0x00\n      swap1\n      sload\n      swap1\n      0x0100\n      exp\n      swap1\n      div\n      0xff\n      and\n        /* \"ethereum/contracts/Logistics.sol\":5167:5177  order_info */\n      0x04\n        /* \"ethereum/contracts/Logistics.sol\":5167:5187  order_info[_orderID] */\n      0x00\n        /* \"ethereum/contracts/Logistics.sol\":5178:5186  _orderID */\n      dup5\n        /* \"ethereum/contracts/Logistics.sol\":5167:5187  order_info[_orderID] */\n      dup2\n      mstore\n      0x20\n      add\n      swap1\n      dup2\n      mstore\n      0x20\n      add\n      0x00\n      keccak256\n        /* \"ethereum/contracts/Logistics.sol\":5167:5195  order_info[_orderID]._status */\n      0x01\n      add\n      0x14\n        /* \"ethereum/contracts/Logistics.sol\":5167:5211  order_info[_orderID]._status = status_choice */\n      0x0100\n      exp\n      dup2\n      sload\n      dup2\n      0xff\n      mul\n      not\n      and\n      swap1\n      dup4\n      0x06\n      dup2\n      gt\n      iszero\n      tag_208\n      jumpi\n      tag_209\n      tag_146\n      jump\t// in\n    tag_209:\n    tag_208:\n      mul\n      or\n      swap1\n      sstore\n      pop\n        /* \"ethereum/contracts/Logistics.sol\":5266:5279  status_choice */\n      0x02\n      0x00\n      swap1\n      sload\n      swap1\n      0x0100\n      exp\n      swap1\n      div\n      0xff\n      and\n        /* \"ethereum/contracts/Logistics.sol\":5227:5280  ChangeOrderStatus(_orderID, _receiver, status_choice) */\n      0x06\n      dup2\n      gt\n      iszero\n      tag_210\n      jumpi\n      tag_211\n      tag_146\n      jump\t// in\n    tag_211:\n    tag_210:\n        /* \"ethereum/contracts/Logistics.sol\":5255:5264  _receiver */\n      dup2\n        /* \"ethereum/contracts/Logistics.sol\":5227:5280  ChangeOrderStatus(_orderID, _receiver, status_choice) */\n      0xffffffffffffffffffffffffffffffffffffffff\n      and\n        /* \"ethereum/contracts/Logistics.sol\":5245:5253  _orderID */\n      dup4\n        /* \"ethereum/contracts/Logistics.sol\":5227:5280  ChangeOrderStatus(_orderID, _receiver, status_choice) */\n      0xcc091c952960b84af994b58e2349b735a74341ba5869f73ed41ce589750b6441\n      mload(0x40)\n      mload(0x40)\n      dup1\n      swap2\n      sub\n      swap1\n      log4\n        /* \"ethereum/contracts/Logistics.sol\":4953:5287  function paid(uint _orderID, address _receiver) public onlyOwner {... */\n      pop\n      pop\n      jump\t// out\n        /* \"ethereum/contracts/Logistics.sol\":4597:4947  function inProduction(uint _orderID, address _receiver) public onlyOwner {... */\n    tag_77:\n        /* \"ethereum/contracts/Logistics.sol\":279:289  msg.sender */\n      caller\n        /* \"ethereum/contracts/Logistics.sol\":270:289  owner == msg.sender */\n      0xffffffffffffffffffffffffffffffffffffffff\n      and\n        /* \"ethereum/contracts/Logistics.sol\":270:275  owner */\n      0x00\n      dup1\n      sload\n      swap1\n      0x0100\n      exp\n      swap1\n      div\n      0xffffffffffffffffffffffffffffffffffffffff\n      and\n        /* \"ethereum/contracts/Logistics.sol\":270:289  owner == msg.sender */\n      0xffffffffffffffffffffffffffffffffffffffff\n      and\n      eq\n        /* \"ethereum/contracts/Logistics.sol\":262:307  require(owner == msg.sender, \"Not an owner!\") */\n      tag_213\n      jumpi\n      mload(0x40)\n      0x08c379a000000000000000000000000000000000000000000000000000000000\n      dup2\n      mstore\n      0x04\n      add\n      tag_214\n      swap1\n      tag_125\n      jump\t// in\n    tag_214:\n      mload(0x40)\n      dup1\n      swap2\n      sub\n      swap1\n      revert\n    tag_213:\n        /* \"ethereum/contracts/Logistics.sol\":4696:4716  Status.In_Production */\n      0x00\n        /* \"ethereum/contracts/Logistics.sol\":4680:4693  status_choice */\n      0x02\n      0x00\n        /* \"ethereum/contracts/Logistics.sol\":4680:4716  status_choice = Status.In_Production */\n      0x0100\n      exp\n      dup2\n      sload\n      dup2\n      0xff\n      mul\n      not\n      and\n      swap1\n      dup4\n      0x06\n      dup2\n      gt\n      iszero\n      tag_216\n      jumpi\n      tag_217\n      tag_146\n      jump\t// in\n    tag_217:\n    tag_216:\n      mul\n      or\n      swap1\n      sstore\n      pop\n        /* \"ethereum/contracts/Logistics.sol\":4758:4766  _orderID */\n      dup2\n        /* \"ethereum/contracts/Logistics.sol\":4726:4736  order_info */\n      0x04\n        /* \"ethereum/contracts/Logistics.sol\":4726:4746  order_info[_orderID] */\n      0x00\n        /* \"ethereum/contracts/Logistics.sol\":4737:4745  _orderID */\n      dup5\n        /* \"ethereum/contracts/Logistics.sol\":4726:4746  order_info[_orderID] */\n      dup2\n      mstore\n      0x20\n      add\n      swap1\n      dup2\n      mstore\n      0x20\n      add\n      0x00\n      keccak256\n        /* \"ethereum/contracts/Logistics.sol\":4726:4755  order_info[_orderID]._orderID */\n      0x00\n      add\n        /* \"ethereum/contracts/Logistics.sol\":4726:4766  order_info[_orderID]._orderID = _orderID */\n      dup2\n      swap1\n      sstore\n      pop\n        /* \"ethereum/contracts/Logistics.sol\":4809:4818  _receiver */\n      dup1\n        /* \"ethereum/contracts/Logistics.sol\":4776:4786  order_info */\n      0x04\n        /* \"ethereum/contracts/Logistics.sol\":4776:4796  order_info[_orderID] */\n      0x00\n        /* \"ethereum/contracts/Logistics.sol\":4787:4795  _orderID */\n      dup5\n        /* \"ethereum/contracts/Logistics.sol\":4776:4796  order_info[_orderID] */\n      dup2\n      mstore\n      0x20\n      add\n      swap1\n      dup2\n      mstore\n      0x20\n      add\n      0x00\n      keccak256\n        /* \"ethereum/contracts/Logistics.sol\":4776:4806  order_info[_orderID]._receiver */\n      0x01\n      add\n      0x00\n        /* \"ethereum/contracts/Logistics.sol\":4776:4818  order_info[_orderID]._receiver = _receiver */\n      0x0100\n      exp\n      dup2\n      sload\n      dup2\n      0xffffffffffffffffffffffffffffffffffffffff\n      mul\n      not\n      and\n      swap1\n      dup4\n      0xffffffffffffffffffffffffffffffffffffffff\n      and\n      mul\n      or\n      swap1\n      sstore\n      pop\n        /* \"ethereum/contracts/Logistics.sol\":4859:4872  status_choice */\n      0x02\n      0x00\n      swap1\n      sload\n      swap1\n      0x0100\n      exp\n      swap1\n      div\n      0xff\n      and\n        /* \"ethereum/contracts/Logistics.sol\":4828:4838  order_info */\n      0x04\n        /* \"ethereum/contracts/Logistics.sol\":4828:4848  order_info[_orderID] */\n      0x00\n        /* \"ethereum/contracts/Logistics.sol\":4839:4847  _orderID */\n      dup5\n        /* \"ethereum/contracts/Logistics.sol\":4828:4848  order_info[_orderID] */\n      dup2\n      mstore\n      0x20\n      add\n      swap1\n      dup2\n      mstore\n      0x20\n      add\n      0x00\n      keccak256\n        /* \"ethereum/contracts/Logistics.sol\":4828:4856  order_info[_orderID]._status */\n      0x01\n      add\n      0x14\n        /* \"ethereum/contracts/Logistics.sol\":4828:4872  order_info[_orderID]._status = status_choice */\n      0x0100\n      exp\n      dup2\n      sload\n      dup2\n      0xff\n      mul\n      not\n      and\n      swap1\n      dup4\n      0x06\n      dup2\n      gt\n      iszero\n      tag_218\n      jumpi\n      tag_219\n      tag_146\n      jump\t// in\n    tag_219:\n    tag_218:\n      mul\n      or\n      swap1\n      sstore\n      pop\n        /* \"ethereum/contracts/Logistics.sol\":4926:4939  status_choice */\n      0x02\n      0x00\n      swap1\n      sload\n      swap1\n      0x0100\n      exp\n      swap1\n      div\n      0xff\n      and\n        /* \"ethereum/contracts/Logistics.sol\":4887:4940  ChangeOrderStatus(_orderID, _receiver, status_choice) */\n      0x06\n      dup2\n      gt\n      iszero\n      tag_220\n      jumpi\n      tag_221\n      tag_146\n      jump\t// in\n    tag_221:\n    tag_220:\n        /* \"ethereum/contracts/Logistics.sol\":4915:4924  _receiver */\n      dup2\n        /* \"ethereum/contracts/Logistics.sol\":4887:4940  ChangeOrderStatus(_orderID, _receiver, status_choice) */\n      0xffffffffffffffffffffffffffffffffffffffff\n      and\n        /* \"ethereum/contracts/Logistics.sol\":4905:4913  _orderID */\n      dup4\n        /* \"ethereum/contracts/Logistics.sol\":4887:4940  ChangeOrderStatus(_orderID, _receiver, status_choice) */\n      0xcc091c952960b84af994b58e2349b735a74341ba5869f73ed41ce589750b6441\n      mload(0x40)\n      mload(0x40)\n      dup1\n      swap2\n      sub\n      swap1\n      log4\n        /* \"ethereum/contracts/Logistics.sol\":4597:4947  function inProduction(uint _orderID, address _receiver) public onlyOwner {... */\n      pop\n      pop\n      jump\t// out\n        /* \"ethereum/contracts/Logistics.sol\":1194:1234  mapping(uint => Order) public order_info */\n    tag_81:\n      mstore(0x20, 0x04)\n      dup1\n      0x00\n      mstore\n      keccak256(0x00, 0x40)\n      0x00\n      swap2\n      pop\n      swap1\n      pop\n      dup1\n      0x00\n      add\n      sload\n      swap1\n      dup1\n      0x01\n      add\n      0x00\n      swap1\n      sload\n      swap1\n      0x0100\n      exp\n      swap1\n      div\n      0xffffffffffffffffffffffffffffffffffffffff\n      and\n      swap1\n      dup1\n      0x01\n      add\n      0x14\n      swap1\n      sload\n      swap1\n      0x0100\n      exp\n      swap1\n      div\n      0xff\n      and\n      swap1\n      pop\n      dup4\n      jump\t// out\n        /* \"ethereum/contracts/Logistics.sol\":1900:2651  function component_income(string memory _manufacturer, address _manufacturerAddress, string memory _componentName) public onlyOwner returns (bytes32) {... */\n    tag_88:\n        /* \"ethereum/contracts/Logistics.sol\":2041:2048  bytes32 */\n      0x00\n        /* \"ethereum/contracts/Logistics.sol\":279:289  msg.sender */\n      caller\n        /* \"ethereum/contracts/Logistics.sol\":270:289  owner == msg.sender */\n      0xffffffffffffffffffffffffffffffffffffffff\n      and\n        /* \"ethereum/contracts/Logistics.sol\":270:275  owner */\n      0x00\n      dup1\n      sload\n      swap1\n      0x0100\n      exp\n      swap1\n      div\n      0xffffffffffffffffffffffffffffffffffffffff\n      and\n        /* \"ethereum/contracts/Logistics.sol\":270:289  owner == msg.sender */\n      0xffffffffffffffffffffffffffffffffffffffff\n      and\n      eq\n        /* \"ethereum/contracts/Logistics.sol\":262:307  require(owner == msg.sender, \"Not an owner!\") */\n      tag_223\n      jumpi\n      mload(0x40)\n      0x08c379a000000000000000000000000000000000000000000000000000000000\n      dup2\n      mstore\n      0x04\n      add\n      tag_224\n      swap1\n      tag_125\n      jump\t// in\n    tag_224:\n      mload(0x40)\n      dup1\n      swap2\n      sub\n      swap1\n      revert\n    tag_223:\n        /* \"ethereum/contracts/Logistics.sol\":2060:2089  bytes32 uinqueComponentNumber */\n      0x00\n        /* \"ethereum/contracts/Logistics.sol\":2119:2132  _manufacturer */\n      dup5\n        /* \"ethereum/contracts/Logistics.sol\":2134:2148  _componentName */\n      dup4\n        /* \"ethereum/contracts/Logistics.sol\":2150:2165  block.timestamp */\n      timestamp\n        /* \"ethereum/contracts/Logistics.sol\":2102:2166  abi.encodePacked(_manufacturer, _componentName, block.timestamp) */\n      add(0x20, mload(0x40))\n      tag_226\n      swap4\n      swap3\n      swap2\n      swap1\n      tag_227\n      jump\t// in\n    tag_226:\n      mload(0x40)\n      0x20\n      dup2\n      dup4\n      sub\n      sub\n      dup2\n      mstore\n      swap1\n      0x40\n      mstore\n        /* \"ethereum/contracts/Logistics.sol\":2092:2167  keccak256(abi.encodePacked(_manufacturer, _componentName, block.timestamp)) */\n      dup1\n      mload\n      swap1\n      0x20\n      add\n      keccak256\n        /* \"ethereum/contracts/Logistics.sol\":2060:2167  bytes32 uinqueComponentNumber = keccak256(abi.encodePacked(_manufacturer, _componentName, block.timestamp)) */\n      swap1\n      pop\n        /* \"ethereum/contracts/Logistics.sol\":2235:2248  _manufacturer */\n      dup5\n        /* \"ethereum/contracts/Logistics.sol\":2177:2191  component_info */\n      0x06\n        /* \"ethereum/contracts/Logistics.sol\":2177:2214  component_info[uinqueComponentNumber] */\n      0x00\n        /* \"ethereum/contracts/Logistics.sol\":2192:2213  uinqueComponentNumber */\n      dup4\n        /* \"ethereum/contracts/Logistics.sol\":2177:2214  component_info[uinqueComponentNumber] */\n      dup2\n      mstore\n      0x20\n      add\n      swap1\n      dup2\n      mstore\n      0x20\n      add\n      0x00\n      keccak256\n        /* \"ethereum/contracts/Logistics.sol\":2177:2232  component_info[uinqueComponentNumber]._manufacturerName */\n      0x00\n      add\n        /* \"ethereum/contracts/Logistics.sol\":2177:2248  component_info[uinqueComponentNumber]._manufacturerName = _manufacturer */\n      swap1\n      dup2\n      tag_228\n      swap2\n      swap1\n      tag_229\n      jump\t// in\n    tag_228:\n      pop\n        /* \"ethereum/contracts/Logistics.sol\":2319:2339  _manufacturerAddress */\n      dup4\n        /* \"ethereum/contracts/Logistics.sol\":2258:2272  component_info */\n      0x06\n        /* \"ethereum/contracts/Logistics.sol\":2258:2295  component_info[uinqueComponentNumber] */\n      0x00\n        /* \"ethereum/contracts/Logistics.sol\":2273:2294  uinqueComponentNumber */\n      dup4\n        /* \"ethereum/contracts/Logistics.sol\":2258:2295  component_info[uinqueComponentNumber] */\n      dup2\n      mstore\n      0x20\n      add\n      swap1\n      dup2\n      mstore\n      0x20\n      add\n      0x00\n      keccak256\n        /* \"ethereum/contracts/Logistics.sol\":2258:2316  component_info[uinqueComponentNumber]._manufacturerAddress */\n      0x01\n      add\n      0x00\n        /* \"ethereum/contracts/Logistics.sol\":2258:2339  component_info[uinqueComponentNumber]._manufacturerAddress = _manufacturerAddress */\n      0x0100\n      exp\n      dup2\n      sload\n      dup2\n      0xffffffffffffffffffffffffffffffffffffffff\n      mul\n      not\n      and\n      swap1\n      dup4\n      0xffffffffffffffffffffffffffffffffffffffff\n      and\n      mul\n      or\n      swap1\n      sstore\n      pop\n        /* \"ethereum/contracts/Logistics.sol\":2404:2418  _componentName */\n      dup3\n        /* \"ethereum/contracts/Logistics.sol\":2349:2363  component_info */\n      0x06\n        /* \"ethereum/contracts/Logistics.sol\":2349:2386  component_info[uinqueComponentNumber] */\n      0x00\n        /* \"ethereum/contracts/Logistics.sol\":2364:2385  uinqueComponentNumber */\n      dup4\n        /* \"ethereum/contracts/Logistics.sol\":2349:2386  component_info[uinqueComponentNumber] */\n      dup2\n      mstore\n      0x20\n      add\n      swap1\n      dup2\n      mstore\n      0x20\n      add\n      0x00\n      keccak256\n        /* \"ethereum/contracts/Logistics.sol\":2349:2401  component_info[uinqueComponentNumber]._componentName */\n      0x02\n      add\n        /* \"ethereum/contracts/Logistics.sol\":2349:2418  component_info[uinqueComponentNumber]._componentName = _componentName */\n      swap1\n      dup2\n      tag_230\n      swap2\n      swap1\n      tag_229\n      jump\t// in\n    tag_230:\n      pop\n        /* \"ethereum/contracts/Logistics.sol\":2494:2509  block.timestamp */\n      timestamp\n        /* \"ethereum/contracts/Logistics.sol\":2428:2442  component_info */\n      0x06\n        /* \"ethereum/contracts/Logistics.sol\":2428:2465  component_info[uinqueComponentNumber] */\n      0x00\n        /* \"ethereum/contracts/Logistics.sol\":2443:2464  uinqueComponentNumber */\n      dup4\n        /* \"ethereum/contracts/Logistics.sol\":2428:2465  component_info[uinqueComponentNumber] */\n      dup2\n      mstore\n      0x20\n      add\n      swap1\n      dup2\n      mstore\n      0x20\n      add\n      0x00\n      keccak256\n        /* \"ethereum/contracts/Logistics.sol\":2428:2491  component_info[uinqueComponentNumber]._componentTimestampIncome */\n      0x03\n      add\n        /* \"ethereum/contracts/Logistics.sol\":2428:2509  component_info[uinqueComponentNumber]._componentTimestampIncome = block.timestamp */\n      dup2\n      swap1\n      sstore\n      pop\n        /* \"ethereum/contracts/Logistics.sol\":2574:2588  _componentName */\n      dup3\n        /* \"ethereum/contracts/Logistics.sol\":2524:2606  NewComponent(_manufacturer, _manufacturerAddress, _componentName, block.timestamp) */\n      mload(0x40)\n      tag_231\n      swap2\n      swap1\n      tag_232\n      jump\t// in\n    tag_231:\n      mload(0x40)\n      dup1\n      swap2\n      sub\n      swap1\n      keccak256\n        /* \"ethereum/contracts/Logistics.sol\":2552:2572  _manufacturerAddress */\n      dup5\n        /* \"ethereum/contracts/Logistics.sol\":2524:2606  NewComponent(_manufacturer, _manufacturerAddress, _componentName, block.timestamp) */\n      0xffffffffffffffffffffffffffffffffffffffff\n      and\n        /* \"ethereum/contracts/Logistics.sol\":2537:2550  _manufacturer */\n      dup7\n        /* \"ethereum/contracts/Logistics.sol\":2524:2606  NewComponent(_manufacturer, _manufacturerAddress, _componentName, block.timestamp) */\n      mload(0x40)\n      tag_233\n      swap2\n      swap1\n      tag_232\n      jump\t// in\n    tag_233:\n      mload(0x40)\n      dup1\n      swap2\n      sub\n      swap1\n      keccak256\n      0x8c2006ded45e844ad517d061c1f0870ecc0fb1fdf9ba77b20f8ac6e3c92e739c\n        /* \"ethereum/contracts/Logistics.sol\":2590:2605  block.timestamp */\n      timestamp\n        /* \"ethereum/contracts/Logistics.sol\":2524:2606  NewComponent(_manufacturer, _manufacturerAddress, _componentName, block.timestamp) */\n      mload(0x40)\n      tag_234\n      swap2\n      swap1\n      tag_235\n      jump\t// in\n    tag_234:\n      mload(0x40)\n      dup1\n      swap2\n      sub\n      swap1\n      log4\n        /* \"ethereum/contracts/Logistics.sol\":2623:2644  uinqueComponentNumber */\n      dup1\n        /* \"ethereum/contracts/Logistics.sol\":2616:2644  return uinqueComponentNumber */\n      swap2\n      pop\n      pop\n        /* \"ethereum/contracts/Logistics.sol\":1900:2651  function component_income(string memory _manufacturer, address _manufacturerAddress, string memory _componentName) public onlyOwner returns (bytes32) {... */\n      swap4\n      swap3\n      pop\n      pop\n      pop\n      jump\t// out\n        /* \"ethereum/contracts/Logistics.sol\":3822:4103  function createNewOrder(uint orderID, bytes[] memory _finalProductUniqueNumbers) public onlyOwner {... */\n    tag_95:\n        /* \"ethereum/contracts/Logistics.sol\":279:289  msg.sender */\n      caller\n        /* \"ethereum/contracts/Logistics.sol\":270:289  owner == msg.sender */\n      0xffffffffffffffffffffffffffffffffffffffff\n      and\n        /* \"ethereum/contracts/Logistics.sol\":270:275  owner */\n      0x00\n      dup1\n      sload\n      swap1\n      0x0100\n      exp\n      swap1\n      div\n      0xffffffffffffffffffffffffffffffffffffffff\n      and\n        /* \"ethereum/contracts/Logistics.sol\":270:289  owner == msg.sender */\n      0xffffffffffffffffffffffffffffffffffffffff\n      and\n      eq\n        /* \"ethereum/contracts/Logistics.sol\":262:307  require(owner == msg.sender, \"Not an owner!\") */\n      tag_237\n      jumpi\n      mload(0x40)\n      0x08c379a000000000000000000000000000000000000000000000000000000000\n      dup2\n      mstore\n      0x04\n      add\n      tag_238\n      swap1\n      tag_125\n      jump\t// in\n    tag_238:\n      mload(0x40)\n      dup1\n      swap2\n      sub\n      swap1\n      revert\n    tag_237:\n        /* \"ethereum/contracts/Logistics.sol\":3988:4014  _finalProductUniqueNumbers */\n      dup1\n        /* \"ethereum/contracts/Logistics.sol\":3930:3949  order_with_products */\n      0x08\n        /* \"ethereum/contracts/Logistics.sol\":3930:3958  order_with_products[orderID] */\n      0x00\n        /* \"ethereum/contracts/Logistics.sol\":3950:3957  orderID */\n      dup5\n        /* \"ethereum/contracts/Logistics.sol\":3930:3958  order_with_products[orderID] */\n      dup2\n      mstore\n      0x20\n      add\n      swap1\n      dup2\n      mstore\n      0x20\n      add\n      0x00\n      keccak256\n        /* \"ethereum/contracts/Logistics.sol\":3930:3985  order_with_products[orderID]._finalProductUniqueNumbers */\n      0x00\n      add\n        /* \"ethereum/contracts/Logistics.sol\":3930:4014  order_with_products[orderID]._finalProductUniqueNumbers = _finalProductUniqueNumbers */\n      swap1\n      dup1\n      mload\n      swap1\n      0x20\n      add\n      swap1\n      tag_240\n      swap3\n      swap2\n      swap1\n      tag_241\n      jump\t// in\n    tag_240:\n      pop\n        /* \"ethereum/contracts/Logistics.sol\":4081:4096  block.timestamp */\n      timestamp\n        /* \"ethereum/contracts/Logistics.sol\":4024:4043  order_with_products */\n      0x08\n        /* \"ethereum/contracts/Logistics.sol\":4024:4052  order_with_products[orderID] */\n      0x00\n        /* \"ethereum/contracts/Logistics.sol\":4044:4051  orderID */\n      dup5\n        /* \"ethereum/contracts/Logistics.sol\":4024:4052  order_with_products[orderID] */\n      dup2\n      mstore\n      0x20\n      add\n      swap1\n      dup2\n      mstore\n      0x20\n      add\n      0x00\n      keccak256\n        /* \"ethereum/contracts/Logistics.sol\":4024:4078  order_with_products[orderID]._orderedProductsTimestamp */\n      0x01\n      add\n        /* \"ethereum/contracts/Logistics.sol\":4024:4096  order_with_products[orderID]._orderedProductsTimestamp = block.timestamp */\n      dup2\n      swap1\n      sstore\n      pop\n        /* \"ethereum/contracts/Logistics.sol\":3822:4103  function createNewOrder(uint orderID, bytes[] memory _finalProductUniqueNumbers) public onlyOwner {... */\n      pop\n      pop\n      jump\t// out\n        /* \"ethereum/contracts/Logistics.sol\":6877:7232  function returned(uint _orderID, address _receiver) public onlyOwner {... */\n    tag_99:\n        /* \"ethereum/contracts/Logistics.sol\":279:289  msg.sender */\n      caller\n        /* \"ethereum/contracts/Logistics.sol\":270:289  owner == msg.sender */\n      0xffffffffffffffffffffffffffffffffffffffff\n      and\n        /* \"ethereum/contracts/Logistics.sol\":270:275  owner */\n      0x00\n      dup1\n      sload\n      swap1\n      0x0100\n      exp\n      swap1\n      div\n      0xffffffffffffffffffffffffffffffffffffffff\n      and\n        /* \"ethereum/contracts/Logistics.sol\":270:289  owner == msg.sender */\n      0xffffffffffffffffffffffffffffffffffffffff\n      and\n      eq\n        /* \"ethereum/contracts/Logistics.sol\":262:307  require(owner == msg.sender, \"Not an owner!\") */\n      tag_243\n      jumpi\n      mload(0x40)\n      0x08c379a000000000000000000000000000000000000000000000000000000000\n      dup2\n      mstore\n      0x04\n      add\n      tag_244\n      swap1\n      tag_125\n      jump\t// in\n    tag_244:\n      mload(0x40)\n      dup1\n      swap2\n      sub\n      swap1\n      revert\n    tag_243:\n        /* \"ethereum/contracts/Logistics.sol\":6972:7000  Status.Returned_To_Warehouse */\n      0x06\n        /* \"ethereum/contracts/Logistics.sol\":6956:6969  status_choice */\n      0x02\n      0x00\n        /* \"ethereum/contracts/Logistics.sol\":6956:7000  status_choice = Status.Returned_To_Warehouse */\n      0x0100\n      exp\n      dup2\n      sload\n      dup2\n      0xff\n      mul\n      not\n      and\n      swap1\n      dup4\n      0x06\n      dup2\n      gt\n      iszero\n      tag_246\n      jumpi\n      tag_247\n      tag_146\n      jump\t// in\n    tag_247:\n    tag_246:\n      mul\n      or\n      swap1\n      sstore\n      pop\n        /* \"ethereum/contracts/Logistics.sol\":7042:7050  _orderID */\n      dup2\n        /* \"ethereum/contracts/Logistics.sol\":7010:7020  order_info */\n      0x04\n        /* \"ethereum/contracts/Logistics.sol\":7010:7030  order_info[_orderID] */\n      0x00\n        /* \"ethereum/contracts/Logistics.sol\":7021:7029  _orderID */\n      dup5\n        /* \"ethereum/contracts/Logistics.sol\":7010:7030  order_info[_orderID] */\n      dup2\n      mstore\n      0x20\n      add\n      swap1\n      dup2\n      mstore\n      0x20\n      add\n      0x00\n      keccak256\n        /* \"ethereum/contracts/Logistics.sol\":7010:7039  order_info[_orderID]._orderID */\n      0x00\n      add\n        /* \"ethereum/contracts/Logistics.sol\":7010:7050  order_info[_orderID]._orderID = _orderID */\n      dup2\n      swap1\n      sstore\n      pop\n        /* \"ethereum/contracts/Logistics.sol\":7093:7102  _receiver */\n      dup1\n        /* \"ethereum/contracts/Logistics.sol\":7060:7070  order_info */\n      0x04\n        /* \"ethereum/contracts/Logistics.sol\":7060:7080  order_info[_orderID] */\n      0x00\n        /* \"ethereum/contracts/Logistics.sol\":7071:7079  _orderID */\n      dup5\n        /* \"ethereum/contracts/Logistics.sol\":7060:7080  order_info[_orderID] */\n      dup2\n      mstore\n      0x20\n      add\n      swap1\n      dup2\n      mstore\n      0x20\n      add\n      0x00\n      keccak256\n        /* \"ethereum/contracts/Logistics.sol\":7060:7090  order_info[_orderID]._receiver */\n      0x01\n      add\n      0x00\n        /* \"ethereum/contracts/Logistics.sol\":7060:7102  order_info[_orderID]._receiver = _receiver */\n      0x0100\n      exp\n      dup2\n      sload\n      dup2\n      0xffffffffffffffffffffffffffffffffffffffff\n      mul\n      not\n      and\n      swap1\n      dup4\n      0xffffffffffffffffffffffffffffffffffffffff\n      and\n      mul\n      or\n      swap1\n      sstore\n      pop\n        /* \"ethereum/contracts/Logistics.sol\":7143:7156  status_choice */\n      0x02\n      0x00\n      swap1\n      sload\n      swap1\n      0x0100\n      exp\n      swap1\n      div\n      0xff\n      and\n        /* \"ethereum/contracts/Logistics.sol\":7112:7122  order_info */\n      0x04\n        /* \"ethereum/contracts/Logistics.sol\":7112:7132  order_info[_orderID] */\n      0x00\n        /* \"ethereum/contracts/Logistics.sol\":7123:7131  _orderID */\n      dup5\n        /* \"ethereum/contracts/Logistics.sol\":7112:7132  order_info[_orderID] */\n      dup2\n      mstore\n      0x20\n      add\n      swap1\n      dup2\n      mstore\n      0x20\n      add\n      0x00\n      keccak256\n        /* \"ethereum/contracts/Logistics.sol\":7112:7140  order_info[_orderID]._status */\n      0x01\n      add\n      0x14\n        /* \"ethereum/contracts/Logistics.sol\":7112:7156  order_info[_orderID]._status = status_choice */\n      0x0100\n      exp\n      dup2\n      sload\n      dup2\n      0xff\n      mul\n      not\n      and\n      swap1\n      dup4\n      0x06\n      dup2\n      gt\n      iszero\n      tag_248\n      jumpi\n      tag_249\n      tag_146\n      jump\t// in\n    tag_249:\n    tag_248:\n      mul\n      or\n      swap1\n      sstore\n      pop\n        /* \"ethereum/contracts/Logistics.sol\":7211:7224  status_choice */\n      0x02\n      0x00\n      swap1\n      sload\n      swap1\n      0x0100\n      exp\n      swap1\n      div\n      0xff\n      and\n        /* \"ethereum/contracts/Logistics.sol\":7172:7225  ChangeOrderStatus(_orderID, _receiver, status_choice) */\n      0x06\n      dup2\n      gt\n      iszero\n      tag_250\n      jumpi\n      tag_251\n      tag_146\n      jump\t// in\n    tag_251:\n    tag_250:\n        /* \"ethereum/contracts/Logistics.sol\":7200:7209  _receiver */\n      dup2\n        /* \"ethereum/contracts/Logistics.sol\":7172:7225  ChangeOrderStatus(_orderID, _receiver, status_choice) */\n      0xffffffffffffffffffffffffffffffffffffffff\n      and\n        /* \"ethereum/contracts/Logistics.sol\":7190:7198  _orderID */\n      dup4\n        /* \"ethereum/contracts/Logistics.sol\":7172:7225  ChangeOrderStatus(_orderID, _receiver, status_choice) */\n      0xcc091c952960b84af994b58e2349b735a74341ba5869f73ed41ce589750b6441\n      mload(0x40)\n      mload(0x40)\n      dup1\n      swap2\n      sub\n      swap1\n      log4\n        /* \"ethereum/contracts/Logistics.sol\":6877:7232  function returned(uint _orderID, address _receiver) public onlyOwner {... */\n      pop\n      pop\n      jump\t// out\n        /* \"ethereum/contracts/Logistics.sol\":1241:1293  mapping(uint => OrderPayments) public order_payments */\n    tag_103:\n      mstore(0x20, 0x05)\n      dup1\n      0x00\n      mstore\n      keccak256(0x00, 0x40)\n      0x00\n      swap2\n      pop\n      swap1\n      pop\n      dup1\n      0x00\n      add\n      sload\n      swap1\n      dup1\n      0x01\n      add\n      0x00\n      swap1\n      sload\n      swap1\n      0x0100\n      exp\n      swap1\n      div\n      0xffffffffffffffffffffffffffffffffffffffff\n      and\n      swap1\n      dup1\n      0x02\n      add\n      sload\n      swap1\n      pop\n      dup4\n      jump\t// out\n        /* \"ethereum/contracts/Logistics.sol\":6529:6871  function canceled(uint _orderID, address _receiver) public onlyOwner {... */\n    tag_109:\n        /* \"ethereum/contracts/Logistics.sol\":279:289  msg.sender */\n      caller\n        /* \"ethereum/contracts/Logistics.sol\":270:289  owner == msg.sender */\n      0xffffffffffffffffffffffffffffffffffffffff\n      and\n        /* \"ethereum/contracts/Logistics.sol\":270:275  owner */\n      0x00\n      dup1\n      sload\n      swap1\n      0x0100\n      exp\n      swap1\n      div\n      0xffffffffffffffffffffffffffffffffffffffff\n      and\n        /* \"ethereum/contracts/Logistics.sol\":270:289  owner == msg.sender */\n      0xffffffffffffffffffffffffffffffffffffffff\n      and\n      eq\n        /* \"ethereum/contracts/Logistics.sol\":262:307  require(owner == msg.sender, \"Not an owner!\") */\n      tag_253\n      jumpi\n      mload(0x40)\n      0x08c379a000000000000000000000000000000000000000000000000000000000\n      dup2\n      mstore\n      0x04\n      add\n      tag_254\n      swap1\n      tag_125\n      jump\t// in\n    tag_254:\n      mload(0x40)\n      dup1\n      swap2\n      sub\n      swap1\n      revert\n    tag_253:\n        /* \"ethereum/contracts/Logistics.sol\":6624:6639  Status.Canceled */\n      0x05\n        /* \"ethereum/contracts/Logistics.sol\":6608:6621  status_choice */\n      0x02\n      0x00\n        /* \"ethereum/contracts/Logistics.sol\":6608:6639  status_choice = Status.Canceled */\n      0x0100\n      exp\n      dup2\n      sload\n      dup2\n      0xff\n      mul\n      not\n      and\n      swap1\n      dup4\n      0x06\n      dup2\n      gt\n      iszero\n      tag_256\n      jumpi\n      tag_257\n      tag_146\n      jump\t// in\n    tag_257:\n    tag_256:\n      mul\n      or\n      swap1\n      sstore\n      pop\n        /* \"ethereum/contracts/Logistics.sol\":6681:6689  _orderID */\n      dup2\n        /* \"ethereum/contracts/Logistics.sol\":6649:6659  order_info */\n      0x04\n        /* \"ethereum/contracts/Logistics.sol\":6649:6669  order_info[_orderID] */\n      0x00\n        /* \"ethereum/contracts/Logistics.sol\":6660:6668  _orderID */\n      dup5\n        /* \"ethereum/contracts/Logistics.sol\":6649:6669  order_info[_orderID] */\n      dup2\n      mstore\n      0x20\n      add\n      swap1\n      dup2\n      mstore\n      0x20\n      add\n      0x00\n      keccak256\n        /* \"ethereum/contracts/Logistics.sol\":6649:6678  order_info[_orderID]._orderID */\n      0x00\n      add\n        /* \"ethereum/contracts/Logistics.sol\":6649:6689  order_info[_orderID]._orderID = _orderID */\n      dup2\n      swap1\n      sstore\n      pop\n        /* \"ethereum/contracts/Logistics.sol\":6732:6741  _receiver */\n      dup1\n        /* \"ethereum/contracts/Logistics.sol\":6699:6709  order_info */\n      0x04\n        /* \"ethereum/contracts/Logistics.sol\":6699:6719  order_info[_orderID] */\n      0x00\n        /* \"ethereum/contracts/Logistics.sol\":6710:6718  _orderID */\n      dup5\n        /* \"ethereum/contracts/Logistics.sol\":6699:6719  order_info[_orderID] */\n      dup2\n      mstore\n      0x20\n      add\n      swap1\n      dup2\n      mstore\n      0x20\n      add\n      0x00\n      keccak256\n        /* \"ethereum/contracts/Logistics.sol\":6699:6729  order_info[_orderID]._receiver */\n      0x01\n      add\n      0x00\n        /* \"ethereum/contracts/Logistics.sol\":6699:6741  order_info[_orderID]._receiver = _receiver */\n      0x0100\n      exp\n      dup2\n      sload\n      dup2\n      0xffffffffffffffffffffffffffffffffffffffff\n      mul\n      not\n      and\n      swap1\n      dup4\n      0xffffffffffffffffffffffffffffffffffffffff\n      and\n      mul\n      or\n      swap1\n      sstore\n      pop\n        /* \"ethereum/contracts/Logistics.sol\":6782:6795  status_choice */\n      0x02\n      0x00\n      swap1\n      sload\n      swap1\n      0x0100\n      exp\n      swap1\n      div\n      0xff\n      and\n        /* \"ethereum/contracts/Logistics.sol\":6751:6761  order_info */\n      0x04\n        /* \"ethereum/contracts/Logistics.sol\":6751:6771  order_info[_orderID] */\n      0x00\n        /* \"ethereum/contracts/Logistics.sol\":6762:6770  _orderID */\n      dup5\n        /* \"ethereum/contracts/Logistics.sol\":6751:6771  order_info[_orderID] */\n      dup2\n      mstore\n      0x20\n      add\n      swap1\n      dup2\n      mstore\n      0x20\n      add\n      0x00\n      keccak256\n        /* \"ethereum/contracts/Logistics.sol\":6751:6779  order_info[_orderID]._status */\n      0x01\n      add\n      0x14\n        /* \"ethereum/contracts/Logistics.sol\":6751:6795  order_info[_orderID]._status = status_choice */\n      0x0100\n      exp\n      dup2\n      sload\n      dup2\n      0xff\n      mul\n      not\n      and\n      swap1\n      dup4\n      0x06\n      dup2\n      gt\n      iszero\n      tag_258\n      jumpi\n      tag_259\n      tag_146\n      jump\t// in\n    tag_259:\n    tag_258:\n      mul\n      or\n      swap1\n      sstore\n      pop\n        /* \"ethereum/contracts/Logistics.sol\":6850:6863  status_choice */\n      0x02\n      0x00\n      swap1\n      sload\n      swap1\n      0x0100\n      exp\n      swap1\n      div\n      0xff\n      and\n        /* \"ethereum/contracts/Logistics.sol\":6811:6864  ChangeOrderStatus(_orderID, _receiver, status_choice) */\n      0x06\n      dup2\n      gt\n      iszero\n      tag_260\n      jumpi\n      tag_261\n      tag_146\n      jump\t// in\n    tag_261:\n    tag_260:\n        /* \"ethereum/contracts/Logistics.sol\":6839:6848  _receiver */\n      dup2\n        /* \"ethereum/contracts/Logistics.sol\":6811:6864  ChangeOrderStatus(_orderID, _receiver, status_choice) */\n      0xffffffffffffffffffffffffffffffffffffffff\n      and\n        /* \"ethereum/contracts/Logistics.sol\":6829:6837  _orderID */\n      dup4\n        /* \"ethereum/contracts/Logistics.sol\":6811:6864  ChangeOrderStatus(_orderID, _receiver, status_choice) */\n      0xcc091c952960b84af994b58e2349b735a74341ba5869f73ed41ce589750b6441\n      mload(0x40)\n      mload(0x40)\n      dup1\n      swap2\n      sub\n      swap1\n      log4\n        /* \"ethereum/contracts/Logistics.sol\":6529:6871  function canceled(uint _orderID, address _receiver) public onlyOwner {... */\n      pop\n      pop\n      jump\t// out\n        /* \"ethereum/contracts/Logistics.sol\":1300:1357  mapping(bytes32 => ComponentIncome) public component_info */\n    tag_113:\n      mstore(0x20, 0x06)\n      dup1\n      0x00\n      mstore\n      keccak256(0x00, 0x40)\n      0x00\n      swap2\n      pop\n      swap1\n      pop\n      dup1\n      0x00\n      add\n      dup1\n      sload\n      tag_262\n      swap1\n      tag_132\n      jump\t// in\n    tag_262:\n      dup1\n      0x1f\n      add\n      0x20\n      dup1\n      swap2\n      div\n      mul\n      0x20\n      add\n      mload(0x40)\n      swap1\n      dup2\n      add\n      0x40\n      mstore\n      dup1\n      swap3\n      swap2\n      swap1\n      dup2\n      dup2\n      mstore\n      0x20\n      add\n      dup3\n      dup1\n      sload\n      tag_263\n      swap1\n      tag_132\n      jump\t// in\n    tag_263:\n      dup1\n      iszero\n      tag_264\n      jumpi\n      dup1\n      0x1f\n      lt\n      tag_265\n      jumpi\n      0x0100\n      dup1\n      dup4\n      sload\n      div\n      mul\n      dup4\n      mstore\n      swap2\n      0x20\n      add\n      swap2\n      jump(tag_264)\n    tag_265:\n      dup3\n      add\n      swap2\n      swap1\n      0x00\n      mstore\n      keccak256(0x00, 0x20)\n      swap1\n    tag_266:\n      dup2\n      sload\n      dup2\n      mstore\n      swap1\n      0x01\n      add\n      swap1\n      0x20\n      add\n      dup1\n      dup4\n      gt\n      tag_266\n      jumpi\n      dup3\n      swap1\n      sub\n      0x1f\n      and\n      dup3\n      add\n      swap2\n    tag_264:\n      pop\n      pop\n      pop\n      pop\n      pop\n      swap1\n      dup1\n      0x01\n      add\n      0x00\n      swap1\n      sload\n      swap1\n      0x0100\n      exp\n      swap1\n      div\n      0xffffffffffffffffffffffffffffffffffffffff\n      and\n      swap1\n      dup1\n      0x02\n      add\n      dup1\n      sload\n      tag_267\n      swap1\n      tag_132\n      jump\t// in\n    tag_267:\n      dup1\n      0x1f\n      add\n      0x20\n      dup1\n      swap2\n      div\n      mul\n      0x20\n      add\n      mload(0x40)\n      swap1\n      dup2\n      add\n      0x40\n      mstore\n      dup1\n      swap3\n      swap2\n      swap1\n      dup2\n      dup2\n      mstore\n      0x20\n      add\n      dup3\n      dup1\n      sload\n      tag_268\n      swap1\n      tag_132\n      jump\t// in\n    tag_268:\n      dup1\n      iszero\n      tag_269\n      jumpi\n      dup1\n      0x1f\n      lt\n      tag_270\n      jumpi\n      0x0100\n      dup1\n      dup4\n      sload\n      div\n      mul\n      dup4\n      mstore\n      swap2\n      0x20\n      add\n      swap2\n      jump(tag_269)\n    tag_270:\n      dup3\n      add\n      swap2\n      swap1\n      0x00\n      mstore\n      keccak256(0x00, 0x20)\n      swap1\n    tag_271:\n      dup2\n      sload\n      dup2\n      mstore\n      swap1\n      0x01\n      add\n      swap1\n      0x20\n      add\n      dup1\n      dup4\n      gt\n      tag_271\n      jumpi\n      dup3\n      swap1\n      sub\n      0x1f\n      and\n      dup3\n      add\n      swap2\n    tag_269:\n      pop\n      pop\n      pop\n      pop\n      pop\n      swap1\n      dup1\n      0x03\n      add\n      sload\n      swap1\n      pop\n      dup5\n      jump\t// out\n        /* \"ethereum/contracts/Logistics.sol\":2815:3438  function final_product(string memory _productName, bytes[] memory _componentUiniqueNumber) public onlyOwner returns (bytes32) {        ... */\n    tag_120:\n        /* \"ethereum/contracts/Logistics.sol\":2932:2939  bytes32 */\n      0x00\n        /* \"ethereum/contracts/Logistics.sol\":279:289  msg.sender */\n      caller\n        /* \"ethereum/contracts/Logistics.sol\":270:289  owner == msg.sender */\n      0xffffffffffffffffffffffffffffffffffffffff\n      and\n        /* \"ethereum/contracts/Logistics.sol\":270:275  owner */\n      0x00\n      dup1\n      sload\n      swap1\n      0x0100\n      exp\n      swap1\n      div\n      0xffffffffffffffffffffffffffffffffffffffff\n      and\n        /* \"ethereum/contracts/Logistics.sol\":270:289  owner == msg.sender */\n      0xffffffffffffffffffffffffffffffffffffffff\n      and\n      eq\n        /* \"ethereum/contracts/Logistics.sol\":262:307  require(owner == msg.sender, \"Not an owner!\") */\n      tag_273\n      jumpi\n      mload(0x40)\n      0x08c379a000000000000000000000000000000000000000000000000000000000\n      dup2\n      mstore\n      0x04\n      add\n      tag_274\n      swap1\n      tag_125\n      jump\t// in\n    tag_274:\n      mload(0x40)\n      dup1\n      swap2\n      sub\n      swap1\n      revert\n    tag_273:\n        /* \"ethereum/contracts/Logistics.sol\":2959:2986  bytes32 uinqueProductNumber */\n      0x00\n        /* \"ethereum/contracts/Logistics.sol\":3016:3028  _productName */\n      dup4\n        /* \"ethereum/contracts/Logistics.sol\":3030:3045  block.timestamp */\n      timestamp\n        /* \"ethereum/contracts/Logistics.sol\":2999:3046  abi.encodePacked(_productName, block.timestamp) */\n      add(0x20, mload(0x40))\n      tag_276\n      swap3\n      swap2\n      swap1\n      tag_277\n      jump\t// in\n    tag_276:\n      mload(0x40)\n      0x20\n      dup2\n      dup4\n      sub\n      sub\n      dup2\n      mstore\n      swap1\n      0x40\n      mstore\n        /* \"ethereum/contracts/Logistics.sol\":2989:3047  keccak256(abi.encodePacked(_productName, block.timestamp)) */\n      dup1\n      mload\n      swap1\n      0x20\n      add\n      keccak256\n        /* \"ethereum/contracts/Logistics.sol\":2959:3047  bytes32 uinqueProductNumber = keccak256(abi.encodePacked(_productName, block.timestamp)) */\n      swap1\n      pop\n        /* \"ethereum/contracts/Logistics.sol\":3112:3124  _productName */\n      dup4\n        /* \"ethereum/contracts/Logistics.sol\":3057:3075  final_product_info */\n      0x07\n        /* \"ethereum/contracts/Logistics.sol\":3057:3096  final_product_info[uinqueProductNumber] */\n      0x00\n        /* \"ethereum/contracts/Logistics.sol\":3076:3095  uinqueProductNumber */\n      dup4\n        /* \"ethereum/contracts/Logistics.sol\":3057:3096  final_product_info[uinqueProductNumber] */\n      dup2\n      mstore\n      0x20\n      add\n      swap1\n      dup2\n      mstore\n      0x20\n      add\n      0x00\n      keccak256\n        /* \"ethereum/contracts/Logistics.sol\":3057:3109  final_product_info[uinqueProductNumber]._productName */\n      0x00\n      add\n        /* \"ethereum/contracts/Logistics.sol\":3057:3124  final_product_info[uinqueProductNumber]._productName = _productName */\n      swap1\n      dup2\n      tag_278\n      swap2\n      swap1\n      tag_229\n      jump\t// in\n    tag_278:\n      pop\n        /* \"ethereum/contracts/Logistics.sol\":3195:3218  _componentUiniqueNumber */\n      dup3\n        /* \"ethereum/contracts/Logistics.sol\":3134:3152  final_product_info */\n      0x07\n        /* \"ethereum/contracts/Logistics.sol\":3134:3173  final_product_info[uinqueProductNumber] */\n      0x00\n        /* \"ethereum/contracts/Logistics.sol\":3153:3172  uinqueProductNumber */\n      dup4\n        /* \"ethereum/contracts/Logistics.sol\":3134:3173  final_product_info[uinqueProductNumber] */\n      dup2\n      mstore\n      0x20\n      add\n      swap1\n      dup2\n      mstore\n      0x20\n      add\n      0x00\n      keccak256\n        /* \"ethereum/contracts/Logistics.sol\":3134:3192  final_product_info[uinqueProductNumber]._productComponents */\n      0x01\n      add\n        /* \"ethereum/contracts/Logistics.sol\":3134:3218  final_product_info[uinqueProductNumber]._productComponents = _componentUiniqueNumber */\n      swap1\n      dup1\n      mload\n      swap1\n      0x20\n      add\n      swap1\n      tag_279\n      swap3\n      swap2\n      swap1\n      tag_241\n      jump\t// in\n    tag_279:\n      pop\n        /* \"ethereum/contracts/Logistics.sol\":3293:3308  block.timestamp */\n      timestamp\n        /* \"ethereum/contracts/Logistics.sol\":3228:3246  final_product_info */\n      0x07\n        /* \"ethereum/contracts/Logistics.sol\":3228:3267  final_product_info[uinqueProductNumber] */\n      0x00\n        /* \"ethereum/contracts/Logistics.sol\":3247:3266  uinqueProductNumber */\n      dup4\n        /* \"ethereum/contracts/Logistics.sol\":3228:3267  final_product_info[uinqueProductNumber] */\n      dup2\n      mstore\n      0x20\n      add\n      swap1\n      dup2\n      mstore\n      0x20\n      add\n      0x00\n      keccak256\n        /* \"ethereum/contracts/Logistics.sol\":3228:3290  final_product_info[uinqueProductNumber]._finalProductTimestamp */\n      0x02\n      add\n        /* \"ethereum/contracts/Logistics.sol\":3228:3308  final_product_info[uinqueProductNumber]._finalProductTimestamp = block.timestamp */\n      dup2\n      swap1\n      sstore\n      pop\n        /* \"ethereum/contracts/Logistics.sol\":3354:3377  _componentUiniqueNumber */\n      dup3\n        /* \"ethereum/contracts/Logistics.sol\":3323:3395  FinalProductInfo(_productName, _componentUiniqueNumber, block.timestamp) */\n      mload(0x40)\n      tag_280\n      swap2\n      swap1\n      tag_281\n      jump\t// in\n    tag_280:\n      mload(0x40)\n      dup1\n      swap2\n      sub\n      swap1\n      keccak256\n        /* \"ethereum/contracts/Logistics.sol\":3340:3352  _productName */\n      dup5\n        /* \"ethereum/contracts/Logistics.sol\":3323:3395  FinalProductInfo(_productName, _componentUiniqueNumber, block.timestamp) */\n      mload(0x40)\n      tag_282\n      swap2\n      swap1\n      tag_232\n      jump\t// in\n    tag_282:\n      mload(0x40)\n      dup1\n      swap2\n      sub\n      swap1\n      keccak256\n      0xdf649c1e3d944311d966db43c9bc972db16d6e58ec816f2810a46196475326d4\n        /* \"ethereum/contracts/Logistics.sol\":3379:3394  block.timestamp */\n      timestamp\n        /* \"ethereum/contracts/Logistics.sol\":3323:3395  FinalProductInfo(_productName, _componentUiniqueNumber, block.timestamp) */\n      mload(0x40)\n      tag_283\n      swap2\n      swap1\n      tag_235\n      jump\t// in\n    tag_283:\n      mload(0x40)\n      dup1\n      swap2\n      sub\n      swap1\n      log3\n        /* \"ethereum/contracts/Logistics.sol\":3412:3431  uinqueProductNumber */\n      dup1\n        /* \"ethereum/contracts/Logistics.sol\":3405:3431  return uinqueProductNumber */\n      swap2\n      pop\n      pop\n        /* \"ethereum/contracts/Logistics.sol\":2815:3438  function final_product(string memory _productName, bytes[] memory _componentUiniqueNumber) public onlyOwner returns (bytes32) {        ... */\n      swap3\n      swap2\n      pop\n      pop\n      jump\t// out\n    tag_241:\n      dup3\n      dup1\n      sload\n      dup3\n      dup3\n      sstore\n      swap1\n      0x00\n      mstore\n      keccak256(0x00, 0x20)\n      swap1\n      dup2\n      add\n      swap3\n      dup3\n      iszero\n      tag_284\n      jumpi\n      swap2\n      0x20\n      mul\n      dup3\n      add\n    tag_285:\n      dup3\n      dup2\n      gt\n      iszero\n      tag_286\n      jumpi\n      dup3\n      mload\n      dup3\n      swap1\n      dup2\n      tag_287\n      swap2\n      swap1\n      tag_288\n      jump\t// in\n    tag_287:\n      pop\n      swap2\n      0x20\n      add\n      swap2\n      swap1\n      0x01\n      add\n      swap1\n      jump(tag_285)\n    tag_286:\n    tag_284:\n      pop\n      swap1\n      pop\n      tag_289\n      swap2\n      swap1\n      tag_290\n      jump\t// in\n    tag_289:\n      pop\n      swap1\n      jump\t// out\n    tag_290:\n    tag_291:\n      dup1\n      dup3\n      gt\n      iszero\n      tag_292\n      jumpi\n      0x00\n      dup2\n      dup2\n      tag_293\n      swap2\n      swap1\n      tag_294\n      jump\t// in\n    tag_293:\n      pop\n      0x01\n      add\n      jump(tag_291)\n    tag_292:\n      pop\n      swap1\n      jump\t// out\n    tag_294:\n      pop\n      dup1\n      sload\n      tag_295\n      swap1\n      tag_132\n      jump\t// in\n    tag_295:\n      0x00\n      dup3\n      sstore\n      dup1\n      0x1f\n      lt\n      tag_297\n      jumpi\n      pop\n      jump(tag_296)\n    tag_297:\n      0x1f\n      add\n      0x20\n      swap1\n      div\n      swap1\n      0x00\n      mstore\n      keccak256(0x00, 0x20)\n      swap1\n      dup2\n      add\n      swap1\n      tag_298\n      swap2\n      swap1\n      tag_299\n      jump\t// in\n    tag_298:\n    tag_296:\n      pop\n      jump\t// out\n    tag_299:\n    tag_300:\n      dup1\n      dup3\n      gt\n      iszero\n      tag_301\n      jumpi\n      0x00\n      dup2\n      0x00\n      swap1\n      sstore\n      pop\n      0x01\n      add\n      jump(tag_300)\n    tag_301:\n      pop\n      swap1\n      jump\t// out\n        /* \"#utility.yul\":7:82   */\n    tag_302:\n        /* \"#utility.yul\":40:46   */\n      0x00\n        /* \"#utility.yul\":73:75   */\n      0x40\n        /* \"#utility.yul\":67:76   */\n      mload\n        /* \"#utility.yul\":57:76   */\n      swap1\n      pop\n        /* \"#utility.yul\":7:82   */\n      swap1\n      jump\t// out\n        /* \"#utility.yul\":88:205   */\n    tag_303:\n        /* \"#utility.yul\":197:198   */\n      0x00\n        /* \"#utility.yul\":194:195   */\n      dup1\n        /* \"#utility.yul\":187:199   */\n      revert\n        /* \"#utility.yul\":211:328   */\n    tag_304:\n        /* \"#utility.yul\":320:321   */\n      0x00\n        /* \"#utility.yul\":317:318   */\n      dup1\n        /* \"#utility.yul\":310:322   */\n      revert\n        /* \"#utility.yul\":334:411   */\n    tag_305:\n        /* \"#utility.yul\":371:378   */\n      0x00\n        /* \"#utility.yul\":400:405   */\n      dup2\n        /* \"#utility.yul\":389:405   */\n      swap1\n      pop\n        /* \"#utility.yul\":334:411   */\n      swap2\n      swap1\n      pop\n      jump\t// out\n        /* \"#utility.yul\":417:539   */\n    tag_306:\n        /* \"#utility.yul\":490:514   */\n      tag_396\n        /* \"#utility.yul\":508:513   */\n      dup2\n        /* \"#utility.yul\":490:514   */\n      tag_305\n      jump\t// in\n    tag_396:\n        /* \"#utility.yul\":483:488   */\n      dup2\n        /* \"#utility.yul\":480:515   */\n      eq\n        /* \"#utility.yul\":470:533   */\n      tag_397\n      jumpi\n        /* \"#utility.yul\":529:530   */\n      0x00\n        /* \"#utility.yul\":526:527   */\n      dup1\n        /* \"#utility.yul\":519:531   */\n      revert\n        /* \"#utility.yul\":470:533   */\n    tag_397:\n        /* \"#utility.yul\":417:539   */\n      pop\n      jump\t// out\n        /* \"#utility.yul\":545:684   */\n    tag_307:\n        /* \"#utility.yul\":591:596   */\n      0x00\n        /* \"#utility.yul\":629:635   */\n      dup2\n        /* \"#utility.yul\":616:636   */\n      calldataload\n        /* \"#utility.yul\":607:636   */\n      swap1\n      pop\n        /* \"#utility.yul\":645:678   */\n      tag_399\n        /* \"#utility.yul\":672:677   */\n      dup2\n        /* \"#utility.yul\":645:678   */\n      tag_306\n      jump\t// in\n    tag_399:\n        /* \"#utility.yul\":545:684   */\n      swap3\n      swap2\n      pop\n      pop\n      jump\t// out\n        /* \"#utility.yul\":690:1019   */\n    tag_27:\n        /* \"#utility.yul\":749:755   */\n      0x00\n        /* \"#utility.yul\":798:800   */\n      0x20\n        /* \"#utility.yul\":786:795   */\n      dup3\n        /* \"#utility.yul\":777:784   */\n      dup5\n        /* \"#utility.yul\":773:796   */\n      sub\n        /* \"#utility.yul\":769:801   */\n      slt\n        /* \"#utility.yul\":766:885   */\n      iszero\n      tag_401\n      jumpi\n        /* \"#utility.yul\":804:883   */\n      tag_402\n      tag_303\n      jump\t// in\n    tag_402:\n        /* \"#utility.yul\":766:885   */\n    tag_401:\n        /* \"#utility.yul\":924:925   */\n      0x00\n        /* \"#utility.yul\":949:1002   */\n      tag_403\n        /* \"#utility.yul\":994:1001   */\n      dup5\n        /* \"#utility.yul\":985:991   */\n      dup3\n        /* \"#utility.yul\":974:983   */\n      dup6\n        /* \"#utility.yul\":970:992   */\n      add\n        /* \"#utility.yul\":949:1002   */\n      tag_307\n      jump\t// in\n    tag_403:\n        /* \"#utility.yul\":939:1002   */\n      swap2\n      pop\n        /* \"#utility.yul\":895:1012   */\n      pop\n        /* \"#utility.yul\":690:1019   */\n      swap3\n      swap2\n      pop\n      pop\n      jump\t// out\n        /* \"#utility.yul\":1025:1143   */\n    tag_308:\n        /* \"#utility.yul\":1112:1136   */\n      tag_405\n        /* \"#utility.yul\":1130:1135   */\n      dup2\n        /* \"#utility.yul\":1112:1136   */\n      tag_305\n      jump\t// in\n    tag_405:\n        /* \"#utility.yul\":1107:1110   */\n      dup3\n        /* \"#utility.yul\":1100:1137   */\n      mstore\n        /* \"#utility.yul\":1025:1143   */\n      pop\n      pop\n      jump\t// out\n        /* \"#utility.yul\":1149:1272   */\n    tag_309:\n        /* \"#utility.yul\":1225:1231   */\n      0x00\n        /* \"#utility.yul\":1259:1264   */\n      dup2\n        /* \"#utility.yul\":1253:1265   */\n      mload\n        /* \"#utility.yul\":1243:1265   */\n      swap1\n      pop\n        /* \"#utility.yul\":1149:1272   */\n      swap2\n      swap1\n      pop\n      jump\t// out\n        /* \"#utility.yul\":1278:1471   */\n    tag_310:\n        /* \"#utility.yul\":1386:1397   */\n      0x00\n        /* \"#utility.yul\":1420:1426   */\n      dup3\n        /* \"#utility.yul\":1415:1418   */\n      dup3\n        /* \"#utility.yul\":1408:1427   */\n      mstore\n        /* \"#utility.yul\":1460:1464   */\n      0x20\n        /* \"#utility.yul\":1455:1458   */\n      dup3\n        /* \"#utility.yul\":1451:1465   */\n      add\n        /* \"#utility.yul\":1436:1465   */\n      swap1\n      pop\n        /* \"#utility.yul\":1278:1471   */\n      swap3\n      swap2\n      pop\n      pop\n      jump\t// out\n        /* \"#utility.yul\":1477:1618   */\n    tag_311:\n        /* \"#utility.yul\":1553:1557   */\n      0x00\n        /* \"#utility.yul\":1576:1579   */\n      dup2\n        /* \"#utility.yul\":1568:1579   */\n      swap1\n      pop\n        /* \"#utility.yul\":1606:1610   */\n      0x20\n        /* \"#utility.yul\":1601:1604   */\n      dup3\n        /* \"#utility.yul\":1597:1611   */\n      add\n        /* \"#utility.yul\":1589:1611   */\n      swap1\n      pop\n        /* \"#utility.yul\":1477:1618   */\n      swap2\n      swap1\n      pop\n      jump\t// out\n        /* \"#utility.yul\":1624:1722   */\n    tag_312:\n        /* \"#utility.yul\":1675:1681   */\n      0x00\n        /* \"#utility.yul\":1709:1714   */\n      dup2\n        /* \"#utility.yul\":1703:1715   */\n      mload\n        /* \"#utility.yul\":1693:1715   */\n      swap1\n      pop\n        /* \"#utility.yul\":1624:1722   */\n      swap2\n      swap1\n      pop\n      jump\t// out\n        /* \"#utility.yul\":1728:1886   */\n    tag_313:\n        /* \"#utility.yul\":1801:1812   */\n      0x00\n        /* \"#utility.yul\":1835:1841   */\n      dup3\n        /* \"#utility.yul\":1830:1833   */\n      dup3\n        /* \"#utility.yul\":1823:1842   */\n      mstore\n        /* \"#utility.yul\":1875:1879   */\n      0x20\n        /* \"#utility.yul\":1870:1873   */\n      dup3\n        /* \"#utility.yul\":1866:1880   */\n      add\n        /* \"#utility.yul\":1851:1880   */\n      swap1\n      pop\n        /* \"#utility.yul\":1728:1886   */\n      swap3\n      swap2\n      pop\n      pop\n      jump\t// out\n        /* \"#utility.yul\":1892:2138   */\n    tag_314:\n        /* \"#utility.yul\":1973:1974   */\n      0x00\n        /* \"#utility.yul\":1983:2096   */\n    tag_412:\n        /* \"#utility.yul\":1997:2003   */\n      dup4\n        /* \"#utility.yul\":1994:1995   */\n      dup2\n        /* \"#utility.yul\":1991:2004   */\n      lt\n        /* \"#utility.yul\":1983:2096   */\n      iszero\n      tag_414\n      jumpi\n        /* \"#utility.yul\":2082:2083   */\n      dup1\n        /* \"#utility.yul\":2077:2080   */\n      dup3\n        /* \"#utility.yul\":2073:2084   */\n      add\n        /* \"#utility.yul\":2067:2085   */\n      mload\n        /* \"#utility.yul\":2063:2064   */\n      dup2\n        /* \"#utility.yul\":2058:2061   */\n      dup5\n        /* \"#utility.yul\":2054:2065   */\n      add\n        /* \"#utility.yul\":2047:2086   */\n      mstore\n        /* \"#utility.yul\":2019:2021   */\n      0x20\n        /* \"#utility.yul\":2016:2017   */\n      dup2\n        /* \"#utility.yul\":2012:2022   */\n      add\n        /* \"#utility.yul\":2007:2022   */\n      swap1\n      pop\n        /* \"#utility.yul\":1983:2096   */\n      jump(tag_412)\n    tag_414:\n        /* \"#utility.yul\":2130:2131   */\n      0x00\n        /* \"#utility.yul\":2121:2127   */\n      dup5\n        /* \"#utility.yul\":2116:2119   */\n      dup5\n        /* \"#utility.yul\":2112:2128   */\n      add\n        /* \"#utility.yul\":2105:2132   */\n      mstore\n        /* \"#utility.yul\":1954:2138   */\n      pop\n        /* \"#utility.yul\":1892:2138   */\n      pop\n      pop\n      pop\n      jump\t// out\n        /* \"#utility.yul\":2144:2246   */\n    tag_315:\n        /* \"#utility.yul\":2185:2191   */\n      0x00\n        /* \"#utility.yul\":2236:2238   */\n      0x1f\n        /* \"#utility.yul\":2232:2239   */\n      not\n        /* \"#utility.yul\":2227:2229   */\n      0x1f\n        /* \"#utility.yul\":2220:2225   */\n      dup4\n        /* \"#utility.yul\":2216:2230   */\n      add\n        /* \"#utility.yul\":2212:2240   */\n      and\n        /* \"#utility.yul\":2202:2240   */\n      swap1\n      pop\n        /* \"#utility.yul\":2144:2246   */\n      swap2\n      swap1\n      pop\n      jump\t// out\n        /* \"#utility.yul\":2252:2605   */\n    tag_316:\n        /* \"#utility.yul\":2328:2331   */\n      0x00\n        /* \"#utility.yul\":2356:2394   */\n      tag_417\n        /* \"#utility.yul\":2388:2393   */\n      dup3\n        /* \"#utility.yul\":2356:2394   */\n      tag_312\n      jump\t// in\n    tag_417:\n        /* \"#utility.yul\":2410:2470   */\n      tag_418\n        /* \"#utility.yul\":2463:2469   */\n      dup2\n        /* \"#utility.yul\":2458:2461   */\n      dup6\n        /* \"#utility.yul\":2410:2470   */\n      tag_313\n      jump\t// in\n    tag_418:\n        /* \"#utility.yul\":2403:2470   */\n      swap4\n      pop\n        /* \"#utility.yul\":2479:2544   */\n      tag_419\n        /* \"#utility.yul\":2537:2543   */\n      dup2\n        /* \"#utility.yul\":2532:2535   */\n      dup6\n        /* \"#utility.yul\":2525:2529   */\n      0x20\n        /* \"#utility.yul\":2518:2523   */\n      dup7\n        /* \"#utility.yul\":2514:2530   */\n      add\n        /* \"#utility.yul\":2479:2544   */\n      tag_314\n      jump\t// in\n    tag_419:\n        /* \"#utility.yul\":2569:2598   */\n      tag_420\n        /* \"#utility.yul\":2591:2597   */\n      dup2\n        /* \"#utility.yul\":2569:2598   */\n      tag_315\n      jump\t// in\n    tag_420:\n        /* \"#utility.yul\":2564:2567   */\n      dup5\n        /* \"#utility.yul\":2560:2599   */\n      add\n        /* \"#utility.yul\":2553:2599   */\n      swap2\n      pop\n        /* \"#utility.yul\":2332:2605   */\n      pop\n        /* \"#utility.yul\":2252:2605   */\n      swap3\n      swap2\n      pop\n      pop\n      jump\t// out\n        /* \"#utility.yul\":2611:2803   */\n    tag_317:\n        /* \"#utility.yul\":2698:2708   */\n      0x00\n        /* \"#utility.yul\":2733:2797   */\n      tag_422\n        /* \"#utility.yul\":2793:2796   */\n      dup4\n        /* \"#utility.yul\":2785:2791   */\n      dup4\n        /* \"#utility.yul\":2733:2797   */\n      tag_316\n      jump\t// in\n    tag_422:\n        /* \"#utility.yul\":2719:2797   */\n      swap1\n      pop\n        /* \"#utility.yul\":2611:2803   */\n      swap3\n      swap2\n      pop\n      pop\n      jump\t// out\n        /* \"#utility.yul\":2809:2931   */\n    tag_318:\n        /* \"#utility.yul\":2888:2892   */\n      0x00\n        /* \"#utility.yul\":2920:2924   */\n      0x20\n        /* \"#utility.yul\":2915:2918   */\n      dup3\n        /* \"#utility.yul\":2911:2925   */\n      add\n        /* \"#utility.yul\":2903:2925   */\n      swap1\n      pop\n        /* \"#utility.yul\":2809:2931   */\n      swap2\n      swap1\n      pop\n      jump\t// out\n        /* \"#utility.yul\":2963:3946   */\n    tag_319:\n        /* \"#utility.yul\":3100:3103   */\n      0x00\n        /* \"#utility.yul\":3129:3192   */\n      tag_425\n        /* \"#utility.yul\":3186:3191   */\n      dup3\n        /* \"#utility.yul\":3129:3192   */\n      tag_309\n      jump\t// in\n    tag_425:\n        /* \"#utility.yul\":3208:3303   */\n      tag_426\n        /* \"#utility.yul\":3296:3302   */\n      dup2\n        /* \"#utility.yul\":3291:3294   */\n      dup6\n        /* \"#utility.yul\":3208:3303   */\n      tag_310\n      jump\t// in\n    tag_426:\n        /* \"#utility.yul\":3201:3303   */\n      swap4\n      pop\n        /* \"#utility.yul\":3329:3332   */\n      dup4\n        /* \"#utility.yul\":3374:3378   */\n      0x20\n        /* \"#utility.yul\":3366:3372   */\n      dup3\n        /* \"#utility.yul\":3362:3379   */\n      mul\n        /* \"#utility.yul\":3357:3360   */\n      dup6\n        /* \"#utility.yul\":3353:3380   */\n      add\n        /* \"#utility.yul\":3404:3469   */\n      tag_427\n        /* \"#utility.yul\":3463:3468   */\n      dup6\n        /* \"#utility.yul\":3404:3469   */\n      tag_311\n      jump\t// in\n    tag_427:\n        /* \"#utility.yul\":3492:3499   */\n      dup1\n        /* \"#utility.yul\":3523:3524   */\n      0x00\n        /* \"#utility.yul\":3508:3901   */\n    tag_428:\n        /* \"#utility.yul\":3533:3539   */\n      dup6\n        /* \"#utility.yul\":3530:3531   */\n      dup2\n        /* \"#utility.yul\":3527:3540   */\n      lt\n        /* \"#utility.yul\":3508:3901   */\n      iszero\n      tag_430\n      jumpi\n        /* \"#utility.yul\":3604:3613   */\n      dup5\n        /* \"#utility.yul\":3598:3602   */\n      dup5\n        /* \"#utility.yul\":3594:3614   */\n      sub\n        /* \"#utility.yul\":3589:3592   */\n      dup10\n        /* \"#utility.yul\":3582:3615   */\n      mstore\n        /* \"#utility.yul\":3655:3661   */\n      dup2\n        /* \"#utility.yul\":3649:3662   */\n      mload\n        /* \"#utility.yul\":3683:3765   */\n      tag_431\n        /* \"#utility.yul\":3760:3764   */\n      dup6\n        /* \"#utility.yul\":3745:3758   */\n      dup3\n        /* \"#utility.yul\":3683:3765   */\n      tag_317\n      jump\t// in\n    tag_431:\n        /* \"#utility.yul\":3675:3765   */\n      swap5\n      pop\n        /* \"#utility.yul\":3788:3857   */\n      tag_432\n        /* \"#utility.yul\":3850:3856   */\n      dup4\n        /* \"#utility.yul\":3788:3857   */\n      tag_318\n      jump\t// in\n    tag_432:\n        /* \"#utility.yul\":3778:3857   */\n      swap3\n      pop\n        /* \"#utility.yul\":3886:3890   */\n      0x20\n        /* \"#utility.yul\":3881:3884   */\n      dup11\n        /* \"#utility.yul\":3877:3891   */\n      add\n        /* \"#utility.yul\":3870:3891   */\n      swap10\n      pop\n        /* \"#utility.yul\":3568:3901   */\n      pop\n        /* \"#utility.yul\":3555:3556   */\n      0x01\n        /* \"#utility.yul\":3552:3553   */\n      dup2\n        /* \"#utility.yul\":3548:3557   */\n      add\n        /* \"#utility.yul\":3543:3557   */\n      swap1\n      pop\n        /* \"#utility.yul\":3508:3901   */\n      jump(tag_428)\n    tag_430:\n        /* \"#utility.yul\":3512:3526   */\n      pop\n        /* \"#utility.yul\":3917:3921   */\n      dup3\n        /* \"#utility.yul\":3910:3921   */\n      swap8\n      pop\n        /* \"#utility.yul\":3937:3940   */\n      dup8\n        /* \"#utility.yul\":3930:3940   */\n      swap6\n      pop\n        /* \"#utility.yul\":3105:3946   */\n      pop\n      pop\n      pop\n      pop\n      pop\n        /* \"#utility.yul\":2963:3946   */\n      swap3\n      swap2\n      pop\n      pop\n      jump\t// out\n        /* \"#utility.yul\":3952:4581   */\n    tag_30:\n        /* \"#utility.yul\":4169:4173   */\n      0x00\n        /* \"#utility.yul\":4207:4209   */\n      0x60\n        /* \"#utility.yul\":4196:4205   */\n      dup3\n        /* \"#utility.yul\":4192:4210   */\n      add\n        /* \"#utility.yul\":4184:4210   */\n      swap1\n      pop\n        /* \"#utility.yul\":4220:4291   */\n      tag_434\n        /* \"#utility.yul\":4288:4289   */\n      0x00\n        /* \"#utility.yul\":4277:4286   */\n      dup4\n        /* \"#utility.yul\":4273:4290   */\n      add\n        /* \"#utility.yul\":4264:4270   */\n      dup7\n        /* \"#utility.yul\":4220:4291   */\n      tag_308\n      jump\t// in\n    tag_434:\n        /* \"#utility.yul\":4338:4347   */\n      dup2\n        /* \"#utility.yul\":4332:4336   */\n      dup2\n        /* \"#utility.yul\":4328:4348   */\n      sub\n        /* \"#utility.yul\":4323:4325   */\n      0x20\n        /* \"#utility.yul\":4312:4321   */\n      dup4\n        /* \"#utility.yul\":4308:4326   */\n      add\n        /* \"#utility.yul\":4301:4349   */\n      mstore\n        /* \"#utility.yul\":4366:4492   */\n      tag_435\n        /* \"#utility.yul\":4487:4491   */\n      dup2\n        /* \"#utility.yul\":4478:4484   */\n      dup6\n        /* \"#utility.yul\":4366:4492   */\n      tag_319\n      jump\t// in\n    tag_435:\n        /* \"#utility.yul\":4358:4492   */\n      swap1\n      pop\n        /* \"#utility.yul\":4502:4574   */\n      tag_436\n        /* \"#utility.yul\":4570:4572   */\n      0x40\n        /* \"#utility.yul\":4559:4568   */\n      dup4\n        /* \"#utility.yul\":4555:4573   */\n      add\n        /* \"#utility.yul\":4546:4552   */\n      dup5\n        /* \"#utility.yul\":4502:4574   */\n      tag_308\n      jump\t// in\n    tag_436:\n        /* \"#utility.yul\":3952:4581   */\n      swap5\n      swap4\n      pop\n      pop\n      pop\n      pop\n      jump\t// out\n        /* \"#utility.yul\":4587:4713   */\n    tag_320:\n        /* \"#utility.yul\":4624:4631   */\n      0x00\n        /* \"#utility.yul\":4664:4706   */\n      0xffffffffffffffffffffffffffffffffffffffff\n        /* \"#utility.yul\":4657:4662   */\n      dup3\n        /* \"#utility.yul\":4653:4707   */\n      and\n        /* \"#utility.yul\":4642:4707   */\n      swap1\n      pop\n        /* \"#utility.yul\":4587:4713   */\n      swap2\n      swap1\n      pop\n      jump\t// out\n        /* \"#utility.yul\":4719:4815   */\n    tag_321:\n        /* \"#utility.yul\":4756:4763   */\n      0x00\n        /* \"#utility.yul\":4785:4809   */\n      tag_439\n        /* \"#utility.yul\":4803:4808   */\n      dup3\n        /* \"#utility.yul\":4785:4809   */\n      tag_320\n      jump\t// in\n    tag_439:\n        /* \"#utility.yul\":4774:4809   */\n      swap1\n      pop\n        /* \"#utility.yul\":4719:4815   */\n      swap2\n      swap1\n      pop\n      jump\t// out\n        /* \"#utility.yul\":4821:4943   */\n    tag_322:\n        /* \"#utility.yul\":4894:4918   */\n      tag_441\n        /* \"#utility.yul\":4912:4917   */\n      dup2\n        /* \"#utility.yul\":4894:4918   */\n      tag_321\n      jump\t// in\n    tag_441:\n        /* \"#utility.yul\":4887:4892   */\n      dup2\n        /* \"#utility.yul\":4884:4919   */\n      eq\n        /* \"#utility.yul\":4874:4937   */\n      tag_442\n      jumpi\n        /* \"#utility.yul\":4933:4934   */\n      0x00\n        /* \"#utility.yul\":4930:4931   */\n      dup1\n        /* \"#utility.yul\":4923:4935   */\n      revert\n        /* \"#utility.yul\":4874:4937   */\n    tag_442:\n        /* \"#utility.yul\":4821:4943   */\n      pop\n      jump\t// out\n        /* \"#utility.yul\":4949:5088   */\n    tag_323:\n        /* \"#utility.yul\":4995:5000   */\n      0x00\n        /* \"#utility.yul\":5033:5039   */\n      dup2\n        /* \"#utility.yul\":5020:5040   */\n      calldataload\n        /* \"#utility.yul\":5011:5040   */\n      swap1\n      pop\n        /* \"#utility.yul\":5049:5082   */\n      tag_444\n        /* \"#utility.yul\":5076:5081   */\n      dup2\n        /* \"#utility.yul\":5049:5082   */\n      tag_322\n      jump\t// in\n    tag_444:\n        /* \"#utility.yul\":4949:5088   */\n      swap3\n      swap2\n      pop\n      pop\n      jump\t// out\n        /* \"#utility.yul\":5094:5568   */\n    tag_34:\n        /* \"#utility.yul\":5162:5168   */\n      0x00\n        /* \"#utility.yul\":5170:5176   */\n      dup1\n        /* \"#utility.yul\":5219:5221   */\n      0x40\n        /* \"#utility.yul\":5207:5216   */\n      dup4\n        /* \"#utility.yul\":5198:5205   */\n      dup6\n        /* \"#utility.yul\":5194:5217   */\n      sub\n        /* \"#utility.yul\":5190:5222   */\n      slt\n        /* \"#utility.yul\":5187:5306   */\n      iszero\n      tag_446\n      jumpi\n        /* \"#utility.yul\":5225:5304   */\n      tag_447\n      tag_303\n      jump\t// in\n    tag_447:\n        /* \"#utility.yul\":5187:5306   */\n    tag_446:\n        /* \"#utility.yul\":5345:5346   */\n      0x00\n        /* \"#utility.yul\":5370:5423   */\n      tag_448\n        /* \"#utility.yul\":5415:5422   */\n      dup6\n        /* \"#utility.yul\":5406:5412   */\n      dup3\n        /* \"#utility.yul\":5395:5404   */\n      dup7\n        /* \"#utility.yul\":5391:5413   */\n      add\n        /* \"#utility.yul\":5370:5423   */\n      tag_307\n      jump\t// in\n    tag_448:\n        /* \"#utility.yul\":5360:5423   */\n      swap3\n      pop\n        /* \"#utility.yul\":5316:5433   */\n      pop\n        /* \"#utility.yul\":5472:5474   */\n      0x20\n        /* \"#utility.yul\":5498:5551   */\n      tag_449\n        /* \"#utility.yul\":5543:5550   */\n      dup6\n        /* \"#utility.yul\":5534:5540   */\n      dup3\n        /* \"#utility.yul\":5523:5532   */\n      dup7\n        /* \"#utility.yul\":5519:5541   */\n      add\n        /* \"#utility.yul\":5498:5551   */\n      tag_323\n      jump\t// in\n    tag_449:\n        /* \"#utility.yul\":5488:5551   */\n      swap2\n      pop\n        /* \"#utility.yul\":5443:5561   */\n      pop\n        /* \"#utility.yul\":5094:5568   */\n      swap3\n      pop\n      swap3\n      swap1\n      pop\n      jump\t// out\n        /* \"#utility.yul\":5574:5903   */\n    tag_39:\n        /* \"#utility.yul\":5633:5639   */\n      0x00\n        /* \"#utility.yul\":5682:5684   */\n      0x20\n        /* \"#utility.yul\":5670:5679   */\n      dup3\n        /* \"#utility.yul\":5661:5668   */\n      dup5\n        /* \"#utility.yul\":5657:5680   */\n      sub\n        /* \"#utility.yul\":5653:5685   */\n      slt\n        /* \"#utility.yul\":5650:5769   */\n      iszero\n      tag_451\n      jumpi\n        /* \"#utility.yul\":5688:5767   */\n      tag_452\n      tag_303\n      jump\t// in\n    tag_452:\n        /* \"#utility.yul\":5650:5769   */\n    tag_451:\n        /* \"#utility.yul\":5808:5809   */\n      0x00\n        /* \"#utility.yul\":5833:5886   */\n      tag_453\n        /* \"#utility.yul\":5878:5885   */\n      dup5\n        /* \"#utility.yul\":5869:5875   */\n      dup3\n        /* \"#utility.yul\":5858:5867   */\n      dup6\n        /* \"#utility.yul\":5854:5876   */\n      add\n        /* \"#utility.yul\":5833:5886   */\n      tag_323\n      jump\t// in\n    tag_453:\n        /* \"#utility.yul\":5823:5886   */\n      swap2\n      pop\n        /* \"#utility.yul\":5779:5896   */\n      pop\n        /* \"#utility.yul\":5574:5903   */\n      swap3\n      swap2\n      pop\n      pop\n      jump\t// out\n        /* \"#utility.yul\":5909:5999   */\n    tag_324:\n        /* \"#utility.yul\":5943:5950   */\n      0x00\n        /* \"#utility.yul\":5986:5991   */\n      dup2\n        /* \"#utility.yul\":5979:5992   */\n      iszero\n        /* \"#utility.yul\":5972:5993   */\n      iszero\n        /* \"#utility.yul\":5961:5993   */\n      swap1\n      pop\n        /* \"#utility.yul\":5909:5999   */\n      swap2\n      swap1\n      pop\n      jump\t// out\n        /* \"#utility.yul\":6005:6114   */\n    tag_325:\n        /* \"#utility.yul\":6086:6107   */\n      tag_456\n        /* \"#utility.yul\":6101:6106   */\n      dup2\n        /* \"#utility.yul\":6086:6107   */\n      tag_324\n      jump\t// in\n    tag_456:\n        /* \"#utility.yul\":6081:6084   */\n      dup3\n        /* \"#utility.yul\":6074:6108   */\n      mstore\n        /* \"#utility.yul\":6005:6114   */\n      pop\n      pop\n      jump\t// out\n        /* \"#utility.yul\":6120:6330   */\n    tag_42:\n        /* \"#utility.yul\":6207:6211   */\n      0x00\n        /* \"#utility.yul\":6245:6247   */\n      0x20\n        /* \"#utility.yul\":6234:6243   */\n      dup3\n        /* \"#utility.yul\":6230:6248   */\n      add\n        /* \"#utility.yul\":6222:6248   */\n      swap1\n      pop\n        /* \"#utility.yul\":6258:6323   */\n      tag_458\n        /* \"#utility.yul\":6320:6321   */\n      0x00\n        /* \"#utility.yul\":6309:6318   */\n      dup4\n        /* \"#utility.yul\":6305:6322   */\n      add\n        /* \"#utility.yul\":6296:6302   */\n      dup5\n        /* \"#utility.yul\":6258:6323   */\n      tag_325\n      jump\t// in\n    tag_458:\n        /* \"#utility.yul\":6120:6330   */\n      swap3\n      swap2\n      pop\n      pop\n      jump\t// out\n        /* \"#utility.yul\":6336:6413   */\n    tag_326:\n        /* \"#utility.yul\":6373:6380   */\n      0x00\n        /* \"#utility.yul\":6402:6407   */\n      dup2\n        /* \"#utility.yul\":6391:6407   */\n      swap1\n      pop\n        /* \"#utility.yul\":6336:6413   */\n      swap2\n      swap1\n      pop\n      jump\t// out\n        /* \"#utility.yul\":6419:6541   */\n    tag_327:\n        /* \"#utility.yul\":6492:6516   */\n      tag_461\n        /* \"#utility.yul\":6510:6515   */\n      dup2\n        /* \"#utility.yul\":6492:6516   */\n      tag_326\n      jump\t// in\n    tag_461:\n        /* \"#utility.yul\":6485:6490   */\n      dup2\n        /* \"#utility.yul\":6482:6517   */\n      eq\n        /* \"#utility.yul\":6472:6535   */\n      tag_462\n      jumpi\n        /* \"#utility.yul\":6531:6532   */\n      0x00\n        /* \"#utility.yul\":6528:6529   */\n      dup1\n        /* \"#utility.yul\":6521:6533   */\n      revert\n        /* \"#utility.yul\":6472:6535   */\n    tag_462:\n        /* \"#utility.yul\":6419:6541   */\n      pop\n      jump\t// out\n        /* \"#utility.yul\":6547:6686   */\n    tag_328:\n        /* \"#utility.yul\":6593:6598   */\n      0x00\n        /* \"#utility.yul\":6631:6637   */\n      dup2\n        /* \"#utility.yul\":6618:6638   */\n      calldataload\n        /* \"#utility.yul\":6609:6638   */\n      swap1\n      pop\n        /* \"#utility.yul\":6647:6680   */\n      tag_464\n        /* \"#utility.yul\":6674:6679   */\n      dup2\n        /* \"#utility.yul\":6647:6680   */\n      tag_327\n      jump\t// in\n    tag_464:\n        /* \"#utility.yul\":6547:6686   */\n      swap3\n      swap2\n      pop\n      pop\n      jump\t// out\n        /* \"#utility.yul\":6692:7021   */\n    tag_50:\n        /* \"#utility.yul\":6751:6757   */\n      0x00\n        /* \"#utility.yul\":6800:6802   */\n      0x20\n        /* \"#utility.yul\":6788:6797   */\n      dup3\n        /* \"#utility.yul\":6779:6786   */\n      dup5\n        /* \"#utility.yul\":6775:6798   */\n      sub\n        /* \"#utility.yul\":6771:6803   */\n      slt\n        /* \"#utility.yul\":6768:6887   */\n      iszero\n      tag_466\n      jumpi\n        /* \"#utility.yul\":6806:6885   */\n      tag_467\n      tag_303\n      jump\t// in\n    tag_467:\n        /* \"#utility.yul\":6768:6887   */\n    tag_466:\n        /* \"#utility.yul\":6926:6927   */\n      0x00\n        /* \"#utility.yul\":6951:7004   */\n      tag_468\n        /* \"#utility.yul\":6996:7003   */\n      dup5\n        /* \"#utility.yul\":6987:6993   */\n      dup3\n        /* \"#utility.yul\":6976:6985   */\n      dup6\n        /* \"#utility.yul\":6972:6994   */\n      add\n        /* \"#utility.yul\":6951:7004   */\n      tag_328\n      jump\t// in\n    tag_468:\n        /* \"#utility.yul\":6941:7004   */\n      swap2\n      pop\n        /* \"#utility.yul\":6897:7014   */\n      pop\n        /* \"#utility.yul\":6692:7021   */\n      swap3\n      swap2\n      pop\n      pop\n      jump\t// out\n        /* \"#utility.yul\":7027:7126   */\n    tag_329:\n        /* \"#utility.yul\":7079:7085   */\n      0x00\n        /* \"#utility.yul\":7113:7118   */\n      dup2\n        /* \"#utility.yul\":7107:7119   */\n      mload\n        /* \"#utility.yul\":7097:7119   */\n      swap1\n      pop\n        /* \"#utility.yul\":7027:7126   */\n      swap2\n      swap1\n      pop\n      jump\t// out\n        /* \"#utility.yul\":7132:7301   */\n    tag_330:\n        /* \"#utility.yul\":7216:7227   */\n      0x00\n        /* \"#utility.yul\":7250:7256   */\n      dup3\n        /* \"#utility.yul\":7245:7248   */\n      dup3\n        /* \"#utility.yul\":7238:7257   */\n      mstore\n        /* \"#utility.yul\":7290:7294   */\n      0x20\n        /* \"#utility.yul\":7285:7288   */\n      dup3\n        /* \"#utility.yul\":7281:7295   */\n      add\n        /* \"#utility.yul\":7266:7295   */\n      swap1\n      pop\n        /* \"#utility.yul\":7132:7301   */\n      swap3\n      swap2\n      pop\n      pop\n      jump\t// out\n        /* \"#utility.yul\":7307:7684   */\n    tag_331:\n        /* \"#utility.yul\":7395:7398   */\n      0x00\n        /* \"#utility.yul\":7423:7462   */\n      tag_472\n        /* \"#utility.yul\":7456:7461   */\n      dup3\n        /* \"#utility.yul\":7423:7462   */\n      tag_329\n      jump\t// in\n    tag_472:\n        /* \"#utility.yul\":7478:7549   */\n      tag_473\n        /* \"#utility.yul\":7542:7548   */\n      dup2\n        /* \"#utility.yul\":7537:7540   */\n      dup6\n        /* \"#utility.yul\":7478:7549   */\n      tag_330\n      jump\t// in\n    tag_473:\n        /* \"#utility.yul\":7471:7549   */\n      swap4\n      pop\n        /* \"#utility.yul\":7558:7623   */\n      tag_474\n        /* \"#utility.yul\":7616:7622   */\n      dup2\n        /* \"#utility.yul\":7611:7614   */\n      dup6\n        /* \"#utility.yul\":7604:7608   */\n      0x20\n        /* \"#utility.yul\":7597:7602   */\n      dup7\n        /* \"#utility.yul\":7593:7609   */\n      add\n        /* \"#utility.yul\":7558:7623   */\n      tag_314\n      jump\t// in\n    tag_474:\n        /* \"#utility.yul\":7648:7677   */\n      tag_475\n        /* \"#utility.yul\":7670:7676   */\n      dup2\n        /* \"#utility.yul\":7648:7677   */\n      tag_315\n      jump\t// in\n    tag_475:\n        /* \"#utility.yul\":7643:7646   */\n      dup5\n        /* \"#utility.yul\":7639:7678   */\n      add\n        /* \"#utility.yul\":7632:7678   */\n      swap2\n      pop\n        /* \"#utility.yul\":7399:7684   */\n      pop\n        /* \"#utility.yul\":7307:7684   */\n      swap3\n      swap2\n      pop\n      pop\n      jump\t// out\n        /* \"#utility.yul\":7690:8410   */\n    tag_53:\n        /* \"#utility.yul\":7927:7931   */\n      0x00\n        /* \"#utility.yul\":7965:7967   */\n      0x60\n        /* \"#utility.yul\":7954:7963   */\n      dup3\n        /* \"#utility.yul\":7950:7968   */\n      add\n        /* \"#utility.yul\":7942:7968   */\n      swap1\n      pop\n        /* \"#utility.yul\":8014:8023   */\n      dup2\n        /* \"#utility.yul\":8008:8012   */\n      dup2\n        /* \"#utility.yul\":8004:8024   */\n      sub\n        /* \"#utility.yul\":8000:8001   */\n      0x00\n        /* \"#utility.yul\":7989:7998   */\n      dup4\n        /* \"#utility.yul\":7985:8002   */\n      add\n        /* \"#utility.yul\":7978:8025   */\n      mstore\n        /* \"#utility.yul\":8042:8120   */\n      tag_477\n        /* \"#utility.yul\":8115:8119   */\n      dup2\n        /* \"#utility.yul\":8106:8112   */\n      dup7\n        /* \"#utility.yul\":8042:8120   */\n      tag_331\n      jump\t// in\n    tag_477:\n        /* \"#utility.yul\":8034:8120   */\n      swap1\n      pop\n        /* \"#utility.yul\":8167:8176   */\n      dup2\n        /* \"#utility.yul\":8161:8165   */\n      dup2\n        /* \"#utility.yul\":8157:8177   */\n      sub\n        /* \"#utility.yul\":8152:8154   */\n      0x20\n        /* \"#utility.yul\":8141:8150   */\n      dup4\n        /* \"#utility.yul\":8137:8155   */\n      add\n        /* \"#utility.yul\":8130:8178   */\n      mstore\n        /* \"#utility.yul\":8195:8321   */\n      tag_478\n        /* \"#utility.yul\":8316:8320   */\n      dup2\n        /* \"#utility.yul\":8307:8313   */\n      dup6\n        /* \"#utility.yul\":8195:8321   */\n      tag_319\n      jump\t// in\n    tag_478:\n        /* \"#utility.yul\":8187:8321   */\n      swap1\n      pop\n        /* \"#utility.yul\":8331:8403   */\n      tag_479\n        /* \"#utility.yul\":8399:8401   */\n      0x40\n        /* \"#utility.yul\":8388:8397   */\n      dup4\n        /* \"#utility.yul\":8384:8402   */\n      add\n        /* \"#utility.yul\":8375:8381   */\n      dup5\n        /* \"#utility.yul\":8331:8403   */\n      tag_308\n      jump\t// in\n    tag_479:\n        /* \"#utility.yul\":7690:8410   */\n      swap5\n      swap4\n      pop\n      pop\n      pop\n      pop\n      jump\t// out\n        /* \"#utility.yul\":8416:8520   */\n    tag_332:\n        /* \"#utility.yul\":8461:8468   */\n      0x00\n        /* \"#utility.yul\":8490:8514   */\n      tag_481\n        /* \"#utility.yul\":8508:8513   */\n      dup3\n        /* \"#utility.yul\":8490:8514   */\n      tag_320\n      jump\t// in\n    tag_481:\n        /* \"#utility.yul\":8479:8514   */\n      swap1\n      pop\n        /* \"#utility.yul\":8416:8520   */\n      swap2\n      swap1\n      pop\n      jump\t// out\n        /* \"#utility.yul\":8526:8664   */\n    tag_333:\n        /* \"#utility.yul\":8607:8639   */\n      tag_483\n        /* \"#utility.yul\":8633:8638   */\n      dup2\n        /* \"#utility.yul\":8607:8639   */\n      tag_332\n      jump\t// in\n    tag_483:\n        /* \"#utility.yul\":8600:8605   */\n      dup2\n        /* \"#utility.yul\":8597:8640   */\n      eq\n        /* \"#utility.yul\":8587:8658   */\n      tag_484\n      jumpi\n        /* \"#utility.yul\":8654:8655   */\n      0x00\n        /* \"#utility.yul\":8651:8652   */\n      dup1\n        /* \"#utility.yul\":8644:8656   */\n      revert\n        /* \"#utility.yul\":8587:8658   */\n    tag_484:\n        /* \"#utility.yul\":8526:8664   */\n      pop\n      jump\t// out\n        /* \"#utility.yul\":8670:8825   */\n    tag_334:\n        /* \"#utility.yul\":8724:8729   */\n      0x00\n        /* \"#utility.yul\":8762:8768   */\n      dup2\n        /* \"#utility.yul\":8749:8769   */\n      calldataload\n        /* \"#utility.yul\":8740:8769   */\n      swap1\n      pop\n        /* \"#utility.yul\":8778:8819   */\n      tag_486\n        /* \"#utility.yul\":8813:8818   */\n      dup2\n        /* \"#utility.yul\":8778:8819   */\n      tag_333\n      jump\t// in\n    tag_486:\n        /* \"#utility.yul\":8670:8825   */\n      swap3\n      swap2\n      pop\n      pop\n      jump\t// out\n        /* \"#utility.yul\":8831:9176   */\n    tag_61:\n        /* \"#utility.yul\":8898:8904   */\n      0x00\n        /* \"#utility.yul\":8947:8949   */\n      0x20\n        /* \"#utility.yul\":8935:8944   */\n      dup3\n        /* \"#utility.yul\":8926:8933   */\n      dup5\n        /* \"#utility.yul\":8922:8945   */\n      sub\n        /* \"#utility.yul\":8918:8950   */\n      slt\n        /* \"#utility.yul\":8915:9034   */\n      iszero\n      tag_488\n      jumpi\n        /* \"#utility.yul\":8953:9032   */\n      tag_489\n      tag_303\n      jump\t// in\n    tag_489:\n        /* \"#utility.yul\":8915:9034   */\n    tag_488:\n        /* \"#utility.yul\":9073:9074   */\n      0x00\n        /* \"#utility.yul\":9098:9159   */\n      tag_490\n        /* \"#utility.yul\":9151:9158   */\n      dup5\n        /* \"#utility.yul\":9142:9148   */\n      dup3\n        /* \"#utility.yul\":9131:9140   */\n      dup6\n        /* \"#utility.yul\":9127:9149   */\n      add\n        /* \"#utility.yul\":9098:9159   */\n      tag_334\n      jump\t// in\n    tag_490:\n        /* \"#utility.yul\":9088:9159   */\n      swap2\n      pop\n        /* \"#utility.yul\":9044:9169   */\n      pop\n        /* \"#utility.yul\":8831:9176   */\n      swap3\n      swap2\n      pop\n      pop\n      jump\t// out\n        /* \"#utility.yul\":9182:9300   */\n    tag_335:\n        /* \"#utility.yul\":9269:9293   */\n      tag_492\n        /* \"#utility.yul\":9287:9292   */\n      dup2\n        /* \"#utility.yul\":9269:9293   */\n      tag_321\n      jump\t// in\n    tag_492:\n        /* \"#utility.yul\":9264:9267   */\n      dup3\n        /* \"#utility.yul\":9257:9294   */\n      mstore\n        /* \"#utility.yul\":9182:9300   */\n      pop\n      pop\n      jump\t// out\n        /* \"#utility.yul\":9306:9486   */\n    tag_146:\n        /* \"#utility.yul\":9354:9431   */\n      0x4e487b7100000000000000000000000000000000000000000000000000000000\n        /* \"#utility.yul\":9351:9352   */\n      0x00\n        /* \"#utility.yul\":9344:9432   */\n      mstore\n        /* \"#utility.yul\":9451:9455   */\n      0x21\n        /* \"#utility.yul\":9448:9449   */\n      0x04\n        /* \"#utility.yul\":9441:9456   */\n      mstore\n        /* \"#utility.yul\":9475:9479   */\n      0x24\n        /* \"#utility.yul\":9472:9473   */\n      0x00\n        /* \"#utility.yul\":9465:9480   */\n      revert\n        /* \"#utility.yul\":9492:9606   */\n    tag_336:\n        /* \"#utility.yul\":9574:9575   */\n      0x07\n        /* \"#utility.yul\":9567:9572   */\n      dup2\n        /* \"#utility.yul\":9564:9576   */\n      lt\n        /* \"#utility.yul\":9554:9600   */\n      tag_495\n      jumpi\n        /* \"#utility.yul\":9580:9598   */\n      tag_496\n      tag_146\n      jump\t// in\n    tag_496:\n        /* \"#utility.yul\":9554:9600   */\n    tag_495:\n        /* \"#utility.yul\":9492:9606   */\n      pop\n      jump\t// out\n        /* \"#utility.yul\":9612:9741   */\n    tag_337:\n        /* \"#utility.yul\":9658:9665   */\n      0x00\n        /* \"#utility.yul\":9687:9692   */\n      dup2\n        /* \"#utility.yul\":9676:9692   */\n      swap1\n      pop\n        /* \"#utility.yul\":9693:9735   */\n      tag_498\n        /* \"#utility.yul\":9729:9734   */\n      dup3\n        /* \"#utility.yul\":9693:9735   */\n      tag_336\n      jump\t// in\n    tag_498:\n        /* \"#utility.yul\":9612:9741   */\n      swap2\n      swap1\n      pop\n      jump\t// out\n        /* \"#utility.yul\":9747:9876   */\n    tag_338:\n        /* \"#utility.yul\":9804:9813   */\n      0x00\n        /* \"#utility.yul\":9837:9870   */\n      tag_500\n        /* \"#utility.yul\":9864:9869   */\n      dup3\n        /* \"#utility.yul\":9837:9870   */\n      tag_337\n      jump\t// in\n    tag_500:\n        /* \"#utility.yul\":9824:9870   */\n      swap1\n      pop\n        /* \"#utility.yul\":9747:9876   */\n      swap2\n      swap1\n      pop\n      jump\t// out\n        /* \"#utility.yul\":9882:10027   */\n    tag_339:\n        /* \"#utility.yul\":9976:10020   */\n      tag_502\n        /* \"#utility.yul\":10014:10019   */\n      dup2\n        /* \"#utility.yul\":9976:10020   */\n      tag_338\n      jump\t// in\n    tag_502:\n        /* \"#utility.yul\":9971:9974   */\n      dup3\n        /* \"#utility.yul\":9964:10021   */\n      mstore\n        /* \"#utility.yul\":9882:10027   */\n      pop\n      pop\n      jump\t// out\n        /* \"#utility.yul\":10033:10489   */\n    tag_83:\n        /* \"#utility.yul\":10189:10193   */\n      0x00\n        /* \"#utility.yul\":10227:10229   */\n      0x60\n        /* \"#utility.yul\":10216:10225   */\n      dup3\n        /* \"#utility.yul\":10212:10230   */\n      add\n        /* \"#utility.yul\":10204:10230   */\n      swap1\n      pop\n        /* \"#utility.yul\":10240:10311   */\n      tag_504\n        /* \"#utility.yul\":10308:10309   */\n      0x00\n        /* \"#utility.yul\":10297:10306   */\n      dup4\n        /* \"#utility.yul\":10293:10310   */\n      add\n        /* \"#utility.yul\":10284:10290   */\n      dup7\n        /* \"#utility.yul\":10240:10311   */\n      tag_308\n      jump\t// in\n    tag_504:\n        /* \"#utility.yul\":10321:10393   */\n      tag_505\n        /* \"#utility.yul\":10389:10391   */\n      0x20\n        /* \"#utility.yul\":10378:10387   */\n      dup4\n        /* \"#utility.yul\":10374:10392   */\n      add\n        /* \"#utility.yul\":10365:10371   */\n      dup6\n        /* \"#utility.yul\":10321:10393   */\n      tag_335\n      jump\t// in\n    tag_505:\n        /* \"#utility.yul\":10403:10482   */\n      tag_506\n        /* \"#utility.yul\":10478:10480   */\n      0x40\n        /* \"#utility.yul\":10467:10476   */\n      dup4\n        /* \"#utility.yul\":10463:10481   */\n      add\n        /* \"#utility.yul\":10454:10460   */\n      dup5\n        /* \"#utility.yul\":10403:10482   */\n      tag_339\n      jump\t// in\n    tag_506:\n        /* \"#utility.yul\":10033:10489   */\n      swap5\n      swap4\n      pop\n      pop\n      pop\n      pop\n      jump\t// out\n        /* \"#utility.yul\":10495:10612   */\n    tag_340:\n        /* \"#utility.yul\":10604:10605   */\n      0x00\n        /* \"#utility.yul\":10601:10602   */\n      dup1\n        /* \"#utility.yul\":10594:10606   */\n      revert\n        /* \"#utility.yul\":10618:10735   */\n    tag_341:\n        /* \"#utility.yul\":10727:10728   */\n      0x00\n        /* \"#utility.yul\":10724:10725   */\n      dup1\n        /* \"#utility.yul\":10717:10729   */\n      revert\n        /* \"#utility.yul\":10741:10921   */\n    tag_342:\n        /* \"#utility.yul\":10789:10866   */\n      0x4e487b7100000000000000000000000000000000000000000000000000000000\n        /* \"#utility.yul\":10786:10787   */\n      0x00\n        /* \"#utility.yul\":10779:10867   */\n      mstore\n        /* \"#utility.yul\":10886:10890   */\n      0x41\n        /* \"#utility.yul\":10883:10884   */\n      0x04\n        /* \"#utility.yul\":10876:10891   */\n      mstore\n        /* \"#utility.yul\":10910:10914   */\n      0x24\n        /* \"#utility.yul\":10907:10908   */\n      0x00\n        /* \"#utility.yul\":10900:10915   */\n      revert\n        /* \"#utility.yul\":10927:11208   */\n    tag_343:\n        /* \"#utility.yul\":11010:11037   */\n      tag_511\n        /* \"#utility.yul\":11032:11036   */\n      dup3\n        /* \"#utility.yul\":11010:11037   */\n      tag_315\n      jump\t// in\n    tag_511:\n        /* \"#utility.yul\":11002:11008   */\n      dup2\n        /* \"#utility.yul\":10998:11038   */\n      add\n        /* \"#utility.yul\":11140:11146   */\n      dup2\n        /* \"#utility.yul\":11128:11138   */\n      dup2\n        /* \"#utility.yul\":11125:11147   */\n      lt\n        /* \"#utility.yul\":11104:11122   */\n      0xffffffffffffffff\n        /* \"#utility.yul\":11092:11102   */\n      dup3\n        /* \"#utility.yul\":11089:11123   */\n      gt\n        /* \"#utility.yul\":11086:11148   */\n      or\n        /* \"#utility.yul\":11083:11171   */\n      iszero\n      tag_512\n      jumpi\n        /* \"#utility.yul\":11151:11169   */\n      tag_513\n      tag_342\n      jump\t// in\n    tag_513:\n        /* \"#utility.yul\":11083:11171   */\n    tag_512:\n        /* \"#utility.yul\":11191:11201   */\n      dup1\n        /* \"#utility.yul\":11187:11189   */\n      0x40\n        /* \"#utility.yul\":11180:11202   */\n      mstore\n        /* \"#utility.yul\":10970:11208   */\n      pop\n        /* \"#utility.yul\":10927:11208   */\n      pop\n      pop\n      jump\t// out\n        /* \"#utility.yul\":11214:11343   */\n    tag_344:\n        /* \"#utility.yul\":11248:11254   */\n      0x00\n        /* \"#utility.yul\":11275:11295   */\n      tag_515\n      tag_302\n      jump\t// in\n    tag_515:\n        /* \"#utility.yul\":11265:11295   */\n      swap1\n      pop\n        /* \"#utility.yul\":11304:11337   */\n      tag_516\n        /* \"#utility.yul\":11332:11336   */\n      dup3\n        /* \"#utility.yul\":11324:11330   */\n      dup3\n        /* \"#utility.yul\":11304:11337   */\n      tag_343\n      jump\t// in\n    tag_516:\n        /* \"#utility.yul\":11214:11343   */\n      swap2\n      swap1\n      pop\n      jump\t// out\n        /* \"#utility.yul\":11349:11657   */\n    tag_345:\n        /* \"#utility.yul\":11411:11415   */\n      0x00\n        /* \"#utility.yul\":11501:11519   */\n      0xffffffffffffffff\n        /* \"#utility.yul\":11493:11499   */\n      dup3\n        /* \"#utility.yul\":11490:11520   */\n      gt\n        /* \"#utility.yul\":11487:11543   */\n      iszero\n      tag_518\n      jumpi\n        /* \"#utility.yul\":11523:11541   */\n      tag_519\n      tag_342\n      jump\t// in\n    tag_519:\n        /* \"#utility.yul\":11487:11543   */\n    tag_518:\n        /* \"#utility.yul\":11561:11590   */\n      tag_520\n        /* \"#utility.yul\":11583:11589   */\n      dup3\n        /* \"#utility.yul\":11561:11590   */\n      tag_315\n      jump\t// in\n    tag_520:\n        /* \"#utility.yul\":11553:11590   */\n      swap1\n      pop\n        /* \"#utility.yul\":11645:11649   */\n      0x20\n        /* \"#utility.yul\":11639:11643   */\n      dup2\n        /* \"#utility.yul\":11635:11650   */\n      add\n        /* \"#utility.yul\":11627:11650   */\n      swap1\n      pop\n        /* \"#utility.yul\":11349:11657   */\n      swap2\n      swap1\n      pop\n      jump\t// out\n        /* \"#utility.yul\":11663:11809   */\n    tag_346:\n        /* \"#utility.yul\":11760:11766   */\n      dup3\n        /* \"#utility.yul\":11755:11758   */\n      dup2\n        /* \"#utility.yul\":11750:11753   */\n      dup4\n        /* \"#utility.yul\":11737:11767   */\n      calldatacopy\n        /* \"#utility.yul\":11801:11802   */\n      0x00\n        /* \"#utility.yul\":11792:11798   */\n      dup4\n        /* \"#utility.yul\":11787:11790   */\n      dup4\n        /* \"#utility.yul\":11783:11799   */\n      add\n        /* \"#utility.yul\":11776:11803   */\n      mstore\n        /* \"#utility.yul\":11663:11809   */\n      pop\n      pop\n      pop\n      jump\t// out\n        /* \"#utility.yul\":11815:12240   */\n    tag_347:\n        /* \"#utility.yul\":11893:11898   */\n      0x00\n        /* \"#utility.yul\":11918:11984   */\n      tag_523\n        /* \"#utility.yul\":11934:11983   */\n      tag_524\n        /* \"#utility.yul\":11976:11982   */\n      dup5\n        /* \"#utility.yul\":11934:11983   */\n      tag_345\n      jump\t// in\n    tag_524:\n        /* \"#utility.yul\":11918:11984   */\n      tag_344\n      jump\t// in\n    tag_523:\n        /* \"#utility.yul\":11909:11984   */\n      swap1\n      pop\n        /* \"#utility.yul\":12007:12013   */\n      dup3\n        /* \"#utility.yul\":12000:12005   */\n      dup2\n        /* \"#utility.yul\":11993:12014   */\n      mstore\n        /* \"#utility.yul\":12045:12049   */\n      0x20\n        /* \"#utility.yul\":12038:12043   */\n      dup2\n        /* \"#utility.yul\":12034:12050   */\n      add\n        /* \"#utility.yul\":12083:12086   */\n      dup5\n        /* \"#utility.yul\":12074:12080   */\n      dup5\n        /* \"#utility.yul\":12069:12072   */\n      dup5\n        /* \"#utility.yul\":12065:12081   */\n      add\n        /* \"#utility.yul\":12062:12087   */\n      gt\n        /* \"#utility.yul\":12059:12171   */\n      iszero\n      tag_525\n      jumpi\n        /* \"#utility.yul\":12090:12169   */\n      tag_526\n      tag_341\n      jump\t// in\n    tag_526:\n        /* \"#utility.yul\":12059:12171   */\n    tag_525:\n        /* \"#utility.yul\":12180:12234   */\n      tag_527\n        /* \"#utility.yul\":12227:12233   */\n      dup5\n        /* \"#utility.yul\":12222:12225   */\n      dup3\n        /* \"#utility.yul\":12217:12220   */\n      dup6\n        /* \"#utility.yul\":12180:12234   */\n      tag_346\n      jump\t// in\n    tag_527:\n        /* \"#utility.yul\":11899:12240   */\n      pop\n        /* \"#utility.yul\":11815:12240   */\n      swap4\n      swap3\n      pop\n      pop\n      pop\n      jump\t// out\n        /* \"#utility.yul\":12260:12600   */\n    tag_348:\n        /* \"#utility.yul\":12316:12321   */\n      0x00\n        /* \"#utility.yul\":12365:12368   */\n      dup3\n        /* \"#utility.yul\":12358:12362   */\n      0x1f\n        /* \"#utility.yul\":12350:12356   */\n      dup4\n        /* \"#utility.yul\":12346:12363   */\n      add\n        /* \"#utility.yul\":12342:12369   */\n      slt\n        /* \"#utility.yul\":12332:12454   */\n      tag_529\n      jumpi\n        /* \"#utility.yul\":12373:12452   */\n      tag_530\n      tag_340\n      jump\t// in\n    tag_530:\n        /* \"#utility.yul\":12332:12454   */\n    tag_529:\n        /* \"#utility.yul\":12490:12496   */\n      dup2\n        /* \"#utility.yul\":12477:12497   */\n      calldataload\n        /* \"#utility.yul\":12515:12594   */\n      tag_531\n        /* \"#utility.yul\":12590:12593   */\n      dup5\n        /* \"#utility.yul\":12582:12588   */\n      dup3\n        /* \"#utility.yul\":12575:12579   */\n      0x20\n        /* \"#utility.yul\":12567:12573   */\n      dup7\n        /* \"#utility.yul\":12563:12580   */\n      add\n        /* \"#utility.yul\":12515:12594   */\n      tag_347\n      jump\t// in\n    tag_531:\n        /* \"#utility.yul\":12506:12594   */\n      swap2\n      pop\n        /* \"#utility.yul\":12322:12600   */\n      pop\n        /* \"#utility.yul\":12260:12600   */\n      swap3\n      swap2\n      pop\n      pop\n      jump\t// out\n        /* \"#utility.yul\":12606:13585   */\n    tag_87:\n        /* \"#utility.yul\":12703:12709   */\n      0x00\n        /* \"#utility.yul\":12711:12717   */\n      dup1\n        /* \"#utility.yul\":12719:12725   */\n      0x00\n        /* \"#utility.yul\":12768:12770   */\n      0x60\n        /* \"#utility.yul\":12756:12765   */\n      dup5\n        /* \"#utility.yul\":12747:12754   */\n      dup7\n        /* \"#utility.yul\":12743:12766   */\n      sub\n        /* \"#utility.yul\":12739:12771   */\n      slt\n        /* \"#utility.yul\":12736:12855   */\n      iszero\n      tag_533\n      jumpi\n        /* \"#utility.yul\":12774:12853   */\n      tag_534\n      tag_303\n      jump\t// in\n    tag_534:\n        /* \"#utility.yul\":12736:12855   */\n    tag_533:\n        /* \"#utility.yul\":12922:12923   */\n      0x00\n        /* \"#utility.yul\":12911:12920   */\n      dup5\n        /* \"#utility.yul\":12907:12924   */\n      add\n        /* \"#utility.yul\":12894:12925   */\n      calldataload\n        /* \"#utility.yul\":12952:12970   */\n      0xffffffffffffffff\n        /* \"#utility.yul\":12944:12950   */\n      dup2\n        /* \"#utility.yul\":12941:12971   */\n      gt\n        /* \"#utility.yul\":12938:13055   */\n      iszero\n      tag_535\n      jumpi\n        /* \"#utility.yul\":12974:13053   */\n      tag_536\n      tag_304\n      jump\t// in\n    tag_536:\n        /* \"#utility.yul\":12938:13055   */\n    tag_535:\n        /* \"#utility.yul\":13079:13142   */\n      tag_537\n        /* \"#utility.yul\":13134:13141   */\n      dup7\n        /* \"#utility.yul\":13125:13131   */\n      dup3\n        /* \"#utility.yul\":13114:13123   */\n      dup8\n        /* \"#utility.yul\":13110:13132   */\n      add\n        /* \"#utility.yul\":13079:13142   */\n      tag_348\n      jump\t// in\n    tag_537:\n        /* \"#utility.yul\":13069:13142   */\n      swap4\n      pop\n        /* \"#utility.yul\":12865:13152   */\n      pop\n        /* \"#utility.yul\":13191:13193   */\n      0x20\n        /* \"#utility.yul\":13217:13270   */\n      tag_538\n        /* \"#utility.yul\":13262:13269   */\n      dup7\n        /* \"#utility.yul\":13253:13259   */\n      dup3\n        /* \"#utility.yul\":13242:13251   */\n      dup8\n        /* \"#utility.yul\":13238:13260   */\n      add\n        /* \"#utility.yul\":13217:13270   */\n      tag_323\n      jump\t// in\n    tag_538:\n        /* \"#utility.yul\":13207:13270   */\n      swap3\n      pop\n        /* \"#utility.yul\":13162:13280   */\n      pop\n        /* \"#utility.yul\":13347:13349   */\n      0x40\n        /* \"#utility.yul\":13336:13345   */\n      dup5\n        /* \"#utility.yul\":13332:13350   */\n      add\n        /* \"#utility.yul\":13319:13351   */\n      calldataload\n        /* \"#utility.yul\":13378:13396   */\n      0xffffffffffffffff\n        /* \"#utility.yul\":13370:13376   */\n      dup2\n        /* \"#utility.yul\":13367:13397   */\n      gt\n        /* \"#utility.yul\":13364:13481   */\n      iszero\n      tag_539\n      jumpi\n        /* \"#utility.yul\":13400:13479   */\n      tag_540\n      tag_304\n      jump\t// in\n    tag_540:\n        /* \"#utility.yul\":13364:13481   */\n    tag_539:\n        /* \"#utility.yul\":13505:13568   */\n      tag_541\n        /* \"#utility.yul\":13560:13567   */\n      dup7\n        /* \"#utility.yul\":13551:13557   */\n      dup3\n        /* \"#utility.yul\":13540:13549   */\n      dup8\n        /* \"#utility.yul\":13536:13558   */\n      add\n        /* \"#utility.yul\":13505:13568   */\n      tag_348\n      jump\t// in\n    tag_541:\n        /* \"#utility.yul\":13495:13568   */\n      swap2\n      pop\n        /* \"#utility.yul\":13290:13578   */\n      pop\n        /* \"#utility.yul\":12606:13585   */\n      swap3\n      pop\n      swap3\n      pop\n      swap3\n      jump\t// out\n        /* \"#utility.yul\":13591:13709   */\n    tag_349:\n        /* \"#utility.yul\":13678:13702   */\n      tag_543\n        /* \"#utility.yul\":13696:13701   */\n      dup2\n        /* \"#utility.yul\":13678:13702   */\n      tag_326\n      jump\t// in\n    tag_543:\n        /* \"#utility.yul\":13673:13676   */\n      dup3\n        /* \"#utility.yul\":13666:13703   */\n      mstore\n        /* \"#utility.yul\":13591:13709   */\n      pop\n      pop\n      jump\t// out\n        /* \"#utility.yul\":13715:13937   */\n    tag_90:\n        /* \"#utility.yul\":13808:13812   */\n      0x00\n        /* \"#utility.yul\":13846:13848   */\n      0x20\n        /* \"#utility.yul\":13835:13844   */\n      dup3\n        /* \"#utility.yul\":13831:13849   */\n      add\n        /* \"#utility.yul\":13823:13849   */\n      swap1\n      pop\n        /* \"#utility.yul\":13859:13930   */\n      tag_545\n        /* \"#utility.yul\":13927:13928   */\n      0x00\n        /* \"#utility.yul\":13916:13925   */\n      dup4\n        /* \"#utility.yul\":13912:13929   */\n      add\n        /* \"#utility.yul\":13903:13909   */\n      dup5\n        /* \"#utility.yul\":13859:13930   */\n      tag_349\n      jump\t// in\n    tag_545:\n        /* \"#utility.yul\":13715:13937   */\n      swap3\n      swap2\n      pop\n      pop\n      jump\t// out\n        /* \"#utility.yul\":13943:14263   */\n    tag_350:\n        /* \"#utility.yul\":14029:14033   */\n      0x00\n        /* \"#utility.yul\":14119:14137   */\n      0xffffffffffffffff\n        /* \"#utility.yul\":14111:14117   */\n      dup3\n        /* \"#utility.yul\":14108:14138   */\n      gt\n        /* \"#utility.yul\":14105:14161   */\n      iszero\n      tag_547\n      jumpi\n        /* \"#utility.yul\":14141:14159   */\n      tag_548\n      tag_342\n      jump\t// in\n    tag_548:\n        /* \"#utility.yul\":14105:14161   */\n    tag_547:\n        /* \"#utility.yul\":14191:14195   */\n      0x20\n        /* \"#utility.yul\":14183:14189   */\n      dup3\n        /* \"#utility.yul\":14179:14196   */\n      mul\n        /* \"#utility.yul\":14171:14196   */\n      swap1\n      pop\n        /* \"#utility.yul\":14251:14255   */\n      0x20\n        /* \"#utility.yul\":14245:14249   */\n      dup2\n        /* \"#utility.yul\":14241:14256   */\n      add\n        /* \"#utility.yul\":14233:14256   */\n      swap1\n      pop\n        /* \"#utility.yul\":13943:14263   */\n      swap2\n      swap1\n      pop\n      jump\t// out\n        /* \"#utility.yul\":14269:14386   */\n    tag_351:\n        /* \"#utility.yul\":14378:14379   */\n      0x00\n        /* \"#utility.yul\":14375:14376   */\n      dup1\n        /* \"#utility.yul\":14368:14380   */\n      revert\n        /* \"#utility.yul\":14392:14699   */\n    tag_352:\n        /* \"#utility.yul\":14453:14457   */\n      0x00\n        /* \"#utility.yul\":14543:14561   */\n      0xffffffffffffffff\n        /* \"#utility.yul\":14535:14541   */\n      dup3\n        /* \"#utility.yul\":14532:14562   */\n      gt\n        /* \"#utility.yul\":14529:14585   */\n      iszero\n      tag_551\n      jumpi\n        /* \"#utility.yul\":14565:14583   */\n      tag_552\n      tag_342\n      jump\t// in\n    tag_552:\n        /* \"#utility.yul\":14529:14585   */\n    tag_551:\n        /* \"#utility.yul\":14603:14632   */\n      tag_553\n        /* \"#utility.yul\":14625:14631   */\n      dup3\n        /* \"#utility.yul\":14603:14632   */\n      tag_315\n      jump\t// in\n    tag_553:\n        /* \"#utility.yul\":14595:14632   */\n      swap1\n      pop\n        /* \"#utility.yul\":14687:14691   */\n      0x20\n        /* \"#utility.yul\":14681:14685   */\n      dup2\n        /* \"#utility.yul\":14677:14692   */\n      add\n        /* \"#utility.yul\":14669:14692   */\n      swap1\n      pop\n        /* \"#utility.yul\":14392:14699   */\n      swap2\n      swap1\n      pop\n      jump\t// out\n        /* \"#utility.yul\":14705:15128   */\n    tag_353:\n        /* \"#utility.yul\":14782:14787   */\n      0x00\n        /* \"#utility.yul\":14807:14872   */\n      tag_555\n        /* \"#utility.yul\":14823:14871   */\n      tag_556\n        /* \"#utility.yul\":14864:14870   */\n      dup5\n        /* \"#utility.yul\":14823:14871   */\n      tag_352\n      jump\t// in\n    tag_556:\n        /* \"#utility.yul\":14807:14872   */\n      tag_344\n      jump\t// in\n    tag_555:\n        /* \"#utility.yul\":14798:14872   */\n      swap1\n      pop\n        /* \"#utility.yul\":14895:14901   */\n      dup3\n        /* \"#utility.yul\":14888:14893   */\n      dup2\n        /* \"#utility.yul\":14881:14902   */\n      mstore\n        /* \"#utility.yul\":14933:14937   */\n      0x20\n        /* \"#utility.yul\":14926:14931   */\n      dup2\n        /* \"#utility.yul\":14922:14938   */\n      add\n        /* \"#utility.yul\":14971:14974   */\n      dup5\n        /* \"#utility.yul\":14962:14968   */\n      dup5\n        /* \"#utility.yul\":14957:14960   */\n      dup5\n        /* \"#utility.yul\":14953:14969   */\n      add\n        /* \"#utility.yul\":14950:14975   */\n      gt\n        /* \"#utility.yul\":14947:15059   */\n      iszero\n      tag_557\n      jumpi\n        /* \"#utility.yul\":14978:15057   */\n      tag_558\n      tag_341\n      jump\t// in\n    tag_558:\n        /* \"#utility.yul\":14947:15059   */\n    tag_557:\n        /* \"#utility.yul\":15068:15122   */\n      tag_559\n        /* \"#utility.yul\":15115:15121   */\n      dup5\n        /* \"#utility.yul\":15110:15113   */\n      dup3\n        /* \"#utility.yul\":15105:15108   */\n      dup6\n        /* \"#utility.yul\":15068:15122   */\n      tag_346\n      jump\t// in\n    tag_559:\n        /* \"#utility.yul\":14788:15128   */\n      pop\n        /* \"#utility.yul\":14705:15128   */\n      swap4\n      swap3\n      pop\n      pop\n      pop\n      jump\t// out\n        /* \"#utility.yul\":15147:15485   */\n    tag_354:\n        /* \"#utility.yul\":15202:15207   */\n      0x00\n        /* \"#utility.yul\":15251:15254   */\n      dup3\n        /* \"#utility.yul\":15244:15248   */\n      0x1f\n        /* \"#utility.yul\":15236:15242   */\n      dup4\n        /* \"#utility.yul\":15232:15249   */\n      add\n        /* \"#utility.yul\":15228:15255   */\n      slt\n        /* \"#utility.yul\":15218:15340   */\n      tag_561\n      jumpi\n        /* \"#utility.yul\":15259:15338   */\n      tag_562\n      tag_340\n      jump\t// in\n    tag_562:\n        /* \"#utility.yul\":15218:15340   */\n    tag_561:\n        /* \"#utility.yul\":15376:15382   */\n      dup2\n        /* \"#utility.yul\":15363:15383   */\n      calldataload\n        /* \"#utility.yul\":15401:15479   */\n      tag_563\n        /* \"#utility.yul\":15475:15478   */\n      dup5\n        /* \"#utility.yul\":15467:15473   */\n      dup3\n        /* \"#utility.yul\":15460:15464   */\n      0x20\n        /* \"#utility.yul\":15452:15458   */\n      dup7\n        /* \"#utility.yul\":15448:15465   */\n      add\n        /* \"#utility.yul\":15401:15479   */\n      tag_353\n      jump\t// in\n    tag_563:\n        /* \"#utility.yul\":15392:15479   */\n      swap2\n      pop\n        /* \"#utility.yul\":15208:15485   */\n      pop\n        /* \"#utility.yul\":15147:15485   */\n      swap3\n      swap2\n      pop\n      pop\n      jump\t// out\n        /* \"#utility.yul\":15506:16448   */\n    tag_355:\n        /* \"#utility.yul\":15611:15616   */\n      0x00\n        /* \"#utility.yul\":15636:15726   */\n      tag_565\n        /* \"#utility.yul\":15652:15725   */\n      tag_566\n        /* \"#utility.yul\":15718:15724   */\n      dup5\n        /* \"#utility.yul\":15652:15725   */\n      tag_350\n      jump\t// in\n    tag_566:\n        /* \"#utility.yul\":15636:15726   */\n      tag_344\n      jump\t// in\n    tag_565:\n        /* \"#utility.yul\":15627:15726   */\n      swap1\n      pop\n        /* \"#utility.yul\":15746:15751   */\n      dup1\n        /* \"#utility.yul\":15775:15781   */\n      dup4\n        /* \"#utility.yul\":15768:15773   */\n      dup3\n        /* \"#utility.yul\":15761:15782   */\n      mstore\n        /* \"#utility.yul\":15809:15813   */\n      0x20\n        /* \"#utility.yul\":15802:15807   */\n      dup3\n        /* \"#utility.yul\":15798:15814   */\n      add\n        /* \"#utility.yul\":15791:15814   */\n      swap1\n      pop\n        /* \"#utility.yul\":15862:15866   */\n      0x20\n        /* \"#utility.yul\":15854:15860   */\n      dup5\n        /* \"#utility.yul\":15850:15867   */\n      mul\n        /* \"#utility.yul\":15842:15848   */\n      dup4\n        /* \"#utility.yul\":15838:15868   */\n      add\n        /* \"#utility.yul\":15891:15894   */\n      dup6\n        /* \"#utility.yul\":15883:15889   */\n      dup2\n        /* \"#utility.yul\":15880:15895   */\n      gt\n        /* \"#utility.yul\":15877:15999   */\n      iszero\n      tag_567\n      jumpi\n        /* \"#utility.yul\":15910:15989   */\n      tag_568\n      tag_351\n      jump\t// in\n    tag_568:\n        /* \"#utility.yul\":15877:15999   */\n    tag_567:\n        /* \"#utility.yul\":16025:16031   */\n      dup4\n        /* \"#utility.yul\":16008:16442   */\n    tag_569:\n        /* \"#utility.yul\":16042:16048   */\n      dup2\n        /* \"#utility.yul\":16037:16040   */\n      dup2\n        /* \"#utility.yul\":16034:16049   */\n      lt\n        /* \"#utility.yul\":16008:16442   */\n      iszero\n      tag_571\n      jumpi\n        /* \"#utility.yul\":16131:16134   */\n      dup1\n        /* \"#utility.yul\":16118:16135   */\n      calldataload\n        /* \"#utility.yul\":16167:16185   */\n      0xffffffffffffffff\n        /* \"#utility.yul\":16154:16165   */\n      dup2\n        /* \"#utility.yul\":16151:16186   */\n      gt\n        /* \"#utility.yul\":16148:16270   */\n      iszero\n      tag_572\n      jumpi\n        /* \"#utility.yul\":16189:16268   */\n      tag_573\n      tag_340\n      jump\t// in\n    tag_573:\n        /* \"#utility.yul\":16148:16270   */\n    tag_572:\n        /* \"#utility.yul\":16313:16324   */\n      dup1\n        /* \"#utility.yul\":16305:16311   */\n      dup7\n        /* \"#utility.yul\":16301:16325   */\n      add\n        /* \"#utility.yul\":16351:16397   */\n      tag_574\n        /* \"#utility.yul\":16393:16396   */\n      dup10\n        /* \"#utility.yul\":16381:16391   */\n      dup3\n        /* \"#utility.yul\":16351:16397   */\n      tag_354\n      jump\t// in\n    tag_574:\n        /* \"#utility.yul\":16346:16349   */\n      dup6\n        /* \"#utility.yul\":16339:16398   */\n      mstore\n        /* \"#utility.yul\":16427:16431   */\n      0x20\n        /* \"#utility.yul\":16422:16425   */\n      dup6\n        /* \"#utility.yul\":16418:16432   */\n      add\n        /* \"#utility.yul\":16411:16432   */\n      swap5\n      pop\n        /* \"#utility.yul\":16084:16442   */\n      pop\n      pop\n        /* \"#utility.yul\":16068:16072   */\n      0x20\n        /* \"#utility.yul\":16063:16066   */\n      dup2\n        /* \"#utility.yul\":16059:16073   */\n      add\n        /* \"#utility.yul\":16052:16073   */\n      swap1\n      pop\n        /* \"#utility.yul\":16008:16442   */\n      jump(tag_569)\n    tag_571:\n        /* \"#utility.yul\":16012:16033   */\n      pop\n        /* \"#utility.yul\":15617:16448   */\n      pop\n      pop\n        /* \"#utility.yul\":15506:16448   */\n      swap4\n      swap3\n      pop\n      pop\n      pop\n      jump\t// out\n        /* \"#utility.yul\":16469:16857   */\n    tag_356:\n        /* \"#utility.yul\":16549:16554   */\n      0x00\n        /* \"#utility.yul\":16598:16601   */\n      dup3\n        /* \"#utility.yul\":16591:16595   */\n      0x1f\n        /* \"#utility.yul\":16583:16589   */\n      dup4\n        /* \"#utility.yul\":16579:16596   */\n      add\n        /* \"#utility.yul\":16575:16602   */\n      slt\n        /* \"#utility.yul\":16565:16687   */\n      tag_576\n      jumpi\n        /* \"#utility.yul\":16606:16685   */\n      tag_577\n      tag_340\n      jump\t// in\n    tag_577:\n        /* \"#utility.yul\":16565:16687   */\n    tag_576:\n        /* \"#utility.yul\":16723:16729   */\n      dup2\n        /* \"#utility.yul\":16710:16730   */\n      calldataload\n        /* \"#utility.yul\":16748:16851   */\n      tag_578\n        /* \"#utility.yul\":16847:16850   */\n      dup5\n        /* \"#utility.yul\":16839:16845   */\n      dup3\n        /* \"#utility.yul\":16832:16836   */\n      0x20\n        /* \"#utility.yul\":16824:16830   */\n      dup7\n        /* \"#utility.yul\":16820:16837   */\n      add\n        /* \"#utility.yul\":16748:16851   */\n      tag_355\n      jump\t// in\n    tag_578:\n        /* \"#utility.yul\":16739:16851   */\n      swap2\n      pop\n        /* \"#utility.yul\":16555:16857   */\n      pop\n        /* \"#utility.yul\":16469:16857   */\n      swap3\n      swap2\n      pop\n      pop\n      jump\t// out\n        /* \"#utility.yul\":16863:17565   */\n    tag_94:\n        /* \"#utility.yul\":16965:16971   */\n      0x00\n        /* \"#utility.yul\":16973:16979   */\n      dup1\n        /* \"#utility.yul\":17022:17024   */\n      0x40\n        /* \"#utility.yul\":17010:17019   */\n      dup4\n        /* \"#utility.yul\":17001:17008   */\n      dup6\n        /* \"#utility.yul\":16997:17020   */\n      sub\n        /* \"#utility.yul\":16993:17025   */\n      slt\n        /* \"#utility.yul\":16990:17109   */\n      iszero\n      tag_580\n      jumpi\n        /* \"#utility.yul\":17028:17107   */\n      tag_581\n      tag_303\n      jump\t// in\n    tag_581:\n        /* \"#utility.yul\":16990:17109   */\n    tag_580:\n        /* \"#utility.yul\":17148:17149   */\n      0x00\n        /* \"#utility.yul\":17173:17226   */\n      tag_582\n        /* \"#utility.yul\":17218:17225   */\n      dup6\n        /* \"#utility.yul\":17209:17215   */\n      dup3\n        /* \"#utility.yul\":17198:17207   */\n      dup7\n        /* \"#utility.yul\":17194:17216   */\n      add\n        /* \"#utility.yul\":17173:17226   */\n      tag_307\n      jump\t// in\n    tag_582:\n        /* \"#utility.yul\":17163:17226   */\n      swap3\n      pop\n        /* \"#utility.yul\":17119:17236   */\n      pop\n        /* \"#utility.yul\":17303:17305   */\n      0x20\n        /* \"#utility.yul\":17292:17301   */\n      dup4\n        /* \"#utility.yul\":17288:17306   */\n      add\n        /* \"#utility.yul\":17275:17307   */\n      calldataload\n        /* \"#utility.yul\":17334:17352   */\n      0xffffffffffffffff\n        /* \"#utility.yul\":17326:17332   */\n      dup2\n        /* \"#utility.yul\":17323:17353   */\n      gt\n        /* \"#utility.yul\":17320:17437   */\n      iszero\n      tag_583\n      jumpi\n        /* \"#utility.yul\":17356:17435   */\n      tag_584\n      tag_304\n      jump\t// in\n    tag_584:\n        /* \"#utility.yul\":17320:17437   */\n    tag_583:\n        /* \"#utility.yul\":17461:17548   */\n      tag_585\n        /* \"#utility.yul\":17540:17547   */\n      dup6\n        /* \"#utility.yul\":17531:17537   */\n      dup3\n        /* \"#utility.yul\":17520:17529   */\n      dup7\n        /* \"#utility.yul\":17516:17538   */\n      add\n        /* \"#utility.yul\":17461:17548   */\n      tag_356\n      jump\t// in\n    tag_585:\n        /* \"#utility.yul\":17451:17548   */\n      swap2\n      pop\n        /* \"#utility.yul\":17246:17558   */\n      pop\n        /* \"#utility.yul\":16863:17565   */\n      swap3\n      pop\n      swap3\n      swap1\n      pop\n      jump\t// out\n        /* \"#utility.yul\":17571:18013   */\n    tag_105:\n        /* \"#utility.yul\":17720:17724   */\n      0x00\n        /* \"#utility.yul\":17758:17760   */\n      0x60\n        /* \"#utility.yul\":17747:17756   */\n      dup3\n        /* \"#utility.yul\":17743:17761   */\n      add\n        /* \"#utility.yul\":17735:17761   */\n      swap1\n      pop\n        /* \"#utility.yul\":17771:17842   */\n      tag_587\n        /* \"#utility.yul\":17839:17840   */\n      0x00\n        /* \"#utility.yul\":17828:17837   */\n      dup4\n        /* \"#utility.yul\":17824:17841   */\n      add\n        /* \"#utility.yul\":17815:17821   */\n      dup7\n        /* \"#utility.yul\":17771:17842   */\n      tag_308\n      jump\t// in\n    tag_587:\n        /* \"#utility.yul\":17852:17924   */\n      tag_588\n        /* \"#utility.yul\":17920:17922   */\n      0x20\n        /* \"#utility.yul\":17909:17918   */\n      dup4\n        /* \"#utility.yul\":17905:17923   */\n      add\n        /* \"#utility.yul\":17896:17902   */\n      dup6\n        /* \"#utility.yul\":17852:17924   */\n      tag_335\n      jump\t// in\n    tag_588:\n        /* \"#utility.yul\":17934:18006   */\n      tag_589\n        /* \"#utility.yul\":18002:18004   */\n      0x40\n        /* \"#utility.yul\":17991:18000   */\n      dup4\n        /* \"#utility.yul\":17987:18005   */\n      add\n        /* \"#utility.yul\":17978:17984   */\n      dup5\n        /* \"#utility.yul\":17934:18006   */\n      tag_308\n      jump\t// in\n    tag_589:\n        /* \"#utility.yul\":17571:18013   */\n      swap5\n      swap4\n      pop\n      pop\n      pop\n      pop\n      jump\t// out\n        /* \"#utility.yul\":18019:18754   */\n    tag_115:\n        /* \"#utility.yul\":18236:18240   */\n      0x00\n        /* \"#utility.yul\":18274:18277   */\n      0x80\n        /* \"#utility.yul\":18263:18272   */\n      dup3\n        /* \"#utility.yul\":18259:18278   */\n      add\n        /* \"#utility.yul\":18251:18278   */\n      swap1\n      pop\n        /* \"#utility.yul\":18324:18333   */\n      dup2\n        /* \"#utility.yul\":18318:18322   */\n      dup2\n        /* \"#utility.yul\":18314:18334   */\n      sub\n        /* \"#utility.yul\":18310:18311   */\n      0x00\n        /* \"#utility.yul\":18299:18308   */\n      dup4\n        /* \"#utility.yul\":18295:18312   */\n      add\n        /* \"#utility.yul\":18288:18335   */\n      mstore\n        /* \"#utility.yul\":18352:18430   */\n      tag_591\n        /* \"#utility.yul\":18425:18429   */\n      dup2\n        /* \"#utility.yul\":18416:18422   */\n      dup8\n        /* \"#utility.yul\":18352:18430   */\n      tag_331\n      jump\t// in\n    tag_591:\n        /* \"#utility.yul\":18344:18430   */\n      swap1\n      pop\n        /* \"#utility.yul\":18440:18512   */\n      tag_592\n        /* \"#utility.yul\":18508:18510   */\n      0x20\n        /* \"#utility.yul\":18497:18506   */\n      dup4\n        /* \"#utility.yul\":18493:18511   */\n      add\n        /* \"#utility.yul\":18484:18490   */\n      dup7\n        /* \"#utility.yul\":18440:18512   */\n      tag_335\n      jump\t// in\n    tag_592:\n        /* \"#utility.yul\":18559:18568   */\n      dup2\n        /* \"#utility.yul\":18553:18557   */\n      dup2\n        /* \"#utility.yul\":18549:18569   */\n      sub\n        /* \"#utility.yul\":18544:18546   */\n      0x40\n        /* \"#utility.yul\":18533:18542   */\n      dup4\n        /* \"#utility.yul\":18529:18547   */\n      add\n        /* \"#utility.yul\":18522:18570   */\n      mstore\n        /* \"#utility.yul\":18587:18665   */\n      tag_593\n        /* \"#utility.yul\":18660:18664   */\n      dup2\n        /* \"#utility.yul\":18651:18657   */\n      dup6\n        /* \"#utility.yul\":18587:18665   */\n      tag_331\n      jump\t// in\n    tag_593:\n        /* \"#utility.yul\":18579:18665   */\n      swap1\n      pop\n        /* \"#utility.yul\":18675:18747   */\n      tag_594\n        /* \"#utility.yul\":18743:18745   */\n      0x60\n        /* \"#utility.yul\":18732:18741   */\n      dup4\n        /* \"#utility.yul\":18728:18746   */\n      add\n        /* \"#utility.yul\":18719:18725   */\n      dup5\n        /* \"#utility.yul\":18675:18747   */\n      tag_308\n      jump\t// in\n    tag_594:\n        /* \"#utility.yul\":18019:18754   */\n      swap6\n      swap5\n      pop\n      pop\n      pop\n      pop\n      pop\n      jump\t// out\n        /* \"#utility.yul\":18760:19642   */\n    tag_119:\n        /* \"#utility.yul\":18872:18878   */\n      0x00\n        /* \"#utility.yul\":18880:18886   */\n      dup1\n        /* \"#utility.yul\":18929:18931   */\n      0x40\n        /* \"#utility.yul\":18917:18926   */\n      dup4\n        /* \"#utility.yul\":18908:18915   */\n      dup6\n        /* \"#utility.yul\":18904:18927   */\n      sub\n        /* \"#utility.yul\":18900:18932   */\n      slt\n        /* \"#utility.yul\":18897:19016   */\n      iszero\n      tag_596\n      jumpi\n        /* \"#utility.yul\":18935:19014   */\n      tag_597\n      tag_303\n      jump\t// in\n    tag_597:\n        /* \"#utility.yul\":18897:19016   */\n    tag_596:\n        /* \"#utility.yul\":19083:19084   */\n      0x00\n        /* \"#utility.yul\":19072:19081   */\n      dup4\n        /* \"#utility.yul\":19068:19085   */\n      add\n        /* \"#utility.yul\":19055:19086   */\n      calldataload\n        /* \"#utility.yul\":19113:19131   */\n      0xffffffffffffffff\n        /* \"#utility.yul\":19105:19111   */\n      dup2\n        /* \"#utility.yul\":19102:19132   */\n      gt\n        /* \"#utility.yul\":19099:19216   */\n      iszero\n      tag_598\n      jumpi\n        /* \"#utility.yul\":19135:19214   */\n      tag_599\n      tag_304\n      jump\t// in\n    tag_599:\n        /* \"#utility.yul\":19099:19216   */\n    tag_598:\n        /* \"#utility.yul\":19240:19303   */\n      tag_600\n        /* \"#utility.yul\":19295:19302   */\n      dup6\n        /* \"#utility.yul\":19286:19292   */\n      dup3\n        /* \"#utility.yul\":19275:19284   */\n      dup7\n        /* \"#utility.yul\":19271:19293   */\n      add\n        /* \"#utility.yul\":19240:19303   */\n      tag_348\n      jump\t// in\n    tag_600:\n        /* \"#utility.yul\":19230:19303   */\n      swap3\n      pop\n        /* \"#utility.yul\":19026:19313   */\n      pop\n        /* \"#utility.yul\":19380:19382   */\n      0x20\n        /* \"#utility.yul\":19369:19378   */\n      dup4\n        /* \"#utility.yul\":19365:19383   */\n      add\n        /* \"#utility.yul\":19352:19384   */\n      calldataload\n        /* \"#utility.yul\":19411:19429   */\n      0xffffffffffffffff\n        /* \"#utility.yul\":19403:19409   */\n      dup2\n        /* \"#utility.yul\":19400:19430   */\n      gt\n        /* \"#utility.yul\":19397:19514   */\n      iszero\n      tag_601\n      jumpi\n        /* \"#utility.yul\":19433:19512   */\n      tag_602\n      tag_304\n      jump\t// in\n    tag_602:\n        /* \"#utility.yul\":19397:19514   */\n    tag_601:\n        /* \"#utility.yul\":19538:19625   */\n      tag_603\n        /* \"#utility.yul\":19617:19624   */\n      dup6\n        /* \"#utility.yul\":19608:19614   */\n      dup3\n        /* \"#utility.yul\":19597:19606   */\n      dup7\n        /* \"#utility.yul\":19593:19615   */\n      add\n        /* \"#utility.yul\":19538:19625   */\n      tag_356\n      jump\t// in\n    tag_603:\n        /* \"#utility.yul\":19528:19625   */\n      swap2\n      pop\n        /* \"#utility.yul\":19323:19635   */\n      pop\n        /* \"#utility.yul\":18760:19642   */\n      swap3\n      pop\n      swap3\n      swap1\n      pop\n      jump\t// out\n        /* \"#utility.yul\":19648:19811   */\n    tag_357:\n        /* \"#utility.yul\":19788:19803   */\n      0x4e6f7420616e206f776e65722100000000000000000000000000000000000000\n        /* \"#utility.yul\":19784:19785   */\n      0x00\n        /* \"#utility.yul\":19776:19782   */\n      dup3\n        /* \"#utility.yul\":19772:19786   */\n      add\n        /* \"#utility.yul\":19765:19804   */\n      mstore\n        /* \"#utility.yul\":19648:19811   */\n      pop\n      jump\t// out\n        /* \"#utility.yul\":19817:20183   */\n    tag_358:\n        /* \"#utility.yul\":19959:19962   */\n      0x00\n        /* \"#utility.yul\":19980:20047   */\n      tag_606\n        /* \"#utility.yul\":20044:20046   */\n      0x0d\n        /* \"#utility.yul\":20039:20042   */\n      dup4\n        /* \"#utility.yul\":19980:20047   */\n      tag_330\n      jump\t// in\n    tag_606:\n        /* \"#utility.yul\":19973:20047   */\n      swap2\n      pop\n        /* \"#utility.yul\":20056:20149   */\n      tag_607\n        /* \"#utility.yul\":20145:20148   */\n      dup3\n        /* \"#utility.yul\":20056:20149   */\n      tag_357\n      jump\t// in\n    tag_607:\n        /* \"#utility.yul\":20174:20176   */\n      0x20\n        /* \"#utility.yul\":20169:20172   */\n      dup3\n        /* \"#utility.yul\":20165:20177   */\n      add\n        /* \"#utility.yul\":20158:20177   */\n      swap1\n      pop\n        /* \"#utility.yul\":19817:20183   */\n      swap2\n      swap1\n      pop\n      jump\t// out\n        /* \"#utility.yul\":20189:20608   */\n    tag_125:\n        /* \"#utility.yul\":20355:20359   */\n      0x00\n        /* \"#utility.yul\":20393:20395   */\n      0x20\n        /* \"#utility.yul\":20382:20391   */\n      dup3\n        /* \"#utility.yul\":20378:20396   */\n      add\n        /* \"#utility.yul\":20370:20396   */\n      swap1\n      pop\n        /* \"#utility.yul\":20442:20451   */\n      dup2\n        /* \"#utility.yul\":20436:20440   */\n      dup2\n        /* \"#utility.yul\":20432:20452   */\n      sub\n        /* \"#utility.yul\":20428:20429   */\n      0x00\n        /* \"#utility.yul\":20417:20426   */\n      dup4\n        /* \"#utility.yul\":20413:20430   */\n      add\n        /* \"#utility.yul\":20406:20453   */\n      mstore\n        /* \"#utility.yul\":20470:20601   */\n      tag_609\n        /* \"#utility.yul\":20596:20600   */\n      dup2\n        /* \"#utility.yul\":20470:20601   */\n      tag_358\n      jump\t// in\n    tag_609:\n        /* \"#utility.yul\":20462:20601   */\n      swap1\n      pop\n        /* \"#utility.yul\":20189:20608   */\n      swap2\n      swap1\n      pop\n      jump\t// out\n        /* \"#utility.yul\":20614:20794   */\n    tag_359:\n        /* \"#utility.yul\":20662:20739   */\n      0x4e487b7100000000000000000000000000000000000000000000000000000000\n        /* \"#utility.yul\":20659:20660   */\n      0x00\n        /* \"#utility.yul\":20652:20740   */\n      mstore\n        /* \"#utility.yul\":20759:20763   */\n      0x22\n        /* \"#utility.yul\":20756:20757   */\n      0x04\n        /* \"#utility.yul\":20749:20764   */\n      mstore\n        /* \"#utility.yul\":20783:20787   */\n      0x24\n        /* \"#utility.yul\":20780:20781   */\n      0x00\n        /* \"#utility.yul\":20773:20788   */\n      revert\n        /* \"#utility.yul\":20800:21120   */\n    tag_132:\n        /* \"#utility.yul\":20844:20850   */\n      0x00\n        /* \"#utility.yul\":20881:20882   */\n      0x02\n        /* \"#utility.yul\":20875:20879   */\n      dup3\n        /* \"#utility.yul\":20871:20883   */\n      div\n        /* \"#utility.yul\":20861:20883   */\n      swap1\n      pop\n        /* \"#utility.yul\":20928:20929   */\n      0x01\n        /* \"#utility.yul\":20922:20926   */\n      dup3\n        /* \"#utility.yul\":20918:20930   */\n      and\n        /* \"#utility.yul\":20949:20967   */\n      dup1\n        /* \"#utility.yul\":20939:21020   */\n      tag_612\n      jumpi\n        /* \"#utility.yul\":21005:21009   */\n      0x7f\n        /* \"#utility.yul\":20997:21003   */\n      dup3\n        /* \"#utility.yul\":20993:21010   */\n      and\n        /* \"#utility.yul\":20983:21010   */\n      swap2\n      pop\n        /* \"#utility.yul\":20939:21020   */\n    tag_612:\n        /* \"#utility.yul\":21067:21069   */\n      0x20\n        /* \"#utility.yul\":21059:21065   */\n      dup3\n        /* \"#utility.yul\":21056:21070   */\n      lt\n        /* \"#utility.yul\":21036:21054   */\n      dup2\n        /* \"#utility.yul\":21033:21071   */\n      sub\n        /* \"#utility.yul\":21030:21114   */\n      tag_613\n      jumpi\n        /* \"#utility.yul\":21086:21104   */\n      tag_614\n      tag_359\n      jump\t// in\n    tag_614:\n        /* \"#utility.yul\":21030:21114   */\n    tag_613:\n        /* \"#utility.yul\":20851:21120   */\n      pop\n        /* \"#utility.yul\":20800:21120   */\n      swap2\n      swap1\n      pop\n      jump\t// out\n        /* \"#utility.yul\":21126:21300   */\n    tag_360:\n        /* \"#utility.yul\":21266:21292   */\n      0x53756368206f726465724944206e6f7420657869737473210000000000000000\n        /* \"#utility.yul\":21262:21263   */\n      0x00\n        /* \"#utility.yul\":21254:21260   */\n      dup3\n        /* \"#utility.yul\":21250:21264   */\n      add\n        /* \"#utility.yul\":21243:21293   */\n      mstore\n        /* \"#utility.yul\":21126:21300   */\n      pop\n      jump\t// out\n        /* \"#utility.yul\":21306:21672   */\n    tag_361:\n        /* \"#utility.yul\":21448:21451   */\n      0x00\n        /* \"#utility.yul\":21469:21536   */\n      tag_617\n        /* \"#utility.yul\":21533:21535   */\n      0x18\n        /* \"#utility.yul\":21528:21531   */\n      dup4\n        /* \"#utility.yul\":21469:21536   */\n      tag_330\n      jump\t// in\n    tag_617:\n        /* \"#utility.yul\":21462:21536   */\n      swap2\n      pop\n        /* \"#utility.yul\":21545:21638   */\n      tag_618\n        /* \"#utility.yul\":21634:21637   */\n      dup3\n        /* \"#utility.yul\":21545:21638   */\n      tag_360\n      jump\t// in\n    tag_618:\n        /* \"#utility.yul\":21663:21665   */\n      0x20\n        /* \"#utility.yul\":21658:21661   */\n      dup3\n        /* \"#utility.yul\":21654:21666   */\n      add\n        /* \"#utility.yul\":21647:21666   */\n      swap1\n      pop\n        /* \"#utility.yul\":21306:21672   */\n      swap2\n      swap1\n      pop\n      jump\t// out\n        /* \"#utility.yul\":21678:22097   */\n    tag_139:\n        /* \"#utility.yul\":21844:21848   */\n      0x00\n        /* \"#utility.yul\":21882:21884   */\n      0x20\n        /* \"#utility.yul\":21871:21880   */\n      dup3\n        /* \"#utility.yul\":21867:21885   */\n      add\n        /* \"#utility.yul\":21859:21885   */\n      swap1\n      pop\n        /* \"#utility.yul\":21931:21940   */\n      dup2\n        /* \"#utility.yul\":21925:21929   */\n      dup2\n        /* \"#utility.yul\":21921:21941   */\n      sub\n        /* \"#utility.yul\":21917:21918   */\n      0x00\n        /* \"#utility.yul\":21906:21915   */\n      dup4\n        /* \"#utility.yul\":21902:21919   */\n      add\n        /* \"#utility.yul\":21895:21942   */\n      mstore\n        /* \"#utility.yul\":21959:22090   */\n      tag_620\n        /* \"#utility.yul\":22085:22089   */\n      dup2\n        /* \"#utility.yul\":21959:22090   */\n      tag_361\n      jump\t// in\n    tag_620:\n        /* \"#utility.yul\":21951:22090   */\n      swap1\n      pop\n        /* \"#utility.yul\":21678:22097   */\n      swap2\n      swap1\n      pop\n      jump\t// out\n        /* \"#utility.yul\":22103:22269   */\n    tag_362:\n        /* \"#utility.yul\":22243:22261   */\n      0x496e76616c6964206f7264657220494400000000000000000000000000000000\n        /* \"#utility.yul\":22239:22240   */\n      0x00\n        /* \"#utility.yul\":22231:22237   */\n      dup3\n        /* \"#utility.yul\":22227:22241   */\n      add\n        /* \"#utility.yul\":22220:22262   */\n      mstore\n        /* \"#utility.yul\":22103:22269   */\n      pop\n      jump\t// out\n        /* \"#utility.yul\":22275:22641   */\n    tag_363:\n        /* \"#utility.yul\":22417:22420   */\n      0x00\n        /* \"#utility.yul\":22438:22505   */\n      tag_623\n        /* \"#utility.yul\":22502:22504   */\n      0x10\n        /* \"#utility.yul\":22497:22500   */\n      dup4\n        /* \"#utility.yul\":22438:22505   */\n      tag_330\n      jump\t// in\n    tag_623:\n        /* \"#utility.yul\":22431:22505   */\n      swap2\n      pop\n        /* \"#utility.yul\":22514:22607   */\n      tag_624\n        /* \"#utility.yul\":22603:22606   */\n      dup3\n        /* \"#utility.yul\":22514:22607   */\n      tag_362\n      jump\t// in\n    tag_624:\n        /* \"#utility.yul\":22632:22634   */\n      0x20\n        /* \"#utility.yul\":22627:22630   */\n      dup3\n        /* \"#utility.yul\":22623:22635   */\n      add\n        /* \"#utility.yul\":22616:22635   */\n      swap1\n      pop\n        /* \"#utility.yul\":22275:22641   */\n      swap2\n      swap1\n      pop\n      jump\t// out\n        /* \"#utility.yul\":22647:23066   */\n    tag_198:\n        /* \"#utility.yul\":22813:22817   */\n      0x00\n        /* \"#utility.yul\":22851:22853   */\n      0x20\n        /* \"#utility.yul\":22840:22849   */\n      dup3\n        /* \"#utility.yul\":22836:22854   */\n      add\n        /* \"#utility.yul\":22828:22854   */\n      swap1\n      pop\n        /* \"#utility.yul\":22900:22909   */\n      dup2\n        /* \"#utility.yul\":22894:22898   */\n      dup2\n        /* \"#utility.yul\":22890:22910   */\n      sub\n        /* \"#utility.yul\":22886:22887   */\n      0x00\n        /* \"#utility.yul\":22875:22884   */\n      dup4\n        /* \"#utility.yul\":22871:22888   */\n      add\n        /* \"#utility.yul\":22864:22911   */\n      mstore\n        /* \"#utility.yul\":22928:23059   */\n      tag_626\n        /* \"#utility.yul\":23054:23058   */\n      dup2\n        /* \"#utility.yul\":22928:23059   */\n      tag_363\n      jump\t// in\n    tag_626:\n        /* \"#utility.yul\":22920:23059   */\n      swap1\n      pop\n        /* \"#utility.yul\":22647:23066   */\n      swap2\n      swap1\n      pop\n      jump\t// out\n        /* \"#utility.yul\":23072:23220   */\n    tag_364:\n        /* \"#utility.yul\":23174:23185   */\n      0x00\n        /* \"#utility.yul\":23211:23214   */\n      dup2\n        /* \"#utility.yul\":23196:23214   */\n      swap1\n      pop\n        /* \"#utility.yul\":23072:23220   */\n      swap3\n      swap2\n      pop\n      pop\n      jump\t// out\n        /* \"#utility.yul\":23226:23616   */\n    tag_365:\n        /* \"#utility.yul\":23332:23335   */\n      0x00\n        /* \"#utility.yul\":23360:23399   */\n      tag_629\n        /* \"#utility.yul\":23393:23398   */\n      dup3\n        /* \"#utility.yul\":23360:23399   */\n      tag_329\n      jump\t// in\n    tag_629:\n        /* \"#utility.yul\":23415:23504   */\n      tag_630\n        /* \"#utility.yul\":23497:23503   */\n      dup2\n        /* \"#utility.yul\":23492:23495   */\n      dup6\n        /* \"#utility.yul\":23415:23504   */\n      tag_364\n      jump\t// in\n    tag_630:\n        /* \"#utility.yul\":23408:23504   */\n      swap4\n      pop\n        /* \"#utility.yul\":23513:23578   */\n      tag_631\n        /* \"#utility.yul\":23571:23577   */\n      dup2\n        /* \"#utility.yul\":23566:23569   */\n      dup6\n        /* \"#utility.yul\":23559:23563   */\n      0x20\n        /* \"#utility.yul\":23552:23557   */\n      dup7\n        /* \"#utility.yul\":23548:23564   */\n      add\n        /* \"#utility.yul\":23513:23578   */\n      tag_314\n      jump\t// in\n    tag_631:\n        /* \"#utility.yul\":23603:23609   */\n      dup1\n        /* \"#utility.yul\":23598:23601   */\n      dup5\n        /* \"#utility.yul\":23594:23610   */\n      add\n        /* \"#utility.yul\":23587:23610   */\n      swap2\n      pop\n        /* \"#utility.yul\":23336:23616   */\n      pop\n        /* \"#utility.yul\":23226:23616   */\n      swap3\n      swap2\n      pop\n      pop\n      jump\t// out\n        /* \"#utility.yul\":23622:23701   */\n    tag_366:\n        /* \"#utility.yul\":23661:23668   */\n      0x00\n        /* \"#utility.yul\":23690:23695   */\n      dup2\n        /* \"#utility.yul\":23679:23695   */\n      swap1\n      pop\n        /* \"#utility.yul\":23622:23701   */\n      swap2\n      swap1\n      pop\n      jump\t// out\n        /* \"#utility.yul\":23707:23864   */\n    tag_367:\n        /* \"#utility.yul\":23812:23857   */\n      tag_634\n        /* \"#utility.yul\":23832:23856   */\n      tag_635\n        /* \"#utility.yul\":23850:23855   */\n      dup3\n        /* \"#utility.yul\":23832:23856   */\n      tag_305\n      jump\t// in\n    tag_635:\n        /* \"#utility.yul\":23812:23857   */\n      tag_366\n      jump\t// in\n    tag_634:\n        /* \"#utility.yul\":23807:23810   */\n      dup3\n        /* \"#utility.yul\":23800:23858   */\n      mstore\n        /* \"#utility.yul\":23707:23864   */\n      pop\n      pop\n      jump\t// out\n        /* \"#utility.yul\":23870:24446   */\n    tag_227:\n        /* \"#utility.yul\":24078:24081   */\n      0x00\n        /* \"#utility.yul\":24100:24195   */\n      tag_637\n        /* \"#utility.yul\":24191:24194   */\n      dup3\n        /* \"#utility.yul\":24182:24188   */\n      dup7\n        /* \"#utility.yul\":24100:24195   */\n      tag_365\n      jump\t// in\n    tag_637:\n        /* \"#utility.yul\":24093:24195   */\n      swap2\n      pop\n        /* \"#utility.yul\":24212:24307   */\n      tag_638\n        /* \"#utility.yul\":24303:24306   */\n      dup3\n        /* \"#utility.yul\":24294:24300   */\n      dup6\n        /* \"#utility.yul\":24212:24307   */\n      tag_365\n      jump\t// in\n    tag_638:\n        /* \"#utility.yul\":24205:24307   */\n      swap2\n      pop\n        /* \"#utility.yul\":24317:24392   */\n      tag_639\n        /* \"#utility.yul\":24388:24391   */\n      dup3\n        /* \"#utility.yul\":24379:24385   */\n      dup5\n        /* \"#utility.yul\":24317:24392   */\n      tag_367\n      jump\t// in\n    tag_639:\n        /* \"#utility.yul\":24417:24419   */\n      0x20\n        /* \"#utility.yul\":24412:24415   */\n      dup3\n        /* \"#utility.yul\":24408:24420   */\n      add\n        /* \"#utility.yul\":24401:24420   */\n      swap2\n      pop\n        /* \"#utility.yul\":24437:24440   */\n      dup2\n        /* \"#utility.yul\":24430:24440   */\n      swap1\n      pop\n        /* \"#utility.yul\":23870:24446   */\n      swap5\n      swap4\n      pop\n      pop\n      pop\n      pop\n      jump\t// out\n        /* \"#utility.yul\":24452:24593   */\n    tag_368:\n        /* \"#utility.yul\":24501:24505   */\n      0x00\n        /* \"#utility.yul\":24524:24527   */\n      dup2\n        /* \"#utility.yul\":24516:24527   */\n      swap1\n      pop\n        /* \"#utility.yul\":24547:24550   */\n      dup2\n        /* \"#utility.yul\":24544:24545   */\n      0x00\n        /* \"#utility.yul\":24537:24551   */\n      mstore\n        /* \"#utility.yul\":24581:24585   */\n      0x20\n        /* \"#utility.yul\":24578:24579   */\n      0x00\n        /* \"#utility.yul\":24568:24586   */\n      keccak256\n        /* \"#utility.yul\":24560:24586   */\n      swap1\n      pop\n        /* \"#utility.yul\":24452:24593   */\n      swap2\n      swap1\n      pop\n      jump\t// out\n        /* \"#utility.yul\":24599:24692   */\n    tag_369:\n        /* \"#utility.yul\":24636:24642   */\n      0x00\n        /* \"#utility.yul\":24683:24685   */\n      0x20\n        /* \"#utility.yul\":24678:24680   */\n      0x1f\n        /* \"#utility.yul\":24671:24676   */\n      dup4\n        /* \"#utility.yul\":24667:24681   */\n      add\n        /* \"#utility.yul\":24663:24686   */\n      div\n        /* \"#utility.yul\":24653:24686   */\n      swap1\n      pop\n        /* \"#utility.yul\":24599:24692   */\n      swap2\n      swap1\n      pop\n      jump\t// out\n        /* \"#utility.yul\":24698:24805   */\n    tag_370:\n        /* \"#utility.yul\":24742:24750   */\n      0x00\n        /* \"#utility.yul\":24792:24797   */\n      dup3\n        /* \"#utility.yul\":24786:24790   */\n      dup3\n        /* \"#utility.yul\":24782:24798   */\n      shl\n        /* \"#utility.yul\":24761:24798   */\n      swap1\n      pop\n        /* \"#utility.yul\":24698:24805   */\n      swap3\n      swap2\n      pop\n      pop\n      jump\t// out\n        /* \"#utility.yul\":24811:25204   */\n    tag_371:\n        /* \"#utility.yul\":24880:24886   */\n      0x00\n        /* \"#utility.yul\":24930:24931   */\n      0x08\n        /* \"#utility.yul\":24918:24928   */\n      dup4\n        /* \"#utility.yul\":24914:24932   */\n      mul\n        /* \"#utility.yul\":24953:25050   */\n      tag_644\n        /* \"#utility.yul\":24983:25049   */\n      0xffffffffffffffffffffffffffffffffffffffffffffffffffffffffffffffff\n        /* \"#utility.yul\":24972:24981   */\n      dup3\n        /* \"#utility.yul\":24953:25050   */\n      tag_370\n      jump\t// in\n    tag_644:\n        /* \"#utility.yul\":25071:25110   */\n      tag_645\n        /* \"#utility.yul\":25101:25109   */\n      dup7\n        /* \"#utility.yul\":25090:25099   */\n      dup4\n        /* \"#utility.yul\":25071:25110   */\n      tag_370\n      jump\t// in\n    tag_645:\n        /* \"#utility.yul\":25059:25110   */\n      swap6\n      pop\n        /* \"#utility.yul\":25143:25147   */\n      dup1\n        /* \"#utility.yul\":25139:25148   */\n      not\n        /* \"#utility.yul\":25132:25137   */\n      dup5\n        /* \"#utility.yul\":25128:25149   */\n      and\n        /* \"#utility.yul\":25119:25149   */\n      swap4\n      pop\n        /* \"#utility.yul\":25192:25196   */\n      dup1\n        /* \"#utility.yul\":25182:25190   */\n      dup7\n        /* \"#utility.yul\":25178:25197   */\n      and\n        /* \"#utility.yul\":25171:25176   */\n      dup5\n        /* \"#utility.yul\":25168:25198   */\n      or\n        /* \"#utility.yul\":25158:25198   */\n      swap3\n      pop\n        /* \"#utility.yul\":24887:25204   */\n      pop\n      pop\n        /* \"#utility.yul\":24811:25204   */\n      swap4\n      swap3\n      pop\n      pop\n      pop\n      jump\t// out\n        /* \"#utility.yul\":25210:25270   */\n    tag_372:\n        /* \"#utility.yul\":25238:25241   */\n      0x00\n        /* \"#utility.yul\":25259:25264   */\n      dup2\n        /* \"#utility.yul\":25252:25264   */\n      swap1\n      pop\n        /* \"#utility.yul\":25210:25270   */\n      swap2\n      swap1\n      pop\n      jump\t// out\n        /* \"#utility.yul\":25276:25418   */\n    tag_373:\n        /* \"#utility.yul\":25326:25335   */\n      0x00\n        /* \"#utility.yul\":25359:25412   */\n      tag_648\n        /* \"#utility.yul\":25377:25411   */\n      tag_649\n        /* \"#utility.yul\":25386:25410   */\n      tag_650\n        /* \"#utility.yul\":25404:25409   */\n      dup5\n        /* \"#utility.yul\":25386:25410   */\n      tag_305\n      jump\t// in\n    tag_650:\n        /* \"#utility.yul\":25377:25411   */\n      tag_372\n      jump\t// in\n    tag_649:\n        /* \"#utility.yul\":25359:25412   */\n      tag_305\n      jump\t// in\n    tag_648:\n        /* \"#utility.yul\":25346:25412   */\n      swap1\n      pop\n        /* \"#utility.yul\":25276:25418   */\n      swap2\n      swap1\n      pop\n      jump\t// out\n        /* \"#utility.yul\":25424:25499   */\n    tag_374:\n        /* \"#utility.yul\":25467:25470   */\n      0x00\n        /* \"#utility.yul\":25488:25493   */\n      dup2\n        /* \"#utility.yul\":25481:25493   */\n      swap1\n      pop\n        /* \"#utility.yul\":25424:25499   */\n      swap2\n      swap1\n      pop\n      jump\t// out\n        /* \"#utility.yul\":25505:25774   */\n    tag_375:\n        /* \"#utility.yul\":25615:25654   */\n      tag_653\n        /* \"#utility.yul\":25646:25653   */\n      dup4\n        /* \"#utility.yul\":25615:25654   */\n      tag_373\n      jump\t// in\n    tag_653:\n        /* \"#utility.yul\":25676:25767   */\n      tag_654\n        /* \"#utility.yul\":25725:25766   */\n      tag_655\n        /* \"#utility.yul\":25749:25765   */\n      dup3\n        /* \"#utility.yul\":25725:25766   */\n      tag_374\n      jump\t// in\n    tag_655:\n        /* \"#utility.yul\":25717:25723   */\n      dup5\n        /* \"#utility.yul\":25710:25714   */\n      dup5\n        /* \"#utility.yul\":25704:25715   */\n      sload\n        /* \"#utility.yul\":25676:25767   */\n      tag_371\n      jump\t// in\n    tag_654:\n        /* \"#utility.yul\":25670:25674   */\n      dup3\n        /* \"#utility.yul\":25663:25768   */\n      sstore\n        /* \"#utility.yul\":25581:25774   */\n      pop\n        /* \"#utility.yul\":25505:25774   */\n      pop\n      pop\n      pop\n      jump\t// out\n        /* \"#utility.yul\":25780:25853   */\n    tag_376:\n        /* \"#utility.yul\":25825:25828   */\n      0x00\n        /* \"#utility.yul\":25780:25853   */\n      swap1\n      jump\t// out\n        /* \"#utility.yul\":25859:26048   */\n    tag_377:\n        /* \"#utility.yul\":25936:25968   */\n      tag_658\n      tag_376\n      jump\t// in\n    tag_658:\n        /* \"#utility.yul\":25977:26042   */\n      tag_659\n        /* \"#utility.yul\":26035:26041   */\n      dup2\n        /* \"#utility.yul\":26027:26033   */\n      dup5\n        /* \"#utility.yul\":26021:26025   */\n      dup5\n        /* \"#utility.yul\":25977:26042   */\n      tag_375\n      jump\t// in\n    tag_659:\n        /* \"#utility.yul\":25912:26048   */\n      pop\n        /* \"#utility.yul\":25859:26048   */\n      pop\n      pop\n      jump\t// out\n        /* \"#utility.yul\":26054:26240   */\n    tag_378:\n        /* \"#utility.yul\":26114:26234   */\n    tag_661:\n        /* \"#utility.yul\":26131:26134   */\n      dup2\n        /* \"#utility.yul\":26124:26129   */\n      dup2\n        /* \"#utility.yul\":26121:26135   */\n      lt\n        /* \"#utility.yul\":26114:26234   */\n      iszero\n      tag_663\n      jumpi\n        /* \"#utility.yul\":26185:26224   */\n      tag_664\n        /* \"#utility.yul\":26222:26223   */\n      0x00\n        /* \"#utility.yul\":26215:26220   */\n      dup3\n        /* \"#utility.yul\":26185:26224   */\n      tag_377\n      jump\t// in\n    tag_664:\n        /* \"#utility.yul\":26158:26159   */\n      0x01\n        /* \"#utility.yul\":26151:26156   */\n      dup2\n        /* \"#utility.yul\":26147:26160   */\n      add\n        /* \"#utility.yul\":26138:26160   */\n      swap1\n      pop\n        /* \"#utility.yul\":26114:26234   */\n      jump(tag_661)\n    tag_663:\n        /* \"#utility.yul\":26054:26240   */\n      pop\n      pop\n      jump\t// out\n        /* \"#utility.yul\":26246:26789   */\n    tag_379:\n        /* \"#utility.yul\":26347:26349   */\n      0x1f\n        /* \"#utility.yul\":26342:26345   */\n      dup3\n        /* \"#utility.yul\":26339:26350   */\n      gt\n        /* \"#utility.yul\":26336:26782   */\n      iszero\n      tag_666\n      jumpi\n        /* \"#utility.yul\":26381:26419   */\n      tag_667\n        /* \"#utility.yul\":26413:26418   */\n      dup2\n        /* \"#utility.yul\":26381:26419   */\n      tag_368\n      jump\t// in\n    tag_667:\n        /* \"#utility.yul\":26465:26494   */\n      tag_668\n        /* \"#utility.yul\":26483:26493   */\n      dup5\n        /* \"#utility.yul\":26465:26494   */\n      tag_369\n      jump\t// in\n    tag_668:\n        /* \"#utility.yul\":26455:26463   */\n      dup2\n        /* \"#utility.yul\":26451:26495   */\n      add\n        /* \"#utility.yul\":26648:26650   */\n      0x20\n        /* \"#utility.yul\":26636:26646   */\n      dup6\n        /* \"#utility.yul\":26633:26651   */\n      lt\n        /* \"#utility.yul\":26630:26679   */\n      iszero\n      tag_669\n      jumpi\n        /* \"#utility.yul\":26669:26677   */\n      dup2\n        /* \"#utility.yul\":26654:26677   */\n      swap1\n      pop\n        /* \"#utility.yul\":26630:26679   */\n    tag_669:\n        /* \"#utility.yul\":26692:26772   */\n      tag_670\n        /* \"#utility.yul\":26748:26770   */\n      tag_671\n        /* \"#utility.yul\":26766:26769   */\n      dup6\n        /* \"#utility.yul\":26748:26770   */\n      tag_369\n      jump\t// in\n    tag_671:\n        /* \"#utility.yul\":26738:26746   */\n      dup4\n        /* \"#utility.yul\":26734:26771   */\n      add\n        /* \"#utility.yul\":26721:26732   */\n      dup3\n        /* \"#utility.yul\":26692:26772   */\n      tag_378\n      jump\t// in\n    tag_670:\n        /* \"#utility.yul\":26351:26782   */\n      pop\n      pop\n        /* \"#utility.yul\":26336:26782   */\n    tag_666:\n        /* \"#utility.yul\":26246:26789   */\n      pop\n      pop\n      pop\n      jump\t// out\n        /* \"#utility.yul\":26795:26912   */\n    tag_380:\n        /* \"#utility.yul\":26849:26857   */\n      0x00\n        /* \"#utility.yul\":26899:26904   */\n      dup3\n        /* \"#utility.yul\":26893:26897   */\n      dup3\n        /* \"#utility.yul\":26889:26905   */\n      shr\n        /* \"#utility.yul\":26868:26905   */\n      swap1\n      pop\n        /* \"#utility.yul\":26795:26912   */\n      swap3\n      swap2\n      pop\n      pop\n      jump\t// out\n        /* \"#utility.yul\":26918:27087   */\n    tag_381:\n        /* \"#utility.yul\":26962:26968   */\n      0x00\n        /* \"#utility.yul\":26995:27046   */\n      tag_674\n        /* \"#utility.yul\":27043:27044   */\n      0x00\n        /* \"#utility.yul\":27039:27045   */\n      not\n        /* \"#utility.yul\":27031:27036   */\n      dup5\n        /* \"#utility.yul\":27028:27029   */\n      0x08\n        /* \"#utility.yul\":27024:27037   */\n      mul\n        /* \"#utility.yul\":26995:27046   */\n      tag_380\n      jump\t// in\n    tag_674:\n        /* \"#utility.yul\":26991:27047   */\n      not\n        /* \"#utility.yul\":27076:27080   */\n      dup1\n        /* \"#utility.yul\":27070:27074   */\n      dup4\n        /* \"#utility.yul\":27066:27081   */\n      and\n        /* \"#utility.yul\":27056:27081   */\n      swap2\n      pop\n        /* \"#utility.yul\":26969:27087   */\n      pop\n        /* \"#utility.yul\":26918:27087   */\n      swap3\n      swap2\n      pop\n      pop\n      jump\t// out\n        /* \"#utility.yul\":27092:27387   */\n    tag_382:\n        /* \"#utility.yul\":27168:27172   */\n      0x00\n        /* \"#utility.yul\":27314:27343   */\n      tag_676\n        /* \"#utility.yul\":27339:27342   */\n      dup4\n        /* \"#utility.yul\":27333:27337   */\n      dup4\n        /* \"#utility.yul\":27314:27343   */\n      tag_381\n      jump\t// in\n    tag_676:\n        /* \"#utility.yul\":27306:27343   */\n      swap2\n      pop\n        /* \"#utility.yul\":27376:27379   */\n      dup3\n        /* \"#utility.yul\":27373:27374   */\n      0x02\n        /* \"#utility.yul\":27369:27380   */\n      mul\n        /* \"#utility.yul\":27363:27367   */\n      dup3\n        /* \"#utility.yul\":27360:27381   */\n      or\n        /* \"#utility.yul\":27352:27381   */\n      swap1\n      pop\n        /* \"#utility.yul\":27092:27387   */\n      swap3\n      swap2\n      pop\n      pop\n      jump\t// out\n        /* \"#utility.yul\":27392:28787   */\n    tag_229:\n        /* \"#utility.yul\":27509:27546   */\n      tag_678\n        /* \"#utility.yul\":27542:27545   */\n      dup3\n        /* \"#utility.yul\":27509:27546   */\n      tag_329\n      jump\t// in\n    tag_678:\n        /* \"#utility.yul\":27611:27629   */\n      0xffffffffffffffff\n        /* \"#utility.yul\":27603:27609   */\n      dup2\n        /* \"#utility.yul\":27600:27630   */\n      gt\n        /* \"#utility.yul\":27597:27653   */\n      iszero\n      tag_679\n      jumpi\n        /* \"#utility.yul\":27633:27651   */\n      tag_680\n      tag_342\n      jump\t// in\n    tag_680:\n        /* \"#utility.yul\":27597:27653   */\n    tag_679:\n        /* \"#utility.yul\":27677:27715   */\n      tag_681\n        /* \"#utility.yul\":27709:27713   */\n      dup3\n        /* \"#utility.yul\":27703:27714   */\n      sload\n        /* \"#utility.yul\":27677:27715   */\n      tag_132\n      jump\t// in\n    tag_681:\n        /* \"#utility.yul\":27762:27829   */\n      tag_682\n        /* \"#utility.yul\":27822:27828   */\n      dup3\n        /* \"#utility.yul\":27814:27820   */\n      dup3\n        /* \"#utility.yul\":27808:27812   */\n      dup6\n        /* \"#utility.yul\":27762:27829   */\n      tag_379\n      jump\t// in\n    tag_682:\n        /* \"#utility.yul\":27856:27857   */\n      0x00\n        /* \"#utility.yul\":27880:27884   */\n      0x20\n        /* \"#utility.yul\":27867:27884   */\n      swap1\n      pop\n        /* \"#utility.yul\":27912:27914   */\n      0x1f\n        /* \"#utility.yul\":27904:27910   */\n      dup4\n        /* \"#utility.yul\":27901:27915   */\n      gt\n        /* \"#utility.yul\":27929:27930   */\n      0x01\n        /* \"#utility.yul\":27924:28542   */\n      dup2\n      eq\n      tag_684\n      jumpi\n        /* \"#utility.yul\":28586:28587   */\n      0x00\n        /* \"#utility.yul\":28603:28609   */\n      dup5\n        /* \"#utility.yul\":28600:28677   */\n      iszero\n      tag_685\n      jumpi\n        /* \"#utility.yul\":28652:28661   */\n      dup3\n        /* \"#utility.yul\":28647:28650   */\n      dup8\n        /* \"#utility.yul\":28643:28662   */\n      add\n        /* \"#utility.yul\":28637:28663   */\n      mload\n        /* \"#utility.yul\":28628:28663   */\n      swap1\n      pop\n        /* \"#utility.yul\":28600:28677   */\n    tag_685:\n        /* \"#utility.yul\":28703:28770   */\n      tag_686\n        /* \"#utility.yul\":28763:28769   */\n      dup6\n        /* \"#utility.yul\":28756:28761   */\n      dup3\n        /* \"#utility.yul\":28703:28770   */\n      tag_382\n      jump\t// in\n    tag_686:\n        /* \"#utility.yul\":28697:28701   */\n      dup7\n        /* \"#utility.yul\":28690:28771   */\n      sstore\n        /* \"#utility.yul\":28559:28781   */\n      pop\n        /* \"#utility.yul\":27894:28781   */\n      jump(tag_683)\n        /* \"#utility.yul\":27924:28542   */\n    tag_684:\n        /* \"#utility.yul\":27976:27980   */\n      0x1f\n        /* \"#utility.yul\":27972:27981   */\n      not\n        /* \"#utility.yul\":27964:27970   */\n      dup5\n        /* \"#utility.yul\":27960:27982   */\n      and\n        /* \"#utility.yul\":28010:28047   */\n      tag_687\n        /* \"#utility.yul\":28042:28046   */\n      dup7\n        /* \"#utility.yul\":28010:28047   */\n      tag_368\n      jump\t// in\n    tag_687:\n        /* \"#utility.yul\":28069:28070   */\n      0x00\n        /* \"#utility.yul\":28083:28291   */\n    tag_688:\n        /* \"#utility.yul\":28097:28104   */\n      dup3\n        /* \"#utility.yul\":28094:28095   */\n      dup2\n        /* \"#utility.yul\":28091:28105   */\n      lt\n        /* \"#utility.yul\":28083:28291   */\n      iszero\n      tag_690\n      jumpi\n        /* \"#utility.yul\":28176:28185   */\n      dup5\n        /* \"#utility.yul\":28171:28174   */\n      dup10\n        /* \"#utility.yul\":28167:28186   */\n      add\n        /* \"#utility.yul\":28161:28187   */\n      mload\n        /* \"#utility.yul\":28153:28159   */\n      dup3\n        /* \"#utility.yul\":28146:28188   */\n      sstore\n        /* \"#utility.yul\":28227:28228   */\n      0x01\n        /* \"#utility.yul\":28219:28225   */\n      dup3\n        /* \"#utility.yul\":28215:28229   */\n      add\n        /* \"#utility.yul\":28205:28229   */\n      swap2\n      pop\n        /* \"#utility.yul\":28274:28276   */\n      0x20\n        /* \"#utility.yul\":28263:28272   */\n      dup6\n        /* \"#utility.yul\":28259:28277   */\n      add\n        /* \"#utility.yul\":28246:28277   */\n      swap5\n      pop\n        /* \"#utility.yul\":28120:28124   */\n      0x20\n        /* \"#utility.yul\":28117:28118   */\n      dup2\n        /* \"#utility.yul\":28113:28125   */\n      add\n        /* \"#utility.yul\":28108:28125   */\n      swap1\n      pop\n        /* \"#utility.yul\":28083:28291   */\n      jump(tag_688)\n    tag_690:\n        /* \"#utility.yul\":28319:28325   */\n      dup7\n        /* \"#utility.yul\":28310:28317   */\n      dup4\n        /* \"#utility.yul\":28307:28326   */\n      lt\n        /* \"#utility.yul\":28304:28483   */\n      iszero\n      tag_691\n      jumpi\n        /* \"#utility.yul\":28377:28386   */\n      dup5\n        /* \"#utility.yul\":28372:28375   */\n      dup10\n        /* \"#utility.yul\":28368:28387   */\n      add\n        /* \"#utility.yul\":28362:28388   */\n      mload\n        /* \"#utility.yul\":28420:28468   */\n      tag_692\n        /* \"#utility.yul\":28462:28466   */\n      0x1f\n        /* \"#utility.yul\":28454:28460   */\n      dup10\n        /* \"#utility.yul\":28450:28467   */\n      and\n        /* \"#utility.yul\":28439:28448   */\n      dup3\n        /* \"#utility.yul\":28420:28468   */\n      tag_381\n      jump\t// in\n    tag_692:\n        /* \"#utility.yul\":28412:28418   */\n      dup4\n        /* \"#utility.yul\":28405:28469   */\n      sstore\n        /* \"#utility.yul\":28327:28483   */\n      pop\n        /* \"#utility.yul\":28304:28483   */\n    tag_691:\n        /* \"#utility.yul\":28529:28530   */\n      0x01\n        /* \"#utility.yul\":28525:28526   */\n      0x02\n        /* \"#utility.yul\":28517:28523   */\n      dup9\n        /* \"#utility.yul\":28513:28527   */\n      mul\n        /* \"#utility.yul\":28509:28531   */\n      add\n        /* \"#utility.yul\":28503:28507   */\n      dup9\n        /* \"#utility.yul\":28496:28532   */\n      sstore\n        /* \"#utility.yul\":27931:28542   */\n      pop\n      pop\n      pop\n        /* \"#utility.yul\":27894:28781   */\n    tag_683:\n      pop\n        /* \"#utility.yul\":27484:28787   */\n      pop\n      pop\n      pop\n        /* \"#utility.yul\":27392:28787   */\n      pop\n      pop\n      jump\t// out\n        /* \"#utility.yul\":28793:29068   */\n    tag_232:\n        /* \"#utility.yul\":28925:28928   */\n      0x00\n        /* \"#utility.yul\":28947:29042   */\n      tag_694\n        /* \"#utility.yul\":29038:29041   */\n      dup3\n        /* \"#utility.yul\":29029:29035   */\n      dup5\n        /* \"#utility.yul\":28947:29042   */\n      tag_365\n      jump\t// in\n    tag_694:\n        /* \"#utility.yul\":28940:29042   */\n      swap2\n      pop\n        /* \"#utility.yul\":29059:29062   */\n      dup2\n        /* \"#utility.yul\":29052:29062   */\n      swap1\n      pop\n        /* \"#utility.yul\":28793:29068   */\n      swap3\n      swap2\n      pop\n      pop\n      jump\t// out\n        /* \"#utility.yul\":29074:29296   */\n    tag_235:\n        /* \"#utility.yul\":29167:29171   */\n      0x00\n        /* \"#utility.yul\":29205:29207   */\n      0x20\n        /* \"#utility.yul\":29194:29203   */\n      dup3\n        /* \"#utility.yul\":29190:29208   */\n      add\n        /* \"#utility.yul\":29182:29208   */\n      swap1\n      pop\n        /* \"#utility.yul\":29218:29289   */\n      tag_696\n        /* \"#utility.yul\":29286:29287   */\n      0x00\n        /* \"#utility.yul\":29275:29284   */\n      dup4\n        /* \"#utility.yul\":29271:29288   */\n      add\n        /* \"#utility.yul\":29262:29268   */\n      dup5\n        /* \"#utility.yul\":29218:29289   */\n      tag_308\n      jump\t// in\n    tag_696:\n        /* \"#utility.yul\":29074:29296   */\n      swap3\n      swap2\n      pop\n      pop\n      jump\t// out\n        /* \"#utility.yul\":29302:29718   */\n    tag_277:\n        /* \"#utility.yul\":29462:29465   */\n      0x00\n        /* \"#utility.yul\":29484:29579   */\n      tag_698\n        /* \"#utility.yul\":29575:29578   */\n      dup3\n        /* \"#utility.yul\":29566:29572   */\n      dup6\n        /* \"#utility.yul\":29484:29579   */\n      tag_365\n      jump\t// in\n    tag_698:\n        /* \"#utility.yul\":29477:29579   */\n      swap2\n      pop\n        /* \"#utility.yul\":29589:29664   */\n      tag_699\n        /* \"#utility.yul\":29660:29663   */\n      dup3\n        /* \"#utility.yul\":29651:29657   */\n      dup5\n        /* \"#utility.yul\":29589:29664   */\n      tag_367\n      jump\t// in\n    tag_699:\n        /* \"#utility.yul\":29689:29691   */\n      0x20\n        /* \"#utility.yul\":29684:29687   */\n      dup3\n        /* \"#utility.yul\":29680:29692   */\n      add\n        /* \"#utility.yul\":29673:29692   */\n      swap2\n      pop\n        /* \"#utility.yul\":29709:29712   */\n      dup2\n        /* \"#utility.yul\":29702:29712   */\n      swap1\n      pop\n        /* \"#utility.yul\":29302:29718   */\n      swap4\n      swap3\n      pop\n      pop\n      pop\n      jump\t// out\n        /* \"#utility.yul\":29724:29896   */\n    tag_383:\n        /* \"#utility.yul\":29850:29861   */\n      0x00\n        /* \"#utility.yul\":29887:29890   */\n      dup2\n        /* \"#utility.yul\":29872:29890   */\n      swap1\n      pop\n        /* \"#utility.yul\":29724:29896   */\n      swap3\n      swap2\n      pop\n      pop\n      jump\t// out\n        /* \"#utility.yul\":29902:30029   */\n    tag_384:\n        /* \"#utility.yul\":29983:29994   */\n      0x00\n        /* \"#utility.yul\":30020:30023   */\n      dup2\n        /* \"#utility.yul\":30005:30023   */\n      swap1\n      pop\n        /* \"#utility.yul\":29902:30029   */\n      swap3\n      swap2\n      pop\n      pop\n      jump\t// out\n        /* \"#utility.yul\":30035:30404   */\n    tag_385:\n        /* \"#utility.yul\":30119:30122   */\n      0x00\n        /* \"#utility.yul\":30147:30185   */\n      tag_703\n        /* \"#utility.yul\":30179:30184   */\n      dup3\n        /* \"#utility.yul\":30147:30185   */\n      tag_312\n      jump\t// in\n    tag_703:\n        /* \"#utility.yul\":30201:30269   */\n      tag_704\n        /* \"#utility.yul\":30262:30268   */\n      dup2\n        /* \"#utility.yul\":30257:30260   */\n      dup6\n        /* \"#utility.yul\":30201:30269   */\n      tag_384\n      jump\t// in\n    tag_704:\n        /* \"#utility.yul\":30194:30269   */\n      swap4\n      pop\n        /* \"#utility.yul\":30278:30343   */\n      tag_705\n        /* \"#utility.yul\":30336:30342   */\n      dup2\n        /* \"#utility.yul\":30331:30334   */\n      dup6\n        /* \"#utility.yul\":30324:30328   */\n      0x20\n        /* \"#utility.yul\":30317:30322   */\n      dup7\n        /* \"#utility.yul\":30313:30329   */\n      add\n        /* \"#utility.yul\":30278:30343   */\n      tag_314\n      jump\t// in\n    tag_705:\n        /* \"#utility.yul\":30368:30397   */\n      tag_706\n        /* \"#utility.yul\":30390:30396   */\n      dup2\n        /* \"#utility.yul\":30368:30397   */\n      tag_315\n      jump\t// in\n    tag_706:\n        /* \"#utility.yul\":30363:30366   */\n      dup5\n        /* \"#utility.yul\":30359:30398   */\n      add\n        /* \"#utility.yul\":30352:30398   */\n      swap2\n      pop\n        /* \"#utility.yul\":30123:30404   */\n      pop\n        /* \"#utility.yul\":30035:30404   */\n      swap3\n      swap2\n      pop\n      pop\n      jump\t// out\n        /* \"#utility.yul\":30410:30618   */\n    tag_386:\n        /* \"#utility.yul\":30505:30515   */\n      0x00\n        /* \"#utility.yul\":30540:30612   */\n      tag_708\n        /* \"#utility.yul\":30608:30611   */\n      dup4\n        /* \"#utility.yul\":30600:30606   */\n      dup4\n        /* \"#utility.yul\":30540:30612   */\n      tag_385\n      jump\t// in\n    tag_708:\n        /* \"#utility.yul\":30526:30612   */\n      swap1\n      pop\n        /* \"#utility.yul\":30410:30618   */\n      swap3\n      swap2\n      pop\n      pop\n      jump\t// out\n        /* \"#utility.yul\":30650:31498   */\n    tag_387:\n        /* \"#utility.yul\":30805:30808   */\n      0x00\n        /* \"#utility.yul\":30834:30897   */\n      tag_710\n        /* \"#utility.yul\":30891:30896   */\n      dup3\n        /* \"#utility.yul\":30834:30897   */\n      tag_309\n      jump\t// in\n    tag_710:\n        /* \"#utility.yul\":30913:31026   */\n      tag_711\n        /* \"#utility.yul\":31019:31025   */\n      dup2\n        /* \"#utility.yul\":31014:31017   */\n      dup6\n        /* \"#utility.yul\":30913:31026   */\n      tag_383\n      jump\t// in\n    tag_711:\n        /* \"#utility.yul\":30906:31026   */\n      swap4\n      pop\n        /* \"#utility.yul\":31050:31115   */\n      tag_712\n        /* \"#utility.yul\":31109:31114   */\n      dup4\n        /* \"#utility.yul\":31050:31115   */\n      tag_311\n      jump\t// in\n    tag_712:\n        /* \"#utility.yul\":31138:31145   */\n      dup1\n        /* \"#utility.yul\":31169:31170   */\n      0x00\n        /* \"#utility.yul\":31154:31473   */\n    tag_713:\n        /* \"#utility.yul\":31179:31185   */\n      dup4\n        /* \"#utility.yul\":31176:31177   */\n      dup2\n        /* \"#utility.yul\":31173:31186   */\n      lt\n        /* \"#utility.yul\":31154:31473   */\n      iszero\n      tag_715\n      jumpi\n        /* \"#utility.yul\":31255:31261   */\n      dup2\n        /* \"#utility.yul\":31249:31262   */\n      mload\n        /* \"#utility.yul\":31282:31371   */\n      tag_716\n        /* \"#utility.yul\":31367:31370   */\n      dup9\n        /* \"#utility.yul\":31352:31365   */\n      dup3\n        /* \"#utility.yul\":31282:31371   */\n      tag_386\n      jump\t// in\n    tag_716:\n        /* \"#utility.yul\":31275:31371   */\n      swap8\n      pop\n        /* \"#utility.yul\":31394:31463   */\n      tag_717\n        /* \"#utility.yul\":31456:31462   */\n      dup4\n        /* \"#utility.yul\":31394:31463   */\n      tag_318\n      jump\t// in\n    tag_717:\n        /* \"#utility.yul\":31384:31463   */\n      swap3\n      pop\n        /* \"#utility.yul\":31214:31473   */\n      pop\n        /* \"#utility.yul\":31201:31202   */\n      0x01\n        /* \"#utility.yul\":31198:31199   */\n      dup2\n        /* \"#utility.yul\":31194:31203   */\n      add\n        /* \"#utility.yul\":31189:31203   */\n      swap1\n      pop\n        /* \"#utility.yul\":31154:31473   */\n      jump(tag_713)\n    tag_715:\n        /* \"#utility.yul\":31158:31172   */\n      pop\n        /* \"#utility.yul\":31489:31492   */\n      dup6\n        /* \"#utility.yul\":31482:31492   */\n      swap4\n      pop\n        /* \"#utility.yul\":30810:31498   */\n      pop\n      pop\n      pop\n        /* \"#utility.yul\":30650:31498   */\n      swap3\n      swap2\n      pop\n      pop\n      jump\t// out\n        /* \"#utility.yul\":31504:31875   */\n    tag_281:\n        /* \"#utility.yul\":31684:31687   */\n      0x00\n        /* \"#utility.yul\":31706:31849   */\n      tag_719\n        /* \"#utility.yul\":31845:31848   */\n      dup3\n        /* \"#utility.yul\":31836:31842   */\n      dup5\n        /* \"#utility.yul\":31706:31849   */\n      tag_387\n      jump\t// in\n    tag_719:\n        /* \"#utility.yul\":31699:31849   */\n      swap2\n      pop\n        /* \"#utility.yul\":31866:31869   */\n      dup2\n        /* \"#utility.yul\":31859:31869   */\n      swap1\n      pop\n        /* \"#utility.yul\":31504:31875   */\n      swap3\n      swap2\n      pop\n      pop\n      jump\t// out\n        /* \"#utility.yul\":31881:32021   */\n    tag_388:\n        /* \"#utility.yul\":31929:31933   */\n      0x00\n        /* \"#utility.yul\":31952:31955   */\n      dup2\n        /* \"#utility.yul\":31944:31955   */\n      swap1\n      pop\n        /* \"#utility.yul\":31975:31978   */\n      dup2\n        /* \"#utility.yul\":31972:31973   */\n      0x00\n        /* \"#utility.yul\":31965:31979   */\n      mstore\n        /* \"#utility.yul\":32009:32013   */\n      0x20\n        /* \"#utility.yul\":32006:32007   */\n      0x00\n        /* \"#utility.yul\":31996:32014   */\n      keccak256\n        /* \"#utility.yul\":31988:32014   */\n      swap1\n      pop\n        /* \"#utility.yul\":31881:32021   */\n      swap2\n      swap1\n      pop\n      jump\t// out\n        /* \"#utility.yul\":32027:32568   */\n    tag_389:\n        /* \"#utility.yul\":32127:32129   */\n      0x1f\n        /* \"#utility.yul\":32122:32125   */\n      dup3\n        /* \"#utility.yul\":32119:32130   */\n      gt\n        /* \"#utility.yul\":32116:32561   */\n      iszero\n      tag_722\n      jumpi\n        /* \"#utility.yul\":32161:32198   */\n      tag_723\n        /* \"#utility.yul\":32192:32197   */\n      dup2\n        /* \"#utility.yul\":32161:32198   */\n      tag_388\n      jump\t// in\n    tag_723:\n        /* \"#utility.yul\":32244:32273   */\n      tag_724\n        /* \"#utility.yul\":32262:32272   */\n      dup5\n        /* \"#utility.yul\":32244:32273   */\n      tag_369\n      jump\t// in\n    tag_724:\n        /* \"#utility.yul\":32234:32242   */\n      dup2\n        /* \"#utility.yul\":32230:32274   */\n      add\n        /* \"#utility.yul\":32427:32429   */\n      0x20\n        /* \"#utility.yul\":32415:32425   */\n      dup6\n        /* \"#utility.yul\":32412:32430   */\n      lt\n        /* \"#utility.yul\":32409:32458   */\n      iszero\n      tag_725\n      jumpi\n        /* \"#utility.yul\":32448:32456   */\n      dup2\n        /* \"#utility.yul\":32433:32456   */\n      swap1\n      pop\n        /* \"#utility.yul\":32409:32458   */\n    tag_725:\n        /* \"#utility.yul\":32471:32551   */\n      tag_726\n        /* \"#utility.yul\":32527:32549   */\n      tag_727\n        /* \"#utility.yul\":32545:32548   */\n      dup6\n        /* \"#utility.yul\":32527:32549   */\n      tag_369\n      jump\t// in\n    tag_727:\n        /* \"#utility.yul\":32517:32525   */\n      dup4\n        /* \"#utility.yul\":32513:32550   */\n      add\n        /* \"#utility.yul\":32500:32511   */\n      dup3\n        /* \"#utility.yul\":32471:32551   */\n      tag_378\n      jump\t// in\n    tag_726:\n        /* \"#utility.yul\":32131:32561   */\n      pop\n      pop\n        /* \"#utility.yul\":32116:32561   */\n    tag_722:\n        /* \"#utility.yul\":32027:32568   */\n      pop\n      pop\n      pop\n      jump\t// out\n        /* \"#utility.yul\":32574:33964   */\n    tag_288:\n        /* \"#utility.yul\":32689:32725   */\n      tag_729\n        /* \"#utility.yul\":32721:32724   */\n      dup3\n        /* \"#utility.yul\":32689:32725   */\n      tag_312\n      jump\t// in\n    tag_729:\n        /* \"#utility.yul\":32790:32808   */\n      0xffffffffffffffff\n        /* \"#utility.yul\":32782:32788   */\n      dup2\n        /* \"#utility.yul\":32779:32809   */\n      gt\n        /* \"#utility.yul\":32776:32832   */\n      iszero\n      tag_730\n      jumpi\n        /* \"#utility.yul\":32812:32830   */\n      tag_731\n      tag_342\n      jump\t// in\n    tag_731:\n        /* \"#utility.yul\":32776:32832   */\n    tag_730:\n        /* \"#utility.yul\":32856:32894   */\n      tag_732\n        /* \"#utility.yul\":32888:32892   */\n      dup3\n        /* \"#utility.yul\":32882:32893   */\n      sload\n        /* \"#utility.yul\":32856:32894   */\n      tag_132\n      jump\t// in\n    tag_732:\n        /* \"#utility.yul\":32941:33007   */\n      tag_733\n        /* \"#utility.yul\":33000:33006   */\n      dup3\n        /* \"#utility.yul\":32992:32998   */\n      dup3\n        /* \"#utility.yul\":32986:32990   */\n      dup6\n        /* \"#utility.yul\":32941:33007   */\n      tag_389\n      jump\t// in\n    tag_733:\n        /* \"#utility.yul\":33034:33035   */\n      0x00\n        /* \"#utility.yul\":33058:33062   */\n      0x20\n        /* \"#utility.yul\":33045:33062   */\n      swap1\n      pop\n        /* \"#utility.yul\":33090:33092   */\n      0x1f\n        /* \"#utility.yul\":33082:33088   */\n      dup4\n        /* \"#utility.yul\":33079:33093   */\n      gt\n        /* \"#utility.yul\":33107:33108   */\n      0x01\n        /* \"#utility.yul\":33102:33719   */\n      dup2\n      eq\n      tag_735\n      jumpi\n        /* \"#utility.yul\":33763:33764   */\n      0x00\n        /* \"#utility.yul\":33780:33786   */\n      dup5\n        /* \"#utility.yul\":33777:33854   */\n      iszero\n      tag_736\n      jumpi\n        /* \"#utility.yul\":33829:33838   */\n      dup3\n        /* \"#utility.yul\":33824:33827   */\n      dup8\n        /* \"#utility.yul\":33820:33839   */\n      add\n        /* \"#utility.yul\":33814:33840   */\n      mload\n        /* \"#utility.yul\":33805:33840   */\n      swap1\n      pop\n        /* \"#utility.yul\":33777:33854   */\n    tag_736:\n        /* \"#utility.yul\":33880:33947   */\n      tag_737\n        /* \"#utility.yul\":33940:33946   */\n      dup6\n        /* \"#utility.yul\":33933:33938   */\n      dup3\n        /* \"#utility.yul\":33880:33947   */\n      tag_382\n      jump\t// in\n    tag_737:\n        /* \"#utility.yul\":33874:33878   */\n      dup7\n        /* \"#utility.yul\":33867:33948   */\n      sstore\n        /* \"#utility.yul\":33736:33958   */\n      pop\n        /* \"#utility.yul\":33072:33958   */\n      jump(tag_734)\n        /* \"#utility.yul\":33102:33719   */\n    tag_735:\n        /* \"#utility.yul\":33154:33158   */\n      0x1f\n        /* \"#utility.yul\":33150:33159   */\n      not\n        /* \"#utility.yul\":33142:33148   */\n      dup5\n        /* \"#utility.yul\":33138:33160   */\n      and\n        /* \"#utility.yul\":33188:33224   */\n      tag_738\n        /* \"#utility.yul\":33219:33223   */\n      dup7\n        /* \"#utility.yul\":33188:33224   */\n      tag_388\n      jump\t// in\n    tag_738:\n        /* \"#utility.yul\":33246:33247   */\n      0x00\n        /* \"#utility.yul\":33260:33468   */\n    tag_739:\n        /* \"#utility.yul\":33274:33281   */\n      dup3\n        /* \"#utility.yul\":33271:33272   */\n      dup2\n        /* \"#utility.yul\":33268:33282   */\n      lt\n        /* \"#utility.yul\":33260:33468   */\n      iszero\n      tag_741\n      jumpi\n        /* \"#utility.yul\":33353:33362   */\n      dup5\n        /* \"#utility.yul\":33348:33351   */\n      dup10\n        /* \"#utility.yul\":33344:33363   */\n      add\n        /* \"#utility.yul\":33338:33364   */\n      mload\n        /* \"#utility.yul\":33330:33336   */\n      dup3\n        /* \"#utility.yul\":33323:33365   */\n      sstore\n        /* \"#utility.yul\":33404:33405   */\n      0x01\n        /* \"#utility.yul\":33396:33402   */\n      dup3\n        /* \"#utility.yul\":33392:33406   */\n      add\n        /* \"#utility.yul\":33382:33406   */\n      swap2\n      pop\n        /* \"#utility.yul\":33451:33453   */\n      0x20\n        /* \"#utility.yul\":33440:33449   */\n      dup6\n        /* \"#utility.yul\":33436:33454   */\n      add\n        /* \"#utility.yul\":33423:33454   */\n      swap5\n      pop\n        /* \"#utility.yul\":33297:33301   */\n      0x20\n        /* \"#utility.yul\":33294:33295   */\n      dup2\n        /* \"#utility.yul\":33290:33302   */\n      add\n        /* \"#utility.yul\":33285:33302   */\n      swap1\n      pop\n        /* \"#utility.yul\":33260:33468   */\n      jump(tag_739)\n    tag_741:\n        /* \"#utility.yul\":33496:33502   */\n      dup7\n        /* \"#utility.yul\":33487:33494   */\n      dup4\n        /* \"#utility.yul\":33484:33503   */\n      lt\n        /* \"#utility.yul\":33481:33660   */\n      iszero\n      tag_742\n      jumpi\n        /* \"#utility.yul\":33554:33563   */\n      dup5\n        /* \"#utility.yul\":33549:33552   */\n      dup10\n        /* \"#utility.yul\":33545:33564   */\n      add\n        /* \"#utility.yul\":33539:33565   */\n      mload\n        /* \"#utility.yul\":33597:33645   */\n      tag_743\n        /* \"#utility.yul\":33639:33643   */\n      0x1f\n        /* \"#utility.yul\":33631:33637   */\n      dup10\n        /* \"#utility.yul\":33627:33644   */\n      and\n        /* \"#utility.yul\":33616:33625   */\n      dup3\n        /* \"#utility.yul\":33597:33645   */\n      tag_381\n      jump\t// in\n    tag_743:\n        /* \"#utility.yul\":33589:33595   */\n      dup4\n        /* \"#utility.yul\":33582:33646   */\n      sstore\n        /* \"#utility.yul\":33504:33660   */\n      pop\n        /* \"#utility.yul\":33481:33660   */\n    tag_742:\n        /* \"#utility.yul\":33706:33707   */\n      0x01\n        /* \"#utility.yul\":33702:33703   */\n      0x02\n        /* \"#utility.yul\":33694:33700   */\n      dup9\n        /* \"#utility.yul\":33690:33704   */\n      mul\n        /* \"#utility.yul\":33686:33708   */\n      add\n        /* \"#utility.yul\":33680:33684   */\n      dup9\n        /* \"#utility.yul\":33673:33709   */\n      sstore\n        /* \"#utility.yul\":33109:33719   */\n      pop\n      pop\n      pop\n        /* \"#utility.yul\":33072:33958   */\n    tag_734:\n      pop\n        /* \"#utility.yul\":32664:33964   */\n      pop\n      pop\n      pop\n        /* \"#utility.yul\":32574:33964   */\n      pop\n      pop\n      jump\t// out\n\n    auxdata: 0xa26469706673582212209b3d4927418383ab08bcfe58704b2940112fcea20a47fd7d27ef038ac0d1822164736f6c63430008110033\n}\n",
				"bytecode": {
					"linkReferences": {},
					"object": "608060405234801561001057600080fd5b50336000806101000a81548173ffffffffffffffffffffffffffffffffffffffff021916908373ffffffffffffffffffffffffffffffffffffffff1602179055506001600360008060009054906101000a900473ffffffffffffffffffffffffffffffffffffffff1673ffffffffffffffffffffffffffffffffffffffff1673ffffffffffffffffffffffffffffffffffffffff16815260200190815260200160002060000160006101000a81548160ff0219169083151502179055506131df806100dc6000396000f3fe6080604052600436106101145760003560e01c8063a031fb7f116100a0578063c100b81511610064578063c100b815146103bb578063cbb11c37146103e4578063cca6fe5414610423578063e65508d61461044c578063f9f5d92d1461048c57610114565b8063a031fb7f146102c4578063a4375293146102ed578063a7c4752514610316578063aeb13dee14610355578063bbcccaf31461039257610114565b80635eea0a75116100e75780635eea0a75146101e75780637048027514610226578063734fb00c146102635780637527b3501461027f5780638cb6350b146102a857610114565b80630e17c6c31461011957806327739afe14610158578063429b62e5146101815780634933c19e146101be575b600080fd5b34801561012557600080fd5b50610140600480360381019061013b91906120d5565b6104c9565b60405161014f93929190612263565b60405180910390f35b34801561016457600080fd5b5061017f600480360381019061017a91906122ff565b6106c9565b005b34801561018d57600080fd5b506101a860048036038101906101a3919061233f565b6108a9565b6040516101b59190612387565b60405180910390f35b3480156101ca57600080fd5b506101e560048036038101906101e091906122ff565b6108d4565b005b3480156101f357600080fd5b5061020e600480360381019061020991906123d8565b610ab3565b60405161021d9392919061245a565b60405180910390f35b34801561023257600080fd5b5061024d6004803603810190610248919061233f565b610c67565b60405161025a9190612387565b60405180910390f35b61027d600480360381019061027891906124dd565b610d58565b005b34801561028b57600080fd5b506102a660048036038101906102a191906122ff565b610e30565b005b6102c260048036038101906102bd91906120d5565b6110ea565b005b3480156102d057600080fd5b506102eb60048036038101906102e691906122ff565b6111c8565b005b3480156102f957600080fd5b50610314600480360381019061030f91906122ff565b6113a8565b005b34801561032257600080fd5b5061033d600480360381019061033891906120d5565b611588565b60405161034c93929190612590565b60405180910390f35b34801561036157600080fd5b5061037c600480360381019061037791906126fc565b6115df565b6040516103899190612796565b60405180910390f35b34801561039e57600080fd5b506103b960048036038101906103b49190612938565b6117db565b005b3480156103c757600080fd5b506103e260048036038101906103dd91906122ff565b6118b3565b005b3480156103f057600080fd5b5061040b600480360381019061040691906120d5565b611a93565b60405161041a93929190612994565b60405180910390f35b34801561042f57600080fd5b5061044a600480360381019061044591906122ff565b611add565b005b34801561045857600080fd5b50610473600480360381019061046e91906123d8565b611cbd565b60405161048394939291906129cb565b60405180910390f35b34801561049857600080fd5b506104b360048036038101906104ae9190612a1e565b611e1d565b6040516104c09190612796565b60405180910390f35b6000606060003373ffffffffffffffffffffffffffffffffffffffff1660008054906101000a900473ffffffffffffffffffffffffffffffffffffffff1673ffffffffffffffffffffffffffffffffffffffff161461055d576040517f08c379a000000000000000000000000000000000000000000000000000000000815260040161055490612ae2565b60405180910390fd5b6000600860008681526020019081526020016000206001015414610687578360086000868152602001908152602001600020600001600860008781526020019081526020016000206001015481805480602002602001604051908101604052809291908181526020016000905b828210156106765783829060005260206000200180546105e990612b31565b80601f016020809104026020016040519081016040528092919081815260200182805461061590612b31565b80156106625780601f1061063757610100808354040283529160200191610662565b820191906000526020600020905b81548152906001019060200180831161064557829003601f168201915b5050505050815260200190600101906105ca565b5050505091509250925092506106c2565b6040517f08c379a00000000000000000000000000000000000000000000000000000000081526004016106b990612bae565b60405180910390fd5b9193909250565b3373ffffffffffffffffffffffffffffffffffffffff1660008054906101000a900473ffffffffffffffffffffffffffffffffffffffff1673ffffffffffffffffffffffffffffffffffffffff1614610757576040517f08c379a000000000000000000000000000000000000000000000000000000000815260040161074e90612ae2565b60405180910390fd5b6004600260006101000a81548160ff0219169083600681111561077d5761077c612519565b5b0217905550816004600084815260200190815260200160002060000181905550806004600084815260200190815260200160002060010160006101000a81548173ffffffffffffffffffffffffffffffffffffffff021916908373ffffffffffffffffffffffffffffffffffffffff160217905550600260009054906101000a900460ff166004600084815260200190815260200160002060010160146101000a81548160ff0219169083600681111561083a57610839612519565b5b0217905550600260009054906101000a900460ff16600681111561086157610860612519565b5b8173ffffffffffffffffffffffffffffffffffffffff16837fcc091c952960b84af994b58e2349b735a74341ba5869f73ed41ce589750b644160405160405180910390a45050565b60036020528060005260406000206000915090508060000160009054906101000a900460ff16905081565b3373ffffffffffffffffffffffffffffffffffffffff1660008054906101000a900473ffffffffffffffffffffffffffffffffffffffff1673ffffffffffffffffffffffffffffffffffffffff1614610962576040517f08c379a000000000000000000000000000000000000000000000000000000000815260040161095990612ae2565b60405180910390fd5b60028060006101000a81548160ff0219169083600681111561098757610986612519565b5b0217905550816004600084815260200190815260200160002060000181905550806004600084815260200190815260200160002060010160006101000a81548173ffffffffffffffffffffffffffffffffffffffff021916908373ffffffffffffffffffffffffffffffffffffffff160217905550600260009054906101000a900460ff166004600084815260200190815260200160002060010160146101000a81548160ff02191690836006811115610a4457610a43612519565b5b0217905550600260009054906101000a900460ff166006811115610a6b57610a6a612519565b5b8173ffffffffffffffffffffffffffffffffffffffff16837fcc091c952960b84af994b58e2349b735a74341ba5869f73ed41ce589750b644160405160405180910390a45050565b606080600060076000858152602001908152602001600020600001600760008681526020019081526020016000206001016007600087815260200190815260200160002060020154828054610b0790612b31565b80601f0160208091040260200160405190810160405280929190818152602001828054610b3390612b31565b8015610b805780601f10610b5557610100808354040283529160200191610b80565b820191906000526020600020905b815481529060010190602001808311610b6357829003601f168201915b5050505050925081805480602002602001604051908101604052809291908181526020016000905b82821015610c54578382906000526020600020018054610bc790612b31565b80601f0160208091040260200160405190810160405280929190818152602001828054610bf390612b31565b8015610c405780601f10610c1557610100808354040283529160200191610c40565b820191906000526020600020905b815481529060010190602001808311610c2357829003601f168201915b505050505081526020019060010190610ba8565b5050505091509250925092509193909250565b60003373ffffffffffffffffffffffffffffffffffffffff1660008054906101000a900473ffffffffffffffffffffffffffffffffffffffff1673ffffffffffffffffffffffffffffffffffffffff1614610cf7576040517f08c379a0000000000000000000000000000000000000000000000000000000008152600401610cee90612ae2565b60405180910390fd5b6001600360008473ffffffffffffffffffffffffffffffffffffffff1673ffffffffffffffffffffffffffffffffffffffff16815260200190815260200160002060000160006101000a81548160ff02191690831515021790559050919050565b3373ffffffffffffffffffffffffffffffffffffffff1660008054906101000a900473ffffffffffffffffffffffffffffffffffffffff1673ffffffffffffffffffffffffffffffffffffffff1614610de6576040517f08c379a0000000000000000000000000000000000000000000000000000000008152600401610ddd90612ae2565b60405180910390fd5b8073ffffffffffffffffffffffffffffffffffffffff166108fc349081150290604051600060405180830381858888f19350505050158015610e2c573d6000803e3d6000fd5b5050565b3373ffffffffffffffffffffffffffffffffffffffff1660008054906101000a900473ffffffffffffffffffffffffffffffffffffffff1673ffffffffffffffffffffffffffffffffffffffff1614610ebe576040517f08c379a0000000000000000000000000000000000000000000000000000000008152600401610eb590612ae2565b60405180910390fd5b6003600260006101000a81548160ff02191690836006811115610ee457610ee3612519565b5b0217905550816004600084815260200190815260200160002060000181905550806004600084815260200190815260200160002060010160006101000a81548173ffffffffffffffffffffffffffffffffffffffff021916908373ffffffffffffffffffffffffffffffffffffffff160217905550600260009054906101000a900460ff166004600084815260200190815260200160002060010160146101000a81548160ff02191690836006811115610fa157610fa0612519565b5b0217905550600560008381526020019081526020016000206002015482036110455760008054906101000a900473ffffffffffffffffffffffffffffffffffffffff1673ffffffffffffffffffffffffffffffffffffffff166108fc60056000858152602001908152602001600020600001549081150290604051600060405180830381858888f1935050505015801561103f573d6000803e3d6000fd5b50611080565b6040517f08c379a000000000000000000000000000000000000000000000000000000000815260040161107790612c1a565b60405180910390fd5b600260009054906101000a900460ff1660068111156110a2576110a1612519565b5b8173ffffffffffffffffffffffffffffffffffffffff16837fcc091c952960b84af994b58e2349b735a74341ba5869f73ed41ce589750b644160405160405180910390a45050565b34600181905550336005600083815260200190815260200160002060010160006101000a81548173ffffffffffffffffffffffffffffffffffffffff021916908373ffffffffffffffffffffffffffffffffffffffff1602179055506001546005600083815260200190815260200160002060000181905550806005600083815260200190815260200160002060020181905550803373ffffffffffffffffffffffffffffffffffffffff166001547fcfa45676592e00e4bcb2fc31b4369381509e94f94f38870561cb010fab2d3b3360405160405180910390a450565b3373ffffffffffffffffffffffffffffffffffffffff1660008054906101000a900473ffffffffffffffffffffffffffffffffffffffff1673ffffffffffffffffffffffffffffffffffffffff1614611256576040517f08c379a000000000000000000000000000000000000000000000000000000000815260040161124d90612ae2565b60405180910390fd5b6001600260006101000a81548160ff0219169083600681111561127c5761127b612519565b5b0217905550816004600084815260200190815260200160002060000181905550806004600084815260200190815260200160002060010160006101000a81548173ffffffffffffffffffffffffffffffffffffffff021916908373ffffffffffffffffffffffffffffffffffffffff160217905550600260009054906101000a900460ff166004600084815260200190815260200160002060010160146101000a81548160ff0219169083600681111561133957611338612519565b5b0217905550600260009054906101000a900460ff1660068111156113605761135f612519565b5b8173ffffffffffffffffffffffffffffffffffffffff16837fcc091c952960b84af994b58e2349b735a74341ba5869f73ed41ce589750b644160405160405180910390a45050565b3373ffffffffffffffffffffffffffffffffffffffff1660008054906101000a900473ffffffffffffffffffffffffffffffffffffffff1673ffffffffffffffffffffffffffffffffffffffff1614611436576040517f08c379a000000000000000000000000000000000000000000000000000000000815260040161142d90612ae2565b60405180910390fd5b6000600260006101000a81548160ff0219169083600681111561145c5761145b612519565b5b0217905550816004600084815260200190815260200160002060000181905550806004600084815260200190815260200160002060010160006101000a81548173ffffffffffffffffffffffffffffffffffffffff021916908373ffffffffffffffffffffffffffffffffffffffff160217905550600260009054906101000a900460ff166004600084815260200190815260200160002060010160146101000a81548160ff0219169083600681111561151957611518612519565b5b0217905550600260009054906101000a900460ff1660068111156115405761153f612519565b5b8173ffffffffffffffffffffffffffffffffffffffff16837fcc091c952960b84af994b58e2349b735a74341ba5869f73ed41ce589750b644160405160405180910390a45050565b60046020528060005260406000206000915090508060000154908060010160009054906101000a900473ffffffffffffffffffffffffffffffffffffffff16908060010160149054906101000a900460ff16905083565b60003373ffffffffffffffffffffffffffffffffffffffff1660008054906101000a900473ffffffffffffffffffffffffffffffffffffffff1673ffffffffffffffffffffffffffffffffffffffff161461166f576040517f08c379a000000000000000000000000000000000000000000000000000000000815260040161166690612ae2565b60405180910390fd5b600084834260405160200161168693929190612c97565b604051602081830303815290604052805190602001209050846006600083815260200190815260200160002060000190816116c19190612e78565b50836006600083815260200190815260200160002060010160006101000a81548173ffffffffffffffffffffffffffffffffffffffff021916908373ffffffffffffffffffffffffffffffffffffffff1602179055508260066000838152602001908152602001600020600201908161173a9190612e78565b50426006600083815260200190815260200160002060030181905550826040516117649190612f4a565b60405180910390208473ffffffffffffffffffffffffffffffffffffffff16866040516117919190612f4a565b60405180910390207f8c2006ded45e844ad517d061c1f0870ecc0fb1fdf9ba77b20f8ac6e3c92e739c426040516117c89190612f61565b60405180910390a4809150509392505050565b3373ffffffffffffffffffffffffffffffffffffffff1660008054906101000a900473ffffffffffffffffffffffffffffffffffffffff1673ffffffffffffffffffffffffffffffffffffffff1614611869576040517f08c379a000000000000000000000000000000000000000000000000000000000815260040161186090612ae2565b60405180910390fd5b80600860008481526020019081526020016000206000019080519060200190611893929190611fb1565b504260086000848152602001908152602001600020600101819055505050565b3373ffffffffffffffffffffffffffffffffffffffff1660008054906101000a900473ffffffffffffffffffffffffffffffffffffffff1673ffffffffffffffffffffffffffffffffffffffff1614611941576040517f08c379a000000000000000000000000000000000000000000000000000000000815260040161193890612ae2565b60405180910390fd5b6006600260006101000a81548160ff0219169083600681111561196757611966612519565b5b0217905550816004600084815260200190815260200160002060000181905550806004600084815260200190815260200160002060010160006101000a81548173ffffffffffffffffffffffffffffffffffffffff021916908373ffffffffffffffffffffffffffffffffffffffff160217905550600260009054906101000a900460ff166004600084815260200190815260200160002060010160146101000a81548160ff02191690836006811115611a2457611a23612519565b5b0217905550600260009054906101000a900460ff166006811115611a4b57611a4a612519565b5b8173ffffffffffffffffffffffffffffffffffffffff16837fcc091c952960b84af994b58e2349b735a74341ba5869f73ed41ce589750b644160405160405180910390a45050565b60056020528060005260406000206000915090508060000154908060010160009054906101000a900473ffffffffffffffffffffffffffffffffffffffff16908060020154905083565b3373ffffffffffffffffffffffffffffffffffffffff1660008054906101000a900473ffffffffffffffffffffffffffffffffffffffff1673ffffffffffffffffffffffffffffffffffffffff1614611b6b576040517f08c379a0000000000000000000000000000000000000000000000000000000008152600401611b6290612ae2565b60405180910390fd5b6005600260006101000a81548160ff02191690836006811115611b9157611b90612519565b5b0217905550816004600084815260200190815260200160002060000181905550806004600084815260200190815260200160002060010160006101000a81548173ffffffffffffffffffffffffffffffffffffffff021916908373ffffffffffffffffffffffffffffffffffffffff160217905550600260009054906101000a900460ff166004600084815260200190815260200160002060010160146101000a81548160ff02191690836006811115611c4e57611c4d612519565b5b0217905550600260009054906101000a900460ff166006811115611c7557611c74612519565b5b8173ffffffffffffffffffffffffffffffffffffffff16837fcc091c952960b84af994b58e2349b735a74341ba5869f73ed41ce589750b644160405160405180910390a45050565b6006602052806000526040600020600091509050806000018054611ce090612b31565b80601f0160208091040260200160405190810160405280929190818152602001828054611d0c90612b31565b8015611d595780601f10611d2e57610100808354040283529160200191611d59565b820191906000526020600020905b815481529060010190602001808311611d3c57829003601f168201915b5050505050908060010160009054906101000a900473ffffffffffffffffffffffffffffffffffffffff1690806002018054611d9490612b31565b80601f0160208091040260200160405190810160405280929190818152602001828054611dc090612b31565b8015611e0d5780601f10611de257610100808354040283529160200191611e0d565b820191906000526020600020905b815481529060010190602001808311611df057829003601f168201915b5050505050908060030154905084565b60003373ffffffffffffffffffffffffffffffffffffffff1660008054906101000a900473ffffffffffffffffffffffffffffffffffffffff1673ffffffffffffffffffffffffffffffffffffffff1614611ead576040517f08c379a0000000000000000000000000000000000000000000000000000000008152600401611ea490612ae2565b60405180910390fd5b60008342604051602001611ec2929190612f7c565b60405160208183030381529060405280519060200120905083600760008381526020019081526020016000206000019081611efd9190612e78565b5082600760008381526020019081526020016000206001019080519060200190611f28929190611fb1565b5042600760008381526020019081526020016000206002018190555082604051611f529190613065565b604051809103902084604051611f689190612f4a565b60405180910390207fdf649c1e3d944311d966db43c9bc972db16d6e58ec816f2810a46196475326d442604051611f9f9190612f61565b60405180910390a38091505092915050565b828054828255906000526020600020908101928215611ff9579160200282015b82811115611ff8578251829081611fe891906130d7565b5091602001919060010190611fd1565b5b509050612006919061200a565b5090565b5b8082111561202a5760008181612021919061202e565b5060010161200b565b5090565b50805461203a90612b31565b6000825580601f1061204c575061206b565b601f01602090049060005260206000209081019061206a919061206e565b5b50565b5b8082111561208757600081600090555060010161206f565b5090565b6000604051905090565b600080fd5b600080fd5b6000819050919050565b6120b28161209f565b81146120bd57600080fd5b50565b6000813590506120cf816120a9565b92915050565b6000602082840312156120eb576120ea612095565b5b60006120f9848285016120c0565b91505092915050565b61210b8161209f565b82525050565b600081519050919050565b600082825260208201905092915050565b6000819050602082019050919050565b600081519050919050565b600082825260208201905092915050565b60005b8381101561217757808201518184015260208101905061215c565b60008484015250505050565b6000601f19601f8301169050919050565b600061219f8261213d565b6121a98185612148565b93506121b9818560208601612159565b6121c281612183565b840191505092915050565b60006121d98383612194565b905092915050565b6000602082019050919050565b60006121f982612111565b612203818561211c565b9350836020820285016122158561212d565b8060005b85811015612251578484038952815161223285826121cd565b945061223d836121e1565b925060208a01995050600181019050612219565b50829750879550505050505092915050565b60006060820190506122786000830186612102565b818103602083015261228a81856121ee565b90506122996040830184612102565b949350505050565b600073ffffffffffffffffffffffffffffffffffffffff82169050919050565b60006122cc826122a1565b9050919050565b6122dc816122c1565b81146122e757600080fd5b50565b6000813590506122f9816122d3565b92915050565b6000806040838503121561231657612315612095565b5b6000612324858286016120c0565b9250506020612335858286016122ea565b9150509250929050565b60006020828403121561235557612354612095565b5b6000612363848285016122ea565b91505092915050565b60008115159050919050565b6123818161236c565b82525050565b600060208201905061239c6000830184612378565b92915050565b6000819050919050565b6123b5816123a2565b81146123c057600080fd5b50565b6000813590506123d2816123ac565b92915050565b6000602082840312156123ee576123ed612095565b5b60006123fc848285016123c3565b91505092915050565b600081519050919050565b600082825260208201905092915050565b600061242c82612405565b6124368185612410565b9350612446818560208601612159565b61244f81612183565b840191505092915050565b600060608201905081810360008301526124748186612421565b9050818103602083015261248881856121ee565b90506124976040830184612102565b949350505050565b60006124aa826122a1565b9050919050565b6124ba8161249f565b81146124c557600080fd5b50565b6000813590506124d7816124b1565b92915050565b6000602082840312156124f3576124f2612095565b5b6000612501848285016124c8565b91505092915050565b612513816122c1565b82525050565b7f4e487b7100000000000000000000000000000000000000000000000000000000600052602160045260246000fd5b6007811061255957612558612519565b5b50565b600081905061256a82612548565b919050565b600061257a8261255c565b9050919050565b61258a8161256f565b82525050565b60006060820190506125a56000830186612102565b6125b2602083018561250a565b6125bf6040830184612581565b949350505050565b600080fd5b600080fd5b7f4e487b7100000000000000000000000000000000000000000000000000000000600052604160045260246000fd5b61260982612183565b810181811067ffffffffffffffff82111715612628576126276125d1565b5b80604052505050565b600061263b61208b565b90506126478282612600565b919050565b600067ffffffffffffffff821115612667576126666125d1565b5b61267082612183565b9050602081019050919050565b82818337600083830152505050565b600061269f61269a8461264c565b612631565b9050828152602081018484840111156126bb576126ba6125cc565b5b6126c684828561267d565b509392505050565b600082601f8301126126e3576126e26125c7565b5b81356126f384826020860161268c565b91505092915050565b60008060006060848603121561271557612714612095565b5b600084013567ffffffffffffffff8111156127335761273261209a565b5b61273f868287016126ce565b9350506020612750868287016122ea565b925050604084013567ffffffffffffffff8111156127715761277061209a565b5b61277d868287016126ce565b9150509250925092565b612790816123a2565b82525050565b60006020820190506127ab6000830184612787565b92915050565b600067ffffffffffffffff8211156127cc576127cb6125d1565b5b602082029050602081019050919050565b600080fd5b600067ffffffffffffffff8211156127fd576127fc6125d1565b5b61280682612183565b9050602081019050919050565b6000612826612821846127e2565b612631565b905082815260208101848484011115612842576128416125cc565b5b61284d84828561267d565b509392505050565b600082601f83011261286a576128696125c7565b5b813561287a848260208601612813565b91505092915050565b6000612896612891846127b1565b612631565b905080838252602082019050602084028301858111156128b9576128b86127dd565b5b835b8181101561290057803567ffffffffffffffff8111156128de576128dd6125c7565b5b8086016128eb8982612855565b855260208501945050506020810190506128bb565b5050509392505050565b600082601f83011261291f5761291e6125c7565b5b813561292f848260208601612883565b91505092915050565b6000806040838503121561294f5761294e612095565b5b600061295d858286016120c0565b925050602083013567ffffffffffffffff81111561297e5761297d61209a565b5b61298a8582860161290a565b9150509250929050565b60006060820190506129a96000830186612102565b6129b6602083018561250a565b6129c36040830184612102565b949350505050565b600060808201905081810360008301526129e58187612421565b90506129f4602083018661250a565b8181036040830152612a068185612421565b9050612a156060830184612102565b95945050505050565b60008060408385031215612a3557612a34612095565b5b600083013567ffffffffffffffff811115612a5357612a5261209a565b5b612a5f858286016126ce565b925050602083013567ffffffffffffffff811115612a8057612a7f61209a565b5b612a8c8582860161290a565b9150509250929050565b7f4e6f7420616e206f776e65722100000000000000000000000000000000000000600082015250565b6000612acc600d83612410565b9150612ad782612a96565b602082019050919050565b60006020820190508181036000830152612afb81612abf565b9050919050565b7f4e487b7100000000000000000000000000000000000000000000000000000000600052602260045260246000fd5b60006002820490506001821680612b4957607f821691505b602082108103612b5c57612b5b612b02565b5b50919050565b7f53756368206f726465724944206e6f7420657869737473210000000000000000600082015250565b6000612b98601883612410565b9150612ba382612b62565b602082019050919050565b60006020820190508181036000830152612bc781612b8b565b9050919050565b7f496e76616c6964206f7264657220494400000000000000000000000000000000600082015250565b6000612c04601083612410565b9150612c0f82612bce565b602082019050919050565b60006020820190508181036000830152612c3381612bf7565b9050919050565b600081905092915050565b6000612c5082612405565b612c5a8185612c3a565b9350612c6a818560208601612159565b80840191505092915050565b6000819050919050565b612c91612c8c8261209f565b612c76565b82525050565b6000612ca38286612c45565b9150612caf8285612c45565b9150612cbb8284612c80565b602082019150819050949350505050565b60008190508160005260206000209050919050565b60006020601f8301049050919050565b600082821b905092915050565b600060088302612d2e7fffffffffffffffffffffffffffffffffffffffffffffffffffffffffffffffff82612cf1565b612d388683612cf1565b95508019841693508086168417925050509392505050565b6000819050919050565b6000612d75612d70612d6b8461209f565b612d50565b61209f565b9050919050565b6000819050919050565b612d8f83612d5a565b612da3612d9b82612d7c565b848454612cfe565b825550505050565b600090565b612db8612dab565b612dc3818484612d86565b505050565b5b81811015612de757612ddc600082612db0565b600181019050612dc9565b5050565b601f821115612e2c57612dfd81612ccc565b612e0684612ce1565b81016020851015612e15578190505b612e29612e2185612ce1565b830182612dc8565b50505b505050565b600082821c905092915050565b6000612e4f60001984600802612e31565b1980831691505092915050565b6000612e688383612e3e565b9150826002028217905092915050565b612e8182612405565b67ffffffffffffffff811115612e9a57612e996125d1565b5b612ea48254612b31565b612eaf828285612deb565b600060209050601f831160018114612ee25760008415612ed0578287015190505b612eda8582612e5c565b865550612f42565b601f198416612ef086612ccc565b60005b82811015612f1857848901518255600182019150602085019450602081019050612ef3565b86831015612f355784890151612f31601f891682612e3e565b8355505b6001600288020188555050505b505050505050565b6000612f568284612c45565b915081905092915050565b6000602082019050612f766000830184612102565b92915050565b6000612f888285612c45565b9150612f948284612c80565b6020820191508190509392505050565b600081905092915050565b600081905092915050565b6000612fc58261213d565b612fcf8185612faf565b9350612fdf818560208601612159565b612fe881612183565b840191505092915050565b6000612fff8383612fba565b905092915050565b600061301282612111565b61301c8185612fa4565b93506130278361212d565b8060005b8381101561305857815161303f8882612ff3565b975061304a836121e1565b92505060018101905061302b565b5085935050505092915050565b60006130718284613007565b915081905092915050565b60008190508160005260206000209050919050565b601f8211156130d2576130a38161307c565b6130ac84612ce1565b810160208510156130bb578190505b6130cf6130c785612ce1565b830182612dc8565b50505b505050565b6130e08261213d565b67ffffffffffffffff8111156130f9576130f86125d1565b5b6131038254612b31565b61310e828285613091565b600060209050601f831160018114613141576000841561312f578287015190505b6131398582612e5c565b8655506131a1565b601f19841661314f8661307c565b60005b8281101561317757848901518255600182019150602085019450602081019050613152565b868310156131945784890151613190601f891682612e3e565b8355505b6001600288020188555050505b50505050505056fea26469706673582212209b3d4927418383ab08bcfe58704b2940112fcea20a47fd7d27ef038ac0d1822164736f6c63430008110033",
					"opcodes": "PUSH1 0x80 PUSH1 0x40 MSTORE CALLVALUE DUP1 ISZERO PUSH2 0x10 JUMPI PUSH1 0x0 DUP1 REVERT JUMPDEST POP CALLER PUSH1 0x0 DUP1 PUSH2 0x100 EXP DUP2 SLOAD DUP2 PUSH20 0xFFFFFFFFFFFFFFFFFFFFFFFFFFFFFFFFFFFFFFFF MUL NOT AND SWAP1 DUP4 PUSH20 0xFFFFFFFFFFFFFFFFFFFFFFFFFFFFFFFFFFFFFFFF AND MUL OR SWAP1 SSTORE POP PUSH1 0x1 PUSH1 0x3 PUSH1 0x0 DUP1 PUSH1 0x0 SWAP1 SLOAD SWAP1 PUSH2 0x100 EXP SWAP1 DIV PUSH20 0xFFFFFFFFFFFFFFFFFFFFFFFFFFFFFFFFFFFFFFFF AND PUSH20 0xFFFFFFFFFFFFFFFFFFFFFFFFFFFFFFFFFFFFFFFF AND PUSH20 0xFFFFFFFFFFFFFFFFFFFFFFFFFFFFFFFFFFFFFFFF AND DUP2 MSTORE PUSH1 0x20 ADD SWAP1 DUP2 MSTORE PUSH1 0x20 ADD PUSH1 0x0 KECCAK256 PUSH1 0x0 ADD PUSH1 0x0 PUSH2 0x100 EXP DUP2 SLOAD DUP2 PUSH1 0xFF MUL NOT AND SWAP1 DUP4 ISZERO ISZERO MUL OR SWAP1 SSTORE POP PUSH2 0x31DF DUP1 PUSH2 0xDC PUSH1 0x0 CODECOPY PUSH1 0x0 RETURN INVALID PUSH1 0x80 PUSH1 0x40 MSTORE PUSH1 0x4 CALLDATASIZE LT PUSH2 0x114 JUMPI PUSH1 0x0 CALLDATALOAD PUSH1 0xE0 SHR DUP1 PUSH4 0xA031FB7F GT PUSH2 0xA0 JUMPI DUP1 PUSH4 0xC100B815 GT PUSH2 0x64 JUMPI DUP1 PUSH4 0xC100B815 EQ PUSH2 0x3BB JUMPI DUP1 PUSH4 0xCBB11C37 EQ PUSH2 0x3E4 JUMPI DUP1 PUSH4 0xCCA6FE54 EQ PUSH2 0x423 JUMPI DUP1 PUSH4 0xE65508D6 EQ PUSH2 0x44C JUMPI DUP1 PUSH4 0xF9F5D92D EQ PUSH2 0x48C JUMPI PUSH2 0x114 JUMP JUMPDEST DUP1 PUSH4 0xA031FB7F EQ PUSH2 0x2C4 JUMPI DUP1 PUSH4 0xA4375293 EQ PUSH2 0x2ED JUMPI DUP1 PUSH4 0xA7C47525 EQ PUSH2 0x316 JUMPI DUP1 PUSH4 0xAEB13DEE EQ PUSH2 0x355 JUMPI DUP1 PUSH4 0xBBCCCAF3 EQ PUSH2 0x392 JUMPI PUSH2 0x114 JUMP JUMPDEST DUP1 PUSH4 0x5EEA0A75 GT PUSH2 0xE7 JUMPI DUP1 PUSH4 0x5EEA0A75 EQ PUSH2 0x1E7 JUMPI DUP1 PUSH4 0x70480275 EQ PUSH2 0x226 JUMPI DUP1 PUSH4 0x734FB00C EQ PUSH2 0x263 JUMPI DUP1 PUSH4 0x7527B350 EQ PUSH2 0x27F JUMPI DUP1 PUSH4 0x8CB6350B EQ PUSH2 0x2A8 JUMPI PUSH2 0x114 JUMP JUMPDEST DUP1 PUSH4 0xE17C6C3 EQ PUSH2 0x119 JUMPI DUP1 PUSH4 0x27739AFE EQ PUSH2 0x158 JUMPI DUP1 PUSH4 0x429B62E5 EQ PUSH2 0x181 JUMPI DUP1 PUSH4 0x4933C19E EQ PUSH2 0x1BE JUMPI JUMPDEST PUSH1 0x0 DUP1 REVERT JUMPDEST CALLVALUE DUP1 ISZERO PUSH2 0x125 JUMPI PUSH1 0x0 DUP1 REVERT JUMPDEST POP PUSH2 0x140 PUSH1 0x4 DUP1 CALLDATASIZE SUB DUP2 ADD SWAP1 PUSH2 0x13B SWAP2 SWAP1 PUSH2 0x20D5 JUMP JUMPDEST PUSH2 0x4C9 JUMP JUMPDEST PUSH1 0x40 MLOAD PUSH2 0x14F SWAP4 SWAP3 SWAP2 SWAP1 PUSH2 0x2263 JUMP JUMPDEST PUSH1 0x40 MLOAD DUP1 SWAP2 SUB SWAP1 RETURN JUMPDEST CALLVALUE DUP1 ISZERO PUSH2 0x164 JUMPI PUSH1 0x0 DUP1 REVERT JUMPDEST POP PUSH2 0x17F PUSH1 0x4 DUP1 CALLDATASIZE SUB DUP2 ADD SWAP1 PUSH2 0x17A SWAP2 SWAP1 PUSH2 0x22FF JUMP JUMPDEST PUSH2 0x6C9 JUMP JUMPDEST STOP JUMPDEST CALLVALUE DUP1 ISZERO PUSH2 0x18D JUMPI PUSH1 0x0 DUP1 REVERT JUMPDEST POP PUSH2 0x1A8 PUSH1 0x4 DUP1 CALLDATASIZE SUB DUP2 ADD SWAP1 PUSH2 0x1A3 SWAP2 SWAP1 PUSH2 0x233F JUMP JUMPDEST PUSH2 0x8A9 JUMP JUMPDEST PUSH1 0x40 MLOAD PUSH2 0x1B5 SWAP2 SWAP1 PUSH2 0x2387 JUMP JUMPDEST PUSH1 0x40 MLOAD DUP1 SWAP2 SUB SWAP1 RETURN JUMPDEST CALLVALUE DUP1 ISZERO PUSH2 0x1CA JUMPI PUSH1 0x0 DUP1 REVERT JUMPDEST POP PUSH2 0x1E5 PUSH1 0x4 DUP1 CALLDATASIZE SUB DUP2 ADD SWAP1 PUSH2 0x1E0 SWAP2 SWAP1 PUSH2 0x22FF JUMP JUMPDEST PUSH2 0x8D4 JUMP JUMPDEST STOP JUMPDEST CALLVALUE DUP1 ISZERO PUSH2 0x1F3 JUMPI PUSH1 0x0 DUP1 REVERT JUMPDEST POP PUSH2 0x20E PUSH1 0x4 DUP1 CALLDATASIZE SUB DUP2 ADD SWAP1 PUSH2 0x209 SWAP2 SWAP1 PUSH2 0x23D8 JUMP JUMPDEST PUSH2 0xAB3 JUMP JUMPDEST PUSH1 0x40 MLOAD PUSH2 0x21D SWAP4 SWAP3 SWAP2 SWAP1 PUSH2 0x245A JUMP JUMPDEST PUSH1 0x40 MLOAD DUP1 SWAP2 SUB SWAP1 RETURN JUMPDEST CALLVALUE DUP1 ISZERO PUSH2 0x232 JUMPI PUSH1 0x0 DUP1 REVERT JUMPDEST POP PUSH2 0x24D PUSH1 0x4 DUP1 CALLDATASIZE SUB DUP2 ADD SWAP1 PUSH2 0x248 SWAP2 SWAP1 PUSH2 0x233F JUMP JUMPDEST PUSH2 0xC67 JUMP JUMPDEST PUSH1 0x40 MLOAD PUSH2 0x25A SWAP2 SWAP1 PUSH2 0x2387 JUMP JUMPDEST PUSH1 0x40 MLOAD DUP1 SWAP2 SUB SWAP1 RETURN JUMPDEST PUSH2 0x27D PUSH1 0x4 DUP1 CALLDATASIZE SUB DUP2 ADD SWAP1 PUSH2 0x278 SWAP2 SWAP1 PUSH2 0x24DD JUMP JUMPDEST PUSH2 0xD58 JUMP JUMPDEST STOP JUMPDEST CALLVALUE DUP1 ISZERO PUSH2 0x28B JUMPI PUSH1 0x0 DUP1 REVERT JUMPDEST POP PUSH2 0x2A6 PUSH1 0x4 DUP1 CALLDATASIZE SUB DUP2 ADD SWAP1 PUSH2 0x2A1 SWAP2 SWAP1 PUSH2 0x22FF JUMP JUMPDEST PUSH2 0xE30 JUMP JUMPDEST STOP JUMPDEST PUSH2 0x2C2 PUSH1 0x4 DUP1 CALLDATASIZE SUB DUP2 ADD SWAP1 PUSH2 0x2BD SWAP2 SWAP1 PUSH2 0x20D5 JUMP JUMPDEST PUSH2 0x10EA JUMP JUMPDEST STOP JUMPDEST CALLVALUE DUP1 ISZERO PUSH2 0x2D0 JUMPI PUSH1 0x0 DUP1 REVERT JUMPDEST POP PUSH2 0x2EB PUSH1 0x4 DUP1 CALLDATASIZE SUB DUP2 ADD SWAP1 PUSH2 0x2E6 SWAP2 SWAP1 PUSH2 0x22FF JUMP JUMPDEST PUSH2 0x11C8 JUMP JUMPDEST STOP JUMPDEST CALLVALUE DUP1 ISZERO PUSH2 0x2F9 JUMPI PUSH1 0x0 DUP1 REVERT JUMPDEST POP PUSH2 0x314 PUSH1 0x4 DUP1 CALLDATASIZE SUB DUP2 ADD SWAP1 PUSH2 0x30F SWAP2 SWAP1 PUSH2 0x22FF JUMP JUMPDEST PUSH2 0x13A8 JUMP JUMPDEST STOP JUMPDEST CALLVALUE DUP1 ISZERO PUSH2 0x322 JUMPI PUSH1 0x0 DUP1 REVERT JUMPDEST POP PUSH2 0x33D PUSH1 0x4 DUP1 CALLDATASIZE SUB DUP2 ADD SWAP1 PUSH2 0x338 SWAP2 SWAP1 PUSH2 0x20D5 JUMP JUMPDEST PUSH2 0x1588 JUMP JUMPDEST PUSH1 0x40 MLOAD PUSH2 0x34C SWAP4 SWAP3 SWAP2 SWAP1 PUSH2 0x2590 JUMP JUMPDEST PUSH1 0x40 MLOAD DUP1 SWAP2 SUB SWAP1 RETURN JUMPDEST CALLVALUE DUP1 ISZERO PUSH2 0x361 JUMPI PUSH1 0x0 DUP1 REVERT JUMPDEST POP PUSH2 0x37C PUSH1 0x4 DUP1 CALLDATASIZE SUB DUP2 ADD SWAP1 PUSH2 0x377 SWAP2 SWAP1 PUSH2 0x26FC JUMP JUMPDEST PUSH2 0x15DF JUMP JUMPDEST PUSH1 0x40 MLOAD PUSH2 0x389 SWAP2 SWAP1 PUSH2 0x2796 JUMP JUMPDEST PUSH1 0x40 MLOAD DUP1 SWAP2 SUB SWAP1 RETURN JUMPDEST CALLVALUE DUP1 ISZERO PUSH2 0x39E JUMPI PUSH1 0x0 DUP1 REVERT JUMPDEST POP PUSH2 0x3B9 PUSH1 0x4 DUP1 CALLDATASIZE SUB DUP2 ADD SWAP1 PUSH2 0x3B4 SWAP2 SWAP1 PUSH2 0x2938 JUMP JUMPDEST PUSH2 0x17DB JUMP JUMPDEST STOP JUMPDEST CALLVALUE DUP1 ISZERO PUSH2 0x3C7 JUMPI PUSH1 0x0 DUP1 REVERT JUMPDEST POP PUSH2 0x3E2 PUSH1 0x4 DUP1 CALLDATASIZE SUB DUP2 ADD SWAP1 PUSH2 0x3DD SWAP2 SWAP1 PUSH2 0x22FF JUMP JUMPDEST PUSH2 0x18B3 JUMP JUMPDEST STOP JUMPDEST CALLVALUE DUP1 ISZERO PUSH2 0x3F0 JUMPI PUSH1 0x0 DUP1 REVERT JUMPDEST POP PUSH2 0x40B PUSH1 0x4 DUP1 CALLDATASIZE SUB DUP2 ADD SWAP1 PUSH2 0x406 SWAP2 SWAP1 PUSH2 0x20D5 JUMP JUMPDEST PUSH2 0x1A93 JUMP JUMPDEST PUSH1 0x40 MLOAD PUSH2 0x41A SWAP4 SWAP3 SWAP2 SWAP1 PUSH2 0x2994 JUMP JUMPDEST PUSH1 0x40 MLOAD DUP1 SWAP2 SUB SWAP1 RETURN JUMPDEST CALLVALUE DUP1 ISZERO PUSH2 0x42F JUMPI PUSH1 0x0 DUP1 REVERT JUMPDEST POP PUSH2 0x44A PUSH1 0x4 DUP1 CALLDATASIZE SUB DUP2 ADD SWAP1 PUSH2 0x445 SWAP2 SWAP1 PUSH2 0x22FF JUMP JUMPDEST PUSH2 0x1ADD JUMP JUMPDEST STOP JUMPDEST CALLVALUE DUP1 ISZERO PUSH2 0x458 JUMPI PUSH1 0x0 DUP1 REVERT JUMPDEST POP PUSH2 0x473 PUSH1 0x4 DUP1 CALLDATASIZE SUB DUP2 ADD SWAP1 PUSH2 0x46E SWAP2 SWAP1 PUSH2 0x23D8 JUMP JUMPDEST PUSH2 0x1CBD JUMP JUMPDEST PUSH1 0x40 MLOAD PUSH2 0x483 SWAP5 SWAP4 SWAP3 SWAP2 SWAP1 PUSH2 0x29CB JUMP JUMPDEST PUSH1 0x40 MLOAD DUP1 SWAP2 SUB SWAP1 RETURN JUMPDEST CALLVALUE DUP1 ISZERO PUSH2 0x498 JUMPI PUSH1 0x0 DUP1 REVERT JUMPDEST POP PUSH2 0x4B3 PUSH1 0x4 DUP1 CALLDATASIZE SUB DUP2 ADD SWAP1 PUSH2 0x4AE SWAP2 SWAP1 PUSH2 0x2A1E JUMP JUMPDEST PUSH2 0x1E1D JUMP JUMPDEST PUSH1 0x40 MLOAD PUSH2 0x4C0 SWAP2 SWAP1 PUSH2 0x2796 JUMP JUMPDEST PUSH1 0x40 MLOAD DUP1 SWAP2 SUB SWAP1 RETURN JUMPDEST PUSH1 0x0 PUSH1 0x60 PUSH1 0x0 CALLER PUSH20 0xFFFFFFFFFFFFFFFFFFFFFFFFFFFFFFFFFFFFFFFF AND PUSH1 0x0 DUP1 SLOAD SWAP1 PUSH2 0x100 EXP SWAP1 DIV PUSH20 0xFFFFFFFFFFFFFFFFFFFFFFFFFFFFFFFFFFFFFFFF AND PUSH20 0xFFFFFFFFFFFFFFFFFFFFFFFFFFFFFFFFFFFFFFFF AND EQ PUSH2 0x55D JUMPI PUSH1 0x40 MLOAD PUSH32 0x8C379A000000000000000000000000000000000000000000000000000000000 DUP2 MSTORE PUSH1 0x4 ADD PUSH2 0x554 SWAP1 PUSH2 0x2AE2 JUMP JUMPDEST PUSH1 0x40 MLOAD DUP1 SWAP2 SUB SWAP1 REVERT JUMPDEST PUSH1 0x0 PUSH1 0x8 PUSH1 0x0 DUP7 DUP2 MSTORE PUSH1 0x20 ADD SWAP1 DUP2 MSTORE PUSH1 0x20 ADD PUSH1 0x0 KECCAK256 PUSH1 0x1 ADD SLOAD EQ PUSH2 0x687 JUMPI DUP4 PUSH1 0x8 PUSH1 0x0 DUP7 DUP2 MSTORE PUSH1 0x20 ADD SWAP1 DUP2 MSTORE PUSH1 0x20 ADD PUSH1 0x0 KECCAK256 PUSH1 0x0 ADD PUSH1 0x8 PUSH1 0x0 DUP8 DUP2 MSTORE PUSH1 0x20 ADD SWAP1 DUP2 MSTORE PUSH1 0x20 ADD PUSH1 0x0 KECCAK256 PUSH1 0x1 ADD SLOAD DUP2 DUP1 SLOAD DUP1 PUSH1 0x20 MUL PUSH1 0x20 ADD PUSH1 0x40 MLOAD SWAP1 DUP2 ADD PUSH1 0x40 MSTORE DUP1 SWAP3 SWAP2 SWAP1 DUP2 DUP2 MSTORE PUSH1 0x20 ADD PUSH1 0x0 SWAP1 JUMPDEST DUP3 DUP3 LT ISZERO PUSH2 0x676 JUMPI DUP4 DUP3 SWAP1 PUSH1 0x0 MSTORE PUSH1 0x20 PUSH1 0x0 KECCAK256 ADD DUP1 SLOAD PUSH2 0x5E9 SWAP1 PUSH2 0x2B31 JUMP JUMPDEST DUP1 PUSH1 0x1F ADD PUSH1 0x20 DUP1 SWAP2 DIV MUL PUSH1 0x20 ADD PUSH1 0x40 MLOAD SWAP1 DUP2 ADD PUSH1 0x40 MSTORE DUP1 SWAP3 SWAP2 SWAP1 DUP2 DUP2 MSTORE PUSH1 0x20 ADD DUP3 DUP1 SLOAD PUSH2 0x615 SWAP1 PUSH2 0x2B31 JUMP JUMPDEST DUP1 ISZERO PUSH2 0x662 JUMPI DUP1 PUSH1 0x1F LT PUSH2 0x637 JUMPI PUSH2 0x100 DUP1 DUP4 SLOAD DIV MUL DUP4 MSTORE SWAP2 PUSH1 0x20 ADD SWAP2 PUSH2 0x662 JUMP JUMPDEST DUP3 ADD SWAP2 SWAP1 PUSH1 0x0 MSTORE PUSH1 0x20 PUSH1 0x0 KECCAK256 SWAP1 JUMPDEST DUP2 SLOAD DUP2 MSTORE SWAP1 PUSH1 0x1 ADD SWAP1 PUSH1 0x20 ADD DUP1 DUP4 GT PUSH2 0x645 JUMPI DUP3 SWAP1 SUB PUSH1 0x1F AND DUP3 ADD SWAP2 JUMPDEST POP POP POP POP POP DUP2 MSTORE PUSH1 0x20 ADD SWAP1 PUSH1 0x1 ADD SWAP1 PUSH2 0x5CA JUMP JUMPDEST POP POP POP POP SWAP2 POP SWAP3 POP SWAP3 POP SWAP3 POP PUSH2 0x6C2 JUMP JUMPDEST PUSH1 0x40 MLOAD PUSH32 0x8C379A000000000000000000000000000000000000000000000000000000000 DUP2 MSTORE PUSH1 0x4 ADD PUSH2 0x6B9 SWAP1 PUSH2 0x2BAE JUMP JUMPDEST PUSH1 0x40 MLOAD DUP1 SWAP2 SUB SWAP1 REVERT JUMPDEST SWAP2 SWAP4 SWAP1 SWAP3 POP JUMP JUMPDEST CALLER PUSH20 0xFFFFFFFFFFFFFFFFFFFFFFFFFFFFFFFFFFFFFFFF AND PUSH1 0x0 DUP1 SLOAD SWAP1 PUSH2 0x100 EXP SWAP1 DIV PUSH20 0xFFFFFFFFFFFFFFFFFFFFFFFFFFFFFFFFFFFFFFFF AND PUSH20 0xFFFFFFFFFFFFFFFFFFFFFFFFFFFFFFFFFFFFFFFF AND EQ PUSH2 0x757 JUMPI PUSH1 0x40 MLOAD PUSH32 0x8C379A000000000000000000000000000000000000000000000000000000000 DUP2 MSTORE PUSH1 0x4 ADD PUSH2 0x74E SWAP1 PUSH2 0x2AE2 JUMP JUMPDEST PUSH1 0x40 MLOAD DUP1 SWAP2 SUB SWAP1 REVERT JUMPDEST PUSH1 0x4 PUSH1 0x2 PUSH1 0x0 PUSH2 0x100 EXP DUP2 SLOAD DUP2 PUSH1 0xFF MUL NOT AND SWAP1 DUP4 PUSH1 0x6 DUP2 GT ISZERO PUSH2 0x77D JUMPI PUSH2 0x77C PUSH2 0x2519 JUMP JUMPDEST JUMPDEST MUL OR SWAP1 SSTORE POP DUP2 PUSH1 0x4 PUSH1 0x0 DUP5 DUP2 MSTORE PUSH1 0x20 ADD SWAP1 DUP2 MSTORE PUSH1 0x20 ADD PUSH1 0x0 KECCAK256 PUSH1 0x0 ADD DUP2 SWAP1 SSTORE POP DUP1 PUSH1 0x4 PUSH1 0x0 DUP5 DUP2 MSTORE PUSH1 0x20 ADD SWAP1 DUP2 MSTORE PUSH1 0x20 ADD PUSH1 0x0 KECCAK256 PUSH1 0x1 ADD PUSH1 0x0 PUSH2 0x100 EXP DUP2 SLOAD DUP2 PUSH20 0xFFFFFFFFFFFFFFFFFFFFFFFFFFFFFFFFFFFFFFFF MUL NOT AND SWAP1 DUP4 PUSH20 0xFFFFFFFFFFFFFFFFFFFFFFFFFFFFFFFFFFFFFFFF AND MUL OR SWAP1 SSTORE POP PUSH1 0x2 PUSH1 0x0 SWAP1 SLOAD SWAP1 PUSH2 0x100 EXP SWAP1 DIV PUSH1 0xFF AND PUSH1 0x4 PUSH1 0x0 DUP5 DUP2 MSTORE PUSH1 0x20 ADD SWAP1 DUP2 MSTORE PUSH1 0x20 ADD PUSH1 0x0 KECCAK256 PUSH1 0x1 ADD PUSH1 0x14 PUSH2 0x100 EXP DUP2 SLOAD DUP2 PUSH1 0xFF MUL NOT AND SWAP1 DUP4 PUSH1 0x6 DUP2 GT ISZERO PUSH2 0x83A JUMPI PUSH2 0x839 PUSH2 0x2519 JUMP JUMPDEST JUMPDEST MUL OR SWAP1 SSTORE POP PUSH1 0x2 PUSH1 0x0 SWAP1 SLOAD SWAP1 PUSH2 0x100 EXP SWAP1 DIV PUSH1 0xFF AND PUSH1 0x6 DUP2 GT ISZERO PUSH2 0x861 JUMPI PUSH2 0x860 PUSH2 0x2519 JUMP JUMPDEST JUMPDEST DUP2 PUSH20 0xFFFFFFFFFFFFFFFFFFFFFFFFFFFFFFFFFFFFFFFF AND DUP4 PUSH32 0xCC091C952960B84AF994B58E2349B735A74341BA5869F73ED41CE589750B6441 PUSH1 0x40 MLOAD PUSH1 0x40 MLOAD DUP1 SWAP2 SUB SWAP1 LOG4 POP POP JUMP JUMPDEST PUSH1 0x3 PUSH1 0x20 MSTORE DUP1 PUSH1 0x0 MSTORE PUSH1 0x40 PUSH1 0x0 KECCAK256 PUSH1 0x0 SWAP2 POP SWAP1 POP DUP1 PUSH1 0x0 ADD PUSH1 0x0 SWAP1 SLOAD SWAP1 PUSH2 0x100 EXP SWAP1 DIV PUSH1 0xFF AND SWAP1 POP DUP2 JUMP JUMPDEST CALLER PUSH20 0xFFFFFFFFFFFFFFFFFFFFFFFFFFFFFFFFFFFFFFFF AND PUSH1 0x0 DUP1 SLOAD SWAP1 PUSH2 0x100 EXP SWAP1 DIV PUSH20 0xFFFFFFFFFFFFFFFFFFFFFFFFFFFFFFFFFFFFFFFF AND PUSH20 0xFFFFFFFFFFFFFFFFFFFFFFFFFFFFFFFFFFFFFFFF AND EQ PUSH2 0x962 JUMPI PUSH1 0x40 MLOAD PUSH32 0x8C379A000000000000000000000000000000000000000000000000000000000 DUP2 MSTORE PUSH1 0x4 ADD PUSH2 0x959 SWAP1 PUSH2 0x2AE2 JUMP JUMPDEST PUSH1 0x40 MLOAD DUP1 SWAP2 SUB SWAP1 REVERT JUMPDEST PUSH1 0x2 DUP1 PUSH1 0x0 PUSH2 0x100 EXP DUP2 SLOAD DUP2 PUSH1 0xFF MUL NOT AND SWAP1 DUP4 PUSH1 0x6 DUP2 GT ISZERO PUSH2 0x987 JUMPI PUSH2 0x986 PUSH2 0x2519 JUMP JUMPDEST JUMPDEST MUL OR SWAP1 SSTORE POP DUP2 PUSH1 0x4 PUSH1 0x0 DUP5 DUP2 MSTORE PUSH1 0x20 ADD SWAP1 DUP2 MSTORE PUSH1 0x20 ADD PUSH1 0x0 KECCAK256 PUSH1 0x0 ADD DUP2 SWAP1 SSTORE POP DUP1 PUSH1 0x4 PUSH1 0x0 DUP5 DUP2 MSTORE PUSH1 0x20 ADD SWAP1 DUP2 MSTORE PUSH1 0x20 ADD PUSH1 0x0 KECCAK256 PUSH1 0x1 ADD PUSH1 0x0 PUSH2 0x100 EXP DUP2 SLOAD DUP2 PUSH20 0xFFFFFFFFFFFFFFFFFFFFFFFFFFFFFFFFFFFFFFFF MUL NOT AND SWAP1 DUP4 PUSH20 0xFFFFFFFFFFFFFFFFFFFFFFFFFFFFFFFFFFFFFFFF AND MUL OR SWAP1 SSTORE POP PUSH1 0x2 PUSH1 0x0 SWAP1 SLOAD SWAP1 PUSH2 0x100 EXP SWAP1 DIV PUSH1 0xFF AND PUSH1 0x4 PUSH1 0x0 DUP5 DUP2 MSTORE PUSH1 0x20 ADD SWAP1 DUP2 MSTORE PUSH1 0x20 ADD PUSH1 0x0 KECCAK256 PUSH1 0x1 ADD PUSH1 0x14 PUSH2 0x100 EXP DUP2 SLOAD DUP2 PUSH1 0xFF MUL NOT AND SWAP1 DUP4 PUSH1 0x6 DUP2 GT ISZERO PUSH2 0xA44 JUMPI PUSH2 0xA43 PUSH2 0x2519 JUMP JUMPDEST JUMPDEST MUL OR SWAP1 SSTORE POP PUSH1 0x2 PUSH1 0x0 SWAP1 SLOAD SWAP1 PUSH2 0x100 EXP SWAP1 DIV PUSH1 0xFF AND PUSH1 0x6 DUP2 GT ISZERO PUSH2 0xA6B JUMPI PUSH2 0xA6A PUSH2 0x2519 JUMP JUMPDEST JUMPDEST DUP2 PUSH20 0xFFFFFFFFFFFFFFFFFFFFFFFFFFFFFFFFFFFFFFFF AND DUP4 PUSH32 0xCC091C952960B84AF994B58E2349B735A74341BA5869F73ED41CE589750B6441 PUSH1 0x40 MLOAD PUSH1 0x40 MLOAD DUP1 SWAP2 SUB SWAP1 LOG4 POP POP JUMP JUMPDEST PUSH1 0x60 DUP1 PUSH1 0x0 PUSH1 0x7 PUSH1 0x0 DUP6 DUP2 MSTORE PUSH1 0x20 ADD SWAP1 DUP2 MSTORE PUSH1 0x20 ADD PUSH1 0x0 KECCAK256 PUSH1 0x0 ADD PUSH1 0x7 PUSH1 0x0 DUP7 DUP2 MSTORE PUSH1 0x20 ADD SWAP1 DUP2 MSTORE PUSH1 0x20 ADD PUSH1 0x0 KECCAK256 PUSH1 0x1 ADD PUSH1 0x7 PUSH1 0x0 DUP8 DUP2 MSTORE PUSH1 0x20 ADD SWAP1 DUP2 MSTORE PUSH1 0x20 ADD PUSH1 0x0 KECCAK256 PUSH1 0x2 ADD SLOAD DUP3 DUP1 SLOAD PUSH2 0xB07 SWAP1 PUSH2 0x2B31 JUMP JUMPDEST DUP1 PUSH1 0x1F ADD PUSH1 0x20 DUP1 SWAP2 DIV MUL PUSH1 0x20 ADD PUSH1 0x40 MLOAD SWAP1 DUP2 ADD PUSH1 0x40 MSTORE DUP1 SWAP3 SWAP2 SWAP1 DUP2 DUP2 MSTORE PUSH1 0x20 ADD DUP3 DUP1 SLOAD PUSH2 0xB33 SWAP1 PUSH2 0x2B31 JUMP JUMPDEST DUP1 ISZERO PUSH2 0xB80 JUMPI DUP1 PUSH1 0x1F LT PUSH2 0xB55 JUMPI PUSH2 0x100 DUP1 DUP4 SLOAD DIV MUL DUP4 MSTORE SWAP2 PUSH1 0x20 ADD SWAP2 PUSH2 0xB80 JUMP JUMPDEST DUP3 ADD SWAP2 SWAP1 PUSH1 0x0 MSTORE PUSH1 0x20 PUSH1 0x0 KECCAK256 SWAP1 JUMPDEST DUP2 SLOAD DUP2 MSTORE SWAP1 PUSH1 0x1 ADD SWAP1 PUSH1 0x20 ADD DUP1 DUP4 GT PUSH2 0xB63 JUMPI DUP3 SWAP1 SUB PUSH1 0x1F AND DUP3 ADD SWAP2 JUMPDEST POP POP POP POP POP SWAP3 POP DUP2 DUP1 SLOAD DUP1 PUSH1 0x20 MUL PUSH1 0x20 ADD PUSH1 0x40 MLOAD SWAP1 DUP2 ADD PUSH1 0x40 MSTORE DUP1 SWAP3 SWAP2 SWAP1 DUP2 DUP2 MSTORE PUSH1 0x20 ADD PUSH1 0x0 SWAP1 JUMPDEST DUP3 DUP3 LT ISZERO PUSH2 0xC54 JUMPI DUP4 DUP3 SWAP1 PUSH1 0x0 MSTORE PUSH1 0x20 PUSH1 0x0 KECCAK256 ADD DUP1 SLOAD PUSH2 0xBC7 SWAP1 PUSH2 0x2B31 JUMP JUMPDEST DUP1 PUSH1 0x1F ADD PUSH1 0x20 DUP1 SWAP2 DIV MUL PUSH1 0x20 ADD PUSH1 0x40 MLOAD SWAP1 DUP2 ADD PUSH1 0x40 MSTORE DUP1 SWAP3 SWAP2 SWAP1 DUP2 DUP2 MSTORE PUSH1 0x20 ADD DUP3 DUP1 SLOAD PUSH2 0xBF3 SWAP1 PUSH2 0x2B31 JUMP JUMPDEST DUP1 ISZERO PUSH2 0xC40 JUMPI DUP1 PUSH1 0x1F LT PUSH2 0xC15 JUMPI PUSH2 0x100 DUP1 DUP4 SLOAD DIV MUL DUP4 MSTORE SWAP2 PUSH1 0x20 ADD SWAP2 PUSH2 0xC40 JUMP JUMPDEST DUP3 ADD SWAP2 SWAP1 PUSH1 0x0 MSTORE PUSH1 0x20 PUSH1 0x0 KECCAK256 SWAP1 JUMPDEST DUP2 SLOAD DUP2 MSTORE SWAP1 PUSH1 0x1 ADD SWAP1 PUSH1 0x20 ADD DUP1 DUP4 GT PUSH2 0xC23 JUMPI DUP3 SWAP1 SUB PUSH1 0x1F AND DUP3 ADD SWAP2 JUMPDEST POP POP POP POP POP DUP2 MSTORE PUSH1 0x20 ADD SWAP1 PUSH1 0x1 ADD SWAP1 PUSH2 0xBA8 JUMP JUMPDEST POP POP POP POP SWAP2 POP SWAP3 POP SWAP3 POP SWAP3 POP SWAP2 SWAP4 SWAP1 SWAP3 POP JUMP JUMPDEST PUSH1 0x0 CALLER PUSH20 0xFFFFFFFFFFFFFFFFFFFFFFFFFFFFFFFFFFFFFFFF AND PUSH1 0x0 DUP1 SLOAD SWAP1 PUSH2 0x100 EXP SWAP1 DIV PUSH20 0xFFFFFFFFFFFFFFFFFFFFFFFFFFFFFFFFFFFFFFFF AND PUSH20 0xFFFFFFFFFFFFFFFFFFFFFFFFFFFFFFFFFFFFFFFF AND EQ PUSH2 0xCF7 JUMPI PUSH1 0x40 MLOAD PUSH32 0x8C379A000000000000000000000000000000000000000000000000000000000 DUP2 MSTORE PUSH1 0x4 ADD PUSH2 0xCEE SWAP1 PUSH2 0x2AE2 JUMP JUMPDEST PUSH1 0x40 MLOAD DUP1 SWAP2 SUB SWAP1 REVERT JUMPDEST PUSH1 0x1 PUSH1 0x3 PUSH1 0x0 DUP5 PUSH20 0xFFFFFFFFFFFFFFFFFFFFFFFFFFFFFFFFFFFFFFFF AND PUSH20 0xFFFFFFFFFFFFFFFFFFFFFFFFFFFFFFFFFFFFFFFF AND DUP2 MSTORE PUSH1 0x20 ADD SWAP1 DUP2 MSTORE PUSH1 0x20 ADD PUSH1 0x0 KECCAK256 PUSH1 0x0 ADD PUSH1 0x0 PUSH2 0x100 EXP DUP2 SLOAD DUP2 PUSH1 0xFF MUL NOT AND SWAP1 DUP4 ISZERO ISZERO MUL OR SWAP1 SSTORE SWAP1 POP SWAP2 SWAP1 POP JUMP JUMPDEST CALLER PUSH20 0xFFFFFFFFFFFFFFFFFFFFFFFFFFFFFFFFFFFFFFFF AND PUSH1 0x0 DUP1 SLOAD SWAP1 PUSH2 0x100 EXP SWAP1 DIV PUSH20 0xFFFFFFFFFFFFFFFFFFFFFFFFFFFFFFFFFFFFFFFF AND PUSH20 0xFFFFFFFFFFFFFFFFFFFFFFFFFFFFFFFFFFFFFFFF AND EQ PUSH2 0xDE6 JUMPI PUSH1 0x40 MLOAD PUSH32 0x8C379A000000000000000000000000000000000000000000000000000000000 DUP2 MSTORE PUSH1 0x4 ADD PUSH2 0xDDD SWAP1 PUSH2 0x2AE2 JUMP JUMPDEST PUSH1 0x40 MLOAD DUP1 SWAP2 SUB SWAP1 REVERT JUMPDEST DUP1 PUSH20 0xFFFFFFFFFFFFFFFFFFFFFFFFFFFFFFFFFFFFFFFF AND PUSH2 0x8FC CALLVALUE SWAP1 DUP2 ISZERO MUL SWAP1 PUSH1 0x40 MLOAD PUSH1 0x0 PUSH1 0x40 MLOAD DUP1 DUP4 SUB DUP2 DUP6 DUP9 DUP9 CALL SWAP4 POP POP POP POP ISZERO DUP1 ISZERO PUSH2 0xE2C JUMPI RETURNDATASIZE PUSH1 0x0 DUP1 RETURNDATACOPY RETURNDATASIZE PUSH1 0x0 REVERT JUMPDEST POP POP JUMP JUMPDEST CALLER PUSH20 0xFFFFFFFFFFFFFFFFFFFFFFFFFFFFFFFFFFFFFFFF AND PUSH1 0x0 DUP1 SLOAD SWAP1 PUSH2 0x100 EXP SWAP1 DIV PUSH20 0xFFFFFFFFFFFFFFFFFFFFFFFFFFFFFFFFFFFFFFFF AND PUSH20 0xFFFFFFFFFFFFFFFFFFFFFFFFFFFFFFFFFFFFFFFF AND EQ PUSH2 0xEBE JUMPI PUSH1 0x40 MLOAD PUSH32 0x8C379A000000000000000000000000000000000000000000000000000000000 DUP2 MSTORE PUSH1 0x4 ADD PUSH2 0xEB5 SWAP1 PUSH2 0x2AE2 JUMP JUMPDEST PUSH1 0x40 MLOAD DUP1 SWAP2 SUB SWAP1 REVERT JUMPDEST PUSH1 0x3 PUSH1 0x2 PUSH1 0x0 PUSH2 0x100 EXP DUP2 SLOAD DUP2 PUSH1 0xFF MUL NOT AND SWAP1 DUP4 PUSH1 0x6 DUP2 GT ISZERO PUSH2 0xEE4 JUMPI PUSH2 0xEE3 PUSH2 0x2519 JUMP JUMPDEST JUMPDEST MUL OR SWAP1 SSTORE POP DUP2 PUSH1 0x4 PUSH1 0x0 DUP5 DUP2 MSTORE PUSH1 0x20 ADD SWAP1 DUP2 MSTORE PUSH1 0x20 ADD PUSH1 0x0 KECCAK256 PUSH1 0x0 ADD DUP2 SWAP1 SSTORE POP DUP1 PUSH1 0x4 PUSH1 0x0 DUP5 DUP2 MSTORE PUSH1 0x20 ADD SWAP1 DUP2 MSTORE PUSH1 0x20 ADD PUSH1 0x0 KECCAK256 PUSH1 0x1 ADD PUSH1 0x0 PUSH2 0x100 EXP DUP2 SLOAD DUP2 PUSH20 0xFFFFFFFFFFFFFFFFFFFFFFFFFFFFFFFFFFFFFFFF MUL NOT AND SWAP1 DUP4 PUSH20 0xFFFFFFFFFFFFFFFFFFFFFFFFFFFFFFFFFFFFFFFF AND MUL OR SWAP1 SSTORE POP PUSH1 0x2 PUSH1 0x0 SWAP1 SLOAD SWAP1 PUSH2 0x100 EXP SWAP1 DIV PUSH1 0xFF AND PUSH1 0x4 PUSH1 0x0 DUP5 DUP2 MSTORE PUSH1 0x20 ADD SWAP1 DUP2 MSTORE PUSH1 0x20 ADD PUSH1 0x0 KECCAK256 PUSH1 0x1 ADD PUSH1 0x14 PUSH2 0x100 EXP DUP2 SLOAD DUP2 PUSH1 0xFF MUL NOT AND SWAP1 DUP4 PUSH1 0x6 DUP2 GT ISZERO PUSH2 0xFA1 JUMPI PUSH2 0xFA0 PUSH2 0x2519 JUMP JUMPDEST JUMPDEST MUL OR SWAP1 SSTORE POP PUSH1 0x5 PUSH1 0x0 DUP4 DUP2 MSTORE PUSH1 0x20 ADD SWAP1 DUP2 MSTORE PUSH1 0x20 ADD PUSH1 0x0 KECCAK256 PUSH1 0x2 ADD SLOAD DUP3 SUB PUSH2 0x1045 JUMPI PUSH1 0x0 DUP1 SLOAD SWAP1 PUSH2 0x100 EXP SWAP1 DIV PUSH20 0xFFFFFFFFFFFFFFFFFFFFFFFFFFFFFFFFFFFFFFFF AND PUSH20 0xFFFFFFFFFFFFFFFFFFFFFFFFFFFFFFFFFFFFFFFF AND PUSH2 0x8FC PUSH1 0x5 PUSH1 0x0 DUP6 DUP2 MSTORE PUSH1 0x20 ADD SWAP1 DUP2 MSTORE PUSH1 0x20 ADD PUSH1 0x0 KECCAK256 PUSH1 0x0 ADD SLOAD SWAP1 DUP2 ISZERO MUL SWAP1 PUSH1 0x40 MLOAD PUSH1 0x0 PUSH1 0x40 MLOAD DUP1 DUP4 SUB DUP2 DUP6 DUP9 DUP9 CALL SWAP4 POP POP POP POP ISZERO DUP1 ISZERO PUSH2 0x103F JUMPI RETURNDATASIZE PUSH1 0x0 DUP1 RETURNDATACOPY RETURNDATASIZE PUSH1 0x0 REVERT JUMPDEST POP PUSH2 0x1080 JUMP JUMPDEST PUSH1 0x40 MLOAD PUSH32 0x8C379A000000000000000000000000000000000000000000000000000000000 DUP2 MSTORE PUSH1 0x4 ADD PUSH2 0x1077 SWAP1 PUSH2 0x2C1A JUMP JUMPDEST PUSH1 0x40 MLOAD DUP1 SWAP2 SUB SWAP1 REVERT JUMPDEST PUSH1 0x2 PUSH1 0x0 SWAP1 SLOAD SWAP1 PUSH2 0x100 EXP SWAP1 DIV PUSH1 0xFF AND PUSH1 0x6 DUP2 GT ISZERO PUSH2 0x10A2 JUMPI PUSH2 0x10A1 PUSH2 0x2519 JUMP JUMPDEST JUMPDEST DUP2 PUSH20 0xFFFFFFFFFFFFFFFFFFFFFFFFFFFFFFFFFFFFFFFF AND DUP4 PUSH32 0xCC091C952960B84AF994B58E2349B735A74341BA5869F73ED41CE589750B6441 PUSH1 0x40 MLOAD PUSH1 0x40 MLOAD DUP1 SWAP2 SUB SWAP1 LOG4 POP POP JUMP JUMPDEST CALLVALUE PUSH1 0x1 DUP2 SWAP1 SSTORE POP CALLER PUSH1 0x5 PUSH1 0x0 DUP4 DUP2 MSTORE PUSH1 0x20 ADD SWAP1 DUP2 MSTORE PUSH1 0x20 ADD PUSH1 0x0 KECCAK256 PUSH1 0x1 ADD PUSH1 0x0 PUSH2 0x100 EXP DUP2 SLOAD DUP2 PUSH20 0xFFFFFFFFFFFFFFFFFFFFFFFFFFFFFFFFFFFFFFFF MUL NOT AND SWAP1 DUP4 PUSH20 0xFFFFFFFFFFFFFFFFFFFFFFFFFFFFFFFFFFFFFFFF AND MUL OR SWAP1 SSTORE POP PUSH1 0x1 SLOAD PUSH1 0x5 PUSH1 0x0 DUP4 DUP2 MSTORE PUSH1 0x20 ADD SWAP1 DUP2 MSTORE PUSH1 0x20 ADD PUSH1 0x0 KECCAK256 PUSH1 0x0 ADD DUP2 SWAP1 SSTORE POP DUP1 PUSH1 0x5 PUSH1 0x0 DUP4 DUP2 MSTORE PUSH1 0x20 ADD SWAP1 DUP2 MSTORE PUSH1 0x20 ADD PUSH1 0x0 KECCAK256 PUSH1 0x2 ADD DUP2 SWAP1 SSTORE POP DUP1 CALLER PUSH20 0xFFFFFFFFFFFFFFFFFFFFFFFFFFFFFFFFFFFFFFFF AND PUSH1 0x1 SLOAD PUSH32 0xCFA45676592E00E4BCB2FC31B4369381509E94F94F38870561CB010FAB2D3B33 PUSH1 0x40 MLOAD PUSH1 0x40 MLOAD DUP1 SWAP2 SUB SWAP1 LOG4 POP JUMP JUMPDEST CALLER PUSH20 0xFFFFFFFFFFFFFFFFFFFFFFFFFFFFFFFFFFFFFFFF AND PUSH1 0x0 DUP1 SLOAD SWAP1 PUSH2 0x100 EXP SWAP1 DIV PUSH20 0xFFFFFFFFFFFFFFFFFFFFFFFFFFFFFFFFFFFFFFFF AND PUSH20 0xFFFFFFFFFFFFFFFFFFFFFFFFFFFFFFFFFFFFFFFF AND EQ PUSH2 0x1256 JUMPI PUSH1 0x40 MLOAD PUSH32 0x8C379A000000000000000000000000000000000000000000000000000000000 DUP2 MSTORE PUSH1 0x4 ADD PUSH2 0x124D SWAP1 PUSH2 0x2AE2 JUMP JUMPDEST PUSH1 0x40 MLOAD DUP1 SWAP2 SUB SWAP1 REVERT JUMPDEST PUSH1 0x1 PUSH1 0x2 PUSH1 0x0 PUSH2 0x100 EXP DUP2 SLOAD DUP2 PUSH1 0xFF MUL NOT AND SWAP1 DUP4 PUSH1 0x6 DUP2 GT ISZERO PUSH2 0x127C JUMPI PUSH2 0x127B PUSH2 0x2519 JUMP JUMPDEST JUMPDEST MUL OR SWAP1 SSTORE POP DUP2 PUSH1 0x4 PUSH1 0x0 DUP5 DUP2 MSTORE PUSH1 0x20 ADD SWAP1 DUP2 MSTORE PUSH1 0x20 ADD PUSH1 0x0 KECCAK256 PUSH1 0x0 ADD DUP2 SWAP1 SSTORE POP DUP1 PUSH1 0x4 PUSH1 0x0 DUP5 DUP2 MSTORE PUSH1 0x20 ADD SWAP1 DUP2 MSTORE PUSH1 0x20 ADD PUSH1 0x0 KECCAK256 PUSH1 0x1 ADD PUSH1 0x0 PUSH2 0x100 EXP DUP2 SLOAD DUP2 PUSH20 0xFFFFFFFFFFFFFFFFFFFFFFFFFFFFFFFFFFFFFFFF MUL NOT AND SWAP1 DUP4 PUSH20 0xFFFFFFFFFFFFFFFFFFFFFFFFFFFFFFFFFFFFFFFF AND MUL OR SWAP1 SSTORE POP PUSH1 0x2 PUSH1 0x0 SWAP1 SLOAD SWAP1 PUSH2 0x100 EXP SWAP1 DIV PUSH1 0xFF AND PUSH1 0x4 PUSH1 0x0 DUP5 DUP2 MSTORE PUSH1 0x20 ADD SWAP1 DUP2 MSTORE PUSH1 0x20 ADD PUSH1 0x0 KECCAK256 PUSH1 0x1 ADD PUSH1 0x14 PUSH2 0x100 EXP DUP2 SLOAD DUP2 PUSH1 0xFF MUL NOT AND SWAP1 DUP4 PUSH1 0x6 DUP2 GT ISZERO PUSH2 0x1339 JUMPI PUSH2 0x1338 PUSH2 0x2519 JUMP JUMPDEST JUMPDEST MUL OR SWAP1 SSTORE POP PUSH1 0x2 PUSH1 0x0 SWAP1 SLOAD SWAP1 PUSH2 0x100 EXP SWAP1 DIV PUSH1 0xFF AND PUSH1 0x6 DUP2 GT ISZERO PUSH2 0x1360 JUMPI PUSH2 0x135F PUSH2 0x2519 JUMP JUMPDEST JUMPDEST DUP2 PUSH20 0xFFFFFFFFFFFFFFFFFFFFFFFFFFFFFFFFFFFFFFFF AND DUP4 PUSH32 0xCC091C952960B84AF994B58E2349B735A74341BA5869F73ED41CE589750B6441 PUSH1 0x40 MLOAD PUSH1 0x40 MLOAD DUP1 SWAP2 SUB SWAP1 LOG4 POP POP JUMP JUMPDEST CALLER PUSH20 0xFFFFFFFFFFFFFFFFFFFFFFFFFFFFFFFFFFFFFFFF AND PUSH1 0x0 DUP1 SLOAD SWAP1 PUSH2 0x100 EXP SWAP1 DIV PUSH20 0xFFFFFFFFFFFFFFFFFFFFFFFFFFFFFFFFFFFFFFFF AND PUSH20 0xFFFFFFFFFFFFFFFFFFFFFFFFFFFFFFFFFFFFFFFF AND EQ PUSH2 0x1436 JUMPI PUSH1 0x40 MLOAD PUSH32 0x8C379A000000000000000000000000000000000000000000000000000000000 DUP2 MSTORE PUSH1 0x4 ADD PUSH2 0x142D SWAP1 PUSH2 0x2AE2 JUMP JUMPDEST PUSH1 0x40 MLOAD DUP1 SWAP2 SUB SWAP1 REVERT JUMPDEST PUSH1 0x0 PUSH1 0x2 PUSH1 0x0 PUSH2 0x100 EXP DUP2 SLOAD DUP2 PUSH1 0xFF MUL NOT AND SWAP1 DUP4 PUSH1 0x6 DUP2 GT ISZERO PUSH2 0x145C JUMPI PUSH2 0x145B PUSH2 0x2519 JUMP JUMPDEST JUMPDEST MUL OR SWAP1 SSTORE POP DUP2 PUSH1 0x4 PUSH1 0x0 DUP5 DUP2 MSTORE PUSH1 0x20 ADD SWAP1 DUP2 MSTORE PUSH1 0x20 ADD PUSH1 0x0 KECCAK256 PUSH1 0x0 ADD DUP2 SWAP1 SSTORE POP DUP1 PUSH1 0x4 PUSH1 0x0 DUP5 DUP2 MSTORE PUSH1 0x20 ADD SWAP1 DUP2 MSTORE PUSH1 0x20 ADD PUSH1 0x0 KECCAK256 PUSH1 0x1 ADD PUSH1 0x0 PUSH2 0x100 EXP DUP2 SLOAD DUP2 PUSH20 0xFFFFFFFFFFFFFFFFFFFFFFFFFFFFFFFFFFFFFFFF MUL NOT AND SWAP1 DUP4 PUSH20 0xFFFFFFFFFFFFFFFFFFFFFFFFFFFFFFFFFFFFFFFF AND MUL OR SWAP1 SSTORE POP PUSH1 0x2 PUSH1 0x0 SWAP1 SLOAD SWAP1 PUSH2 0x100 EXP SWAP1 DIV PUSH1 0xFF AND PUSH1 0x4 PUSH1 0x0 DUP5 DUP2 MSTORE PUSH1 0x20 ADD SWAP1 DUP2 MSTORE PUSH1 0x20 ADD PUSH1 0x0 KECCAK256 PUSH1 0x1 ADD PUSH1 0x14 PUSH2 0x100 EXP DUP2 SLOAD DUP2 PUSH1 0xFF MUL NOT AND SWAP1 DUP4 PUSH1 0x6 DUP2 GT ISZERO PUSH2 0x1519 JUMPI PUSH2 0x1518 PUSH2 0x2519 JUMP JUMPDEST JUMPDEST MUL OR SWAP1 SSTORE POP PUSH1 0x2 PUSH1 0x0 SWAP1 SLOAD SWAP1 PUSH2 0x100 EXP SWAP1 DIV PUSH1 0xFF AND PUSH1 0x6 DUP2 GT ISZERO PUSH2 0x1540 JUMPI PUSH2 0x153F PUSH2 0x2519 JUMP JUMPDEST JUMPDEST DUP2 PUSH20 0xFFFFFFFFFFFFFFFFFFFFFFFFFFFFFFFFFFFFFFFF AND DUP4 PUSH32 0xCC091C952960B84AF994B58E2349B735A74341BA5869F73ED41CE589750B6441 PUSH1 0x40 MLOAD PUSH1 0x40 MLOAD DUP1 SWAP2 SUB SWAP1 LOG4 POP POP JUMP JUMPDEST PUSH1 0x4 PUSH1 0x20 MSTORE DUP1 PUSH1 0x0 MSTORE PUSH1 0x40 PUSH1 0x0 KECCAK256 PUSH1 0x0 SWAP2 POP SWAP1 POP DUP1 PUSH1 0x0 ADD SLOAD SWAP1 DUP1 PUSH1 0x1 ADD PUSH1 0x0 SWAP1 SLOAD SWAP1 PUSH2 0x100 EXP SWAP1 DIV PUSH20 0xFFFFFFFFFFFFFFFFFFFFFFFFFFFFFFFFFFFFFFFF AND SWAP1 DUP1 PUSH1 0x1 ADD PUSH1 0x14 SWAP1 SLOAD SWAP1 PUSH2 0x100 EXP SWAP1 DIV PUSH1 0xFF AND SWAP1 POP DUP4 JUMP JUMPDEST PUSH1 0x0 CALLER PUSH20 0xFFFFFFFFFFFFFFFFFFFFFFFFFFFFFFFFFFFFFFFF AND PUSH1 0x0 DUP1 SLOAD SWAP1 PUSH2 0x100 EXP SWAP1 DIV PUSH20 0xFFFFFFFFFFFFFFFFFFFFFFFFFFFFFFFFFFFFFFFF AND PUSH20 0xFFFFFFFFFFFFFFFFFFFFFFFFFFFFFFFFFFFFFFFF AND EQ PUSH2 0x166F JUMPI PUSH1 0x40 MLOAD PUSH32 0x8C379A000000000000000000000000000000000000000000000000000000000 DUP2 MSTORE PUSH1 0x4 ADD PUSH2 0x1666 SWAP1 PUSH2 0x2AE2 JUMP JUMPDEST PUSH1 0x40 MLOAD DUP1 SWAP2 SUB SWAP1 REVERT JUMPDEST PUSH1 0x0 DUP5 DUP4 TIMESTAMP PUSH1 0x40 MLOAD PUSH1 0x20 ADD PUSH2 0x1686 SWAP4 SWAP3 SWAP2 SWAP1 PUSH2 0x2C97 JUMP JUMPDEST PUSH1 0x40 MLOAD PUSH1 0x20 DUP2 DUP4 SUB SUB DUP2 MSTORE SWAP1 PUSH1 0x40 MSTORE DUP1 MLOAD SWAP1 PUSH1 0x20 ADD KECCAK256 SWAP1 POP DUP5 PUSH1 0x6 PUSH1 0x0 DUP4 DUP2 MSTORE PUSH1 0x20 ADD SWAP1 DUP2 MSTORE PUSH1 0x20 ADD PUSH1 0x0 KECCAK256 PUSH1 0x0 ADD SWAP1 DUP2 PUSH2 0x16C1 SWAP2 SWAP1 PUSH2 0x2E78 JUMP JUMPDEST POP DUP4 PUSH1 0x6 PUSH1 0x0 DUP4 DUP2 MSTORE PUSH1 0x20 ADD SWAP1 DUP2 MSTORE PUSH1 0x20 ADD PUSH1 0x0 KECCAK256 PUSH1 0x1 ADD PUSH1 0x0 PUSH2 0x100 EXP DUP2 SLOAD DUP2 PUSH20 0xFFFFFFFFFFFFFFFFFFFFFFFFFFFFFFFFFFFFFFFF MUL NOT AND SWAP1 DUP4 PUSH20 0xFFFFFFFFFFFFFFFFFFFFFFFFFFFFFFFFFFFFFFFF AND MUL OR SWAP1 SSTORE POP DUP3 PUSH1 0x6 PUSH1 0x0 DUP4 DUP2 MSTORE PUSH1 0x20 ADD SWAP1 DUP2 MSTORE PUSH1 0x20 ADD PUSH1 0x0 KECCAK256 PUSH1 0x2 ADD SWAP1 DUP2 PUSH2 0x173A SWAP2 SWAP1 PUSH2 0x2E78 JUMP JUMPDEST POP TIMESTAMP PUSH1 0x6 PUSH1 0x0 DUP4 DUP2 MSTORE PUSH1 0x20 ADD SWAP1 DUP2 MSTORE PUSH1 0x20 ADD PUSH1 0x0 KECCAK256 PUSH1 0x3 ADD DUP2 SWAP1 SSTORE POP DUP3 PUSH1 0x40 MLOAD PUSH2 0x1764 SWAP2 SWAP1 PUSH2 0x2F4A JUMP JUMPDEST PUSH1 0x40 MLOAD DUP1 SWAP2 SUB SWAP1 KECCAK256 DUP5 PUSH20 0xFFFFFFFFFFFFFFFFFFFFFFFFFFFFFFFFFFFFFFFF AND DUP7 PUSH1 0x40 MLOAD PUSH2 0x1791 SWAP2 SWAP1 PUSH2 0x2F4A JUMP JUMPDEST PUSH1 0x40 MLOAD DUP1 SWAP2 SUB SWAP1 KECCAK256 PUSH32 0x8C2006DED45E844AD517D061C1F0870ECC0FB1FDF9BA77B20F8AC6E3C92E739C TIMESTAMP PUSH1 0x40 MLOAD PUSH2 0x17C8 SWAP2 SWAP1 PUSH2 0x2F61 JUMP JUMPDEST PUSH1 0x40 MLOAD DUP1 SWAP2 SUB SWAP1 LOG4 DUP1 SWAP2 POP POP SWAP4 SWAP3 POP POP POP JUMP JUMPDEST CALLER PUSH20 0xFFFFFFFFFFFFFFFFFFFFFFFFFFFFFFFFFFFFFFFF AND PUSH1 0x0 DUP1 SLOAD SWAP1 PUSH2 0x100 EXP SWAP1 DIV PUSH20 0xFFFFFFFFFFFFFFFFFFFFFFFFFFFFFFFFFFFFFFFF AND PUSH20 0xFFFFFFFFFFFFFFFFFFFFFFFFFFFFFFFFFFFFFFFF AND EQ PUSH2 0x1869 JUMPI PUSH1 0x40 MLOAD PUSH32 0x8C379A000000000000000000000000000000000000000000000000000000000 DUP2 MSTORE PUSH1 0x4 ADD PUSH2 0x1860 SWAP1 PUSH2 0x2AE2 JUMP JUMPDEST PUSH1 0x40 MLOAD DUP1 SWAP2 SUB SWAP1 REVERT JUMPDEST DUP1 PUSH1 0x8 PUSH1 0x0 DUP5 DUP2 MSTORE PUSH1 0x20 ADD SWAP1 DUP2 MSTORE PUSH1 0x20 ADD PUSH1 0x0 KECCAK256 PUSH1 0x0 ADD SWAP1 DUP1 MLOAD SWAP1 PUSH1 0x20 ADD SWAP1 PUSH2 0x1893 SWAP3 SWAP2 SWAP1 PUSH2 0x1FB1 JUMP JUMPDEST POP TIMESTAMP PUSH1 0x8 PUSH1 0x0 DUP5 DUP2 MSTORE PUSH1 0x20 ADD SWAP1 DUP2 MSTORE PUSH1 0x20 ADD PUSH1 0x0 KECCAK256 PUSH1 0x1 ADD DUP2 SWAP1 SSTORE POP POP POP JUMP JUMPDEST CALLER PUSH20 0xFFFFFFFFFFFFFFFFFFFFFFFFFFFFFFFFFFFFFFFF AND PUSH1 0x0 DUP1 SLOAD SWAP1 PUSH2 0x100 EXP SWAP1 DIV PUSH20 0xFFFFFFFFFFFFFFFFFFFFFFFFFFFFFFFFFFFFFFFF AND PUSH20 0xFFFFFFFFFFFFFFFFFFFFFFFFFFFFFFFFFFFFFFFF AND EQ PUSH2 0x1941 JUMPI PUSH1 0x40 MLOAD PUSH32 0x8C379A000000000000000000000000000000000000000000000000000000000 DUP2 MSTORE PUSH1 0x4 ADD PUSH2 0x1938 SWAP1 PUSH2 0x2AE2 JUMP JUMPDEST PUSH1 0x40 MLOAD DUP1 SWAP2 SUB SWAP1 REVERT JUMPDEST PUSH1 0x6 PUSH1 0x2 PUSH1 0x0 PUSH2 0x100 EXP DUP2 SLOAD DUP2 PUSH1 0xFF MUL NOT AND SWAP1 DUP4 PUSH1 0x6 DUP2 GT ISZERO PUSH2 0x1967 JUMPI PUSH2 0x1966 PUSH2 0x2519 JUMP JUMPDEST JUMPDEST MUL OR SWAP1 SSTORE POP DUP2 PUSH1 0x4 PUSH1 0x0 DUP5 DUP2 MSTORE PUSH1 0x20 ADD SWAP1 DUP2 MSTORE PUSH1 0x20 ADD PUSH1 0x0 KECCAK256 PUSH1 0x0 ADD DUP2 SWAP1 SSTORE POP DUP1 PUSH1 0x4 PUSH1 0x0 DUP5 DUP2 MSTORE PUSH1 0x20 ADD SWAP1 DUP2 MSTORE PUSH1 0x20 ADD PUSH1 0x0 KECCAK256 PUSH1 0x1 ADD PUSH1 0x0 PUSH2 0x100 EXP DUP2 SLOAD DUP2 PUSH20 0xFFFFFFFFFFFFFFFFFFFFFFFFFFFFFFFFFFFFFFFF MUL NOT AND SWAP1 DUP4 PUSH20 0xFFFFFFFFFFFFFFFFFFFFFFFFFFFFFFFFFFFFFFFF AND MUL OR SWAP1 SSTORE POP PUSH1 0x2 PUSH1 0x0 SWAP1 SLOAD SWAP1 PUSH2 0x100 EXP SWAP1 DIV PUSH1 0xFF AND PUSH1 0x4 PUSH1 0x0 DUP5 DUP2 MSTORE PUSH1 0x20 ADD SWAP1 DUP2 MSTORE PUSH1 0x20 ADD PUSH1 0x0 KECCAK256 PUSH1 0x1 ADD PUSH1 0x14 PUSH2 0x100 EXP DUP2 SLOAD DUP2 PUSH1 0xFF MUL NOT AND SWAP1 DUP4 PUSH1 0x6 DUP2 GT ISZERO PUSH2 0x1A24 JUMPI PUSH2 0x1A23 PUSH2 0x2519 JUMP JUMPDEST JUMPDEST MUL OR SWAP1 SSTORE POP PUSH1 0x2 PUSH1 0x0 SWAP1 SLOAD SWAP1 PUSH2 0x100 EXP SWAP1 DIV PUSH1 0xFF AND PUSH1 0x6 DUP2 GT ISZERO PUSH2 0x1A4B JUMPI PUSH2 0x1A4A PUSH2 0x2519 JUMP JUMPDEST JUMPDEST DUP2 PUSH20 0xFFFFFFFFFFFFFFFFFFFFFFFFFFFFFFFFFFFFFFFF AND DUP4 PUSH32 0xCC091C952960B84AF994B58E2349B735A74341BA5869F73ED41CE589750B6441 PUSH1 0x40 MLOAD PUSH1 0x40 MLOAD DUP1 SWAP2 SUB SWAP1 LOG4 POP POP JUMP JUMPDEST PUSH1 0x5 PUSH1 0x20 MSTORE DUP1 PUSH1 0x0 MSTORE PUSH1 0x40 PUSH1 0x0 KECCAK256 PUSH1 0x0 SWAP2 POP SWAP1 POP DUP1 PUSH1 0x0 ADD SLOAD SWAP1 DUP1 PUSH1 0x1 ADD PUSH1 0x0 SWAP1 SLOAD SWAP1 PUSH2 0x100 EXP SWAP1 DIV PUSH20 0xFFFFFFFFFFFFFFFFFFFFFFFFFFFFFFFFFFFFFFFF AND SWAP1 DUP1 PUSH1 0x2 ADD SLOAD SWAP1 POP DUP4 JUMP JUMPDEST CALLER PUSH20 0xFFFFFFFFFFFFFFFFFFFFFFFFFFFFFFFFFFFFFFFF AND PUSH1 0x0 DUP1 SLOAD SWAP1 PUSH2 0x100 EXP SWAP1 DIV PUSH20 0xFFFFFFFFFFFFFFFFFFFFFFFFFFFFFFFFFFFFFFFF AND PUSH20 0xFFFFFFFFFFFFFFFFFFFFFFFFFFFFFFFFFFFFFFFF AND EQ PUSH2 0x1B6B JUMPI PUSH1 0x40 MLOAD PUSH32 0x8C379A000000000000000000000000000000000000000000000000000000000 DUP2 MSTORE PUSH1 0x4 ADD PUSH2 0x1B62 SWAP1 PUSH2 0x2AE2 JUMP JUMPDEST PUSH1 0x40 MLOAD DUP1 SWAP2 SUB SWAP1 REVERT JUMPDEST PUSH1 0x5 PUSH1 0x2 PUSH1 0x0 PUSH2 0x100 EXP DUP2 SLOAD DUP2 PUSH1 0xFF MUL NOT AND SWAP1 DUP4 PUSH1 0x6 DUP2 GT ISZERO PUSH2 0x1B91 JUMPI PUSH2 0x1B90 PUSH2 0x2519 JUMP JUMPDEST JUMPDEST MUL OR SWAP1 SSTORE POP DUP2 PUSH1 0x4 PUSH1 0x0 DUP5 DUP2 MSTORE PUSH1 0x20 ADD SWAP1 DUP2 MSTORE PUSH1 0x20 ADD PUSH1 0x0 KECCAK256 PUSH1 0x0 ADD DUP2 SWAP1 SSTORE POP DUP1 PUSH1 0x4 PUSH1 0x0 DUP5 DUP2 MSTORE PUSH1 0x20 ADD SWAP1 DUP2 MSTORE PUSH1 0x20 ADD PUSH1 0x0 KECCAK256 PUSH1 0x1 ADD PUSH1 0x0 PUSH2 0x100 EXP DUP2 SLOAD DUP2 PUSH20 0xFFFFFFFFFFFFFFFFFFFFFFFFFFFFFFFFFFFFFFFF MUL NOT AND SWAP1 DUP4 PUSH20 0xFFFFFFFFFFFFFFFFFFFFFFFFFFFFFFFFFFFFFFFF AND MUL OR SWAP1 SSTORE POP PUSH1 0x2 PUSH1 0x0 SWAP1 SLOAD SWAP1 PUSH2 0x100 EXP SWAP1 DIV PUSH1 0xFF AND PUSH1 0x4 PUSH1 0x0 DUP5 DUP2 MSTORE PUSH1 0x20 ADD SWAP1 DUP2 MSTORE PUSH1 0x20 ADD PUSH1 0x0 KECCAK256 PUSH1 0x1 ADD PUSH1 0x14 PUSH2 0x100 EXP DUP2 SLOAD DUP2 PUSH1 0xFF MUL NOT AND SWAP1 DUP4 PUSH1 0x6 DUP2 GT ISZERO PUSH2 0x1C4E JUMPI PUSH2 0x1C4D PUSH2 0x2519 JUMP JUMPDEST JUMPDEST MUL OR SWAP1 SSTORE POP PUSH1 0x2 PUSH1 0x0 SWAP1 SLOAD SWAP1 PUSH2 0x100 EXP SWAP1 DIV PUSH1 0xFF AND PUSH1 0x6 DUP2 GT ISZERO PUSH2 0x1C75 JUMPI PUSH2 0x1C74 PUSH2 0x2519 JUMP JUMPDEST JUMPDEST DUP2 PUSH20 0xFFFFFFFFFFFFFFFFFFFFFFFFFFFFFFFFFFFFFFFF AND DUP4 PUSH32 0xCC091C952960B84AF994B58E2349B735A74341BA5869F73ED41CE589750B6441 PUSH1 0x40 MLOAD PUSH1 0x40 MLOAD DUP1 SWAP2 SUB SWAP1 LOG4 POP POP JUMP JUMPDEST PUSH1 0x6 PUSH1 0x20 MSTORE DUP1 PUSH1 0x0 MSTORE PUSH1 0x40 PUSH1 0x0 KECCAK256 PUSH1 0x0 SWAP2 POP SWAP1 POP DUP1 PUSH1 0x0 ADD DUP1 SLOAD PUSH2 0x1CE0 SWAP1 PUSH2 0x2B31 JUMP JUMPDEST DUP1 PUSH1 0x1F ADD PUSH1 0x20 DUP1 SWAP2 DIV MUL PUSH1 0x20 ADD PUSH1 0x40 MLOAD SWAP1 DUP2 ADD PUSH1 0x40 MSTORE DUP1 SWAP3 SWAP2 SWAP1 DUP2 DUP2 MSTORE PUSH1 0x20 ADD DUP3 DUP1 SLOAD PUSH2 0x1D0C SWAP1 PUSH2 0x2B31 JUMP JUMPDEST DUP1 ISZERO PUSH2 0x1D59 JUMPI DUP1 PUSH1 0x1F LT PUSH2 0x1D2E JUMPI PUSH2 0x100 DUP1 DUP4 SLOAD DIV MUL DUP4 MSTORE SWAP2 PUSH1 0x20 ADD SWAP2 PUSH2 0x1D59 JUMP JUMPDEST DUP3 ADD SWAP2 SWAP1 PUSH1 0x0 MSTORE PUSH1 0x20 PUSH1 0x0 KECCAK256 SWAP1 JUMPDEST DUP2 SLOAD DUP2 MSTORE SWAP1 PUSH1 0x1 ADD SWAP1 PUSH1 0x20 ADD DUP1 DUP4 GT PUSH2 0x1D3C JUMPI DUP3 SWAP1 SUB PUSH1 0x1F AND DUP3 ADD SWAP2 JUMPDEST POP POP POP POP POP SWAP1 DUP1 PUSH1 0x1 ADD PUSH1 0x0 SWAP1 SLOAD SWAP1 PUSH2 0x100 EXP SWAP1 DIV PUSH20 0xFFFFFFFFFFFFFFFFFFFFFFFFFFFFFFFFFFFFFFFF AND SWAP1 DUP1 PUSH1 0x2 ADD DUP1 SLOAD PUSH2 0x1D94 SWAP1 PUSH2 0x2B31 JUMP JUMPDEST DUP1 PUSH1 0x1F ADD PUSH1 0x20 DUP1 SWAP2 DIV MUL PUSH1 0x20 ADD PUSH1 0x40 MLOAD SWAP1 DUP2 ADD PUSH1 0x40 MSTORE DUP1 SWAP3 SWAP2 SWAP1 DUP2 DUP2 MSTORE PUSH1 0x20 ADD DUP3 DUP1 SLOAD PUSH2 0x1DC0 SWAP1 PUSH2 0x2B31 JUMP JUMPDEST DUP1 ISZERO PUSH2 0x1E0D JUMPI DUP1 PUSH1 0x1F LT PUSH2 0x1DE2 JUMPI PUSH2 0x100 DUP1 DUP4 SLOAD DIV MUL DUP4 MSTORE SWAP2 PUSH1 0x20 ADD SWAP2 PUSH2 0x1E0D JUMP JUMPDEST DUP3 ADD SWAP2 SWAP1 PUSH1 0x0 MSTORE PUSH1 0x20 PUSH1 0x0 KECCAK256 SWAP1 JUMPDEST DUP2 SLOAD DUP2 MSTORE SWAP1 PUSH1 0x1 ADD SWAP1 PUSH1 0x20 ADD DUP1 DUP4 GT PUSH2 0x1DF0 JUMPI DUP3 SWAP1 SUB PUSH1 0x1F AND DUP3 ADD SWAP2 JUMPDEST POP POP POP POP POP SWAP1 DUP1 PUSH1 0x3 ADD SLOAD SWAP1 POP DUP5 JUMP JUMPDEST PUSH1 0x0 CALLER PUSH20 0xFFFFFFFFFFFFFFFFFFFFFFFFFFFFFFFFFFFFFFFF AND PUSH1 0x0 DUP1 SLOAD SWAP1 PUSH2 0x100 EXP SWAP1 DIV PUSH20 0xFFFFFFFFFFFFFFFFFFFFFFFFFFFFFFFFFFFFFFFF AND PUSH20 0xFFFFFFFFFFFFFFFFFFFFFFFFFFFFFFFFFFFFFFFF AND EQ PUSH2 0x1EAD JUMPI PUSH1 0x40 MLOAD PUSH32 0x8C379A000000000000000000000000000000000000000000000000000000000 DUP2 MSTORE PUSH1 0x4 ADD PUSH2 0x1EA4 SWAP1 PUSH2 0x2AE2 JUMP JUMPDEST PUSH1 0x40 MLOAD DUP1 SWAP2 SUB SWAP1 REVERT JUMPDEST PUSH1 0x0 DUP4 TIMESTAMP PUSH1 0x40 MLOAD PUSH1 0x20 ADD PUSH2 0x1EC2 SWAP3 SWAP2 SWAP1 PUSH2 0x2F7C JUMP JUMPDEST PUSH1 0x40 MLOAD PUSH1 0x20 DUP2 DUP4 SUB SUB DUP2 MSTORE SWAP1 PUSH1 0x40 MSTORE DUP1 MLOAD SWAP1 PUSH1 0x20 ADD KECCAK256 SWAP1 POP DUP4 PUSH1 0x7 PUSH1 0x0 DUP4 DUP2 MSTORE PUSH1 0x20 ADD SWAP1 DUP2 MSTORE PUSH1 0x20 ADD PUSH1 0x0 KECCAK256 PUSH1 0x0 ADD SWAP1 DUP2 PUSH2 0x1EFD SWAP2 SWAP1 PUSH2 0x2E78 JUMP JUMPDEST POP DUP3 PUSH1 0x7 PUSH1 0x0 DUP4 DUP2 MSTORE PUSH1 0x20 ADD SWAP1 DUP2 MSTORE PUSH1 0x20 ADD PUSH1 0x0 KECCAK256 PUSH1 0x1 ADD SWAP1 DUP1 MLOAD SWAP1 PUSH1 0x20 ADD SWAP1 PUSH2 0x1F28 SWAP3 SWAP2 SWAP1 PUSH2 0x1FB1 JUMP JUMPDEST POP TIMESTAMP PUSH1 0x7 PUSH1 0x0 DUP4 DUP2 MSTORE PUSH1 0x20 ADD SWAP1 DUP2 MSTORE PUSH1 0x20 ADD PUSH1 0x0 KECCAK256 PUSH1 0x2 ADD DUP2 SWAP1 SSTORE POP DUP3 PUSH1 0x40 MLOAD PUSH2 0x1F52 SWAP2 SWAP1 PUSH2 0x3065 JUMP JUMPDEST PUSH1 0x40 MLOAD DUP1 SWAP2 SUB SWAP1 KECCAK256 DUP5 PUSH1 0x40 MLOAD PUSH2 0x1F68 SWAP2 SWAP1 PUSH2 0x2F4A JUMP JUMPDEST PUSH1 0x40 MLOAD DUP1 SWAP2 SUB SWAP1 KECCAK256 PUSH32 0xDF649C1E3D944311D966DB43C9BC972DB16D6E58EC816F2810A46196475326D4 TIMESTAMP PUSH1 0x40 MLOAD PUSH2 0x1F9F SWAP2 SWAP1 PUSH2 0x2F61 JUMP JUMPDEST PUSH1 0x40 MLOAD DUP1 SWAP2 SUB SWAP1 LOG3 DUP1 SWAP2 POP POP SWAP3 SWAP2 POP POP JUMP JUMPDEST DUP3 DUP1 SLOAD DUP3 DUP3 SSTORE SWAP1 PUSH1 0x0 MSTORE PUSH1 0x20 PUSH1 0x0 KECCAK256 SWAP1 DUP2 ADD SWAP3 DUP3 ISZERO PUSH2 0x1FF9 JUMPI SWAP2 PUSH1 0x20 MUL DUP3 ADD JUMPDEST DUP3 DUP2 GT ISZERO PUSH2 0x1FF8 JUMPI DUP3 MLOAD DUP3 SWAP1 DUP2 PUSH2 0x1FE8 SWAP2 SWAP1 PUSH2 0x30D7 JUMP JUMPDEST POP SWAP2 PUSH1 0x20 ADD SWAP2 SWAP1 PUSH1 0x1 ADD SWAP1 PUSH2 0x1FD1 JUMP JUMPDEST JUMPDEST POP SWAP1 POP PUSH2 0x2006 SWAP2 SWAP1 PUSH2 0x200A JUMP JUMPDEST POP SWAP1 JUMP JUMPDEST JUMPDEST DUP1 DUP3 GT ISZERO PUSH2 0x202A JUMPI PUSH1 0x0 DUP2 DUP2 PUSH2 0x2021 SWAP2 SWAP1 PUSH2 0x202E JUMP JUMPDEST POP PUSH1 0x1 ADD PUSH2 0x200B JUMP JUMPDEST POP SWAP1 JUMP JUMPDEST POP DUP1 SLOAD PUSH2 0x203A SWAP1 PUSH2 0x2B31 JUMP JUMPDEST PUSH1 0x0 DUP3 SSTORE DUP1 PUSH1 0x1F LT PUSH2 0x204C JUMPI POP PUSH2 0x206B JUMP JUMPDEST PUSH1 0x1F ADD PUSH1 0x20 SWAP1 DIV SWAP1 PUSH1 0x0 MSTORE PUSH1 0x20 PUSH1 0x0 KECCAK256 SWAP1 DUP2 ADD SWAP1 PUSH2 0x206A SWAP2 SWAP1 PUSH2 0x206E JUMP JUMPDEST JUMPDEST POP JUMP JUMPDEST JUMPDEST DUP1 DUP3 GT ISZERO PUSH2 0x2087 JUMPI PUSH1 0x0 DUP2 PUSH1 0x0 SWAP1 SSTORE POP PUSH1 0x1 ADD PUSH2 0x206F JUMP JUMPDEST POP SWAP1 JUMP JUMPDEST PUSH1 0x0 PUSH1 0x40 MLOAD SWAP1 POP SWAP1 JUMP JUMPDEST PUSH1 0x0 DUP1 REVERT JUMPDEST PUSH1 0x0 DUP1 REVERT JUMPDEST PUSH1 0x0 DUP2 SWAP1 POP SWAP2 SWAP1 POP JUMP JUMPDEST PUSH2 0x20B2 DUP2 PUSH2 0x209F JUMP JUMPDEST DUP2 EQ PUSH2 0x20BD JUMPI PUSH1 0x0 DUP1 REVERT JUMPDEST POP JUMP JUMPDEST PUSH1 0x0 DUP2 CALLDATALOAD SWAP1 POP PUSH2 0x20CF DUP2 PUSH2 0x20A9 JUMP JUMPDEST SWAP3 SWAP2 POP POP JUMP JUMPDEST PUSH1 0x0 PUSH1 0x20 DUP3 DUP5 SUB SLT ISZERO PUSH2 0x20EB JUMPI PUSH2 0x20EA PUSH2 0x2095 JUMP JUMPDEST JUMPDEST PUSH1 0x0 PUSH2 0x20F9 DUP5 DUP3 DUP6 ADD PUSH2 0x20C0 JUMP JUMPDEST SWAP2 POP POP SWAP3 SWAP2 POP POP JUMP JUMPDEST PUSH2 0x210B DUP2 PUSH2 0x209F JUMP JUMPDEST DUP3 MSTORE POP POP JUMP JUMPDEST PUSH1 0x0 DUP2 MLOAD SWAP1 POP SWAP2 SWAP1 POP JUMP JUMPDEST PUSH1 0x0 DUP3 DUP3 MSTORE PUSH1 0x20 DUP3 ADD SWAP1 POP SWAP3 SWAP2 POP POP JUMP JUMPDEST PUSH1 0x0 DUP2 SWAP1 POP PUSH1 0x20 DUP3 ADD SWAP1 POP SWAP2 SWAP1 POP JUMP JUMPDEST PUSH1 0x0 DUP2 MLOAD SWAP1 POP SWAP2 SWAP1 POP JUMP JUMPDEST PUSH1 0x0 DUP3 DUP3 MSTORE PUSH1 0x20 DUP3 ADD SWAP1 POP SWAP3 SWAP2 POP POP JUMP JUMPDEST PUSH1 0x0 JUMPDEST DUP4 DUP2 LT ISZERO PUSH2 0x2177 JUMPI DUP1 DUP3 ADD MLOAD DUP2 DUP5 ADD MSTORE PUSH1 0x20 DUP2 ADD SWAP1 POP PUSH2 0x215C JUMP JUMPDEST PUSH1 0x0 DUP5 DUP5 ADD MSTORE POP POP POP POP JUMP JUMPDEST PUSH1 0x0 PUSH1 0x1F NOT PUSH1 0x1F DUP4 ADD AND SWAP1 POP SWAP2 SWAP1 POP JUMP JUMPDEST PUSH1 0x0 PUSH2 0x219F DUP3 PUSH2 0x213D JUMP JUMPDEST PUSH2 0x21A9 DUP2 DUP6 PUSH2 0x2148 JUMP JUMPDEST SWAP4 POP PUSH2 0x21B9 DUP2 DUP6 PUSH1 0x20 DUP7 ADD PUSH2 0x2159 JUMP JUMPDEST PUSH2 0x21C2 DUP2 PUSH2 0x2183 JUMP JUMPDEST DUP5 ADD SWAP2 POP POP SWAP3 SWAP2 POP POP JUMP JUMPDEST PUSH1 0x0 PUSH2 0x21D9 DUP4 DUP4 PUSH2 0x2194 JUMP JUMPDEST SWAP1 POP SWAP3 SWAP2 POP POP JUMP JUMPDEST PUSH1 0x0 PUSH1 0x20 DUP3 ADD SWAP1 POP SWAP2 SWAP1 POP JUMP JUMPDEST PUSH1 0x0 PUSH2 0x21F9 DUP3 PUSH2 0x2111 JUMP JUMPDEST PUSH2 0x2203 DUP2 DUP6 PUSH2 0x211C JUMP JUMPDEST SWAP4 POP DUP4 PUSH1 0x20 DUP3 MUL DUP6 ADD PUSH2 0x2215 DUP6 PUSH2 0x212D JUMP JUMPDEST DUP1 PUSH1 0x0 JUMPDEST DUP6 DUP2 LT ISZERO PUSH2 0x2251 JUMPI DUP5 DUP5 SUB DUP10 MSTORE DUP2 MLOAD PUSH2 0x2232 DUP6 DUP3 PUSH2 0x21CD JUMP JUMPDEST SWAP5 POP PUSH2 0x223D DUP4 PUSH2 0x21E1 JUMP JUMPDEST SWAP3 POP PUSH1 0x20 DUP11 ADD SWAP10 POP POP PUSH1 0x1 DUP2 ADD SWAP1 POP PUSH2 0x2219 JUMP JUMPDEST POP DUP3 SWAP8 POP DUP8 SWAP6 POP POP POP POP POP POP SWAP3 SWAP2 POP POP JUMP JUMPDEST PUSH1 0x0 PUSH1 0x60 DUP3 ADD SWAP1 POP PUSH2 0x2278 PUSH1 0x0 DUP4 ADD DUP7 PUSH2 0x2102 JUMP JUMPDEST DUP2 DUP2 SUB PUSH1 0x20 DUP4 ADD MSTORE PUSH2 0x228A DUP2 DUP6 PUSH2 0x21EE JUMP JUMPDEST SWAP1 POP PUSH2 0x2299 PUSH1 0x40 DUP4 ADD DUP5 PUSH2 0x2102 JUMP JUMPDEST SWAP5 SWAP4 POP POP POP POP JUMP JUMPDEST PUSH1 0x0 PUSH20 0xFFFFFFFFFFFFFFFFFFFFFFFFFFFFFFFFFFFFFFFF DUP3 AND SWAP1 POP SWAP2 SWAP1 POP JUMP JUMPDEST PUSH1 0x0 PUSH2 0x22CC DUP3 PUSH2 0x22A1 JUMP JUMPDEST SWAP1 POP SWAP2 SWAP1 POP JUMP JUMPDEST PUSH2 0x22DC DUP2 PUSH2 0x22C1 JUMP JUMPDEST DUP2 EQ PUSH2 0x22E7 JUMPI PUSH1 0x0 DUP1 REVERT JUMPDEST POP JUMP JUMPDEST PUSH1 0x0 DUP2 CALLDATALOAD SWAP1 POP PUSH2 0x22F9 DUP2 PUSH2 0x22D3 JUMP JUMPDEST SWAP3 SWAP2 POP POP JUMP JUMPDEST PUSH1 0x0 DUP1 PUSH1 0x40 DUP4 DUP6 SUB SLT ISZERO PUSH2 0x2316 JUMPI PUSH2 0x2315 PUSH2 0x2095 JUMP JUMPDEST JUMPDEST PUSH1 0x0 PUSH2 0x2324 DUP6 DUP3 DUP7 ADD PUSH2 0x20C0 JUMP JUMPDEST SWAP3 POP POP PUSH1 0x20 PUSH2 0x2335 DUP6 DUP3 DUP7 ADD PUSH2 0x22EA JUMP JUMPDEST SWAP2 POP POP SWAP3 POP SWAP3 SWAP1 POP JUMP JUMPDEST PUSH1 0x0 PUSH1 0x20 DUP3 DUP5 SUB SLT ISZERO PUSH2 0x2355 JUMPI PUSH2 0x2354 PUSH2 0x2095 JUMP JUMPDEST JUMPDEST PUSH1 0x0 PUSH2 0x2363 DUP5 DUP3 DUP6 ADD PUSH2 0x22EA JUMP JUMPDEST SWAP2 POP POP SWAP3 SWAP2 POP POP JUMP JUMPDEST PUSH1 0x0 DUP2 ISZERO ISZERO SWAP1 POP SWAP2 SWAP1 POP JUMP JUMPDEST PUSH2 0x2381 DUP2 PUSH2 0x236C JUMP JUMPDEST DUP3 MSTORE POP POP JUMP JUMPDEST PUSH1 0x0 PUSH1 0x20 DUP3 ADD SWAP1 POP PUSH2 0x239C PUSH1 0x0 DUP4 ADD DUP5 PUSH2 0x2378 JUMP JUMPDEST SWAP3 SWAP2 POP POP JUMP JUMPDEST PUSH1 0x0 DUP2 SWAP1 POP SWAP2 SWAP1 POP JUMP JUMPDEST PUSH2 0x23B5 DUP2 PUSH2 0x23A2 JUMP JUMPDEST DUP2 EQ PUSH2 0x23C0 JUMPI PUSH1 0x0 DUP1 REVERT JUMPDEST POP JUMP JUMPDEST PUSH1 0x0 DUP2 CALLDATALOAD SWAP1 POP PUSH2 0x23D2 DUP2 PUSH2 0x23AC JUMP JUMPDEST SWAP3 SWAP2 POP POP JUMP JUMPDEST PUSH1 0x0 PUSH1 0x20 DUP3 DUP5 SUB SLT ISZERO PUSH2 0x23EE JUMPI PUSH2 0x23ED PUSH2 0x2095 JUMP JUMPDEST JUMPDEST PUSH1 0x0 PUSH2 0x23FC DUP5 DUP3 DUP6 ADD PUSH2 0x23C3 JUMP JUMPDEST SWAP2 POP POP SWAP3 SWAP2 POP POP JUMP JUMPDEST PUSH1 0x0 DUP2 MLOAD SWAP1 POP SWAP2 SWAP1 POP JUMP JUMPDEST PUSH1 0x0 DUP3 DUP3 MSTORE PUSH1 0x20 DUP3 ADD SWAP1 POP SWAP3 SWAP2 POP POP JUMP JUMPDEST PUSH1 0x0 PUSH2 0x242C DUP3 PUSH2 0x2405 JUMP JUMPDEST PUSH2 0x2436 DUP2 DUP6 PUSH2 0x2410 JUMP JUMPDEST SWAP4 POP PUSH2 0x2446 DUP2 DUP6 PUSH1 0x20 DUP7 ADD PUSH2 0x2159 JUMP JUMPDEST PUSH2 0x244F DUP2 PUSH2 0x2183 JUMP JUMPDEST DUP5 ADD SWAP2 POP POP SWAP3 SWAP2 POP POP JUMP JUMPDEST PUSH1 0x0 PUSH1 0x60 DUP3 ADD SWAP1 POP DUP2 DUP2 SUB PUSH1 0x0 DUP4 ADD MSTORE PUSH2 0x2474 DUP2 DUP7 PUSH2 0x2421 JUMP JUMPDEST SWAP1 POP DUP2 DUP2 SUB PUSH1 0x20 DUP4 ADD MSTORE PUSH2 0x2488 DUP2 DUP6 PUSH2 0x21EE JUMP JUMPDEST SWAP1 POP PUSH2 0x2497 PUSH1 0x40 DUP4 ADD DUP5 PUSH2 0x2102 JUMP JUMPDEST SWAP5 SWAP4 POP POP POP POP JUMP JUMPDEST PUSH1 0x0 PUSH2 0x24AA DUP3 PUSH2 0x22A1 JUMP JUMPDEST SWAP1 POP SWAP2 SWAP1 POP JUMP JUMPDEST PUSH2 0x24BA DUP2 PUSH2 0x249F JUMP JUMPDEST DUP2 EQ PUSH2 0x24C5 JUMPI PUSH1 0x0 DUP1 REVERT JUMPDEST POP JUMP JUMPDEST PUSH1 0x0 DUP2 CALLDATALOAD SWAP1 POP PUSH2 0x24D7 DUP2 PUSH2 0x24B1 JUMP JUMPDEST SWAP3 SWAP2 POP POP JUMP JUMPDEST PUSH1 0x0 PUSH1 0x20 DUP3 DUP5 SUB SLT ISZERO PUSH2 0x24F3 JUMPI PUSH2 0x24F2 PUSH2 0x2095 JUMP JUMPDEST JUMPDEST PUSH1 0x0 PUSH2 0x2501 DUP5 DUP3 DUP6 ADD PUSH2 0x24C8 JUMP JUMPDEST SWAP2 POP POP SWAP3 SWAP2 POP POP JUMP JUMPDEST PUSH2 0x2513 DUP2 PUSH2 0x22C1 JUMP JUMPDEST DUP3 MSTORE POP POP JUMP JUMPDEST PUSH32 0x4E487B7100000000000000000000000000000000000000000000000000000000 PUSH1 0x0 MSTORE PUSH1 0x21 PUSH1 0x4 MSTORE PUSH1 0x24 PUSH1 0x0 REVERT JUMPDEST PUSH1 0x7 DUP2 LT PUSH2 0x2559 JUMPI PUSH2 0x2558 PUSH2 0x2519 JUMP JUMPDEST JUMPDEST POP JUMP JUMPDEST PUSH1 0x0 DUP2 SWAP1 POP PUSH2 0x256A DUP3 PUSH2 0x2548 JUMP JUMPDEST SWAP2 SWAP1 POP JUMP JUMPDEST PUSH1 0x0 PUSH2 0x257A DUP3 PUSH2 0x255C JUMP JUMPDEST SWAP1 POP SWAP2 SWAP1 POP JUMP JUMPDEST PUSH2 0x258A DUP2 PUSH2 0x256F JUMP JUMPDEST DUP3 MSTORE POP POP JUMP JUMPDEST PUSH1 0x0 PUSH1 0x60 DUP3 ADD SWAP1 POP PUSH2 0x25A5 PUSH1 0x0 DUP4 ADD DUP7 PUSH2 0x2102 JUMP JUMPDEST PUSH2 0x25B2 PUSH1 0x20 DUP4 ADD DUP6 PUSH2 0x250A JUMP JUMPDEST PUSH2 0x25BF PUSH1 0x40 DUP4 ADD DUP5 PUSH2 0x2581 JUMP JUMPDEST SWAP5 SWAP4 POP POP POP POP JUMP JUMPDEST PUSH1 0x0 DUP1 REVERT JUMPDEST PUSH1 0x0 DUP1 REVERT JUMPDEST PUSH32 0x4E487B7100000000000000000000000000000000000000000000000000000000 PUSH1 0x0 MSTORE PUSH1 0x41 PUSH1 0x4 MSTORE PUSH1 0x24 PUSH1 0x0 REVERT JUMPDEST PUSH2 0x2609 DUP3 PUSH2 0x2183 JUMP JUMPDEST DUP2 ADD DUP2 DUP2 LT PUSH8 0xFFFFFFFFFFFFFFFF DUP3 GT OR ISZERO PUSH2 0x2628 JUMPI PUSH2 0x2627 PUSH2 0x25D1 JUMP JUMPDEST JUMPDEST DUP1 PUSH1 0x40 MSTORE POP POP POP JUMP JUMPDEST PUSH1 0x0 PUSH2 0x263B PUSH2 0x208B JUMP JUMPDEST SWAP1 POP PUSH2 0x2647 DUP3 DUP3 PUSH2 0x2600 JUMP JUMPDEST SWAP2 SWAP1 POP JUMP JUMPDEST PUSH1 0x0 PUSH8 0xFFFFFFFFFFFFFFFF DUP3 GT ISZERO PUSH2 0x2667 JUMPI PUSH2 0x2666 PUSH2 0x25D1 JUMP JUMPDEST JUMPDEST PUSH2 0x2670 DUP3 PUSH2 0x2183 JUMP JUMPDEST SWAP1 POP PUSH1 0x20 DUP2 ADD SWAP1 POP SWAP2 SWAP1 POP JUMP JUMPDEST DUP3 DUP2 DUP4 CALLDATACOPY PUSH1 0x0 DUP4 DUP4 ADD MSTORE POP POP POP JUMP JUMPDEST PUSH1 0x0 PUSH2 0x269F PUSH2 0x269A DUP5 PUSH2 0x264C JUMP JUMPDEST PUSH2 0x2631 JUMP JUMPDEST SWAP1 POP DUP3 DUP2 MSTORE PUSH1 0x20 DUP2 ADD DUP5 DUP5 DUP5 ADD GT ISZERO PUSH2 0x26BB JUMPI PUSH2 0x26BA PUSH2 0x25CC JUMP JUMPDEST JUMPDEST PUSH2 0x26C6 DUP5 DUP3 DUP6 PUSH2 0x267D JUMP JUMPDEST POP SWAP4 SWAP3 POP POP POP JUMP JUMPDEST PUSH1 0x0 DUP3 PUSH1 0x1F DUP4 ADD SLT PUSH2 0x26E3 JUMPI PUSH2 0x26E2 PUSH2 0x25C7 JUMP JUMPDEST JUMPDEST DUP2 CALLDATALOAD PUSH2 0x26F3 DUP5 DUP3 PUSH1 0x20 DUP7 ADD PUSH2 0x268C JUMP JUMPDEST SWAP2 POP POP SWAP3 SWAP2 POP POP JUMP JUMPDEST PUSH1 0x0 DUP1 PUSH1 0x0 PUSH1 0x60 DUP5 DUP7 SUB SLT ISZERO PUSH2 0x2715 JUMPI PUSH2 0x2714 PUSH2 0x2095 JUMP JUMPDEST JUMPDEST PUSH1 0x0 DUP5 ADD CALLDATALOAD PUSH8 0xFFFFFFFFFFFFFFFF DUP2 GT ISZERO PUSH2 0x2733 JUMPI PUSH2 0x2732 PUSH2 0x209A JUMP JUMPDEST JUMPDEST PUSH2 0x273F DUP7 DUP3 DUP8 ADD PUSH2 0x26CE JUMP JUMPDEST SWAP4 POP POP PUSH1 0x20 PUSH2 0x2750 DUP7 DUP3 DUP8 ADD PUSH2 0x22EA JUMP JUMPDEST SWAP3 POP POP PUSH1 0x40 DUP5 ADD CALLDATALOAD PUSH8 0xFFFFFFFFFFFFFFFF DUP2 GT ISZERO PUSH2 0x2771 JUMPI PUSH2 0x2770 PUSH2 0x209A JUMP JUMPDEST JUMPDEST PUSH2 0x277D DUP7 DUP3 DUP8 ADD PUSH2 0x26CE JUMP JUMPDEST SWAP2 POP POP SWAP3 POP SWAP3 POP SWAP3 JUMP JUMPDEST PUSH2 0x2790 DUP2 PUSH2 0x23A2 JUMP JUMPDEST DUP3 MSTORE POP POP JUMP JUMPDEST PUSH1 0x0 PUSH1 0x20 DUP3 ADD SWAP1 POP PUSH2 0x27AB PUSH1 0x0 DUP4 ADD DUP5 PUSH2 0x2787 JUMP JUMPDEST SWAP3 SWAP2 POP POP JUMP JUMPDEST PUSH1 0x0 PUSH8 0xFFFFFFFFFFFFFFFF DUP3 GT ISZERO PUSH2 0x27CC JUMPI PUSH2 0x27CB PUSH2 0x25D1 JUMP JUMPDEST JUMPDEST PUSH1 0x20 DUP3 MUL SWAP1 POP PUSH1 0x20 DUP2 ADD SWAP1 POP SWAP2 SWAP1 POP JUMP JUMPDEST PUSH1 0x0 DUP1 REVERT JUMPDEST PUSH1 0x0 PUSH8 0xFFFFFFFFFFFFFFFF DUP3 GT ISZERO PUSH2 0x27FD JUMPI PUSH2 0x27FC PUSH2 0x25D1 JUMP JUMPDEST JUMPDEST PUSH2 0x2806 DUP3 PUSH2 0x2183 JUMP JUMPDEST SWAP1 POP PUSH1 0x20 DUP2 ADD SWAP1 POP SWAP2 SWAP1 POP JUMP JUMPDEST PUSH1 0x0 PUSH2 0x2826 PUSH2 0x2821 DUP5 PUSH2 0x27E2 JUMP JUMPDEST PUSH2 0x2631 JUMP JUMPDEST SWAP1 POP DUP3 DUP2 MSTORE PUSH1 0x20 DUP2 ADD DUP5 DUP5 DUP5 ADD GT ISZERO PUSH2 0x2842 JUMPI PUSH2 0x2841 PUSH2 0x25CC JUMP JUMPDEST JUMPDEST PUSH2 0x284D DUP5 DUP3 DUP6 PUSH2 0x267D JUMP JUMPDEST POP SWAP4 SWAP3 POP POP POP JUMP JUMPDEST PUSH1 0x0 DUP3 PUSH1 0x1F DUP4 ADD SLT PUSH2 0x286A JUMPI PUSH2 0x2869 PUSH2 0x25C7 JUMP JUMPDEST JUMPDEST DUP2 CALLDATALOAD PUSH2 0x287A DUP5 DUP3 PUSH1 0x20 DUP7 ADD PUSH2 0x2813 JUMP JUMPDEST SWAP2 POP POP SWAP3 SWAP2 POP POP JUMP JUMPDEST PUSH1 0x0 PUSH2 0x2896 PUSH2 0x2891 DUP5 PUSH2 0x27B1 JUMP JUMPDEST PUSH2 0x2631 JUMP JUMPDEST SWAP1 POP DUP1 DUP4 DUP3 MSTORE PUSH1 0x20 DUP3 ADD SWAP1 POP PUSH1 0x20 DUP5 MUL DUP4 ADD DUP6 DUP2 GT ISZERO PUSH2 0x28B9 JUMPI PUSH2 0x28B8 PUSH2 0x27DD JUMP JUMPDEST JUMPDEST DUP4 JUMPDEST DUP2 DUP2 LT ISZERO PUSH2 0x2900 JUMPI DUP1 CALLDATALOAD PUSH8 0xFFFFFFFFFFFFFFFF DUP2 GT ISZERO PUSH2 0x28DE JUMPI PUSH2 0x28DD PUSH2 0x25C7 JUMP JUMPDEST JUMPDEST DUP1 DUP7 ADD PUSH2 0x28EB DUP10 DUP3 PUSH2 0x2855 JUMP JUMPDEST DUP6 MSTORE PUSH1 0x20 DUP6 ADD SWAP5 POP POP POP PUSH1 0x20 DUP2 ADD SWAP1 POP PUSH2 0x28BB JUMP JUMPDEST POP POP POP SWAP4 SWAP3 POP POP POP JUMP JUMPDEST PUSH1 0x0 DUP3 PUSH1 0x1F DUP4 ADD SLT PUSH2 0x291F JUMPI PUSH2 0x291E PUSH2 0x25C7 JUMP JUMPDEST JUMPDEST DUP2 CALLDATALOAD PUSH2 0x292F DUP5 DUP3 PUSH1 0x20 DUP7 ADD PUSH2 0x2883 JUMP JUMPDEST SWAP2 POP POP SWAP3 SWAP2 POP POP JUMP JUMPDEST PUSH1 0x0 DUP1 PUSH1 0x40 DUP4 DUP6 SUB SLT ISZERO PUSH2 0x294F JUMPI PUSH2 0x294E PUSH2 0x2095 JUMP JUMPDEST JUMPDEST PUSH1 0x0 PUSH2 0x295D DUP6 DUP3 DUP7 ADD PUSH2 0x20C0 JUMP JUMPDEST SWAP3 POP POP PUSH1 0x20 DUP4 ADD CALLDATALOAD PUSH8 0xFFFFFFFFFFFFFFFF DUP2 GT ISZERO PUSH2 0x297E JUMPI PUSH2 0x297D PUSH2 0x209A JUMP JUMPDEST JUMPDEST PUSH2 0x298A DUP6 DUP3 DUP7 ADD PUSH2 0x290A JUMP JUMPDEST SWAP2 POP POP SWAP3 POP SWAP3 SWAP1 POP JUMP JUMPDEST PUSH1 0x0 PUSH1 0x60 DUP3 ADD SWAP1 POP PUSH2 0x29A9 PUSH1 0x0 DUP4 ADD DUP7 PUSH2 0x2102 JUMP JUMPDEST PUSH2 0x29B6 PUSH1 0x20 DUP4 ADD DUP6 PUSH2 0x250A JUMP JUMPDEST PUSH2 0x29C3 PUSH1 0x40 DUP4 ADD DUP5 PUSH2 0x2102 JUMP JUMPDEST SWAP5 SWAP4 POP POP POP POP JUMP JUMPDEST PUSH1 0x0 PUSH1 0x80 DUP3 ADD SWAP1 POP DUP2 DUP2 SUB PUSH1 0x0 DUP4 ADD MSTORE PUSH2 0x29E5 DUP2 DUP8 PUSH2 0x2421 JUMP JUMPDEST SWAP1 POP PUSH2 0x29F4 PUSH1 0x20 DUP4 ADD DUP7 PUSH2 0x250A JUMP JUMPDEST DUP2 DUP2 SUB PUSH1 0x40 DUP4 ADD MSTORE PUSH2 0x2A06 DUP2 DUP6 PUSH2 0x2421 JUMP JUMPDEST SWAP1 POP PUSH2 0x2A15 PUSH1 0x60 DUP4 ADD DUP5 PUSH2 0x2102 JUMP JUMPDEST SWAP6 SWAP5 POP POP POP POP POP JUMP JUMPDEST PUSH1 0x0 DUP1 PUSH1 0x40 DUP4 DUP6 SUB SLT ISZERO PUSH2 0x2A35 JUMPI PUSH2 0x2A34 PUSH2 0x2095 JUMP JUMPDEST JUMPDEST PUSH1 0x0 DUP4 ADD CALLDATALOAD PUSH8 0xFFFFFFFFFFFFFFFF DUP2 GT ISZERO PUSH2 0x2A53 JUMPI PUSH2 0x2A52 PUSH2 0x209A JUMP JUMPDEST JUMPDEST PUSH2 0x2A5F DUP6 DUP3 DUP7 ADD PUSH2 0x26CE JUMP JUMPDEST SWAP3 POP POP PUSH1 0x20 DUP4 ADD CALLDATALOAD PUSH8 0xFFFFFFFFFFFFFFFF DUP2 GT ISZERO PUSH2 0x2A80 JUMPI PUSH2 0x2A7F PUSH2 0x209A JUMP JUMPDEST JUMPDEST PUSH2 0x2A8C DUP6 DUP3 DUP7 ADD PUSH2 0x290A JUMP JUMPDEST SWAP2 POP POP SWAP3 POP SWAP3 SWAP1 POP JUMP JUMPDEST PUSH32 0x4E6F7420616E206F776E65722100000000000000000000000000000000000000 PUSH1 0x0 DUP3 ADD MSTORE POP JUMP JUMPDEST PUSH1 0x0 PUSH2 0x2ACC PUSH1 0xD DUP4 PUSH2 0x2410 JUMP JUMPDEST SWAP2 POP PUSH2 0x2AD7 DUP3 PUSH2 0x2A96 JUMP JUMPDEST PUSH1 0x20 DUP3 ADD SWAP1 POP SWAP2 SWAP1 POP JUMP JUMPDEST PUSH1 0x0 PUSH1 0x20 DUP3 ADD SWAP1 POP DUP2 DUP2 SUB PUSH1 0x0 DUP4 ADD MSTORE PUSH2 0x2AFB DUP2 PUSH2 0x2ABF JUMP JUMPDEST SWAP1 POP SWAP2 SWAP1 POP JUMP JUMPDEST PUSH32 0x4E487B7100000000000000000000000000000000000000000000000000000000 PUSH1 0x0 MSTORE PUSH1 0x22 PUSH1 0x4 MSTORE PUSH1 0x24 PUSH1 0x0 REVERT JUMPDEST PUSH1 0x0 PUSH1 0x2 DUP3 DIV SWAP1 POP PUSH1 0x1 DUP3 AND DUP1 PUSH2 0x2B49 JUMPI PUSH1 0x7F DUP3 AND SWAP2 POP JUMPDEST PUSH1 0x20 DUP3 LT DUP2 SUB PUSH2 0x2B5C JUMPI PUSH2 0x2B5B PUSH2 0x2B02 JUMP JUMPDEST JUMPDEST POP SWAP2 SWAP1 POP JUMP JUMPDEST PUSH32 0x53756368206F726465724944206E6F7420657869737473210000000000000000 PUSH1 0x0 DUP3 ADD MSTORE POP JUMP JUMPDEST PUSH1 0x0 PUSH2 0x2B98 PUSH1 0x18 DUP4 PUSH2 0x2410 JUMP JUMPDEST SWAP2 POP PUSH2 0x2BA3 DUP3 PUSH2 0x2B62 JUMP JUMPDEST PUSH1 0x20 DUP3 ADD SWAP1 POP SWAP2 SWAP1 POP JUMP JUMPDEST PUSH1 0x0 PUSH1 0x20 DUP3 ADD SWAP1 POP DUP2 DUP2 SUB PUSH1 0x0 DUP4 ADD MSTORE PUSH2 0x2BC7 DUP2 PUSH2 0x2B8B JUMP JUMPDEST SWAP1 POP SWAP2 SWAP1 POP JUMP JUMPDEST PUSH32 0x496E76616C6964206F7264657220494400000000000000000000000000000000 PUSH1 0x0 DUP3 ADD MSTORE POP JUMP JUMPDEST PUSH1 0x0 PUSH2 0x2C04 PUSH1 0x10 DUP4 PUSH2 0x2410 JUMP JUMPDEST SWAP2 POP PUSH2 0x2C0F DUP3 PUSH2 0x2BCE JUMP JUMPDEST PUSH1 0x20 DUP3 ADD SWAP1 POP SWAP2 SWAP1 POP JUMP JUMPDEST PUSH1 0x0 PUSH1 0x20 DUP3 ADD SWAP1 POP DUP2 DUP2 SUB PUSH1 0x0 DUP4 ADD MSTORE PUSH2 0x2C33 DUP2 PUSH2 0x2BF7 JUMP JUMPDEST SWAP1 POP SWAP2 SWAP1 POP JUMP JUMPDEST PUSH1 0x0 DUP2 SWAP1 POP SWAP3 SWAP2 POP POP JUMP JUMPDEST PUSH1 0x0 PUSH2 0x2C50 DUP3 PUSH2 0x2405 JUMP JUMPDEST PUSH2 0x2C5A DUP2 DUP6 PUSH2 0x2C3A JUMP JUMPDEST SWAP4 POP PUSH2 0x2C6A DUP2 DUP6 PUSH1 0x20 DUP7 ADD PUSH2 0x2159 JUMP JUMPDEST DUP1 DUP5 ADD SWAP2 POP POP SWAP3 SWAP2 POP POP JUMP JUMPDEST PUSH1 0x0 DUP2 SWAP1 POP SWAP2 SWAP1 POP JUMP JUMPDEST PUSH2 0x2C91 PUSH2 0x2C8C DUP3 PUSH2 0x209F JUMP JUMPDEST PUSH2 0x2C76 JUMP JUMPDEST DUP3 MSTORE POP POP JUMP JUMPDEST PUSH1 0x0 PUSH2 0x2CA3 DUP3 DUP7 PUSH2 0x2C45 JUMP JUMPDEST SWAP2 POP PUSH2 0x2CAF DUP3 DUP6 PUSH2 0x2C45 JUMP JUMPDEST SWAP2 POP PUSH2 0x2CBB DUP3 DUP5 PUSH2 0x2C80 JUMP JUMPDEST PUSH1 0x20 DUP3 ADD SWAP2 POP DUP2 SWAP1 POP SWAP5 SWAP4 POP POP POP POP JUMP JUMPDEST PUSH1 0x0 DUP2 SWAP1 POP DUP2 PUSH1 0x0 MSTORE PUSH1 0x20 PUSH1 0x0 KECCAK256 SWAP1 POP SWAP2 SWAP1 POP JUMP JUMPDEST PUSH1 0x0 PUSH1 0x20 PUSH1 0x1F DUP4 ADD DIV SWAP1 POP SWAP2 SWAP1 POP JUMP JUMPDEST PUSH1 0x0 DUP3 DUP3 SHL SWAP1 POP SWAP3 SWAP2 POP POP JUMP JUMPDEST PUSH1 0x0 PUSH1 0x8 DUP4 MUL PUSH2 0x2D2E PUSH32 0xFFFFFFFFFFFFFFFFFFFFFFFFFFFFFFFFFFFFFFFFFFFFFFFFFFFFFFFFFFFFFFFF DUP3 PUSH2 0x2CF1 JUMP JUMPDEST PUSH2 0x2D38 DUP7 DUP4 PUSH2 0x2CF1 JUMP JUMPDEST SWAP6 POP DUP1 NOT DUP5 AND SWAP4 POP DUP1 DUP7 AND DUP5 OR SWAP3 POP POP POP SWAP4 SWAP3 POP POP POP JUMP JUMPDEST PUSH1 0x0 DUP2 SWAP1 POP SWAP2 SWAP1 POP JUMP JUMPDEST PUSH1 0x0 PUSH2 0x2D75 PUSH2 0x2D70 PUSH2 0x2D6B DUP5 PUSH2 0x209F JUMP JUMPDEST PUSH2 0x2D50 JUMP JUMPDEST PUSH2 0x209F JUMP JUMPDEST SWAP1 POP SWAP2 SWAP1 POP JUMP JUMPDEST PUSH1 0x0 DUP2 SWAP1 POP SWAP2 SWAP1 POP JUMP JUMPDEST PUSH2 0x2D8F DUP4 PUSH2 0x2D5A JUMP JUMPDEST PUSH2 0x2DA3 PUSH2 0x2D9B DUP3 PUSH2 0x2D7C JUMP JUMPDEST DUP5 DUP5 SLOAD PUSH2 0x2CFE JUMP JUMPDEST DUP3 SSTORE POP POP POP POP JUMP JUMPDEST PUSH1 0x0 SWAP1 JUMP JUMPDEST PUSH2 0x2DB8 PUSH2 0x2DAB JUMP JUMPDEST PUSH2 0x2DC3 DUP2 DUP5 DUP5 PUSH2 0x2D86 JUMP JUMPDEST POP POP POP JUMP JUMPDEST JUMPDEST DUP2 DUP2 LT ISZERO PUSH2 0x2DE7 JUMPI PUSH2 0x2DDC PUSH1 0x0 DUP3 PUSH2 0x2DB0 JUMP JUMPDEST PUSH1 0x1 DUP2 ADD SWAP1 POP PUSH2 0x2DC9 JUMP JUMPDEST POP POP JUMP JUMPDEST PUSH1 0x1F DUP3 GT ISZERO PUSH2 0x2E2C JUMPI PUSH2 0x2DFD DUP2 PUSH2 0x2CCC JUMP JUMPDEST PUSH2 0x2E06 DUP5 PUSH2 0x2CE1 JUMP JUMPDEST DUP2 ADD PUSH1 0x20 DUP6 LT ISZERO PUSH2 0x2E15 JUMPI DUP2 SWAP1 POP JUMPDEST PUSH2 0x2E29 PUSH2 0x2E21 DUP6 PUSH2 0x2CE1 JUMP JUMPDEST DUP4 ADD DUP3 PUSH2 0x2DC8 JUMP JUMPDEST POP POP JUMPDEST POP POP POP JUMP JUMPDEST PUSH1 0x0 DUP3 DUP3 SHR SWAP1 POP SWAP3 SWAP2 POP POP JUMP JUMPDEST PUSH1 0x0 PUSH2 0x2E4F PUSH1 0x0 NOT DUP5 PUSH1 0x8 MUL PUSH2 0x2E31 JUMP JUMPDEST NOT DUP1 DUP4 AND SWAP2 POP POP SWAP3 SWAP2 POP POP JUMP JUMPDEST PUSH1 0x0 PUSH2 0x2E68 DUP4 DUP4 PUSH2 0x2E3E JUMP JUMPDEST SWAP2 POP DUP3 PUSH1 0x2 MUL DUP3 OR SWAP1 POP SWAP3 SWAP2 POP POP JUMP JUMPDEST PUSH2 0x2E81 DUP3 PUSH2 0x2405 JUMP JUMPDEST PUSH8 0xFFFFFFFFFFFFFFFF DUP2 GT ISZERO PUSH2 0x2E9A JUMPI PUSH2 0x2E99 PUSH2 0x25D1 JUMP JUMPDEST JUMPDEST PUSH2 0x2EA4 DUP3 SLOAD PUSH2 0x2B31 JUMP JUMPDEST PUSH2 0x2EAF DUP3 DUP3 DUP6 PUSH2 0x2DEB JUMP JUMPDEST PUSH1 0x0 PUSH1 0x20 SWAP1 POP PUSH1 0x1F DUP4 GT PUSH1 0x1 DUP2 EQ PUSH2 0x2EE2 JUMPI PUSH1 0x0 DUP5 ISZERO PUSH2 0x2ED0 JUMPI DUP3 DUP8 ADD MLOAD SWAP1 POP JUMPDEST PUSH2 0x2EDA DUP6 DUP3 PUSH2 0x2E5C JUMP JUMPDEST DUP7 SSTORE POP PUSH2 0x2F42 JUMP JUMPDEST PUSH1 0x1F NOT DUP5 AND PUSH2 0x2EF0 DUP7 PUSH2 0x2CCC JUMP JUMPDEST PUSH1 0x0 JUMPDEST DUP3 DUP2 LT ISZERO PUSH2 0x2F18 JUMPI DUP5 DUP10 ADD MLOAD DUP3 SSTORE PUSH1 0x1 DUP3 ADD SWAP2 POP PUSH1 0x20 DUP6 ADD SWAP5 POP PUSH1 0x20 DUP2 ADD SWAP1 POP PUSH2 0x2EF3 JUMP JUMPDEST DUP7 DUP4 LT ISZERO PUSH2 0x2F35 JUMPI DUP5 DUP10 ADD MLOAD PUSH2 0x2F31 PUSH1 0x1F DUP10 AND DUP3 PUSH2 0x2E3E JUMP JUMPDEST DUP4 SSTORE POP JUMPDEST PUSH1 0x1 PUSH1 0x2 DUP9 MUL ADD DUP9 SSTORE POP POP POP JUMPDEST POP POP POP POP POP POP JUMP JUMPDEST PUSH1 0x0 PUSH2 0x2F56 DUP3 DUP5 PUSH2 0x2C45 JUMP JUMPDEST SWAP2 POP DUP2 SWAP1 POP SWAP3 SWAP2 POP POP JUMP JUMPDEST PUSH1 0x0 PUSH1 0x20 DUP3 ADD SWAP1 POP PUSH2 0x2F76 PUSH1 0x0 DUP4 ADD DUP5 PUSH2 0x2102 JUMP JUMPDEST SWAP3 SWAP2 POP POP JUMP JUMPDEST PUSH1 0x0 PUSH2 0x2F88 DUP3 DUP6 PUSH2 0x2C45 JUMP JUMPDEST SWAP2 POP PUSH2 0x2F94 DUP3 DUP5 PUSH2 0x2C80 JUMP JUMPDEST PUSH1 0x20 DUP3 ADD SWAP2 POP DUP2 SWAP1 POP SWAP4 SWAP3 POP POP POP JUMP JUMPDEST PUSH1 0x0 DUP2 SWAP1 POP SWAP3 SWAP2 POP POP JUMP JUMPDEST PUSH1 0x0 DUP2 SWAP1 POP SWAP3 SWAP2 POP POP JUMP JUMPDEST PUSH1 0x0 PUSH2 0x2FC5 DUP3 PUSH2 0x213D JUMP JUMPDEST PUSH2 0x2FCF DUP2 DUP6 PUSH2 0x2FAF JUMP JUMPDEST SWAP4 POP PUSH2 0x2FDF DUP2 DUP6 PUSH1 0x20 DUP7 ADD PUSH2 0x2159 JUMP JUMPDEST PUSH2 0x2FE8 DUP2 PUSH2 0x2183 JUMP JUMPDEST DUP5 ADD SWAP2 POP POP SWAP3 SWAP2 POP POP JUMP JUMPDEST PUSH1 0x0 PUSH2 0x2FFF DUP4 DUP4 PUSH2 0x2FBA JUMP JUMPDEST SWAP1 POP SWAP3 SWAP2 POP POP JUMP JUMPDEST PUSH1 0x0 PUSH2 0x3012 DUP3 PUSH2 0x2111 JUMP JUMPDEST PUSH2 0x301C DUP2 DUP6 PUSH2 0x2FA4 JUMP JUMPDEST SWAP4 POP PUSH2 0x3027 DUP4 PUSH2 0x212D JUMP JUMPDEST DUP1 PUSH1 0x0 JUMPDEST DUP4 DUP2 LT ISZERO PUSH2 0x3058 JUMPI DUP2 MLOAD PUSH2 0x303F DUP9 DUP3 PUSH2 0x2FF3 JUMP JUMPDEST SWAP8 POP PUSH2 0x304A DUP4 PUSH2 0x21E1 JUMP JUMPDEST SWAP3 POP POP PUSH1 0x1 DUP2 ADD SWAP1 POP PUSH2 0x302B JUMP JUMPDEST POP DUP6 SWAP4 POP POP POP POP SWAP3 SWAP2 POP POP JUMP JUMPDEST PUSH1 0x0 PUSH2 0x3071 DUP3 DUP5 PUSH2 0x3007 JUMP JUMPDEST SWAP2 POP DUP2 SWAP1 POP SWAP3 SWAP2 POP POP JUMP JUMPDEST PUSH1 0x0 DUP2 SWAP1 POP DUP2 PUSH1 0x0 MSTORE PUSH1 0x20 PUSH1 0x0 KECCAK256 SWAP1 POP SWAP2 SWAP1 POP JUMP JUMPDEST PUSH1 0x1F DUP3 GT ISZERO PUSH2 0x30D2 JUMPI PUSH2 0x30A3 DUP2 PUSH2 0x307C JUMP JUMPDEST PUSH2 0x30AC DUP5 PUSH2 0x2CE1 JUMP JUMPDEST DUP2 ADD PUSH1 0x20 DUP6 LT ISZERO PUSH2 0x30BB JUMPI DUP2 SWAP1 POP JUMPDEST PUSH2 0x30CF PUSH2 0x30C7 DUP6 PUSH2 0x2CE1 JUMP JUMPDEST DUP4 ADD DUP3 PUSH2 0x2DC8 JUMP JUMPDEST POP POP JUMPDEST POP POP POP JUMP JUMPDEST PUSH2 0x30E0 DUP3 PUSH2 0x213D JUMP JUMPDEST PUSH8 0xFFFFFFFFFFFFFFFF DUP2 GT ISZERO PUSH2 0x30F9 JUMPI PUSH2 0x30F8 PUSH2 0x25D1 JUMP JUMPDEST JUMPDEST PUSH2 0x3103 DUP3 SLOAD PUSH2 0x2B31 JUMP JUMPDEST PUSH2 0x310E DUP3 DUP3 DUP6 PUSH2 0x3091 JUMP JUMPDEST PUSH1 0x0 PUSH1 0x20 SWAP1 POP PUSH1 0x1F DUP4 GT PUSH1 0x1 DUP2 EQ PUSH2 0x3141 JUMPI PUSH1 0x0 DUP5 ISZERO PUSH2 0x312F JUMPI DUP3 DUP8 ADD MLOAD SWAP1 POP JUMPDEST PUSH2 0x3139 DUP6 DUP3 PUSH2 0x2E5C JUMP JUMPDEST DUP7 SSTORE POP PUSH2 0x31A1 JUMP JUMPDEST PUSH1 0x1F NOT DUP5 AND PUSH2 0x314F DUP7 PUSH2 0x307C JUMP JUMPDEST PUSH1 0x0 JUMPDEST DUP3 DUP2 LT ISZERO PUSH2 0x3177 JUMPI DUP5 DUP10 ADD MLOAD DUP3 SSTORE PUSH1 0x1 DUP3 ADD SWAP2 POP PUSH1 0x20 DUP6 ADD SWAP5 POP PUSH1 0x20 DUP2 ADD SWAP1 POP PUSH2 0x3152 JUMP JUMPDEST DUP7 DUP4 LT ISZERO PUSH2 0x3194 JUMPI DUP5 DUP10 ADD MLOAD PUSH2 0x3190 PUSH1 0x1F DUP10 AND DUP3 PUSH2 0x2E3E JUMP JUMPDEST DUP4 SSTORE POP JUMPDEST PUSH1 0x1 PUSH1 0x2 DUP9 MUL ADD DUP9 SSTORE POP POP POP JUMPDEST POP POP POP POP POP POP JUMP INVALID LOG2 PUSH5 0x6970667358 0x22 SLT KECCAK256 SWAP12 RETURNDATASIZE 0x49 0x27 COINBASE DUP4 DUP4 0xAB ADDMOD 0xBC INVALID PC PUSH17 0x4B2940112FCEA20A47FD7D27EF038AC0D1 DUP3 0x21 PUSH5 0x736F6C6343 STOP ADDMOD GT STOP CALLER "
				},
				"gasEstimates": {
					"creation": {
						"codeDepositCost": "2553400",
						"executionCost": "53520",
						"totalCost": "2606920"
					},
					"external": {
						"addAdmin(address)": "27227",
						"admins(address)": "2938",
						"canceled(uint256,address)": "104333",
						"component_income(string,address,string)": "infinite",
						"component_info(bytes32)": "infinite",
						"createNewOrder(uint256,bytes[])": "infinite",
						"delivered(uint256,address)": "infinite",
						"final_product(string,bytes[])": "infinite",
						"getFullOrderInfoForDeparture(uint256)": "infinite",
						"getFullProductInfo(bytes32)": "infinite",
						"inProduction(uint256,address)": "104312",
						"inStock(uint256,address)": "104357",
						"order_info(uint256)": "infinite",
						"order_payments(uint256)": "infinite",
						"paid(uint256,address)": "104290",
						"returned(uint256,address)": "104289",
						"sendMoneyForComponents(address)": "infinite",
						"sendMoneyForOrder(uint256)": "97468",
						"sent(uint256,address)": "104313"
					}
				},
				"methodIdentifiers": {
					"addAdmin(address)": "70480275",
					"admins(address)": "429b62e5",
					"canceled(uint256,address)": "cca6fe54",
					"component_income(string,address,string)": "aeb13dee",
					"component_info(bytes32)": "e65508d6",
					"createNewOrder(uint256,bytes[])": "bbcccaf3",
					"delivered(uint256,address)": "7527b350",
					"final_product(string,bytes[])": "f9f5d92d",
					"getFullOrderInfoForDeparture(uint256)": "0e17c6c3",
					"getFullProductInfo(bytes32)": "5eea0a75",
					"inProduction(uint256,address)": "a4375293",
					"inStock(uint256,address)": "4933c19e",
					"order_info(uint256)": "a7c47525",
					"order_payments(uint256)": "cbb11c37",
					"paid(uint256,address)": "a031fb7f",
					"returned(uint256,address)": "c100b815",
					"sendMoneyForComponents(address)": "734fb00c",
					"sendMoneyForOrder(uint256)": "8cb6350b",
					"sent(uint256,address)": "27739afe"
				}
			},
			"storageLayout": {
				"storage": [
					{
						"astId": 3,
						"contract": "ethereum/contracts/Logistics.sol:Logistics",
						"label": "owner",
						"offset": 0,
						"slot": "0",
						"type": "t_address"
					},
					{
						"astId": 5,
						"contract": "ethereum/contracts/Logistics.sol:Logistics",
						"label": "balanceReceived",
						"offset": 0,
						"slot": "1",
						"type": "t_uint256"
					},
					{
						"astId": 44,
						"contract": "ethereum/contracts/Logistics.sol:Logistics",
						"label": "status_choice",
						"offset": 0,
						"slot": "2",
						"type": "t_enum(Status)41"
					},
					{
						"astId": 90,
						"contract": "ethereum/contracts/Logistics.sol:Logistics",
						"label": "admins",
						"offset": 0,
						"slot": "3",
						"type": "t_mapping(t_address,t_struct(Admin)47_storage)"
					},
					{
						"astId": 95,
						"contract": "ethereum/contracts/Logistics.sol:Logistics",
						"label": "order_info",
						"offset": 0,
						"slot": "4",
						"type": "t_mapping(t_uint256,t_struct(Order)55_storage)"
					},
					{
						"astId": 100,
						"contract": "ethereum/contracts/Logistics.sol:Logistics",
						"label": "order_payments",
						"offset": 0,
						"slot": "5",
						"type": "t_mapping(t_uint256,t_struct(OrderPayments)62_storage)"
					},
					{
						"astId": 105,
						"contract": "ethereum/contracts/Logistics.sol:Logistics",
						"label": "component_info",
						"offset": 0,
						"slot": "6",
						"type": "t_mapping(t_bytes32,t_struct(ComponentIncome)71_storage)"
					},
					{
						"astId": 110,
						"contract": "ethereum/contracts/Logistics.sol:Logistics",
						"label": "final_product_info",
						"offset": 0,
						"slot": "7",
						"type": "t_mapping(t_bytes32,t_struct(FinalProduct)79_storage)"
					},
					{
						"astId": 115,
						"contract": "ethereum/contracts/Logistics.sol:Logistics",
						"label": "order_with_products",
						"offset": 0,
						"slot": "8",
						"type": "t_mapping(t_uint256,t_struct(OrderedProducts)85_storage)"
					}
				],
				"types": {
					"t_address": {
						"encoding": "inplace",
						"label": "address",
						"numberOfBytes": "20"
					},
					"t_array(t_bytes_storage)dyn_storage": {
						"base": "t_bytes_storage",
						"encoding": "dynamic_array",
						"label": "bytes[]",
						"numberOfBytes": "32"
					},
					"t_bool": {
						"encoding": "inplace",
						"label": "bool",
						"numberOfBytes": "1"
					},
					"t_bytes32": {
						"encoding": "inplace",
						"label": "bytes32",
						"numberOfBytes": "32"
					},
					"t_bytes_storage": {
						"encoding": "bytes",
						"label": "bytes",
						"numberOfBytes": "32"
					},
					"t_enum(Status)41": {
						"encoding": "inplace",
						"label": "enum Logistics.Status",
						"numberOfBytes": "1"
					},
					"t_mapping(t_address,t_struct(Admin)47_storage)": {
						"encoding": "mapping",
						"key": "t_address",
						"label": "mapping(address => struct Logistics.Admin)",
						"numberOfBytes": "32",
						"value": "t_struct(Admin)47_storage"
					},
					"t_mapping(t_bytes32,t_struct(ComponentIncome)71_storage)": {
						"encoding": "mapping",
						"key": "t_bytes32",
						"label": "mapping(bytes32 => struct Logistics.ComponentIncome)",
						"numberOfBytes": "32",
						"value": "t_struct(ComponentIncome)71_storage"
					},
					"t_mapping(t_bytes32,t_struct(FinalProduct)79_storage)": {
						"encoding": "mapping",
						"key": "t_bytes32",
						"label": "mapping(bytes32 => struct Logistics.FinalProduct)",
						"numberOfBytes": "32",
						"value": "t_struct(FinalProduct)79_storage"
					},
					"t_mapping(t_uint256,t_struct(Order)55_storage)": {
						"encoding": "mapping",
						"key": "t_uint256",
						"label": "mapping(uint256 => struct Logistics.Order)",
						"numberOfBytes": "32",
						"value": "t_struct(Order)55_storage"
					},
					"t_mapping(t_uint256,t_struct(OrderPayments)62_storage)": {
						"encoding": "mapping",
						"key": "t_uint256",
						"label": "mapping(uint256 => struct Logistics.OrderPayments)",
						"numberOfBytes": "32",
						"value": "t_struct(OrderPayments)62_storage"
					},
					"t_mapping(t_uint256,t_struct(OrderedProducts)85_storage)": {
						"encoding": "mapping",
						"key": "t_uint256",
						"label": "mapping(uint256 => struct Logistics.OrderedProducts)",
						"numberOfBytes": "32",
						"value": "t_struct(OrderedProducts)85_storage"
					},
					"t_string_storage": {
						"encoding": "bytes",
						"label": "string",
						"numberOfBytes": "32"
					},
					"t_struct(Admin)47_storage": {
						"encoding": "inplace",
						"label": "struct Logistics.Admin",
						"members": [
							{
								"astId": 46,
								"contract": "ethereum/contracts/Logistics.sol:Logistics",
								"label": "_isAdmin",
								"offset": 0,
								"slot": "0",
								"type": "t_bool"
							}
						],
						"numberOfBytes": "32"
					},
					"t_struct(ComponentIncome)71_storage": {
						"encoding": "inplace",
						"label": "struct Logistics.ComponentIncome",
						"members": [
							{
								"astId": 64,
								"contract": "ethereum/contracts/Logistics.sol:Logistics",
								"label": "_manufacturerName",
								"offset": 0,
								"slot": "0",
								"type": "t_string_storage"
							},
							{
								"astId": 66,
								"contract": "ethereum/contracts/Logistics.sol:Logistics",
								"label": "_manufacturerAddress",
								"offset": 0,
								"slot": "1",
								"type": "t_address"
							},
							{
								"astId": 68,
								"contract": "ethereum/contracts/Logistics.sol:Logistics",
								"label": "_componentName",
								"offset": 0,
								"slot": "2",
								"type": "t_string_storage"
							},
							{
								"astId": 70,
								"contract": "ethereum/contracts/Logistics.sol:Logistics",
								"label": "_componentTimestampIncome",
								"offset": 0,
								"slot": "3",
								"type": "t_uint256"
							}
						],
						"numberOfBytes": "128"
					},
					"t_struct(FinalProduct)79_storage": {
						"encoding": "inplace",
						"label": "struct Logistics.FinalProduct",
						"members": [
							{
								"astId": 73,
								"contract": "ethereum/contracts/Logistics.sol:Logistics",
								"label": "_productName",
								"offset": 0,
								"slot": "0",
								"type": "t_string_storage"
							},
							{
								"astId": 76,
								"contract": "ethereum/contracts/Logistics.sol:Logistics",
								"label": "_productComponents",
								"offset": 0,
								"slot": "1",
								"type": "t_array(t_bytes_storage)dyn_storage"
							},
							{
								"astId": 78,
								"contract": "ethereum/contracts/Logistics.sol:Logistics",
								"label": "_finalProductTimestamp",
								"offset": 0,
								"slot": "2",
								"type": "t_uint256"
							}
						],
						"numberOfBytes": "96"
					},
					"t_struct(Order)55_storage": {
						"encoding": "inplace",
						"label": "struct Logistics.Order",
						"members": [
							{
								"astId": 49,
								"contract": "ethereum/contracts/Logistics.sol:Logistics",
								"label": "_orderID",
								"offset": 0,
								"slot": "0",
								"type": "t_uint256"
							},
							{
								"astId": 51,
								"contract": "ethereum/contracts/Logistics.sol:Logistics",
								"label": "_receiver",
								"offset": 0,
								"slot": "1",
								"type": "t_address"
							},
							{
								"astId": 54,
								"contract": "ethereum/contracts/Logistics.sol:Logistics",
								"label": "_status",
								"offset": 20,
								"slot": "1",
								"type": "t_enum(Status)41"
							}
						],
						"numberOfBytes": "64"
					},
					"t_struct(OrderPayments)62_storage": {
						"encoding": "inplace",
						"label": "struct Logistics.OrderPayments",
						"members": [
							{
								"astId": 57,
								"contract": "ethereum/contracts/Logistics.sol:Logistics",
								"label": "_amount",
								"offset": 0,
								"slot": "0",
								"type": "t_uint256"
							},
							{
								"astId": 59,
								"contract": "ethereum/contracts/Logistics.sol:Logistics",
								"label": "_customer",
								"offset": 0,
								"slot": "1",
								"type": "t_address"
							},
							{
								"astId": 61,
								"contract": "ethereum/contracts/Logistics.sol:Logistics",
								"label": "_orderID",
								"offset": 0,
								"slot": "2",
								"type": "t_uint256"
							}
						],
						"numberOfBytes": "96"
					},
					"t_struct(OrderedProducts)85_storage": {
						"encoding": "inplace",
						"label": "struct Logistics.OrderedProducts",
						"members": [
							{
								"astId": 82,
								"contract": "ethereum/contracts/Logistics.sol:Logistics",
								"label": "_finalProductUniqueNumbers",
								"offset": 0,
								"slot": "0",
								"type": "t_array(t_bytes_storage)dyn_storage"
							},
							{
								"astId": 84,
								"contract": "ethereum/contracts/Logistics.sol:Logistics",
								"label": "_orderedProductsTimestamp",
								"offset": 0,
								"slot": "1",
								"type": "t_uint256"
							}
						],
						"numberOfBytes": "64"
					},
					"t_uint256": {
						"encoding": "inplace",
						"label": "uint256",
						"numberOfBytes": "32"
					}
				}
			},
			"userdoc": {
				"kind": "user",
				"methods": {},
				"version": 1
			}
		}
	}
}