{
	"contracts/Lock.sol": {
		"Logistics": {
			"abi": [
				{
					"inputs": [],
					"stateMutability": "nonpayable",
					"type": "constructor"
				},
				{
					"anonymous": false,
					"inputs": [
						{
							"indexed": true,
							"internalType": "uint256",
							"name": "id",
							"type": "uint256"
						},
						{
							"indexed": true,
							"internalType": "address",
							"name": "receiver",
							"type": "address"
						},
						{
							"indexed": true,
							"internalType": "enum Logistics.Status",
							"name": "product_status",
							"type": "uint8"
						}
					],
					"name": "ChangeOrderStatus",
					"type": "event"
				},
				{
					"anonymous": false,
					"inputs": [
						{
							"indexed": true,
							"internalType": "uint256",
							"name": "id",
							"type": "uint256"
						},
						{
							"indexed": true,
							"internalType": "address",
							"name": "customer",
							"type": "address"
						},
						{
							"indexed": true,
							"internalType": "uint256",
							"name": "orderID",
							"type": "uint256"
						}
					],
					"name": "PaymentStatus",
					"type": "event"
				},
				{
					"inputs": [
						{
							"internalType": "address",
							"name": "_newAdmin",
							"type": "address"
						}
					],
					"name": "addAdmin",
					"outputs": [
						{
							"internalType": "bool",
							"name": "",
							"type": "bool"
						}
					],
					"stateMutability": "nonpayable",
					"type": "function"
				},
				{
					"inputs": [
						{
							"internalType": "address",
							"name": "",
							"type": "address"
						}
					],
					"name": "admins",
					"outputs": [
						{
							"internalType": "string",
							"name": "_name",
							"type": "string"
						},
						{
							"internalType": "bool",
							"name": "_isAdmin",
							"type": "bool"
						}
					],
					"stateMutability": "view",
					"type": "function"
				},
				{
					"inputs": [
						{
							"internalType": "uint256",
							"name": "_orderID",
							"type": "uint256"
						},
						{
							"internalType": "address",
							"name": "_receiver",
							"type": "address"
						}
					],
					"name": "canceled",
					"outputs": [],
					"stateMutability": "nonpayable",
					"type": "function"
				},
				{
					"inputs": [
						{
							"internalType": "uint256",
							"name": "_orderID",
							"type": "uint256"
						},
						{
							"internalType": "address",
							"name": "_receiver",
							"type": "address"
						}
					],
					"name": "delivered",
					"outputs": [],
					"stateMutability": "nonpayable",
					"type": "function"
				},
				{
					"inputs": [
						{
							"internalType": "uint256",
							"name": "_orderID",
							"type": "uint256"
						},
						{
							"internalType": "address",
							"name": "_receiver",
							"type": "address"
						}
					],
					"name": "in_production",
					"outputs": [],
					"stateMutability": "nonpayable",
					"type": "function"
				},
				{
					"inputs": [
						{
							"internalType": "uint256",
							"name": "_orderID",
							"type": "uint256"
						},
						{
							"internalType": "address",
							"name": "_receiver",
							"type": "address"
						}
					],
					"name": "in_stock",
					"outputs": [],
					"stateMutability": "nonpayable",
					"type": "function"
				},
				{
					"inputs": [
						{
							"internalType": "uint256",
							"name": "",
							"type": "uint256"
						}
					],
					"name": "order_info",
					"outputs": [
						{
							"internalType": "uint256",
							"name": "_orderID",
							"type": "uint256"
						},
						{
							"internalType": "address",
							"name": "_receiver",
							"type": "address"
						},
						{
							"internalType": "enum Logistics.Status",
							"name": "_status",
							"type": "uint8"
						}
					],
					"stateMutability": "view",
					"type": "function"
				},
				{
					"inputs": [
						{
							"internalType": "uint256",
							"name": "",
							"type": "uint256"
						}
					],
					"name": "order_payments",
					"outputs": [
						{
							"internalType": "uint256",
							"name": "_amount",
							"type": "uint256"
						},
						{
							"internalType": "address",
							"name": "_customer",
							"type": "address"
						},
						{
							"internalType": "uint256",
							"name": "_orderID",
							"type": "uint256"
						}
					],
					"stateMutability": "view",
					"type": "function"
				},
				{
					"inputs": [
						{
							"internalType": "uint256",
							"name": "_orderID",
							"type": "uint256"
						},
						{
							"internalType": "address",
							"name": "_receiver",
							"type": "address"
						}
					],
					"name": "paid",
					"outputs": [],
					"stateMutability": "nonpayable",
					"type": "function"
				},
				{
					"inputs": [
						{
							"internalType": "uint256",
							"name": "_ID",
							"type": "uint256"
						}
					],
					"name": "receiveMoney",
					"outputs": [],
					"stateMutability": "payable",
					"type": "function"
				},
				{
					"inputs": [
						{
							"internalType": "uint256",
							"name": "_orderID",
							"type": "uint256"
						},
						{
							"internalType": "address",
							"name": "_receiver",
							"type": "address"
						}
					],
					"name": "returned",
					"outputs": [],
					"stateMutability": "nonpayable",
					"type": "function"
				},
				{
					"inputs": [
						{
							"internalType": "uint256",
							"name": "_orderID",
							"type": "uint256"
						},
						{
							"internalType": "address",
							"name": "_receiver",
							"type": "address"
						}
					],
					"name": "sent",
					"outputs": [],
					"stateMutability": "nonpayable",
					"type": "function"
				}
			],
			"devdoc": {
				"kind": "dev",
				"methods": {},
				"version": 1
			},
			"evm": {
				"assembly": "    /* \"contracts/Lock.sol\":83:3764  contract Logistics {... */\n  mstore(0x40, 0x80)\n    /* \"contracts/Lock.sol\":154:242  constructor() {... */\n  callvalue\n  dup1\n  iszero\n  tag_1\n  jumpi\n  0x00\n  dup1\n  revert\ntag_1:\n  pop\n    /* \"contracts/Lock.sol\":186:196  msg.sender */\n  caller\n    /* \"contracts/Lock.sol\":178:183  owner */\n  0x00\n  dup1\n    /* \"contracts/Lock.sol\":178:196  owner = msg.sender */\n  0x0100\n  exp\n  dup2\n  sload\n  dup2\n  0xffffffffffffffffffffffffffffffffffffffff\n  mul\n  not\n  and\n  swap1\n  dup4\n  0xffffffffffffffffffffffffffffffffffffffff\n  and\n  mul\n  or\n  swap1\n  sstore\n  pop\n    /* \"contracts/Lock.sol\":231:235  true */\n  0x01\n    /* \"contracts/Lock.sol\":206:212  admins */\n  0x03\n    /* \"contracts/Lock.sol\":206:219  admins[owner] */\n  0x00\n    /* \"contracts/Lock.sol\":213:218  owner */\n  dup1\n  0x00\n  swap1\n  sload\n  swap1\n  0x0100\n  exp\n  swap1\n  div\n  0xffffffffffffffffffffffffffffffffffffffff\n  and\n    /* \"contracts/Lock.sol\":206:219  admins[owner] */\n  0xffffffffffffffffffffffffffffffffffffffff\n  and\n  0xffffffffffffffffffffffffffffffffffffffff\n  and\n  dup2\n  mstore\n  0x20\n  add\n  swap1\n  dup2\n  mstore\n  0x20\n  add\n  0x00\n  keccak256\n    /* \"contracts/Lock.sol\":206:228  admins[owner]._isAdmin */\n  0x01\n  add\n  0x00\n    /* \"contracts/Lock.sol\":206:235  admins[owner]._isAdmin = true */\n  0x0100\n  exp\n  dup2\n  sload\n  dup2\n  0xff\n  mul\n  not\n  and\n  swap1\n  dup4\n  iszero\n  iszero\n  mul\n  or\n  swap1\n  sstore\n  pop\n    /* \"contracts/Lock.sol\":83:3764  contract Logistics {... */\n  dataSize(sub_0)\n  dup1\n  dataOffset(sub_0)\n  0x00\n  codecopy\n  0x00\n  return\nstop\n\nsub_0: assembly {\n        /* \"contracts/Lock.sol\":83:3764  contract Logistics {... */\n      mstore(0x40, 0x80)\n      jumpi(tag_1, lt(calldatasize, 0x04))\n      shr(0xe0, calldataload(0x00))\n      dup1\n      0x7527b350\n      gt\n      tag_14\n      jumpi\n      dup1\n      0x7527b350\n      eq\n      tag_8\n      jumpi\n      dup1\n      0xa031fb7f\n      eq\n      tag_9\n      jumpi\n      dup1\n      0xa7c47525\n      eq\n      tag_10\n      jumpi\n      dup1\n      0xc100b815\n      eq\n      tag_11\n      jumpi\n      dup1\n      0xcbb11c37\n      eq\n      tag_12\n      jumpi\n      dup1\n      0xcca6fe54\n      eq\n      tag_13\n      jumpi\n      jump(tag_1)\n    tag_14:\n      dup1\n      0x17adafd1\n      eq\n      tag_2\n      jumpi\n      dup1\n      0x27739afe\n      eq\n      tag_3\n      jumpi\n      dup1\n      0x3194d29c\n      eq\n      tag_4\n      jumpi\n      dup1\n      0x429b62e5\n      eq\n      tag_5\n      jumpi\n      dup1\n      0x697a4f05\n      eq\n      tag_6\n      jumpi\n      dup1\n      0x70480275\n      eq\n      tag_7\n      jumpi\n    tag_1:\n      0x00\n      dup1\n      revert\n        /* \"contracts/Lock.sol\":1081:1376  function in_production(uint _orderID, address _receiver) public onlyOwner {... */\n    tag_2:\n      callvalue\n      dup1\n      iszero\n      tag_15\n      jumpi\n      0x00\n      dup1\n      revert\n    tag_15:\n      pop\n      tag_16\n      0x04\n      dup1\n      calldatasize\n      sub\n      dup2\n      add\n      swap1\n      tag_17\n      swap2\n      swap1\n      tag_18\n      jump\t// in\n    tag_17:\n      tag_19\n      jump\t// in\n    tag_16:\n      stop\n        /* \"contracts/Lock.sol\":2448:2725  function sent(uint _orderID, address _receiver) public onlyOwner {... */\n    tag_3:\n      callvalue\n      dup1\n      iszero\n      tag_20\n      jumpi\n      0x00\n      dup1\n      revert\n    tag_20:\n      pop\n      tag_21\n      0x04\n      dup1\n      calldatasize\n      sub\n      dup2\n      add\n      swap1\n      tag_22\n      swap2\n      swap1\n      tag_18\n      jump\t// in\n    tag_22:\n      tag_23\n      jump\t// in\n    tag_21:\n      stop\n        /* \"contracts/Lock.sol\":3326:3630  function receiveMoney(uint _ID) public payable {... */\n    tag_4:\n      tag_24\n      0x04\n      dup1\n      calldatasize\n      sub\n      dup2\n      add\n      swap1\n      tag_25\n      swap2\n      swap1\n      tag_26\n      jump\t// in\n    tag_25:\n      tag_27\n      jump\t// in\n    tag_24:\n      stop\n        /* \"contracts/Lock.sol\":752:791  mapping(address => Admin) public admins */\n    tag_5:\n      callvalue\n      dup1\n      iszero\n      tag_28\n      jumpi\n      0x00\n      dup1\n      revert\n    tag_28:\n      pop\n      tag_29\n      0x04\n      dup1\n      calldatasize\n      sub\n      dup2\n      add\n      swap1\n      tag_30\n      swap2\n      swap1\n      tag_31\n      jump\t// in\n    tag_30:\n      tag_32\n      jump\t// in\n    tag_29:\n      mload(0x40)\n      tag_33\n      swap3\n      swap2\n      swap1\n      tag_34\n      jump\t// in\n    tag_33:\n      mload(0x40)\n      dup1\n      swap2\n      sub\n      swap1\n      return\n        /* \"contracts/Lock.sol\":1665:1950  function in_stock(uint _orderID, address _receiver) public onlyOwner {... */\n    tag_6:\n      callvalue\n      dup1\n      iszero\n      tag_35\n      jumpi\n      0x00\n      dup1\n      revert\n    tag_35:\n      pop\n      tag_36\n      0x04\n      dup1\n      calldatasize\n      sub\n      dup2\n      add\n      swap1\n      tag_37\n      swap2\n      swap1\n      tag_18\n      jump\t// in\n    tag_37:\n      tag_38\n      jump\t// in\n    tag_36:\n      stop\n        /* \"contracts/Lock.sol\":3636:3762  function addAdmin(address _newAdmin) public onlyOwner returns (bool) {... */\n    tag_7:\n      callvalue\n      dup1\n      iszero\n      tag_39\n      jumpi\n      0x00\n      dup1\n      revert\n    tag_39:\n      pop\n      tag_40\n      0x04\n      dup1\n      calldatasize\n      sub\n      dup2\n      add\n      swap1\n      tag_41\n      swap2\n      swap1\n      tag_31\n      jump\t// in\n    tag_41:\n      tag_42\n      jump\t// in\n    tag_40:\n      mload(0x40)\n      tag_43\n      swap2\n      swap1\n      tag_44\n      jump\t// in\n    tag_43:\n      mload(0x40)\n      dup1\n      swap2\n      sub\n      swap1\n      return\n        /* \"contracts/Lock.sol\":1956:2442  function delivered(uint _orderID, address _receiver) public onlyOwner {... */\n    tag_8:\n      callvalue\n      dup1\n      iszero\n      tag_45\n      jumpi\n      0x00\n      dup1\n      revert\n    tag_45:\n      pop\n      tag_46\n      0x04\n      dup1\n      calldatasize\n      sub\n      dup2\n      add\n      swap1\n      tag_47\n      swap2\n      swap1\n      tag_18\n      jump\t// in\n    tag_47:\n      tag_48\n      jump\t// in\n    tag_46:\n      stop\n        /* \"contracts/Lock.sol\":1382:1659  function paid(uint _orderID, address _receiver) public onlyOwner {... */\n    tag_9:\n      callvalue\n      dup1\n      iszero\n      tag_49\n      jumpi\n      0x00\n      dup1\n      revert\n    tag_49:\n      pop\n      tag_50\n      0x04\n      dup1\n      calldatasize\n      sub\n      dup2\n      add\n      swap1\n      tag_51\n      swap2\n      swap1\n      tag_18\n      jump\t// in\n    tag_51:\n      tag_52\n      jump\t// in\n    tag_50:\n      stop\n        /* \"contracts/Lock.sol\":797:822  Order[] public order_info */\n    tag_10:\n      callvalue\n      dup1\n      iszero\n      tag_53\n      jumpi\n      0x00\n      dup1\n      revert\n    tag_53:\n      pop\n      tag_54\n      0x04\n      dup1\n      calldatasize\n      sub\n      dup2\n      add\n      swap1\n      tag_55\n      swap2\n      swap1\n      tag_26\n      jump\t// in\n    tag_55:\n      tag_56\n      jump\t// in\n    tag_54:\n      mload(0x40)\n      tag_57\n      swap4\n      swap3\n      swap2\n      swap1\n      tag_58\n      jump\t// in\n    tag_57:\n      mload(0x40)\n      dup1\n      swap2\n      sub\n      swap1\n      return\n        /* \"contracts/Lock.sol\":3022:3320  function returned(uint _orderID, address _receiver) public onlyOwner {... */\n    tag_11:\n      callvalue\n      dup1\n      iszero\n      tag_59\n      jumpi\n      0x00\n      dup1\n      revert\n    tag_59:\n      pop\n      tag_60\n      0x04\n      dup1\n      calldatasize\n      sub\n      dup2\n      add\n      swap1\n      tag_61\n      swap2\n      swap1\n      tag_18\n      jump\t// in\n    tag_61:\n      tag_62\n      jump\t// in\n    tag_60:\n      stop\n        /* \"contracts/Lock.sol\":828:880  mapping(uint => OrderPayments) public order_payments */\n    tag_12:\n      callvalue\n      dup1\n      iszero\n      tag_63\n      jumpi\n      0x00\n      dup1\n      revert\n    tag_63:\n      pop\n      tag_64\n      0x04\n      dup1\n      calldatasize\n      sub\n      dup2\n      add\n      swap1\n      tag_65\n      swap2\n      swap1\n      tag_26\n      jump\t// in\n    tag_65:\n      tag_66\n      jump\t// in\n    tag_64:\n      mload(0x40)\n      tag_67\n      swap4\n      swap3\n      swap2\n      swap1\n      tag_68\n      jump\t// in\n    tag_67:\n      mload(0x40)\n      dup1\n      swap2\n      sub\n      swap1\n      return\n        /* \"contracts/Lock.sol\":2731:3016  function canceled(uint _orderID, address _receiver) public onlyOwner {... */\n    tag_13:\n      callvalue\n      dup1\n      iszero\n      tag_69\n      jumpi\n      0x00\n      dup1\n      revert\n    tag_69:\n      pop\n      tag_70\n      0x04\n      dup1\n      calldatasize\n      sub\n      dup2\n      add\n      swap1\n      tag_71\n      swap2\n      swap1\n      tag_18\n      jump\t// in\n    tag_71:\n      tag_72\n      jump\t// in\n    tag_70:\n      stop\n        /* \"contracts/Lock.sol\":1081:1376  function in_production(uint _orderID, address _receiver) public onlyOwner {... */\n    tag_19:\n        /* \"contracts/Lock.sol\":296:306  msg.sender */\n      caller\n        /* \"contracts/Lock.sol\":287:306  owner == msg.sender */\n      0xffffffffffffffffffffffffffffffffffffffff\n      and\n        /* \"contracts/Lock.sol\":287:292  owner */\n      0x00\n      dup1\n      sload\n      swap1\n      0x0100\n      exp\n      swap1\n      div\n      0xffffffffffffffffffffffffffffffffffffffff\n      and\n        /* \"contracts/Lock.sol\":287:306  owner == msg.sender */\n      0xffffffffffffffffffffffffffffffffffffffff\n      and\n      eq\n        /* \"contracts/Lock.sol\":279:324  require(owner == msg.sender, \"Not an owner!\") */\n      tag_74\n      jumpi\n      mload(0x40)\n      0x08c379a000000000000000000000000000000000000000000000000000000000\n      dup2\n      mstore\n      0x04\n      add\n      tag_75\n      swap1\n      tag_76\n      jump\t// in\n    tag_75:\n      mload(0x40)\n      dup1\n      swap2\n      sub\n      swap1\n      revert\n    tag_74:\n        /* \"contracts/Lock.sol\":1181:1201  Status.In_Production */\n      0x00\n        /* \"contracts/Lock.sol\":1165:1178  status_choice */\n      0x02\n      0x00\n        /* \"contracts/Lock.sol\":1165:1201  status_choice = Status.In_Production */\n      0x0100\n      exp\n      dup2\n      sload\n      dup2\n      0xff\n      mul\n      not\n      and\n      swap1\n      dup4\n      0x06\n      dup2\n      gt\n      iszero\n      tag_78\n      jumpi\n      tag_79\n      tag_80\n      jump\t// in\n    tag_79:\n    tag_78:\n      mul\n      or\n      swap1\n      sstore\n      pop\n        /* \"contracts/Lock.sol\":1211:1221  order_info */\n      0x04\n        /* \"contracts/Lock.sol\":1227:1300  Order({_orderID: _orderID, _receiver: _receiver, _status: status_choice}) */\n      mload(0x40)\n      dup1\n      0x60\n      add\n      0x40\n      mstore\n      dup1\n        /* \"contracts/Lock.sol\":1244:1252  _orderID */\n      dup5\n        /* \"contracts/Lock.sol\":1227:1300  Order({_orderID: _orderID, _receiver: _receiver, _status: status_choice}) */\n      dup2\n      mstore\n      0x20\n      add\n        /* \"contracts/Lock.sol\":1265:1274  _receiver */\n      dup4\n        /* \"contracts/Lock.sol\":1227:1300  Order({_orderID: _orderID, _receiver: _receiver, _status: status_choice}) */\n      0xffffffffffffffffffffffffffffffffffffffff\n      and\n      dup2\n      mstore\n      0x20\n      add\n        /* \"contracts/Lock.sol\":1285:1298  status_choice */\n      0x02\n      0x00\n      swap1\n      sload\n      swap1\n      0x0100\n      exp\n      swap1\n      div\n      0xff\n      and\n        /* \"contracts/Lock.sol\":1227:1300  Order({_orderID: _orderID, _receiver: _receiver, _status: status_choice}) */\n      0x06\n      dup2\n      gt\n      iszero\n      tag_81\n      jumpi\n      tag_82\n      tag_80\n      jump\t// in\n    tag_82:\n    tag_81:\n      dup2\n      mstore\n      pop\n        /* \"contracts/Lock.sol\":1211:1301  order_info.push(Order({_orderID: _orderID, _receiver: _receiver, _status: status_choice})) */\n      swap1\n      dup1\n      0x01\n      dup2\n      sload\n      add\n      dup1\n      dup3\n      sstore\n      dup1\n      swap2\n      pop\n      pop\n      0x01\n      swap1\n      sub\n      swap1\n      0x00\n      mstore\n      keccak256(0x00, 0x20)\n      swap1\n      0x02\n      mul\n      add\n      0x00\n      swap1\n      swap2\n      swap1\n      swap2\n      swap1\n      swap2\n      pop\n      0x00\n      dup3\n      add\n      mload\n      dup2\n      0x00\n      add\n      sstore\n      0x20\n      dup3\n      add\n      mload\n      dup2\n      0x01\n      add\n      exp(0x0100, 0x00)\n      dup2\n      sload\n      dup2\n      0xffffffffffffffffffffffffffffffffffffffff\n      mul\n      not\n      and\n      swap1\n      dup4\n      0xffffffffffffffffffffffffffffffffffffffff\n      and\n      mul\n      or\n      swap1\n      sstore\n      pop\n      0x40\n      dup3\n      add\n      mload\n      dup2\n      0x01\n      add\n      exp(0x0100, 0x14)\n      dup2\n      sload\n      dup2\n      0xff\n      mul\n      not\n      and\n      swap1\n      dup4\n      0x06\n      dup2\n      gt\n      iszero\n      tag_84\n      jumpi\n      tag_85\n      tag_80\n      jump\t// in\n    tag_85:\n    tag_84:\n      mul\n      or\n      swap1\n      sstore\n      pop\n      pop\n      pop\n        /* \"contracts/Lock.sol\":1355:1368  status_choice */\n      0x02\n      0x00\n      swap1\n      sload\n      swap1\n      0x0100\n      exp\n      swap1\n      div\n      0xff\n      and\n        /* \"contracts/Lock.sol\":1316:1369  ChangeOrderStatus(_orderID, _receiver, status_choice) */\n      0x06\n      dup2\n      gt\n      iszero\n      tag_86\n      jumpi\n      tag_87\n      tag_80\n      jump\t// in\n    tag_87:\n    tag_86:\n        /* \"contracts/Lock.sol\":1344:1353  _receiver */\n      dup2\n        /* \"contracts/Lock.sol\":1316:1369  ChangeOrderStatus(_orderID, _receiver, status_choice) */\n      0xffffffffffffffffffffffffffffffffffffffff\n      and\n        /* \"contracts/Lock.sol\":1334:1342  _orderID */\n      dup4\n        /* \"contracts/Lock.sol\":1316:1369  ChangeOrderStatus(_orderID, _receiver, status_choice) */\n      0xcc091c952960b84af994b58e2349b735a74341ba5869f73ed41ce589750b6441\n      mload(0x40)\n      mload(0x40)\n      dup1\n      swap2\n      sub\n      swap1\n      log4\n        /* \"contracts/Lock.sol\":1081:1376  function in_production(uint _orderID, address _receiver) public onlyOwner {... */\n      pop\n      pop\n      jump\t// out\n        /* \"contracts/Lock.sol\":2448:2725  function sent(uint _orderID, address _receiver) public onlyOwner {... */\n    tag_23:\n        /* \"contracts/Lock.sol\":296:306  msg.sender */\n      caller\n        /* \"contracts/Lock.sol\":287:306  owner == msg.sender */\n      0xffffffffffffffffffffffffffffffffffffffff\n      and\n        /* \"contracts/Lock.sol\":287:292  owner */\n      0x00\n      dup1\n      sload\n      swap1\n      0x0100\n      exp\n      swap1\n      div\n      0xffffffffffffffffffffffffffffffffffffffff\n      and\n        /* \"contracts/Lock.sol\":287:306  owner == msg.sender */\n      0xffffffffffffffffffffffffffffffffffffffff\n      and\n      eq\n        /* \"contracts/Lock.sol\":279:324  require(owner == msg.sender, \"Not an owner!\") */\n      tag_89\n      jumpi\n      mload(0x40)\n      0x08c379a000000000000000000000000000000000000000000000000000000000\n      dup2\n      mstore\n      0x04\n      add\n      tag_90\n      swap1\n      tag_76\n      jump\t// in\n    tag_90:\n      mload(0x40)\n      dup1\n      swap2\n      sub\n      swap1\n      revert\n    tag_89:\n        /* \"contracts/Lock.sol\":2539:2550  Status.Sent */\n      0x04\n        /* \"contracts/Lock.sol\":2523:2536  status_choice */\n      0x02\n      0x00\n        /* \"contracts/Lock.sol\":2523:2550  status_choice = Status.Sent */\n      0x0100\n      exp\n      dup2\n      sload\n      dup2\n      0xff\n      mul\n      not\n      and\n      swap1\n      dup4\n      0x06\n      dup2\n      gt\n      iszero\n      tag_92\n      jumpi\n      tag_93\n      tag_80\n      jump\t// in\n    tag_93:\n    tag_92:\n      mul\n      or\n      swap1\n      sstore\n      pop\n        /* \"contracts/Lock.sol\":2560:2570  order_info */\n      0x04\n        /* \"contracts/Lock.sol\":2576:2649  Order({_orderID: _orderID, _receiver: _receiver, _status: status_choice}) */\n      mload(0x40)\n      dup1\n      0x60\n      add\n      0x40\n      mstore\n      dup1\n        /* \"contracts/Lock.sol\":2593:2601  _orderID */\n      dup5\n        /* \"contracts/Lock.sol\":2576:2649  Order({_orderID: _orderID, _receiver: _receiver, _status: status_choice}) */\n      dup2\n      mstore\n      0x20\n      add\n        /* \"contracts/Lock.sol\":2614:2623  _receiver */\n      dup4\n        /* \"contracts/Lock.sol\":2576:2649  Order({_orderID: _orderID, _receiver: _receiver, _status: status_choice}) */\n      0xffffffffffffffffffffffffffffffffffffffff\n      and\n      dup2\n      mstore\n      0x20\n      add\n        /* \"contracts/Lock.sol\":2634:2647  status_choice */\n      0x02\n      0x00\n      swap1\n      sload\n      swap1\n      0x0100\n      exp\n      swap1\n      div\n      0xff\n      and\n        /* \"contracts/Lock.sol\":2576:2649  Order({_orderID: _orderID, _receiver: _receiver, _status: status_choice}) */\n      0x06\n      dup2\n      gt\n      iszero\n      tag_94\n      jumpi\n      tag_95\n      tag_80\n      jump\t// in\n    tag_95:\n    tag_94:\n      dup2\n      mstore\n      pop\n        /* \"contracts/Lock.sol\":2560:2650  order_info.push(Order({_orderID: _orderID, _receiver: _receiver, _status: status_choice})) */\n      swap1\n      dup1\n      0x01\n      dup2\n      sload\n      add\n      dup1\n      dup3\n      sstore\n      dup1\n      swap2\n      pop\n      pop\n      0x01\n      swap1\n      sub\n      swap1\n      0x00\n      mstore\n      keccak256(0x00, 0x20)\n      swap1\n      0x02\n      mul\n      add\n      0x00\n      swap1\n      swap2\n      swap1\n      swap2\n      swap1\n      swap2\n      pop\n      0x00\n      dup3\n      add\n      mload\n      dup2\n      0x00\n      add\n      sstore\n      0x20\n      dup3\n      add\n      mload\n      dup2\n      0x01\n      add\n      exp(0x0100, 0x00)\n      dup2\n      sload\n      dup2\n      0xffffffffffffffffffffffffffffffffffffffff\n      mul\n      not\n      and\n      swap1\n      dup4\n      0xffffffffffffffffffffffffffffffffffffffff\n      and\n      mul\n      or\n      swap1\n      sstore\n      pop\n      0x40\n      dup3\n      add\n      mload\n      dup2\n      0x01\n      add\n      exp(0x0100, 0x14)\n      dup2\n      sload\n      dup2\n      0xff\n      mul\n      not\n      and\n      swap1\n      dup4\n      0x06\n      dup2\n      gt\n      iszero\n      tag_97\n      jumpi\n      tag_98\n      tag_80\n      jump\t// in\n    tag_98:\n    tag_97:\n      mul\n      or\n      swap1\n      sstore\n      pop\n      pop\n      pop\n        /* \"contracts/Lock.sol\":2704:2717  status_choice */\n      0x02\n      0x00\n      swap1\n      sload\n      swap1\n      0x0100\n      exp\n      swap1\n      div\n      0xff\n      and\n        /* \"contracts/Lock.sol\":2665:2718  ChangeOrderStatus(_orderID, _receiver, status_choice) */\n      0x06\n      dup2\n      gt\n      iszero\n      tag_99\n      jumpi\n      tag_100\n      tag_80\n      jump\t// in\n    tag_100:\n    tag_99:\n        /* \"contracts/Lock.sol\":2693:2702  _receiver */\n      dup2\n        /* \"contracts/Lock.sol\":2665:2718  ChangeOrderStatus(_orderID, _receiver, status_choice) */\n      0xffffffffffffffffffffffffffffffffffffffff\n      and\n        /* \"contracts/Lock.sol\":2683:2691  _orderID */\n      dup4\n        /* \"contracts/Lock.sol\":2665:2718  ChangeOrderStatus(_orderID, _receiver, status_choice) */\n      0xcc091c952960b84af994b58e2349b735a74341ba5869f73ed41ce589750b6441\n      mload(0x40)\n      mload(0x40)\n      dup1\n      swap2\n      sub\n      swap1\n      log4\n        /* \"contracts/Lock.sol\":2448:2725  function sent(uint _orderID, address _receiver) public onlyOwner {... */\n      pop\n      pop\n      jump\t// out\n        /* \"contracts/Lock.sol\":3326:3630  function receiveMoney(uint _ID) public payable {... */\n    tag_27:\n        /* \"contracts/Lock.sol\":3401:3410  msg.value */\n      callvalue\n        /* \"contracts/Lock.sol\":3383:3398  balanceReceived */\n      0x01\n        /* \"contracts/Lock.sol\":3383:3410  balanceReceived = msg.value */\n      dup2\n      swap1\n      sstore\n      pop\n        /* \"contracts/Lock.sol\":3452:3462  msg.sender */\n      caller\n        /* \"contracts/Lock.sol\":3420:3434  order_payments */\n      0x05\n        /* \"contracts/Lock.sol\":3420:3439  order_payments[_ID] */\n      0x00\n        /* \"contracts/Lock.sol\":3435:3438  _ID */\n      dup4\n        /* \"contracts/Lock.sol\":3420:3439  order_payments[_ID] */\n      dup2\n      mstore\n      0x20\n      add\n      swap1\n      dup2\n      mstore\n      0x20\n      add\n      0x00\n      keccak256\n        /* \"contracts/Lock.sol\":3420:3449  order_payments[_ID]._customer */\n      0x01\n      add\n      0x00\n        /* \"contracts/Lock.sol\":3420:3462  order_payments[_ID]._customer = msg.sender */\n      0x0100\n      exp\n      dup2\n      sload\n      dup2\n      0xffffffffffffffffffffffffffffffffffffffff\n      mul\n      not\n      and\n      swap1\n      dup4\n      0xffffffffffffffffffffffffffffffffffffffff\n      and\n      mul\n      or\n      swap1\n      sstore\n      pop\n        /* \"contracts/Lock.sol\":3502:3517  balanceReceived */\n      sload(0x01)\n        /* \"contracts/Lock.sol\":3472:3486  order_payments */\n      0x05\n        /* \"contracts/Lock.sol\":3472:3491  order_payments[_ID] */\n      0x00\n        /* \"contracts/Lock.sol\":3487:3490  _ID */\n      dup4\n        /* \"contracts/Lock.sol\":3472:3491  order_payments[_ID] */\n      dup2\n      mstore\n      0x20\n      add\n      swap1\n      dup2\n      mstore\n      0x20\n      add\n      0x00\n      keccak256\n        /* \"contracts/Lock.sol\":3472:3499  order_payments[_ID]._amount */\n      0x00\n      add\n        /* \"contracts/Lock.sol\":3472:3517  order_payments[_ID]._amount = balanceReceived */\n      dup2\n      swap1\n      sstore\n      pop\n        /* \"contracts/Lock.sol\":3558:3561  _ID */\n      dup1\n        /* \"contracts/Lock.sol\":3527:3541  order_payments */\n      0x05\n        /* \"contracts/Lock.sol\":3527:3546  order_payments[_ID] */\n      0x00\n        /* \"contracts/Lock.sol\":3542:3545  _ID */\n      dup4\n        /* \"contracts/Lock.sol\":3527:3546  order_payments[_ID] */\n      dup2\n      mstore\n      0x20\n      add\n      swap1\n      dup2\n      mstore\n      0x20\n      add\n      0x00\n      keccak256\n        /* \"contracts/Lock.sol\":3527:3555  order_payments[_ID]._orderID */\n      0x02\n      add\n        /* \"contracts/Lock.sol\":3527:3561  order_payments[_ID]._orderID = _ID */\n      dup2\n      swap1\n      sstore\n      pop\n        /* \"contracts/Lock.sol\":3619:3622  _ID */\n      dup1\n        /* \"contracts/Lock.sol\":3607:3617  msg.sender */\n      caller\n        /* \"contracts/Lock.sol\":3576:3623  PaymentStatus(balanceReceived, msg.sender, _ID) */\n      0xffffffffffffffffffffffffffffffffffffffff\n      and\n        /* \"contracts/Lock.sol\":3590:3605  balanceReceived */\n      sload(0x01)\n        /* \"contracts/Lock.sol\":3576:3623  PaymentStatus(balanceReceived, msg.sender, _ID) */\n      0xcfa45676592e00e4bcb2fc31b4369381509e94f94f38870561cb010fab2d3b33\n      mload(0x40)\n      mload(0x40)\n      dup1\n      swap2\n      sub\n      swap1\n      log4\n        /* \"contracts/Lock.sol\":3326:3630  function receiveMoney(uint _ID) public payable {... */\n      pop\n      jump\t// out\n        /* \"contracts/Lock.sol\":752:791  mapping(address => Admin) public admins */\n    tag_32:\n      mstore(0x20, 0x03)\n      dup1\n      0x00\n      mstore\n      keccak256(0x00, 0x40)\n      0x00\n      swap2\n      pop\n      swap1\n      pop\n      dup1\n      0x00\n      add\n      dup1\n      sload\n      tag_102\n      swap1\n      tag_103\n      jump\t// in\n    tag_102:\n      dup1\n      0x1f\n      add\n      0x20\n      dup1\n      swap2\n      div\n      mul\n      0x20\n      add\n      mload(0x40)\n      swap1\n      dup2\n      add\n      0x40\n      mstore\n      dup1\n      swap3\n      swap2\n      swap1\n      dup2\n      dup2\n      mstore\n      0x20\n      add\n      dup3\n      dup1\n      sload\n      tag_104\n      swap1\n      tag_103\n      jump\t// in\n    tag_104:\n      dup1\n      iszero\n      tag_105\n      jumpi\n      dup1\n      0x1f\n      lt\n      tag_106\n      jumpi\n      0x0100\n      dup1\n      dup4\n      sload\n      div\n      mul\n      dup4\n      mstore\n      swap2\n      0x20\n      add\n      swap2\n      jump(tag_105)\n    tag_106:\n      dup3\n      add\n      swap2\n      swap1\n      0x00\n      mstore\n      keccak256(0x00, 0x20)\n      swap1\n    tag_107:\n      dup2\n      sload\n      dup2\n      mstore\n      swap1\n      0x01\n      add\n      swap1\n      0x20\n      add\n      dup1\n      dup4\n      gt\n      tag_107\n      jumpi\n      dup3\n      swap1\n      sub\n      0x1f\n      and\n      dup3\n      add\n      swap2\n    tag_105:\n      pop\n      pop\n      pop\n      pop\n      pop\n      swap1\n      dup1\n      0x01\n      add\n      0x00\n      swap1\n      sload\n      swap1\n      0x0100\n      exp\n      swap1\n      div\n      0xff\n      and\n      swap1\n      pop\n      dup3\n      jump\t// out\n        /* \"contracts/Lock.sol\":1665:1950  function in_stock(uint _orderID, address _receiver) public onlyOwner {... */\n    tag_38:\n        /* \"contracts/Lock.sol\":296:306  msg.sender */\n      caller\n        /* \"contracts/Lock.sol\":287:306  owner == msg.sender */\n      0xffffffffffffffffffffffffffffffffffffffff\n      and\n        /* \"contracts/Lock.sol\":287:292  owner */\n      0x00\n      dup1\n      sload\n      swap1\n      0x0100\n      exp\n      swap1\n      div\n      0xffffffffffffffffffffffffffffffffffffffff\n      and\n        /* \"contracts/Lock.sol\":287:306  owner == msg.sender */\n      0xffffffffffffffffffffffffffffffffffffffff\n      and\n      eq\n        /* \"contracts/Lock.sol\":279:324  require(owner == msg.sender, \"Not an owner!\") */\n      tag_109\n      jumpi\n      mload(0x40)\n      0x08c379a000000000000000000000000000000000000000000000000000000000\n      dup2\n      mstore\n      0x04\n      add\n      tag_110\n      swap1\n      tag_76\n      jump\t// in\n    tag_110:\n      mload(0x40)\n      dup1\n      swap2\n      sub\n      swap1\n      revert\n    tag_109:\n        /* \"contracts/Lock.sol\":1760:1775  Status.In_Stock */\n      0x02\n        /* \"contracts/Lock.sol\":1744:1757  status_choice */\n      dup1\n      0x00\n        /* \"contracts/Lock.sol\":1744:1775  status_choice = Status.In_Stock */\n      0x0100\n      exp\n      dup2\n      sload\n      dup2\n      0xff\n      mul\n      not\n      and\n      swap1\n      dup4\n      0x06\n      dup2\n      gt\n      iszero\n      tag_112\n      jumpi\n      tag_113\n      tag_80\n      jump\t// in\n    tag_113:\n    tag_112:\n      mul\n      or\n      swap1\n      sstore\n      pop\n        /* \"contracts/Lock.sol\":1785:1795  order_info */\n      0x04\n        /* \"contracts/Lock.sol\":1801:1874  Order({_orderID: _orderID, _receiver: _receiver, _status: status_choice}) */\n      mload(0x40)\n      dup1\n      0x60\n      add\n      0x40\n      mstore\n      dup1\n        /* \"contracts/Lock.sol\":1818:1826  _orderID */\n      dup5\n        /* \"contracts/Lock.sol\":1801:1874  Order({_orderID: _orderID, _receiver: _receiver, _status: status_choice}) */\n      dup2\n      mstore\n      0x20\n      add\n        /* \"contracts/Lock.sol\":1839:1848  _receiver */\n      dup4\n        /* \"contracts/Lock.sol\":1801:1874  Order({_orderID: _orderID, _receiver: _receiver, _status: status_choice}) */\n      0xffffffffffffffffffffffffffffffffffffffff\n      and\n      dup2\n      mstore\n      0x20\n      add\n        /* \"contracts/Lock.sol\":1859:1872  status_choice */\n      0x02\n      0x00\n      swap1\n      sload\n      swap1\n      0x0100\n      exp\n      swap1\n      div\n      0xff\n      and\n        /* \"contracts/Lock.sol\":1801:1874  Order({_orderID: _orderID, _receiver: _receiver, _status: status_choice}) */\n      0x06\n      dup2\n      gt\n      iszero\n      tag_114\n      jumpi\n      tag_115\n      tag_80\n      jump\t// in\n    tag_115:\n    tag_114:\n      dup2\n      mstore\n      pop\n        /* \"contracts/Lock.sol\":1785:1875  order_info.push(Order({_orderID: _orderID, _receiver: _receiver, _status: status_choice})) */\n      swap1\n      dup1\n      0x01\n      dup2\n      sload\n      add\n      dup1\n      dup3\n      sstore\n      dup1\n      swap2\n      pop\n      pop\n      0x01\n      swap1\n      sub\n      swap1\n      0x00\n      mstore\n      keccak256(0x00, 0x20)\n      swap1\n      0x02\n      mul\n      add\n      0x00\n      swap1\n      swap2\n      swap1\n      swap2\n      swap1\n      swap2\n      pop\n      0x00\n      dup3\n      add\n      mload\n      dup2\n      0x00\n      add\n      sstore\n      0x20\n      dup3\n      add\n      mload\n      dup2\n      0x01\n      add\n      exp(0x0100, 0x00)\n      dup2\n      sload\n      dup2\n      0xffffffffffffffffffffffffffffffffffffffff\n      mul\n      not\n      and\n      swap1\n      dup4\n      0xffffffffffffffffffffffffffffffffffffffff\n      and\n      mul\n      or\n      swap1\n      sstore\n      pop\n      0x40\n      dup3\n      add\n      mload\n      dup2\n      0x01\n      add\n      exp(0x0100, 0x14)\n      dup2\n      sload\n      dup2\n      0xff\n      mul\n      not\n      and\n      swap1\n      dup4\n      0x06\n      dup2\n      gt\n      iszero\n      tag_117\n      jumpi\n      tag_118\n      tag_80\n      jump\t// in\n    tag_118:\n    tag_117:\n      mul\n      or\n      swap1\n      sstore\n      pop\n      pop\n      pop\n        /* \"contracts/Lock.sol\":1929:1942  status_choice */\n      0x02\n      0x00\n      swap1\n      sload\n      swap1\n      0x0100\n      exp\n      swap1\n      div\n      0xff\n      and\n        /* \"contracts/Lock.sol\":1890:1943  ChangeOrderStatus(_orderID, _receiver, status_choice) */\n      0x06\n      dup2\n      gt\n      iszero\n      tag_119\n      jumpi\n      tag_120\n      tag_80\n      jump\t// in\n    tag_120:\n    tag_119:\n        /* \"contracts/Lock.sol\":1918:1927  _receiver */\n      dup2\n        /* \"contracts/Lock.sol\":1890:1943  ChangeOrderStatus(_orderID, _receiver, status_choice) */\n      0xffffffffffffffffffffffffffffffffffffffff\n      and\n        /* \"contracts/Lock.sol\":1908:1916  _orderID */\n      dup4\n        /* \"contracts/Lock.sol\":1890:1943  ChangeOrderStatus(_orderID, _receiver, status_choice) */\n      0xcc091c952960b84af994b58e2349b735a74341ba5869f73ed41ce589750b6441\n      mload(0x40)\n      mload(0x40)\n      dup1\n      swap2\n      sub\n      swap1\n      log4\n        /* \"contracts/Lock.sol\":1665:1950  function in_stock(uint _orderID, address _receiver) public onlyOwner {... */\n      pop\n      pop\n      jump\t// out\n        /* \"contracts/Lock.sol\":3636:3762  function addAdmin(address _newAdmin) public onlyOwner returns (bool) {... */\n    tag_42:\n        /* \"contracts/Lock.sol\":3699:3703  bool */\n      0x00\n        /* \"contracts/Lock.sol\":296:306  msg.sender */\n      caller\n        /* \"contracts/Lock.sol\":287:306  owner == msg.sender */\n      0xffffffffffffffffffffffffffffffffffffffff\n      and\n        /* \"contracts/Lock.sol\":287:292  owner */\n      0x00\n      dup1\n      sload\n      swap1\n      0x0100\n      exp\n      swap1\n      div\n      0xffffffffffffffffffffffffffffffffffffffff\n      and\n        /* \"contracts/Lock.sol\":287:306  owner == msg.sender */\n      0xffffffffffffffffffffffffffffffffffffffff\n      and\n      eq\n        /* \"contracts/Lock.sol\":279:324  require(owner == msg.sender, \"Not an owner!\") */\n      tag_122\n      jumpi\n      mload(0x40)\n      0x08c379a000000000000000000000000000000000000000000000000000000000\n      dup2\n      mstore\n      0x04\n      add\n      tag_123\n      swap1\n      tag_76\n      jump\t// in\n    tag_123:\n      mload(0x40)\n      dup1\n      swap2\n      sub\n      swap1\n      revert\n    tag_122:\n        /* \"contracts/Lock.sol\":3751:3755  true */\n      0x01\n        /* \"contracts/Lock.sol\":3722:3728  admins */\n      0x03\n        /* \"contracts/Lock.sol\":3722:3739  admins[_newAdmin] */\n      0x00\n        /* \"contracts/Lock.sol\":3729:3738  _newAdmin */\n      dup5\n        /* \"contracts/Lock.sol\":3722:3739  admins[_newAdmin] */\n      0xffffffffffffffffffffffffffffffffffffffff\n      and\n      0xffffffffffffffffffffffffffffffffffffffff\n      and\n      dup2\n      mstore\n      0x20\n      add\n      swap1\n      dup2\n      mstore\n      0x20\n      add\n      0x00\n      keccak256\n        /* \"contracts/Lock.sol\":3722:3748  admins[_newAdmin]._isAdmin */\n      0x01\n      add\n      0x00\n        /* \"contracts/Lock.sol\":3722:3755  admins[_newAdmin]._isAdmin = true */\n      0x0100\n      exp\n      dup2\n      sload\n      dup2\n      0xff\n      mul\n      not\n      and\n      swap1\n      dup4\n      iszero\n      iszero\n      mul\n      or\n      swap1\n      sstore\n        /* \"contracts/Lock.sol\":3715:3755  return admins[_newAdmin]._isAdmin = true */\n      swap1\n      pop\n        /* \"contracts/Lock.sol\":3636:3762  function addAdmin(address _newAdmin) public onlyOwner returns (bool) {... */\n      swap2\n      swap1\n      pop\n      jump\t// out\n        /* \"contracts/Lock.sol\":1956:2442  function delivered(uint _orderID, address _receiver) public onlyOwner {... */\n    tag_48:\n        /* \"contracts/Lock.sol\":296:306  msg.sender */\n      caller\n        /* \"contracts/Lock.sol\":287:306  owner == msg.sender */\n      0xffffffffffffffffffffffffffffffffffffffff\n      and\n        /* \"contracts/Lock.sol\":287:292  owner */\n      0x00\n      dup1\n      sload\n      swap1\n      0x0100\n      exp\n      swap1\n      div\n      0xffffffffffffffffffffffffffffffffffffffff\n      and\n        /* \"contracts/Lock.sol\":287:306  owner == msg.sender */\n      0xffffffffffffffffffffffffffffffffffffffff\n      and\n      eq\n        /* \"contracts/Lock.sol\":279:324  require(owner == msg.sender, \"Not an owner!\") */\n      tag_126\n      jumpi\n      mload(0x40)\n      0x08c379a000000000000000000000000000000000000000000000000000000000\n      dup2\n      mstore\n      0x04\n      add\n      tag_127\n      swap1\n      tag_76\n      jump\t// in\n    tag_127:\n      mload(0x40)\n      dup1\n      swap2\n      sub\n      swap1\n      revert\n    tag_126:\n        /* \"contracts/Lock.sol\":2052:2068  Status.Delivered */\n      0x03\n        /* \"contracts/Lock.sol\":2036:2049  status_choice */\n      0x02\n      0x00\n        /* \"contracts/Lock.sol\":2036:2068  status_choice = Status.Delivered */\n      0x0100\n      exp\n      dup2\n      sload\n      dup2\n      0xff\n      mul\n      not\n      and\n      swap1\n      dup4\n      0x06\n      dup2\n      gt\n      iszero\n      tag_129\n      jumpi\n      tag_130\n      tag_80\n      jump\t// in\n    tag_130:\n    tag_129:\n      mul\n      or\n      swap1\n      sstore\n      pop\n        /* \"contracts/Lock.sol\":2078:2088  order_info */\n      0x04\n        /* \"contracts/Lock.sol\":2094:2167  Order({_orderID: _orderID, _receiver: _receiver, _status: status_choice}) */\n      mload(0x40)\n      dup1\n      0x60\n      add\n      0x40\n      mstore\n      dup1\n        /* \"contracts/Lock.sol\":2111:2119  _orderID */\n      dup5\n        /* \"contracts/Lock.sol\":2094:2167  Order({_orderID: _orderID, _receiver: _receiver, _status: status_choice}) */\n      dup2\n      mstore\n      0x20\n      add\n        /* \"contracts/Lock.sol\":2132:2141  _receiver */\n      dup4\n        /* \"contracts/Lock.sol\":2094:2167  Order({_orderID: _orderID, _receiver: _receiver, _status: status_choice}) */\n      0xffffffffffffffffffffffffffffffffffffffff\n      and\n      dup2\n      mstore\n      0x20\n      add\n        /* \"contracts/Lock.sol\":2152:2165  status_choice */\n      0x02\n      0x00\n      swap1\n      sload\n      swap1\n      0x0100\n      exp\n      swap1\n      div\n      0xff\n      and\n        /* \"contracts/Lock.sol\":2094:2167  Order({_orderID: _orderID, _receiver: _receiver, _status: status_choice}) */\n      0x06\n      dup2\n      gt\n      iszero\n      tag_131\n      jumpi\n      tag_132\n      tag_80\n      jump\t// in\n    tag_132:\n    tag_131:\n      dup2\n      mstore\n      pop\n        /* \"contracts/Lock.sol\":2078:2168  order_info.push(Order({_orderID: _orderID, _receiver: _receiver, _status: status_choice})) */\n      swap1\n      dup1\n      0x01\n      dup2\n      sload\n      add\n      dup1\n      dup3\n      sstore\n      dup1\n      swap2\n      pop\n      pop\n      0x01\n      swap1\n      sub\n      swap1\n      0x00\n      mstore\n      keccak256(0x00, 0x20)\n      swap1\n      0x02\n      mul\n      add\n      0x00\n      swap1\n      swap2\n      swap1\n      swap2\n      swap1\n      swap2\n      pop\n      0x00\n      dup3\n      add\n      mload\n      dup2\n      0x00\n      add\n      sstore\n      0x20\n      dup3\n      add\n      mload\n      dup2\n      0x01\n      add\n      exp(0x0100, 0x00)\n      dup2\n      sload\n      dup2\n      0xffffffffffffffffffffffffffffffffffffffff\n      mul\n      not\n      and\n      swap1\n      dup4\n      0xffffffffffffffffffffffffffffffffffffffff\n      and\n      mul\n      or\n      swap1\n      sstore\n      pop\n      0x40\n      dup3\n      add\n      mload\n      dup2\n      0x01\n      add\n      exp(0x0100, 0x14)\n      dup2\n      sload\n      dup2\n      0xff\n      mul\n      not\n      and\n      swap1\n      dup4\n      0x06\n      dup2\n      gt\n      iszero\n      tag_134\n      jumpi\n      tag_135\n      tag_80\n      jump\t// in\n    tag_135:\n    tag_134:\n      mul\n      or\n      swap1\n      sstore\n      pop\n      pop\n      pop\n        /* \"contracts/Lock.sol\":2194:2208  order_payments */\n      0x05\n        /* \"contracts/Lock.sol\":2194:2218  order_payments[_orderID] */\n      0x00\n        /* \"contracts/Lock.sol\":2209:2217  _orderID */\n      dup4\n        /* \"contracts/Lock.sol\":2194:2218  order_payments[_orderID] */\n      dup2\n      mstore\n      0x20\n      add\n      swap1\n      dup2\n      mstore\n      0x20\n      add\n      0x00\n      keccak256\n        /* \"contracts/Lock.sol\":2194:2227  order_payments[_orderID]._orderID */\n      0x02\n      add\n      sload\n        /* \"contracts/Lock.sol\":2182:2190  _orderID */\n      dup3\n        /* \"contracts/Lock.sol\":2182:2227  _orderID == order_payments[_orderID]._orderID */\n      eq\n        /* \"contracts/Lock.sol\":2178:2368  if (_orderID == order_payments[_orderID]._orderID) {... */\n      iszero\n      tag_136\n      jumpi\n        /* \"contracts/Lock.sol\":2251:2256  owner */\n      0x00\n      dup1\n      sload\n      swap1\n      0x0100\n      exp\n      swap1\n      div\n      0xffffffffffffffffffffffffffffffffffffffff\n      and\n        /* \"contracts/Lock.sol\":2243:2266  payable(owner).transfer */\n      0xffffffffffffffffffffffffffffffffffffffff\n      and\n        /* \"contracts/Lock.sol\":2243:2300  payable(owner).transfer(order_payments[_orderID]._amount) */\n      0x08fc\n        /* \"contracts/Lock.sol\":2267:2281  order_payments */\n      0x05\n        /* \"contracts/Lock.sol\":2267:2291  order_payments[_orderID] */\n      0x00\n        /* \"contracts/Lock.sol\":2282:2290  _orderID */\n      dup6\n        /* \"contracts/Lock.sol\":2267:2291  order_payments[_orderID] */\n      dup2\n      mstore\n      0x20\n      add\n      swap1\n      dup2\n      mstore\n      0x20\n      add\n      0x00\n      keccak256\n        /* \"contracts/Lock.sol\":2267:2299  order_payments[_orderID]._amount */\n      0x00\n      add\n      sload\n        /* \"contracts/Lock.sol\":2243:2300  payable(owner).transfer(order_payments[_orderID]._amount) */\n      swap1\n      dup2\n      iszero\n      mul\n      swap1\n      mload(0x40)\n      0x00\n      mload(0x40)\n      dup1\n      dup4\n      sub\n      dup2\n      dup6\n      dup9\n      dup9\n      call\n      swap4\n      pop\n      pop\n      pop\n      pop\n      iszero\n      dup1\n      iszero\n      tag_138\n      jumpi\n      returndatasize\n      0x00\n      dup1\n      returndatacopy\n      revert(0x00, returndatasize)\n    tag_138:\n      pop\n        /* \"contracts/Lock.sol\":2178:2368  if (_orderID == order_payments[_orderID]._orderID) {... */\n      jump(tag_139)\n    tag_136:\n        /* \"contracts/Lock.sol\":2331:2357  revert(\"Invalid order ID\") */\n      mload(0x40)\n      0x08c379a000000000000000000000000000000000000000000000000000000000\n      dup2\n      mstore\n      0x04\n      add\n      tag_140\n      swap1\n      tag_141\n      jump\t// in\n    tag_140:\n      mload(0x40)\n      dup1\n      swap2\n      sub\n      swap1\n      revert\n        /* \"contracts/Lock.sol\":2178:2368  if (_orderID == order_payments[_orderID]._orderID) {... */\n    tag_139:\n        /* \"contracts/Lock.sol\":2421:2434  status_choice */\n      0x02\n      0x00\n      swap1\n      sload\n      swap1\n      0x0100\n      exp\n      swap1\n      div\n      0xff\n      and\n        /* \"contracts/Lock.sol\":2382:2435  ChangeOrderStatus(_orderID, _receiver, status_choice) */\n      0x06\n      dup2\n      gt\n      iszero\n      tag_142\n      jumpi\n      tag_143\n      tag_80\n      jump\t// in\n    tag_143:\n    tag_142:\n        /* \"contracts/Lock.sol\":2410:2419  _receiver */\n      dup2\n        /* \"contracts/Lock.sol\":2382:2435  ChangeOrderStatus(_orderID, _receiver, status_choice) */\n      0xffffffffffffffffffffffffffffffffffffffff\n      and\n        /* \"contracts/Lock.sol\":2400:2408  _orderID */\n      dup4\n        /* \"contracts/Lock.sol\":2382:2435  ChangeOrderStatus(_orderID, _receiver, status_choice) */\n      0xcc091c952960b84af994b58e2349b735a74341ba5869f73ed41ce589750b6441\n      mload(0x40)\n      mload(0x40)\n      dup1\n      swap2\n      sub\n      swap1\n      log4\n        /* \"contracts/Lock.sol\":1956:2442  function delivered(uint _orderID, address _receiver) public onlyOwner {... */\n      pop\n      pop\n      jump\t// out\n        /* \"contracts/Lock.sol\":1382:1659  function paid(uint _orderID, address _receiver) public onlyOwner {... */\n    tag_52:\n        /* \"contracts/Lock.sol\":296:306  msg.sender */\n      caller\n        /* \"contracts/Lock.sol\":287:306  owner == msg.sender */\n      0xffffffffffffffffffffffffffffffffffffffff\n      and\n        /* \"contracts/Lock.sol\":287:292  owner */\n      0x00\n      dup1\n      sload\n      swap1\n      0x0100\n      exp\n      swap1\n      div\n      0xffffffffffffffffffffffffffffffffffffffff\n      and\n        /* \"contracts/Lock.sol\":287:306  owner == msg.sender */\n      0xffffffffffffffffffffffffffffffffffffffff\n      and\n      eq\n        /* \"contracts/Lock.sol\":279:324  require(owner == msg.sender, \"Not an owner!\") */\n      tag_145\n      jumpi\n      mload(0x40)\n      0x08c379a000000000000000000000000000000000000000000000000000000000\n      dup2\n      mstore\n      0x04\n      add\n      tag_146\n      swap1\n      tag_76\n      jump\t// in\n    tag_146:\n      mload(0x40)\n      dup1\n      swap2\n      sub\n      swap1\n      revert\n    tag_145:\n        /* \"contracts/Lock.sol\":1473:1484  Status.Paid */\n      0x01\n        /* \"contracts/Lock.sol\":1457:1470  status_choice */\n      0x02\n      0x00\n        /* \"contracts/Lock.sol\":1457:1484  status_choice = Status.Paid */\n      0x0100\n      exp\n      dup2\n      sload\n      dup2\n      0xff\n      mul\n      not\n      and\n      swap1\n      dup4\n      0x06\n      dup2\n      gt\n      iszero\n      tag_148\n      jumpi\n      tag_149\n      tag_80\n      jump\t// in\n    tag_149:\n    tag_148:\n      mul\n      or\n      swap1\n      sstore\n      pop\n        /* \"contracts/Lock.sol\":1494:1504  order_info */\n      0x04\n        /* \"contracts/Lock.sol\":1510:1583  Order({_orderID: _orderID, _receiver: _receiver, _status: status_choice}) */\n      mload(0x40)\n      dup1\n      0x60\n      add\n      0x40\n      mstore\n      dup1\n        /* \"contracts/Lock.sol\":1527:1535  _orderID */\n      dup5\n        /* \"contracts/Lock.sol\":1510:1583  Order({_orderID: _orderID, _receiver: _receiver, _status: status_choice}) */\n      dup2\n      mstore\n      0x20\n      add\n        /* \"contracts/Lock.sol\":1548:1557  _receiver */\n      dup4\n        /* \"contracts/Lock.sol\":1510:1583  Order({_orderID: _orderID, _receiver: _receiver, _status: status_choice}) */\n      0xffffffffffffffffffffffffffffffffffffffff\n      and\n      dup2\n      mstore\n      0x20\n      add\n        /* \"contracts/Lock.sol\":1568:1581  status_choice */\n      0x02\n      0x00\n      swap1\n      sload\n      swap1\n      0x0100\n      exp\n      swap1\n      div\n      0xff\n      and\n        /* \"contracts/Lock.sol\":1510:1583  Order({_orderID: _orderID, _receiver: _receiver, _status: status_choice}) */\n      0x06\n      dup2\n      gt\n      iszero\n      tag_150\n      jumpi\n      tag_151\n      tag_80\n      jump\t// in\n    tag_151:\n    tag_150:\n      dup2\n      mstore\n      pop\n        /* \"contracts/Lock.sol\":1494:1584  order_info.push(Order({_orderID: _orderID, _receiver: _receiver, _status: status_choice})) */\n      swap1\n      dup1\n      0x01\n      dup2\n      sload\n      add\n      dup1\n      dup3\n      sstore\n      dup1\n      swap2\n      pop\n      pop\n      0x01\n      swap1\n      sub\n      swap1\n      0x00\n      mstore\n      keccak256(0x00, 0x20)\n      swap1\n      0x02\n      mul\n      add\n      0x00\n      swap1\n      swap2\n      swap1\n      swap2\n      swap1\n      swap2\n      pop\n      0x00\n      dup3\n      add\n      mload\n      dup2\n      0x00\n      add\n      sstore\n      0x20\n      dup3\n      add\n      mload\n      dup2\n      0x01\n      add\n      exp(0x0100, 0x00)\n      dup2\n      sload\n      dup2\n      0xffffffffffffffffffffffffffffffffffffffff\n      mul\n      not\n      and\n      swap1\n      dup4\n      0xffffffffffffffffffffffffffffffffffffffff\n      and\n      mul\n      or\n      swap1\n      sstore\n      pop\n      0x40\n      dup3\n      add\n      mload\n      dup2\n      0x01\n      add\n      exp(0x0100, 0x14)\n      dup2\n      sload\n      dup2\n      0xff\n      mul\n      not\n      and\n      swap1\n      dup4\n      0x06\n      dup2\n      gt\n      iszero\n      tag_153\n      jumpi\n      tag_154\n      tag_80\n      jump\t// in\n    tag_154:\n    tag_153:\n      mul\n      or\n      swap1\n      sstore\n      pop\n      pop\n      pop\n        /* \"contracts/Lock.sol\":1638:1651  status_choice */\n      0x02\n      0x00\n      swap1\n      sload\n      swap1\n      0x0100\n      exp\n      swap1\n      div\n      0xff\n      and\n        /* \"contracts/Lock.sol\":1599:1652  ChangeOrderStatus(_orderID, _receiver, status_choice) */\n      0x06\n      dup2\n      gt\n      iszero\n      tag_155\n      jumpi\n      tag_156\n      tag_80\n      jump\t// in\n    tag_156:\n    tag_155:\n        /* \"contracts/Lock.sol\":1627:1636  _receiver */\n      dup2\n        /* \"contracts/Lock.sol\":1599:1652  ChangeOrderStatus(_orderID, _receiver, status_choice) */\n      0xffffffffffffffffffffffffffffffffffffffff\n      and\n        /* \"contracts/Lock.sol\":1617:1625  _orderID */\n      dup4\n        /* \"contracts/Lock.sol\":1599:1652  ChangeOrderStatus(_orderID, _receiver, status_choice) */\n      0xcc091c952960b84af994b58e2349b735a74341ba5869f73ed41ce589750b6441\n      mload(0x40)\n      mload(0x40)\n      dup1\n      swap2\n      sub\n      swap1\n      log4\n        /* \"contracts/Lock.sol\":1382:1659  function paid(uint _orderID, address _receiver) public onlyOwner {... */\n      pop\n      pop\n      jump\t// out\n        /* \"contracts/Lock.sol\":797:822  Order[] public order_info */\n    tag_56:\n      0x04\n      dup2\n      dup2\n      sload\n      dup2\n      lt\n      tag_157\n      jumpi\n      0x00\n      dup1\n      revert\n    tag_157:\n      swap1\n      0x00\n      mstore\n      keccak256(0x00, 0x20)\n      swap1\n      0x02\n      mul\n      add\n      0x00\n      swap2\n      pop\n      swap1\n      pop\n      dup1\n      0x00\n      add\n      sload\n      swap1\n      dup1\n      0x01\n      add\n      0x00\n      swap1\n      sload\n      swap1\n      0x0100\n      exp\n      swap1\n      div\n      0xffffffffffffffffffffffffffffffffffffffff\n      and\n      swap1\n      dup1\n      0x01\n      add\n      0x14\n      swap1\n      sload\n      swap1\n      0x0100\n      exp\n      swap1\n      div\n      0xff\n      and\n      swap1\n      pop\n      dup4\n      jump\t// out\n        /* \"contracts/Lock.sol\":3022:3320  function returned(uint _orderID, address _receiver) public onlyOwner {... */\n    tag_62:\n        /* \"contracts/Lock.sol\":296:306  msg.sender */\n      caller\n        /* \"contracts/Lock.sol\":287:306  owner == msg.sender */\n      0xffffffffffffffffffffffffffffffffffffffff\n      and\n        /* \"contracts/Lock.sol\":287:292  owner */\n      0x00\n      dup1\n      sload\n      swap1\n      0x0100\n      exp\n      swap1\n      div\n      0xffffffffffffffffffffffffffffffffffffffff\n      and\n        /* \"contracts/Lock.sol\":287:306  owner == msg.sender */\n      0xffffffffffffffffffffffffffffffffffffffff\n      and\n      eq\n        /* \"contracts/Lock.sol\":279:324  require(owner == msg.sender, \"Not an owner!\") */\n      tag_160\n      jumpi\n      mload(0x40)\n      0x08c379a000000000000000000000000000000000000000000000000000000000\n      dup2\n      mstore\n      0x04\n      add\n      tag_161\n      swap1\n      tag_76\n      jump\t// in\n    tag_161:\n      mload(0x40)\n      dup1\n      swap2\n      sub\n      swap1\n      revert\n    tag_160:\n        /* \"contracts/Lock.sol\":3117:3145  Status.Returned_To_Warehouse */\n      0x06\n        /* \"contracts/Lock.sol\":3101:3114  status_choice */\n      0x02\n      0x00\n        /* \"contracts/Lock.sol\":3101:3145  status_choice = Status.Returned_To_Warehouse */\n      0x0100\n      exp\n      dup2\n      sload\n      dup2\n      0xff\n      mul\n      not\n      and\n      swap1\n      dup4\n      0x06\n      dup2\n      gt\n      iszero\n      tag_163\n      jumpi\n      tag_164\n      tag_80\n      jump\t// in\n    tag_164:\n    tag_163:\n      mul\n      or\n      swap1\n      sstore\n      pop\n        /* \"contracts/Lock.sol\":3155:3165  order_info */\n      0x04\n        /* \"contracts/Lock.sol\":3171:3244  Order({_orderID: _orderID, _receiver: _receiver, _status: status_choice}) */\n      mload(0x40)\n      dup1\n      0x60\n      add\n      0x40\n      mstore\n      dup1\n        /* \"contracts/Lock.sol\":3188:3196  _orderID */\n      dup5\n        /* \"contracts/Lock.sol\":3171:3244  Order({_orderID: _orderID, _receiver: _receiver, _status: status_choice}) */\n      dup2\n      mstore\n      0x20\n      add\n        /* \"contracts/Lock.sol\":3209:3218  _receiver */\n      dup4\n        /* \"contracts/Lock.sol\":3171:3244  Order({_orderID: _orderID, _receiver: _receiver, _status: status_choice}) */\n      0xffffffffffffffffffffffffffffffffffffffff\n      and\n      dup2\n      mstore\n      0x20\n      add\n        /* \"contracts/Lock.sol\":3229:3242  status_choice */\n      0x02\n      0x00\n      swap1\n      sload\n      swap1\n      0x0100\n      exp\n      swap1\n      div\n      0xff\n      and\n        /* \"contracts/Lock.sol\":3171:3244  Order({_orderID: _orderID, _receiver: _receiver, _status: status_choice}) */\n      0x06\n      dup2\n      gt\n      iszero\n      tag_165\n      jumpi\n      tag_166\n      tag_80\n      jump\t// in\n    tag_166:\n    tag_165:\n      dup2\n      mstore\n      pop\n        /* \"contracts/Lock.sol\":3155:3245  order_info.push(Order({_orderID: _orderID, _receiver: _receiver, _status: status_choice})) */\n      swap1\n      dup1\n      0x01\n      dup2\n      sload\n      add\n      dup1\n      dup3\n      sstore\n      dup1\n      swap2\n      pop\n      pop\n      0x01\n      swap1\n      sub\n      swap1\n      0x00\n      mstore\n      keccak256(0x00, 0x20)\n      swap1\n      0x02\n      mul\n      add\n      0x00\n      swap1\n      swap2\n      swap1\n      swap2\n      swap1\n      swap2\n      pop\n      0x00\n      dup3\n      add\n      mload\n      dup2\n      0x00\n      add\n      sstore\n      0x20\n      dup3\n      add\n      mload\n      dup2\n      0x01\n      add\n      exp(0x0100, 0x00)\n      dup2\n      sload\n      dup2\n      0xffffffffffffffffffffffffffffffffffffffff\n      mul\n      not\n      and\n      swap1\n      dup4\n      0xffffffffffffffffffffffffffffffffffffffff\n      and\n      mul\n      or\n      swap1\n      sstore\n      pop\n      0x40\n      dup3\n      add\n      mload\n      dup2\n      0x01\n      add\n      exp(0x0100, 0x14)\n      dup2\n      sload\n      dup2\n      0xff\n      mul\n      not\n      and\n      swap1\n      dup4\n      0x06\n      dup2\n      gt\n      iszero\n      tag_168\n      jumpi\n      tag_169\n      tag_80\n      jump\t// in\n    tag_169:\n    tag_168:\n      mul\n      or\n      swap1\n      sstore\n      pop\n      pop\n      pop\n        /* \"contracts/Lock.sol\":3299:3312  status_choice */\n      0x02\n      0x00\n      swap1\n      sload\n      swap1\n      0x0100\n      exp\n      swap1\n      div\n      0xff\n      and\n        /* \"contracts/Lock.sol\":3260:3313  ChangeOrderStatus(_orderID, _receiver, status_choice) */\n      0x06\n      dup2\n      gt\n      iszero\n      tag_170\n      jumpi\n      tag_171\n      tag_80\n      jump\t// in\n    tag_171:\n    tag_170:\n        /* \"contracts/Lock.sol\":3288:3297  _receiver */\n      dup2\n        /* \"contracts/Lock.sol\":3260:3313  ChangeOrderStatus(_orderID, _receiver, status_choice) */\n      0xffffffffffffffffffffffffffffffffffffffff\n      and\n        /* \"contracts/Lock.sol\":3278:3286  _orderID */\n      dup4\n        /* \"contracts/Lock.sol\":3260:3313  ChangeOrderStatus(_orderID, _receiver, status_choice) */\n      0xcc091c952960b84af994b58e2349b735a74341ba5869f73ed41ce589750b6441\n      mload(0x40)\n      mload(0x40)\n      dup1\n      swap2\n      sub\n      swap1\n      log4\n        /* \"contracts/Lock.sol\":3022:3320  function returned(uint _orderID, address _receiver) public onlyOwner {... */\n      pop\n      pop\n      jump\t// out\n        /* \"contracts/Lock.sol\":828:880  mapping(uint => OrderPayments) public order_payments */\n    tag_66:\n      mstore(0x20, 0x05)\n      dup1\n      0x00\n      mstore\n      keccak256(0x00, 0x40)\n      0x00\n      swap2\n      pop\n      swap1\n      pop\n      dup1\n      0x00\n      add\n      sload\n      swap1\n      dup1\n      0x01\n      add\n      0x00\n      swap1\n      sload\n      swap1\n      0x0100\n      exp\n      swap1\n      div\n      0xffffffffffffffffffffffffffffffffffffffff\n      and\n      swap1\n      dup1\n      0x02\n      add\n      sload\n      swap1\n      pop\n      dup4\n      jump\t// out\n        /* \"contracts/Lock.sol\":2731:3016  function canceled(uint _orderID, address _receiver) public onlyOwner {... */\n    tag_72:\n        /* \"contracts/Lock.sol\":296:306  msg.sender */\n      caller\n        /* \"contracts/Lock.sol\":287:306  owner == msg.sender */\n      0xffffffffffffffffffffffffffffffffffffffff\n      and\n        /* \"contracts/Lock.sol\":287:292  owner */\n      0x00\n      dup1\n      sload\n      swap1\n      0x0100\n      exp\n      swap1\n      div\n      0xffffffffffffffffffffffffffffffffffffffff\n      and\n        /* \"contracts/Lock.sol\":287:306  owner == msg.sender */\n      0xffffffffffffffffffffffffffffffffffffffff\n      and\n      eq\n        /* \"contracts/Lock.sol\":279:324  require(owner == msg.sender, \"Not an owner!\") */\n      tag_173\n      jumpi\n      mload(0x40)\n      0x08c379a000000000000000000000000000000000000000000000000000000000\n      dup2\n      mstore\n      0x04\n      add\n      tag_174\n      swap1\n      tag_76\n      jump\t// in\n    tag_174:\n      mload(0x40)\n      dup1\n      swap2\n      sub\n      swap1\n      revert\n    tag_173:\n        /* \"contracts/Lock.sol\":2826:2841  Status.Canceled */\n      0x05\n        /* \"contracts/Lock.sol\":2810:2823  status_choice */\n      0x02\n      0x00\n        /* \"contracts/Lock.sol\":2810:2841  status_choice = Status.Canceled */\n      0x0100\n      exp\n      dup2\n      sload\n      dup2\n      0xff\n      mul\n      not\n      and\n      swap1\n      dup4\n      0x06\n      dup2\n      gt\n      iszero\n      tag_176\n      jumpi\n      tag_177\n      tag_80\n      jump\t// in\n    tag_177:\n    tag_176:\n      mul\n      or\n      swap1\n      sstore\n      pop\n        /* \"contracts/Lock.sol\":2851:2861  order_info */\n      0x04\n        /* \"contracts/Lock.sol\":2867:2940  Order({_orderID: _orderID, _receiver: _receiver, _status: status_choice}) */\n      mload(0x40)\n      dup1\n      0x60\n      add\n      0x40\n      mstore\n      dup1\n        /* \"contracts/Lock.sol\":2884:2892  _orderID */\n      dup5\n        /* \"contracts/Lock.sol\":2867:2940  Order({_orderID: _orderID, _receiver: _receiver, _status: status_choice}) */\n      dup2\n      mstore\n      0x20\n      add\n        /* \"contracts/Lock.sol\":2905:2914  _receiver */\n      dup4\n        /* \"contracts/Lock.sol\":2867:2940  Order({_orderID: _orderID, _receiver: _receiver, _status: status_choice}) */\n      0xffffffffffffffffffffffffffffffffffffffff\n      and\n      dup2\n      mstore\n      0x20\n      add\n        /* \"contracts/Lock.sol\":2925:2938  status_choice */\n      0x02\n      0x00\n      swap1\n      sload\n      swap1\n      0x0100\n      exp\n      swap1\n      div\n      0xff\n      and\n        /* \"contracts/Lock.sol\":2867:2940  Order({_orderID: _orderID, _receiver: _receiver, _status: status_choice}) */\n      0x06\n      dup2\n      gt\n      iszero\n      tag_178\n      jumpi\n      tag_179\n      tag_80\n      jump\t// in\n    tag_179:\n    tag_178:\n      dup2\n      mstore\n      pop\n        /* \"contracts/Lock.sol\":2851:2941  order_info.push(Order({_orderID: _orderID, _receiver: _receiver, _status: status_choice})) */\n      swap1\n      dup1\n      0x01\n      dup2\n      sload\n      add\n      dup1\n      dup3\n      sstore\n      dup1\n      swap2\n      pop\n      pop\n      0x01\n      swap1\n      sub\n      swap1\n      0x00\n      mstore\n      keccak256(0x00, 0x20)\n      swap1\n      0x02\n      mul\n      add\n      0x00\n      swap1\n      swap2\n      swap1\n      swap2\n      swap1\n      swap2\n      pop\n      0x00\n      dup3\n      add\n      mload\n      dup2\n      0x00\n      add\n      sstore\n      0x20\n      dup3\n      add\n      mload\n      dup2\n      0x01\n      add\n      exp(0x0100, 0x00)\n      dup2\n      sload\n      dup2\n      0xffffffffffffffffffffffffffffffffffffffff\n      mul\n      not\n      and\n      swap1\n      dup4\n      0xffffffffffffffffffffffffffffffffffffffff\n      and\n      mul\n      or\n      swap1\n      sstore\n      pop\n      0x40\n      dup3\n      add\n      mload\n      dup2\n      0x01\n      add\n      exp(0x0100, 0x14)\n      dup2\n      sload\n      dup2\n      0xff\n      mul\n      not\n      and\n      swap1\n      dup4\n      0x06\n      dup2\n      gt\n      iszero\n      tag_181\n      jumpi\n      tag_182\n      tag_80\n      jump\t// in\n    tag_182:\n    tag_181:\n      mul\n      or\n      swap1\n      sstore\n      pop\n      pop\n      pop\n        /* \"contracts/Lock.sol\":2995:3008  status_choice */\n      0x02\n      0x00\n      swap1\n      sload\n      swap1\n      0x0100\n      exp\n      swap1\n      div\n      0xff\n      and\n        /* \"contracts/Lock.sol\":2956:3009  ChangeOrderStatus(_orderID, _receiver, status_choice) */\n      0x06\n      dup2\n      gt\n      iszero\n      tag_183\n      jumpi\n      tag_184\n      tag_80\n      jump\t// in\n    tag_184:\n    tag_183:\n        /* \"contracts/Lock.sol\":2984:2993  _receiver */\n      dup2\n        /* \"contracts/Lock.sol\":2956:3009  ChangeOrderStatus(_orderID, _receiver, status_choice) */\n      0xffffffffffffffffffffffffffffffffffffffff\n      and\n        /* \"contracts/Lock.sol\":2974:2982  _orderID */\n      dup4\n        /* \"contracts/Lock.sol\":2956:3009  ChangeOrderStatus(_orderID, _receiver, status_choice) */\n      0xcc091c952960b84af994b58e2349b735a74341ba5869f73ed41ce589750b6441\n      mload(0x40)\n      mload(0x40)\n      dup1\n      swap2\n      sub\n      swap1\n      log4\n        /* \"contracts/Lock.sol\":2731:3016  function canceled(uint _orderID, address _receiver) public onlyOwner {... */\n      pop\n      pop\n      jump\t// out\n        /* \"#utility.yul\":88:205   */\n    tag_186:\n        /* \"#utility.yul\":197:198   */\n      0x00\n        /* \"#utility.yul\":194:195   */\n      dup1\n        /* \"#utility.yul\":187:199   */\n      revert\n        /* \"#utility.yul\":334:411   */\n    tag_188:\n        /* \"#utility.yul\":371:378   */\n      0x00\n        /* \"#utility.yul\":400:405   */\n      dup2\n        /* \"#utility.yul\":389:405   */\n      swap1\n      pop\n        /* \"#utility.yul\":334:411   */\n      swap2\n      swap1\n      pop\n      jump\t// out\n        /* \"#utility.yul\":417:539   */\n    tag_189:\n        /* \"#utility.yul\":490:514   */\n      tag_219\n        /* \"#utility.yul\":508:513   */\n      dup2\n        /* \"#utility.yul\":490:514   */\n      tag_188\n      jump\t// in\n    tag_219:\n        /* \"#utility.yul\":483:488   */\n      dup2\n        /* \"#utility.yul\":480:515   */\n      eq\n        /* \"#utility.yul\":470:533   */\n      tag_220\n      jumpi\n        /* \"#utility.yul\":529:530   */\n      0x00\n        /* \"#utility.yul\":526:527   */\n      dup1\n        /* \"#utility.yul\":519:531   */\n      revert\n        /* \"#utility.yul\":470:533   */\n    tag_220:\n        /* \"#utility.yul\":417:539   */\n      pop\n      jump\t// out\n        /* \"#utility.yul\":545:684   */\n    tag_190:\n        /* \"#utility.yul\":591:596   */\n      0x00\n        /* \"#utility.yul\":629:635   */\n      dup2\n        /* \"#utility.yul\":616:636   */\n      calldataload\n        /* \"#utility.yul\":607:636   */\n      swap1\n      pop\n        /* \"#utility.yul\":645:678   */\n      tag_222\n        /* \"#utility.yul\":672:677   */\n      dup2\n        /* \"#utility.yul\":645:678   */\n      tag_189\n      jump\t// in\n    tag_222:\n        /* \"#utility.yul\":545:684   */\n      swap3\n      swap2\n      pop\n      pop\n      jump\t// out\n        /* \"#utility.yul\":690:816   */\n    tag_191:\n        /* \"#utility.yul\":727:734   */\n      0x00\n        /* \"#utility.yul\":767:809   */\n      0xffffffffffffffffffffffffffffffffffffffff\n        /* \"#utility.yul\":760:765   */\n      dup3\n        /* \"#utility.yul\":756:810   */\n      and\n        /* \"#utility.yul\":745:810   */\n      swap1\n      pop\n        /* \"#utility.yul\":690:816   */\n      swap2\n      swap1\n      pop\n      jump\t// out\n        /* \"#utility.yul\":822:918   */\n    tag_192:\n        /* \"#utility.yul\":859:866   */\n      0x00\n        /* \"#utility.yul\":888:912   */\n      tag_225\n        /* \"#utility.yul\":906:911   */\n      dup3\n        /* \"#utility.yul\":888:912   */\n      tag_191\n      jump\t// in\n    tag_225:\n        /* \"#utility.yul\":877:912   */\n      swap1\n      pop\n        /* \"#utility.yul\":822:918   */\n      swap2\n      swap1\n      pop\n      jump\t// out\n        /* \"#utility.yul\":924:1046   */\n    tag_193:\n        /* \"#utility.yul\":997:1021   */\n      tag_227\n        /* \"#utility.yul\":1015:1020   */\n      dup2\n        /* \"#utility.yul\":997:1021   */\n      tag_192\n      jump\t// in\n    tag_227:\n        /* \"#utility.yul\":990:995   */\n      dup2\n        /* \"#utility.yul\":987:1022   */\n      eq\n        /* \"#utility.yul\":977:1040   */\n      tag_228\n      jumpi\n        /* \"#utility.yul\":1036:1037   */\n      0x00\n        /* \"#utility.yul\":1033:1034   */\n      dup1\n        /* \"#utility.yul\":1026:1038   */\n      revert\n        /* \"#utility.yul\":977:1040   */\n    tag_228:\n        /* \"#utility.yul\":924:1046   */\n      pop\n      jump\t// out\n        /* \"#utility.yul\":1052:1191   */\n    tag_194:\n        /* \"#utility.yul\":1098:1103   */\n      0x00\n        /* \"#utility.yul\":1136:1142   */\n      dup2\n        /* \"#utility.yul\":1123:1143   */\n      calldataload\n        /* \"#utility.yul\":1114:1143   */\n      swap1\n      pop\n        /* \"#utility.yul\":1152:1185   */\n      tag_230\n        /* \"#utility.yul\":1179:1184   */\n      dup2\n        /* \"#utility.yul\":1152:1185   */\n      tag_193\n      jump\t// in\n    tag_230:\n        /* \"#utility.yul\":1052:1191   */\n      swap3\n      swap2\n      pop\n      pop\n      jump\t// out\n        /* \"#utility.yul\":1197:1671   */\n    tag_18:\n        /* \"#utility.yul\":1265:1271   */\n      0x00\n        /* \"#utility.yul\":1273:1279   */\n      dup1\n        /* \"#utility.yul\":1322:1324   */\n      0x40\n        /* \"#utility.yul\":1310:1319   */\n      dup4\n        /* \"#utility.yul\":1301:1308   */\n      dup6\n        /* \"#utility.yul\":1297:1320   */\n      sub\n        /* \"#utility.yul\":1293:1325   */\n      slt\n        /* \"#utility.yul\":1290:1409   */\n      iszero\n      tag_232\n      jumpi\n        /* \"#utility.yul\":1328:1407   */\n      tag_233\n      tag_186\n      jump\t// in\n    tag_233:\n        /* \"#utility.yul\":1290:1409   */\n    tag_232:\n        /* \"#utility.yul\":1448:1449   */\n      0x00\n        /* \"#utility.yul\":1473:1526   */\n      tag_234\n        /* \"#utility.yul\":1518:1525   */\n      dup6\n        /* \"#utility.yul\":1509:1515   */\n      dup3\n        /* \"#utility.yul\":1498:1507   */\n      dup7\n        /* \"#utility.yul\":1494:1516   */\n      add\n        /* \"#utility.yul\":1473:1526   */\n      tag_190\n      jump\t// in\n    tag_234:\n        /* \"#utility.yul\":1463:1526   */\n      swap3\n      pop\n        /* \"#utility.yul\":1419:1536   */\n      pop\n        /* \"#utility.yul\":1575:1577   */\n      0x20\n        /* \"#utility.yul\":1601:1654   */\n      tag_235\n        /* \"#utility.yul\":1646:1653   */\n      dup6\n        /* \"#utility.yul\":1637:1643   */\n      dup3\n        /* \"#utility.yul\":1626:1635   */\n      dup7\n        /* \"#utility.yul\":1622:1644   */\n      add\n        /* \"#utility.yul\":1601:1654   */\n      tag_194\n      jump\t// in\n    tag_235:\n        /* \"#utility.yul\":1591:1654   */\n      swap2\n      pop\n        /* \"#utility.yul\":1546:1664   */\n      pop\n        /* \"#utility.yul\":1197:1671   */\n      swap3\n      pop\n      swap3\n      swap1\n      pop\n      jump\t// out\n        /* \"#utility.yul\":1677:2006   */\n    tag_26:\n        /* \"#utility.yul\":1736:1742   */\n      0x00\n        /* \"#utility.yul\":1785:1787   */\n      0x20\n        /* \"#utility.yul\":1773:1782   */\n      dup3\n        /* \"#utility.yul\":1764:1771   */\n      dup5\n        /* \"#utility.yul\":1760:1783   */\n      sub\n        /* \"#utility.yul\":1756:1788   */\n      slt\n        /* \"#utility.yul\":1753:1872   */\n      iszero\n      tag_237\n      jumpi\n        /* \"#utility.yul\":1791:1870   */\n      tag_238\n      tag_186\n      jump\t// in\n    tag_238:\n        /* \"#utility.yul\":1753:1872   */\n    tag_237:\n        /* \"#utility.yul\":1911:1912   */\n      0x00\n        /* \"#utility.yul\":1936:1989   */\n      tag_239\n        /* \"#utility.yul\":1981:1988   */\n      dup5\n        /* \"#utility.yul\":1972:1978   */\n      dup3\n        /* \"#utility.yul\":1961:1970   */\n      dup6\n        /* \"#utility.yul\":1957:1979   */\n      add\n        /* \"#utility.yul\":1936:1989   */\n      tag_190\n      jump\t// in\n    tag_239:\n        /* \"#utility.yul\":1926:1989   */\n      swap2\n      pop\n        /* \"#utility.yul\":1882:1999   */\n      pop\n        /* \"#utility.yul\":1677:2006   */\n      swap3\n      swap2\n      pop\n      pop\n      jump\t// out\n        /* \"#utility.yul\":2012:2341   */\n    tag_31:\n        /* \"#utility.yul\":2071:2077   */\n      0x00\n        /* \"#utility.yul\":2120:2122   */\n      0x20\n        /* \"#utility.yul\":2108:2117   */\n      dup3\n        /* \"#utility.yul\":2099:2106   */\n      dup5\n        /* \"#utility.yul\":2095:2118   */\n      sub\n        /* \"#utility.yul\":2091:2123   */\n      slt\n        /* \"#utility.yul\":2088:2207   */\n      iszero\n      tag_241\n      jumpi\n        /* \"#utility.yul\":2126:2205   */\n      tag_242\n      tag_186\n      jump\t// in\n    tag_242:\n        /* \"#utility.yul\":2088:2207   */\n    tag_241:\n        /* \"#utility.yul\":2246:2247   */\n      0x00\n        /* \"#utility.yul\":2271:2324   */\n      tag_243\n        /* \"#utility.yul\":2316:2323   */\n      dup5\n        /* \"#utility.yul\":2307:2313   */\n      dup3\n        /* \"#utility.yul\":2296:2305   */\n      dup6\n        /* \"#utility.yul\":2292:2314   */\n      add\n        /* \"#utility.yul\":2271:2324   */\n      tag_194\n      jump\t// in\n    tag_243:\n        /* \"#utility.yul\":2261:2324   */\n      swap2\n      pop\n        /* \"#utility.yul\":2217:2334   */\n      pop\n        /* \"#utility.yul\":2012:2341   */\n      swap3\n      swap2\n      pop\n      pop\n      jump\t// out\n        /* \"#utility.yul\":2347:2446   */\n    tag_195:\n        /* \"#utility.yul\":2399:2405   */\n      0x00\n        /* \"#utility.yul\":2433:2438   */\n      dup2\n        /* \"#utility.yul\":2427:2439   */\n      mload\n        /* \"#utility.yul\":2417:2439   */\n      swap1\n      pop\n        /* \"#utility.yul\":2347:2446   */\n      swap2\n      swap1\n      pop\n      jump\t// out\n        /* \"#utility.yul\":2452:2621   */\n    tag_196:\n        /* \"#utility.yul\":2536:2547   */\n      0x00\n        /* \"#utility.yul\":2570:2576   */\n      dup3\n        /* \"#utility.yul\":2565:2568   */\n      dup3\n        /* \"#utility.yul\":2558:2577   */\n      mstore\n        /* \"#utility.yul\":2610:2614   */\n      0x20\n        /* \"#utility.yul\":2605:2608   */\n      dup3\n        /* \"#utility.yul\":2601:2615   */\n      add\n        /* \"#utility.yul\":2586:2615   */\n      swap1\n      pop\n        /* \"#utility.yul\":2452:2621   */\n      swap3\n      swap2\n      pop\n      pop\n      jump\t// out\n        /* \"#utility.yul\":2627:2934   */\n    tag_197:\n        /* \"#utility.yul\":2695:2696   */\n      0x00\n        /* \"#utility.yul\":2705:2818   */\n    tag_247:\n        /* \"#utility.yul\":2719:2725   */\n      dup4\n        /* \"#utility.yul\":2716:2717   */\n      dup2\n        /* \"#utility.yul\":2713:2726   */\n      lt\n        /* \"#utility.yul\":2705:2818   */\n      iszero\n      tag_249\n      jumpi\n        /* \"#utility.yul\":2804:2805   */\n      dup1\n        /* \"#utility.yul\":2799:2802   */\n      dup3\n        /* \"#utility.yul\":2795:2806   */\n      add\n        /* \"#utility.yul\":2789:2807   */\n      mload\n        /* \"#utility.yul\":2785:2786   */\n      dup2\n        /* \"#utility.yul\":2780:2783   */\n      dup5\n        /* \"#utility.yul\":2776:2787   */\n      add\n        /* \"#utility.yul\":2769:2808   */\n      mstore\n        /* \"#utility.yul\":2741:2743   */\n      0x20\n        /* \"#utility.yul\":2738:2739   */\n      dup2\n        /* \"#utility.yul\":2734:2744   */\n      add\n        /* \"#utility.yul\":2729:2744   */\n      swap1\n      pop\n        /* \"#utility.yul\":2705:2818   */\n      jump(tag_247)\n    tag_249:\n        /* \"#utility.yul\":2836:2842   */\n      dup4\n        /* \"#utility.yul\":2833:2834   */\n      dup2\n        /* \"#utility.yul\":2830:2843   */\n      gt\n        /* \"#utility.yul\":2827:2928   */\n      iszero\n      tag_250\n      jumpi\n        /* \"#utility.yul\":2916:2917   */\n      0x00\n        /* \"#utility.yul\":2907:2913   */\n      dup5\n        /* \"#utility.yul\":2902:2905   */\n      dup5\n        /* \"#utility.yul\":2898:2914   */\n      add\n        /* \"#utility.yul\":2891:2918   */\n      mstore\n        /* \"#utility.yul\":2827:2928   */\n    tag_250:\n        /* \"#utility.yul\":2676:2934   */\n      pop\n        /* \"#utility.yul\":2627:2934   */\n      pop\n      pop\n      pop\n      jump\t// out\n        /* \"#utility.yul\":2940:3042   */\n    tag_198:\n        /* \"#utility.yul\":2981:2987   */\n      0x00\n        /* \"#utility.yul\":3032:3034   */\n      0x1f\n        /* \"#utility.yul\":3028:3035   */\n      not\n        /* \"#utility.yul\":3023:3025   */\n      0x1f\n        /* \"#utility.yul\":3016:3021   */\n      dup4\n        /* \"#utility.yul\":3012:3026   */\n      add\n        /* \"#utility.yul\":3008:3036   */\n      and\n        /* \"#utility.yul\":2998:3036   */\n      swap1\n      pop\n        /* \"#utility.yul\":2940:3042   */\n      swap2\n      swap1\n      pop\n      jump\t// out\n        /* \"#utility.yul\":3048:3412   */\n    tag_199:\n        /* \"#utility.yul\":3136:3139   */\n      0x00\n        /* \"#utility.yul\":3164:3203   */\n      tag_253\n        /* \"#utility.yul\":3197:3202   */\n      dup3\n        /* \"#utility.yul\":3164:3203   */\n      tag_195\n      jump\t// in\n    tag_253:\n        /* \"#utility.yul\":3219:3290   */\n      tag_254\n        /* \"#utility.yul\":3283:3289   */\n      dup2\n        /* \"#utility.yul\":3278:3281   */\n      dup6\n        /* \"#utility.yul\":3219:3290   */\n      tag_196\n      jump\t// in\n    tag_254:\n        /* \"#utility.yul\":3212:3290   */\n      swap4\n      pop\n        /* \"#utility.yul\":3299:3351   */\n      tag_255\n        /* \"#utility.yul\":3344:3350   */\n      dup2\n        /* \"#utility.yul\":3339:3342   */\n      dup6\n        /* \"#utility.yul\":3332:3336   */\n      0x20\n        /* \"#utility.yul\":3325:3330   */\n      dup7\n        /* \"#utility.yul\":3321:3337   */\n      add\n        /* \"#utility.yul\":3299:3351   */\n      tag_197\n      jump\t// in\n    tag_255:\n        /* \"#utility.yul\":3376:3405   */\n      tag_256\n        /* \"#utility.yul\":3398:3404   */\n      dup2\n        /* \"#utility.yul\":3376:3405   */\n      tag_198\n      jump\t// in\n    tag_256:\n        /* \"#utility.yul\":3371:3374   */\n      dup5\n        /* \"#utility.yul\":3367:3406   */\n      add\n        /* \"#utility.yul\":3360:3406   */\n      swap2\n      pop\n        /* \"#utility.yul\":3140:3412   */\n      pop\n        /* \"#utility.yul\":3048:3412   */\n      swap3\n      swap2\n      pop\n      pop\n      jump\t// out\n        /* \"#utility.yul\":3418:3508   */\n    tag_200:\n        /* \"#utility.yul\":3452:3459   */\n      0x00\n        /* \"#utility.yul\":3495:3500   */\n      dup2\n        /* \"#utility.yul\":3488:3501   */\n      iszero\n        /* \"#utility.yul\":3481:3502   */\n      iszero\n        /* \"#utility.yul\":3470:3502   */\n      swap1\n      pop\n        /* \"#utility.yul\":3418:3508   */\n      swap2\n      swap1\n      pop\n      jump\t// out\n        /* \"#utility.yul\":3514:3623   */\n    tag_201:\n        /* \"#utility.yul\":3595:3616   */\n      tag_259\n        /* \"#utility.yul\":3610:3615   */\n      dup2\n        /* \"#utility.yul\":3595:3616   */\n      tag_200\n      jump\t// in\n    tag_259:\n        /* \"#utility.yul\":3590:3593   */\n      dup3\n        /* \"#utility.yul\":3583:3617   */\n      mstore\n        /* \"#utility.yul\":3514:3623   */\n      pop\n      pop\n      jump\t// out\n        /* \"#utility.yul\":3629:4040   */\n    tag_34:\n        /* \"#utility.yul\":3764:3768   */\n      0x00\n        /* \"#utility.yul\":3802:3804   */\n      0x40\n        /* \"#utility.yul\":3791:3800   */\n      dup3\n        /* \"#utility.yul\":3787:3805   */\n      add\n        /* \"#utility.yul\":3779:3805   */\n      swap1\n      pop\n        /* \"#utility.yul\":3851:3860   */\n      dup2\n        /* \"#utility.yul\":3845:3849   */\n      dup2\n        /* \"#utility.yul\":3841:3861   */\n      sub\n        /* \"#utility.yul\":3837:3838   */\n      0x00\n        /* \"#utility.yul\":3826:3835   */\n      dup4\n        /* \"#utility.yul\":3822:3839   */\n      add\n        /* \"#utility.yul\":3815:3862   */\n      mstore\n        /* \"#utility.yul\":3879:3957   */\n      tag_261\n        /* \"#utility.yul\":3952:3956   */\n      dup2\n        /* \"#utility.yul\":3943:3949   */\n      dup6\n        /* \"#utility.yul\":3879:3957   */\n      tag_199\n      jump\t// in\n    tag_261:\n        /* \"#utility.yul\":3871:3957   */\n      swap1\n      pop\n        /* \"#utility.yul\":3967:4033   */\n      tag_262\n        /* \"#utility.yul\":4029:4031   */\n      0x20\n        /* \"#utility.yul\":4018:4027   */\n      dup4\n        /* \"#utility.yul\":4014:4032   */\n      add\n        /* \"#utility.yul\":4005:4011   */\n      dup5\n        /* \"#utility.yul\":3967:4033   */\n      tag_201\n      jump\t// in\n    tag_262:\n        /* \"#utility.yul\":3629:4040   */\n      swap4\n      swap3\n      pop\n      pop\n      pop\n      jump\t// out\n        /* \"#utility.yul\":4046:4256   */\n    tag_44:\n        /* \"#utility.yul\":4133:4137   */\n      0x00\n        /* \"#utility.yul\":4171:4173   */\n      0x20\n        /* \"#utility.yul\":4160:4169   */\n      dup3\n        /* \"#utility.yul\":4156:4174   */\n      add\n        /* \"#utility.yul\":4148:4174   */\n      swap1\n      pop\n        /* \"#utility.yul\":4184:4249   */\n      tag_264\n        /* \"#utility.yul\":4246:4247   */\n      0x00\n        /* \"#utility.yul\":4235:4244   */\n      dup4\n        /* \"#utility.yul\":4231:4248   */\n      add\n        /* \"#utility.yul\":4222:4228   */\n      dup5\n        /* \"#utility.yul\":4184:4249   */\n      tag_201\n      jump\t// in\n    tag_264:\n        /* \"#utility.yul\":4046:4256   */\n      swap3\n      swap2\n      pop\n      pop\n      jump\t// out\n        /* \"#utility.yul\":4262:4380   */\n    tag_202:\n        /* \"#utility.yul\":4349:4373   */\n      tag_266\n        /* \"#utility.yul\":4367:4372   */\n      dup2\n        /* \"#utility.yul\":4349:4373   */\n      tag_188\n      jump\t// in\n    tag_266:\n        /* \"#utility.yul\":4344:4347   */\n      dup3\n        /* \"#utility.yul\":4337:4374   */\n      mstore\n        /* \"#utility.yul\":4262:4380   */\n      pop\n      pop\n      jump\t// out\n        /* \"#utility.yul\":4386:4504   */\n    tag_203:\n        /* \"#utility.yul\":4473:4497   */\n      tag_268\n        /* \"#utility.yul\":4491:4496   */\n      dup2\n        /* \"#utility.yul\":4473:4497   */\n      tag_192\n      jump\t// in\n    tag_268:\n        /* \"#utility.yul\":4468:4471   */\n      dup3\n        /* \"#utility.yul\":4461:4498   */\n      mstore\n        /* \"#utility.yul\":4386:4504   */\n      pop\n      pop\n      jump\t// out\n        /* \"#utility.yul\":4510:4690   */\n    tag_80:\n        /* \"#utility.yul\":4558:4635   */\n      0x4e487b7100000000000000000000000000000000000000000000000000000000\n        /* \"#utility.yul\":4555:4556   */\n      0x00\n        /* \"#utility.yul\":4548:4636   */\n      mstore\n        /* \"#utility.yul\":4655:4659   */\n      0x21\n        /* \"#utility.yul\":4652:4653   */\n      0x04\n        /* \"#utility.yul\":4645:4660   */\n      mstore\n        /* \"#utility.yul\":4679:4683   */\n      0x24\n        /* \"#utility.yul\":4676:4677   */\n      0x00\n        /* \"#utility.yul\":4669:4684   */\n      revert\n        /* \"#utility.yul\":4696:4810   */\n    tag_204:\n        /* \"#utility.yul\":4778:4779   */\n      0x07\n        /* \"#utility.yul\":4771:4776   */\n      dup2\n        /* \"#utility.yul\":4768:4780   */\n      lt\n        /* \"#utility.yul\":4758:4804   */\n      tag_271\n      jumpi\n        /* \"#utility.yul\":4784:4802   */\n      tag_272\n      tag_80\n      jump\t// in\n    tag_272:\n        /* \"#utility.yul\":4758:4804   */\n    tag_271:\n        /* \"#utility.yul\":4696:4810   */\n      pop\n      jump\t// out\n        /* \"#utility.yul\":4816:4945   */\n    tag_205:\n        /* \"#utility.yul\":4862:4869   */\n      0x00\n        /* \"#utility.yul\":4891:4896   */\n      dup2\n        /* \"#utility.yul\":4880:4896   */\n      swap1\n      pop\n        /* \"#utility.yul\":4897:4939   */\n      tag_274\n        /* \"#utility.yul\":4933:4938   */\n      dup3\n        /* \"#utility.yul\":4897:4939   */\n      tag_204\n      jump\t// in\n    tag_274:\n        /* \"#utility.yul\":4816:4945   */\n      swap2\n      swap1\n      pop\n      jump\t// out\n        /* \"#utility.yul\":4951:5080   */\n    tag_206:\n        /* \"#utility.yul\":5008:5017   */\n      0x00\n        /* \"#utility.yul\":5041:5074   */\n      tag_276\n        /* \"#utility.yul\":5068:5073   */\n      dup3\n        /* \"#utility.yul\":5041:5074   */\n      tag_205\n      jump\t// in\n    tag_276:\n        /* \"#utility.yul\":5028:5074   */\n      swap1\n      pop\n        /* \"#utility.yul\":4951:5080   */\n      swap2\n      swap1\n      pop\n      jump\t// out\n        /* \"#utility.yul\":5086:5231   */\n    tag_207:\n        /* \"#utility.yul\":5180:5224   */\n      tag_278\n        /* \"#utility.yul\":5218:5223   */\n      dup2\n        /* \"#utility.yul\":5180:5224   */\n      tag_206\n      jump\t// in\n    tag_278:\n        /* \"#utility.yul\":5175:5178   */\n      dup3\n        /* \"#utility.yul\":5168:5225   */\n      mstore\n        /* \"#utility.yul\":5086:5231   */\n      pop\n      pop\n      jump\t// out\n        /* \"#utility.yul\":5237:5693   */\n    tag_58:\n        /* \"#utility.yul\":5393:5397   */\n      0x00\n        /* \"#utility.yul\":5431:5433   */\n      0x60\n        /* \"#utility.yul\":5420:5429   */\n      dup3\n        /* \"#utility.yul\":5416:5434   */\n      add\n        /* \"#utility.yul\":5408:5434   */\n      swap1\n      pop\n        /* \"#utility.yul\":5444:5515   */\n      tag_280\n        /* \"#utility.yul\":5512:5513   */\n      0x00\n        /* \"#utility.yul\":5501:5510   */\n      dup4\n        /* \"#utility.yul\":5497:5514   */\n      add\n        /* \"#utility.yul\":5488:5494   */\n      dup7\n        /* \"#utility.yul\":5444:5515   */\n      tag_202\n      jump\t// in\n    tag_280:\n        /* \"#utility.yul\":5525:5597   */\n      tag_281\n        /* \"#utility.yul\":5593:5595   */\n      0x20\n        /* \"#utility.yul\":5582:5591   */\n      dup4\n        /* \"#utility.yul\":5578:5596   */\n      add\n        /* \"#utility.yul\":5569:5575   */\n      dup6\n        /* \"#utility.yul\":5525:5597   */\n      tag_203\n      jump\t// in\n    tag_281:\n        /* \"#utility.yul\":5607:5686   */\n      tag_282\n        /* \"#utility.yul\":5682:5684   */\n      0x40\n        /* \"#utility.yul\":5671:5680   */\n      dup4\n        /* \"#utility.yul\":5667:5685   */\n      add\n        /* \"#utility.yul\":5658:5664   */\n      dup5\n        /* \"#utility.yul\":5607:5686   */\n      tag_207\n      jump\t// in\n    tag_282:\n        /* \"#utility.yul\":5237:5693   */\n      swap5\n      swap4\n      pop\n      pop\n      pop\n      pop\n      jump\t// out\n        /* \"#utility.yul\":5699:6141   */\n    tag_68:\n        /* \"#utility.yul\":5848:5852   */\n      0x00\n        /* \"#utility.yul\":5886:5888   */\n      0x60\n        /* \"#utility.yul\":5875:5884   */\n      dup3\n        /* \"#utility.yul\":5871:5889   */\n      add\n        /* \"#utility.yul\":5863:5889   */\n      swap1\n      pop\n        /* \"#utility.yul\":5899:5970   */\n      tag_284\n        /* \"#utility.yul\":5967:5968   */\n      0x00\n        /* \"#utility.yul\":5956:5965   */\n      dup4\n        /* \"#utility.yul\":5952:5969   */\n      add\n        /* \"#utility.yul\":5943:5949   */\n      dup7\n        /* \"#utility.yul\":5899:5970   */\n      tag_202\n      jump\t// in\n    tag_284:\n        /* \"#utility.yul\":5980:6052   */\n      tag_285\n        /* \"#utility.yul\":6048:6050   */\n      0x20\n        /* \"#utility.yul\":6037:6046   */\n      dup4\n        /* \"#utility.yul\":6033:6051   */\n      add\n        /* \"#utility.yul\":6024:6030   */\n      dup6\n        /* \"#utility.yul\":5980:6052   */\n      tag_203\n      jump\t// in\n    tag_285:\n        /* \"#utility.yul\":6062:6134   */\n      tag_286\n        /* \"#utility.yul\":6130:6132   */\n      0x40\n        /* \"#utility.yul\":6119:6128   */\n      dup4\n        /* \"#utility.yul\":6115:6133   */\n      add\n        /* \"#utility.yul\":6106:6112   */\n      dup5\n        /* \"#utility.yul\":6062:6134   */\n      tag_202\n      jump\t// in\n    tag_286:\n        /* \"#utility.yul\":5699:6141   */\n      swap5\n      swap4\n      pop\n      pop\n      pop\n      pop\n      jump\t// out\n        /* \"#utility.yul\":6147:6310   */\n    tag_208:\n        /* \"#utility.yul\":6287:6302   */\n      0x4e6f7420616e206f776e65722100000000000000000000000000000000000000\n        /* \"#utility.yul\":6283:6284   */\n      0x00\n        /* \"#utility.yul\":6275:6281   */\n      dup3\n        /* \"#utility.yul\":6271:6285   */\n      add\n        /* \"#utility.yul\":6264:6303   */\n      mstore\n        /* \"#utility.yul\":6147:6310   */\n      pop\n      jump\t// out\n        /* \"#utility.yul\":6316:6682   */\n    tag_209:\n        /* \"#utility.yul\":6458:6461   */\n      0x00\n        /* \"#utility.yul\":6479:6546   */\n      tag_289\n        /* \"#utility.yul\":6543:6545   */\n      0x0d\n        /* \"#utility.yul\":6538:6541   */\n      dup4\n        /* \"#utility.yul\":6479:6546   */\n      tag_196\n      jump\t// in\n    tag_289:\n        /* \"#utility.yul\":6472:6546   */\n      swap2\n      pop\n        /* \"#utility.yul\":6555:6648   */\n      tag_290\n        /* \"#utility.yul\":6644:6647   */\n      dup3\n        /* \"#utility.yul\":6555:6648   */\n      tag_208\n      jump\t// in\n    tag_290:\n        /* \"#utility.yul\":6673:6675   */\n      0x20\n        /* \"#utility.yul\":6668:6671   */\n      dup3\n        /* \"#utility.yul\":6664:6676   */\n      add\n        /* \"#utility.yul\":6657:6676   */\n      swap1\n      pop\n        /* \"#utility.yul\":6316:6682   */\n      swap2\n      swap1\n      pop\n      jump\t// out\n        /* \"#utility.yul\":6688:7107   */\n    tag_76:\n        /* \"#utility.yul\":6854:6858   */\n      0x00\n        /* \"#utility.yul\":6892:6894   */\n      0x20\n        /* \"#utility.yul\":6881:6890   */\n      dup3\n        /* \"#utility.yul\":6877:6895   */\n      add\n        /* \"#utility.yul\":6869:6895   */\n      swap1\n      pop\n        /* \"#utility.yul\":6941:6950   */\n      dup2\n        /* \"#utility.yul\":6935:6939   */\n      dup2\n        /* \"#utility.yul\":6931:6951   */\n      sub\n        /* \"#utility.yul\":6927:6928   */\n      0x00\n        /* \"#utility.yul\":6916:6925   */\n      dup4\n        /* \"#utility.yul\":6912:6929   */\n      add\n        /* \"#utility.yul\":6905:6952   */\n      mstore\n        /* \"#utility.yul\":6969:7100   */\n      tag_292\n        /* \"#utility.yul\":7095:7099   */\n      dup2\n        /* \"#utility.yul\":6969:7100   */\n      tag_209\n      jump\t// in\n    tag_292:\n        /* \"#utility.yul\":6961:7100   */\n      swap1\n      pop\n        /* \"#utility.yul\":6688:7107   */\n      swap2\n      swap1\n      pop\n      jump\t// out\n        /* \"#utility.yul\":7113:7293   */\n    tag_210:\n        /* \"#utility.yul\":7161:7238   */\n      0x4e487b7100000000000000000000000000000000000000000000000000000000\n        /* \"#utility.yul\":7158:7159   */\n      0x00\n        /* \"#utility.yul\":7151:7239   */\n      mstore\n        /* \"#utility.yul\":7258:7262   */\n      0x22\n        /* \"#utility.yul\":7255:7256   */\n      0x04\n        /* \"#utility.yul\":7248:7263   */\n      mstore\n        /* \"#utility.yul\":7282:7286   */\n      0x24\n        /* \"#utility.yul\":7279:7280   */\n      0x00\n        /* \"#utility.yul\":7272:7287   */\n      revert\n        /* \"#utility.yul\":7299:7619   */\n    tag_103:\n        /* \"#utility.yul\":7343:7349   */\n      0x00\n        /* \"#utility.yul\":7380:7381   */\n      0x02\n        /* \"#utility.yul\":7374:7378   */\n      dup3\n        /* \"#utility.yul\":7370:7382   */\n      div\n        /* \"#utility.yul\":7360:7382   */\n      swap1\n      pop\n        /* \"#utility.yul\":7427:7428   */\n      0x01\n        /* \"#utility.yul\":7421:7425   */\n      dup3\n        /* \"#utility.yul\":7417:7429   */\n      and\n        /* \"#utility.yul\":7448:7466   */\n      dup1\n        /* \"#utility.yul\":7438:7519   */\n      tag_295\n      jumpi\n        /* \"#utility.yul\":7504:7508   */\n      0x7f\n        /* \"#utility.yul\":7496:7502   */\n      dup3\n        /* \"#utility.yul\":7492:7509   */\n      and\n        /* \"#utility.yul\":7482:7509   */\n      swap2\n      pop\n        /* \"#utility.yul\":7438:7519   */\n    tag_295:\n        /* \"#utility.yul\":7566:7568   */\n      0x20\n        /* \"#utility.yul\":7558:7564   */\n      dup3\n        /* \"#utility.yul\":7555:7569   */\n      lt\n        /* \"#utility.yul\":7535:7553   */\n      dup2\n        /* \"#utility.yul\":7532:7570   */\n      eq\n        /* \"#utility.yul\":7529:7613   */\n      iszero\n      tag_296\n      jumpi\n        /* \"#utility.yul\":7585:7603   */\n      tag_297\n      tag_210\n      jump\t// in\n    tag_297:\n        /* \"#utility.yul\":7529:7613   */\n    tag_296:\n        /* \"#utility.yul\":7350:7619   */\n      pop\n        /* \"#utility.yul\":7299:7619   */\n      swap2\n      swap1\n      pop\n      jump\t// out\n        /* \"#utility.yul\":7625:7791   */\n    tag_211:\n        /* \"#utility.yul\":7765:7783   */\n      0x496e76616c6964206f7264657220494400000000000000000000000000000000\n        /* \"#utility.yul\":7761:7762   */\n      0x00\n        /* \"#utility.yul\":7753:7759   */\n      dup3\n        /* \"#utility.yul\":7749:7763   */\n      add\n        /* \"#utility.yul\":7742:7784   */\n      mstore\n        /* \"#utility.yul\":7625:7791   */\n      pop\n      jump\t// out\n        /* \"#utility.yul\":7797:8163   */\n    tag_212:\n        /* \"#utility.yul\":7939:7942   */\n      0x00\n        /* \"#utility.yul\":7960:8027   */\n      tag_300\n        /* \"#utility.yul\":8024:8026   */\n      0x10\n        /* \"#utility.yul\":8019:8022   */\n      dup4\n        /* \"#utility.yul\":7960:8027   */\n      tag_196\n      jump\t// in\n    tag_300:\n        /* \"#utility.yul\":7953:8027   */\n      swap2\n      pop\n        /* \"#utility.yul\":8036:8129   */\n      tag_301\n        /* \"#utility.yul\":8125:8128   */\n      dup3\n        /* \"#utility.yul\":8036:8129   */\n      tag_211\n      jump\t// in\n    tag_301:\n        /* \"#utility.yul\":8154:8156   */\n      0x20\n        /* \"#utility.yul\":8149:8152   */\n      dup3\n        /* \"#utility.yul\":8145:8157   */\n      add\n        /* \"#utility.yul\":8138:8157   */\n      swap1\n      pop\n        /* \"#utility.yul\":7797:8163   */\n      swap2\n      swap1\n      pop\n      jump\t// out\n        /* \"#utility.yul\":8169:8588   */\n    tag_141:\n        /* \"#utility.yul\":8335:8339   */\n      0x00\n        /* \"#utility.yul\":8373:8375   */\n      0x20\n        /* \"#utility.yul\":8362:8371   */\n      dup3\n        /* \"#utility.yul\":8358:8376   */\n      add\n        /* \"#utility.yul\":8350:8376   */\n      swap1\n      pop\n        /* \"#utility.yul\":8422:8431   */\n      dup2\n        /* \"#utility.yul\":8416:8420   */\n      dup2\n        /* \"#utility.yul\":8412:8432   */\n      sub\n        /* \"#utility.yul\":8408:8409   */\n      0x00\n        /* \"#utility.yul\":8397:8406   */\n      dup4\n        /* \"#utility.yul\":8393:8410   */\n      add\n        /* \"#utility.yul\":8386:8433   */\n      mstore\n        /* \"#utility.yul\":8450:8581   */\n      tag_303\n        /* \"#utility.yul\":8576:8580   */\n      dup2\n        /* \"#utility.yul\":8450:8581   */\n      tag_212\n      jump\t// in\n    tag_303:\n        /* \"#utility.yul\":8442:8581   */\n      swap1\n      pop\n        /* \"#utility.yul\":8169:8588   */\n      swap2\n      swap1\n      pop\n      jump\t// out\n\n    auxdata: 0xa2646970667358221220e560e8318c7178859e7e6cbfe840fa0a8cc502c461f8cef3f4f571dc3188460d64736f6c634300080a0033\n}\n",
				"bytecode": {
					"linkReferences": {},
					"object": "608060405234801561001057600080fd5b50336000806101000a81548173ffffffffffffffffffffffffffffffffffffffff021916908373ffffffffffffffffffffffffffffffffffffffff1602179055506001600360008060009054906101000a900473ffffffffffffffffffffffffffffffffffffffff1673ffffffffffffffffffffffffffffffffffffffff1673ffffffffffffffffffffffffffffffffffffffff16815260200190815260200160002060010160006101000a81548160ff021916908315150217905550611a8c806100dc6000396000f3fe6080604052600436106100a75760003560e01c80637527b350116100645780637527b350146101be578063a031fb7f146101e7578063a7c4752514610210578063c100b8151461024f578063cbb11c3714610278578063cca6fe54146102b7576100a7565b806317adafd1146100ac57806327739afe146100d55780633194d29c146100fe578063429b62e51461011a578063697a4f05146101585780637048027514610181575b600080fd5b3480156100b857600080fd5b506100d360048036038101906100ce9190611681565b6102e0565b005b3480156100e157600080fd5b506100fc60048036038101906100f79190611681565b610503565b005b610118600480360381019061011391906116c1565b610726565b005b34801561012657600080fd5b50610141600480360381019061013c91906116ee565b610804565b60405161014f9291906117cf565b60405180910390f35b34801561016457600080fd5b5061017f600480360381019061017a9190611681565b6108bd565b005b34801561018d57600080fd5b506101a860048036038101906101a391906116ee565b610adf565b6040516101b591906117ff565b60405180910390f35b3480156101ca57600080fd5b506101e560048036038101906101e09190611681565b610bd0565b005b3480156101f357600080fd5b5061020e60048036038101906102099190611681565b610ece565b005b34801561021c57600080fd5b50610237600480360381019061023291906116c1565b6110f1565b604051610246939291906118af565b60405180910390f35b34801561025b57600080fd5b5061027660048036038101906102719190611681565b611158565b005b34801561028457600080fd5b5061029f600480360381019061029a91906116c1565b61137b565b6040516102ae939291906118e6565b60405180910390f35b3480156102c357600080fd5b506102de60048036038101906102d99190611681565b6113c5565b005b3373ffffffffffffffffffffffffffffffffffffffff1660008054906101000a900473ffffffffffffffffffffffffffffffffffffffff1673ffffffffffffffffffffffffffffffffffffffff161461036e576040517f08c379a000000000000000000000000000000000000000000000000000000000815260040161036590611969565b60405180910390fd5b6000600260006101000a81548160ff0219169083600681111561039457610393611838565b5b0217905550600460405180606001604052808481526020018373ffffffffffffffffffffffffffffffffffffffff168152602001600260009054906101000a900460ff1660068111156103ea576103e9611838565b5b81525090806001815401808255809150506001900390600052602060002090600202016000909190919091506000820151816000015560208201518160010160006101000a81548173ffffffffffffffffffffffffffffffffffffffff021916908373ffffffffffffffffffffffffffffffffffffffff16021790555060408201518160010160146101000a81548160ff0219169083600681111561049257610491611838565b5b02179055505050600260009054906101000a900460ff1660068111156104bb576104ba611838565b5b8173ffffffffffffffffffffffffffffffffffffffff16837fcc091c952960b84af994b58e2349b735a74341ba5869f73ed41ce589750b644160405160405180910390a45050565b3373ffffffffffffffffffffffffffffffffffffffff1660008054906101000a900473ffffffffffffffffffffffffffffffffffffffff1673ffffffffffffffffffffffffffffffffffffffff1614610591576040517f08c379a000000000000000000000000000000000000000000000000000000000815260040161058890611969565b60405180910390fd5b6004600260006101000a81548160ff021916908360068111156105b7576105b6611838565b5b0217905550600460405180606001604052808481526020018373ffffffffffffffffffffffffffffffffffffffff168152602001600260009054906101000a900460ff16600681111561060d5761060c611838565b5b81525090806001815401808255809150506001900390600052602060002090600202016000909190919091506000820151816000015560208201518160010160006101000a81548173ffffffffffffffffffffffffffffffffffffffff021916908373ffffffffffffffffffffffffffffffffffffffff16021790555060408201518160010160146101000a81548160ff021916908360068111156106b5576106b4611838565b5b02179055505050600260009054906101000a900460ff1660068111156106de576106dd611838565b5b8173ffffffffffffffffffffffffffffffffffffffff16837fcc091c952960b84af994b58e2349b735a74341ba5869f73ed41ce589750b644160405160405180910390a45050565b34600181905550336005600083815260200190815260200160002060010160006101000a81548173ffffffffffffffffffffffffffffffffffffffff021916908373ffffffffffffffffffffffffffffffffffffffff1602179055506001546005600083815260200190815260200160002060000181905550806005600083815260200190815260200160002060020181905550803373ffffffffffffffffffffffffffffffffffffffff166001547fcfa45676592e00e4bcb2fc31b4369381509e94f94f38870561cb010fab2d3b3360405160405180910390a450565b6003602052806000526040600020600091509050806000018054610827906119b8565b80601f0160208091040260200160405190810160405280929190818152602001828054610853906119b8565b80156108a05780601f10610875576101008083540402835291602001916108a0565b820191906000526020600020905b81548152906001019060200180831161088357829003601f168201915b5050505050908060010160009054906101000a900460ff16905082565b3373ffffffffffffffffffffffffffffffffffffffff1660008054906101000a900473ffffffffffffffffffffffffffffffffffffffff1673ffffffffffffffffffffffffffffffffffffffff161461094b576040517f08c379a000000000000000000000000000000000000000000000000000000000815260040161094290611969565b60405180910390fd5b60028060006101000a81548160ff021916908360068111156109705761096f611838565b5b0217905550600460405180606001604052808481526020018373ffffffffffffffffffffffffffffffffffffffff168152602001600260009054906101000a900460ff1660068111156109c6576109c5611838565b5b81525090806001815401808255809150506001900390600052602060002090600202016000909190919091506000820151816000015560208201518160010160006101000a81548173ffffffffffffffffffffffffffffffffffffffff021916908373ffffffffffffffffffffffffffffffffffffffff16021790555060408201518160010160146101000a81548160ff02191690836006811115610a6e57610a6d611838565b5b02179055505050600260009054906101000a900460ff166006811115610a9757610a96611838565b5b8173ffffffffffffffffffffffffffffffffffffffff16837fcc091c952960b84af994b58e2349b735a74341ba5869f73ed41ce589750b644160405160405180910390a45050565b60003373ffffffffffffffffffffffffffffffffffffffff1660008054906101000a900473ffffffffffffffffffffffffffffffffffffffff1673ffffffffffffffffffffffffffffffffffffffff1614610b6f576040517f08c379a0000000000000000000000000000000000000000000000000000000008152600401610b6690611969565b60405180910390fd5b6001600360008473ffffffffffffffffffffffffffffffffffffffff1673ffffffffffffffffffffffffffffffffffffffff16815260200190815260200160002060010160006101000a81548160ff02191690831515021790559050919050565b3373ffffffffffffffffffffffffffffffffffffffff1660008054906101000a900473ffffffffffffffffffffffffffffffffffffffff1673ffffffffffffffffffffffffffffffffffffffff1614610c5e576040517f08c379a0000000000000000000000000000000000000000000000000000000008152600401610c5590611969565b60405180910390fd5b6003600260006101000a81548160ff02191690836006811115610c8457610c83611838565b5b0217905550600460405180606001604052808481526020018373ffffffffffffffffffffffffffffffffffffffff168152602001600260009054906101000a900460ff166006811115610cda57610cd9611838565b5b81525090806001815401808255809150506001900390600052602060002090600202016000909190919091506000820151816000015560208201518160010160006101000a81548173ffffffffffffffffffffffffffffffffffffffff021916908373ffffffffffffffffffffffffffffffffffffffff16021790555060408201518160010160146101000a81548160ff02191690836006811115610d8257610d81611838565b5b021790555050506005600083815260200190815260200160002060020154821415610e295760008054906101000a900473ffffffffffffffffffffffffffffffffffffffff1673ffffffffffffffffffffffffffffffffffffffff166108fc60056000858152602001908152602001600020600001549081150290604051600060405180830381858888f19350505050158015610e23573d6000803e3d6000fd5b50610e64565b6040517f08c379a0000000000000000000000000000000000000000000000000000000008152600401610e5b90611a36565b60405180910390fd5b600260009054906101000a900460ff166006811115610e8657610e85611838565b5b8173ffffffffffffffffffffffffffffffffffffffff16837fcc091c952960b84af994b58e2349b735a74341ba5869f73ed41ce589750b644160405160405180910390a45050565b3373ffffffffffffffffffffffffffffffffffffffff1660008054906101000a900473ffffffffffffffffffffffffffffffffffffffff1673ffffffffffffffffffffffffffffffffffffffff1614610f5c576040517f08c379a0000000000000000000000000000000000000000000000000000000008152600401610f5390611969565b60405180910390fd5b6001600260006101000a81548160ff02191690836006811115610f8257610f81611838565b5b0217905550600460405180606001604052808481526020018373ffffffffffffffffffffffffffffffffffffffff168152602001600260009054906101000a900460ff166006811115610fd857610fd7611838565b5b81525090806001815401808255809150506001900390600052602060002090600202016000909190919091506000820151816000015560208201518160010160006101000a81548173ffffffffffffffffffffffffffffffffffffffff021916908373ffffffffffffffffffffffffffffffffffffffff16021790555060408201518160010160146101000a81548160ff021916908360068111156110805761107f611838565b5b02179055505050600260009054906101000a900460ff1660068111156110a9576110a8611838565b5b8173ffffffffffffffffffffffffffffffffffffffff16837fcc091c952960b84af994b58e2349b735a74341ba5869f73ed41ce589750b644160405160405180910390a45050565b6004818154811061110157600080fd5b90600052602060002090600202016000915090508060000154908060010160009054906101000a900473ffffffffffffffffffffffffffffffffffffffff16908060010160149054906101000a900460ff16905083565b3373ffffffffffffffffffffffffffffffffffffffff1660008054906101000a900473ffffffffffffffffffffffffffffffffffffffff1673ffffffffffffffffffffffffffffffffffffffff16146111e6576040517f08c379a00000000000000000000000000000000000000000000000000000000081526004016111dd90611969565b60405180910390fd5b6006600260006101000a81548160ff0219169083600681111561120c5761120b611838565b5b0217905550600460405180606001604052808481526020018373ffffffffffffffffffffffffffffffffffffffff168152602001600260009054906101000a900460ff16600681111561126257611261611838565b5b81525090806001815401808255809150506001900390600052602060002090600202016000909190919091506000820151816000015560208201518160010160006101000a81548173ffffffffffffffffffffffffffffffffffffffff021916908373ffffffffffffffffffffffffffffffffffffffff16021790555060408201518160010160146101000a81548160ff0219169083600681111561130a57611309611838565b5b02179055505050600260009054906101000a900460ff16600681111561133357611332611838565b5b8173ffffffffffffffffffffffffffffffffffffffff16837fcc091c952960b84af994b58e2349b735a74341ba5869f73ed41ce589750b644160405160405180910390a45050565b60056020528060005260406000206000915090508060000154908060010160009054906101000a900473ffffffffffffffffffffffffffffffffffffffff16908060020154905083565b3373ffffffffffffffffffffffffffffffffffffffff1660008054906101000a900473ffffffffffffffffffffffffffffffffffffffff1673ffffffffffffffffffffffffffffffffffffffff1614611453576040517f08c379a000000000000000000000000000000000000000000000000000000000815260040161144a90611969565b60405180910390fd5b6005600260006101000a81548160ff0219169083600681111561147957611478611838565b5b0217905550600460405180606001604052808481526020018373ffffffffffffffffffffffffffffffffffffffff168152602001600260009054906101000a900460ff1660068111156114cf576114ce611838565b5b81525090806001815401808255809150506001900390600052602060002090600202016000909190919091506000820151816000015560208201518160010160006101000a81548173ffffffffffffffffffffffffffffffffffffffff021916908373ffffffffffffffffffffffffffffffffffffffff16021790555060408201518160010160146101000a81548160ff0219169083600681111561157757611576611838565b5b02179055505050600260009054906101000a900460ff1660068111156115a05761159f611838565b5b8173ffffffffffffffffffffffffffffffffffffffff16837fcc091c952960b84af994b58e2349b735a74341ba5869f73ed41ce589750b644160405160405180910390a45050565b600080fd5b6000819050919050565b611600816115ed565b811461160b57600080fd5b50565b60008135905061161d816115f7565b92915050565b600073ffffffffffffffffffffffffffffffffffffffff82169050919050565b600061164e82611623565b9050919050565b61165e81611643565b811461166957600080fd5b50565b60008135905061167b81611655565b92915050565b60008060408385031215611698576116976115e8565b5b60006116a68582860161160e565b92505060206116b78582860161166c565b9150509250929050565b6000602082840312156116d7576116d66115e8565b5b60006116e58482850161160e565b91505092915050565b600060208284031215611704576117036115e8565b5b60006117128482850161166c565b91505092915050565b600081519050919050565b600082825260208201905092915050565b60005b8381101561175557808201518184015260208101905061173a565b83811115611764576000848401525b50505050565b6000601f19601f8301169050919050565b60006117868261171b565b6117908185611726565b93506117a0818560208601611737565b6117a98161176a565b840191505092915050565b60008115159050919050565b6117c9816117b4565b82525050565b600060408201905081810360008301526117e9818561177b565b90506117f860208301846117c0565b9392505050565b600060208201905061181460008301846117c0565b92915050565b611823816115ed565b82525050565b61183281611643565b82525050565b7f4e487b7100000000000000000000000000000000000000000000000000000000600052602160045260246000fd5b6007811061187857611877611838565b5b50565b600081905061188982611867565b919050565b60006118998261187b565b9050919050565b6118a98161188e565b82525050565b60006060820190506118c4600083018661181a565b6118d16020830185611829565b6118de60408301846118a0565b949350505050565b60006060820190506118fb600083018661181a565b6119086020830185611829565b611915604083018461181a565b949350505050565b7f4e6f7420616e206f776e65722100000000000000000000000000000000000000600082015250565b6000611953600d83611726565b915061195e8261191d565b602082019050919050565b6000602082019050818103600083015261198281611946565b9050919050565b7f4e487b7100000000000000000000000000000000000000000000000000000000600052602260045260246000fd5b600060028204905060018216806119d057607f821691505b602082108114156119e4576119e3611989565b5b50919050565b7f496e76616c6964206f7264657220494400000000000000000000000000000000600082015250565b6000611a20601083611726565b9150611a2b826119ea565b602082019050919050565b60006020820190508181036000830152611a4f81611a13565b905091905056fea2646970667358221220e560e8318c7178859e7e6cbfe840fa0a8cc502c461f8cef3f4f571dc3188460d64736f6c634300080a0033",
					"opcodes": "PUSH1 0x80 PUSH1 0x40 MSTORE CALLVALUE DUP1 ISZERO PUSH2 0x10 JUMPI PUSH1 0x0 DUP1 REVERT JUMPDEST POP CALLER PUSH1 0x0 DUP1 PUSH2 0x100 EXP DUP2 SLOAD DUP2 PUSH20 0xFFFFFFFFFFFFFFFFFFFFFFFFFFFFFFFFFFFFFFFF MUL NOT AND SWAP1 DUP4 PUSH20 0xFFFFFFFFFFFFFFFFFFFFFFFFFFFFFFFFFFFFFFFF AND MUL OR SWAP1 SSTORE POP PUSH1 0x1 PUSH1 0x3 PUSH1 0x0 DUP1 PUSH1 0x0 SWAP1 SLOAD SWAP1 PUSH2 0x100 EXP SWAP1 DIV PUSH20 0xFFFFFFFFFFFFFFFFFFFFFFFFFFFFFFFFFFFFFFFF AND PUSH20 0xFFFFFFFFFFFFFFFFFFFFFFFFFFFFFFFFFFFFFFFF AND PUSH20 0xFFFFFFFFFFFFFFFFFFFFFFFFFFFFFFFFFFFFFFFF AND DUP2 MSTORE PUSH1 0x20 ADD SWAP1 DUP2 MSTORE PUSH1 0x20 ADD PUSH1 0x0 KECCAK256 PUSH1 0x1 ADD PUSH1 0x0 PUSH2 0x100 EXP DUP2 SLOAD DUP2 PUSH1 0xFF MUL NOT AND SWAP1 DUP4 ISZERO ISZERO MUL OR SWAP1 SSTORE POP PUSH2 0x1A8C DUP1 PUSH2 0xDC PUSH1 0x0 CODECOPY PUSH1 0x0 RETURN INVALID PUSH1 0x80 PUSH1 0x40 MSTORE PUSH1 0x4 CALLDATASIZE LT PUSH2 0xA7 JUMPI PUSH1 0x0 CALLDATALOAD PUSH1 0xE0 SHR DUP1 PUSH4 0x7527B350 GT PUSH2 0x64 JUMPI DUP1 PUSH4 0x7527B350 EQ PUSH2 0x1BE JUMPI DUP1 PUSH4 0xA031FB7F EQ PUSH2 0x1E7 JUMPI DUP1 PUSH4 0xA7C47525 EQ PUSH2 0x210 JUMPI DUP1 PUSH4 0xC100B815 EQ PUSH2 0x24F JUMPI DUP1 PUSH4 0xCBB11C37 EQ PUSH2 0x278 JUMPI DUP1 PUSH4 0xCCA6FE54 EQ PUSH2 0x2B7 JUMPI PUSH2 0xA7 JUMP JUMPDEST DUP1 PUSH4 0x17ADAFD1 EQ PUSH2 0xAC JUMPI DUP1 PUSH4 0x27739AFE EQ PUSH2 0xD5 JUMPI DUP1 PUSH4 0x3194D29C EQ PUSH2 0xFE JUMPI DUP1 PUSH4 0x429B62E5 EQ PUSH2 0x11A JUMPI DUP1 PUSH4 0x697A4F05 EQ PUSH2 0x158 JUMPI DUP1 PUSH4 0x70480275 EQ PUSH2 0x181 JUMPI JUMPDEST PUSH1 0x0 DUP1 REVERT JUMPDEST CALLVALUE DUP1 ISZERO PUSH2 0xB8 JUMPI PUSH1 0x0 DUP1 REVERT JUMPDEST POP PUSH2 0xD3 PUSH1 0x4 DUP1 CALLDATASIZE SUB DUP2 ADD SWAP1 PUSH2 0xCE SWAP2 SWAP1 PUSH2 0x1681 JUMP JUMPDEST PUSH2 0x2E0 JUMP JUMPDEST STOP JUMPDEST CALLVALUE DUP1 ISZERO PUSH2 0xE1 JUMPI PUSH1 0x0 DUP1 REVERT JUMPDEST POP PUSH2 0xFC PUSH1 0x4 DUP1 CALLDATASIZE SUB DUP2 ADD SWAP1 PUSH2 0xF7 SWAP2 SWAP1 PUSH2 0x1681 JUMP JUMPDEST PUSH2 0x503 JUMP JUMPDEST STOP JUMPDEST PUSH2 0x118 PUSH1 0x4 DUP1 CALLDATASIZE SUB DUP2 ADD SWAP1 PUSH2 0x113 SWAP2 SWAP1 PUSH2 0x16C1 JUMP JUMPDEST PUSH2 0x726 JUMP JUMPDEST STOP JUMPDEST CALLVALUE DUP1 ISZERO PUSH2 0x126 JUMPI PUSH1 0x0 DUP1 REVERT JUMPDEST POP PUSH2 0x141 PUSH1 0x4 DUP1 CALLDATASIZE SUB DUP2 ADD SWAP1 PUSH2 0x13C SWAP2 SWAP1 PUSH2 0x16EE JUMP JUMPDEST PUSH2 0x804 JUMP JUMPDEST PUSH1 0x40 MLOAD PUSH2 0x14F SWAP3 SWAP2 SWAP1 PUSH2 0x17CF JUMP JUMPDEST PUSH1 0x40 MLOAD DUP1 SWAP2 SUB SWAP1 RETURN JUMPDEST CALLVALUE DUP1 ISZERO PUSH2 0x164 JUMPI PUSH1 0x0 DUP1 REVERT JUMPDEST POP PUSH2 0x17F PUSH1 0x4 DUP1 CALLDATASIZE SUB DUP2 ADD SWAP1 PUSH2 0x17A SWAP2 SWAP1 PUSH2 0x1681 JUMP JUMPDEST PUSH2 0x8BD JUMP JUMPDEST STOP JUMPDEST CALLVALUE DUP1 ISZERO PUSH2 0x18D JUMPI PUSH1 0x0 DUP1 REVERT JUMPDEST POP PUSH2 0x1A8 PUSH1 0x4 DUP1 CALLDATASIZE SUB DUP2 ADD SWAP1 PUSH2 0x1A3 SWAP2 SWAP1 PUSH2 0x16EE JUMP JUMPDEST PUSH2 0xADF JUMP JUMPDEST PUSH1 0x40 MLOAD PUSH2 0x1B5 SWAP2 SWAP1 PUSH2 0x17FF JUMP JUMPDEST PUSH1 0x40 MLOAD DUP1 SWAP2 SUB SWAP1 RETURN JUMPDEST CALLVALUE DUP1 ISZERO PUSH2 0x1CA JUMPI PUSH1 0x0 DUP1 REVERT JUMPDEST POP PUSH2 0x1E5 PUSH1 0x4 DUP1 CALLDATASIZE SUB DUP2 ADD SWAP1 PUSH2 0x1E0 SWAP2 SWAP1 PUSH2 0x1681 JUMP JUMPDEST PUSH2 0xBD0 JUMP JUMPDEST STOP JUMPDEST CALLVALUE DUP1 ISZERO PUSH2 0x1F3 JUMPI PUSH1 0x0 DUP1 REVERT JUMPDEST POP PUSH2 0x20E PUSH1 0x4 DUP1 CALLDATASIZE SUB DUP2 ADD SWAP1 PUSH2 0x209 SWAP2 SWAP1 PUSH2 0x1681 JUMP JUMPDEST PUSH2 0xECE JUMP JUMPDEST STOP JUMPDEST CALLVALUE DUP1 ISZERO PUSH2 0x21C JUMPI PUSH1 0x0 DUP1 REVERT JUMPDEST POP PUSH2 0x237 PUSH1 0x4 DUP1 CALLDATASIZE SUB DUP2 ADD SWAP1 PUSH2 0x232 SWAP2 SWAP1 PUSH2 0x16C1 JUMP JUMPDEST PUSH2 0x10F1 JUMP JUMPDEST PUSH1 0x40 MLOAD PUSH2 0x246 SWAP4 SWAP3 SWAP2 SWAP1 PUSH2 0x18AF JUMP JUMPDEST PUSH1 0x40 MLOAD DUP1 SWAP2 SUB SWAP1 RETURN JUMPDEST CALLVALUE DUP1 ISZERO PUSH2 0x25B JUMPI PUSH1 0x0 DUP1 REVERT JUMPDEST POP PUSH2 0x276 PUSH1 0x4 DUP1 CALLDATASIZE SUB DUP2 ADD SWAP1 PUSH2 0x271 SWAP2 SWAP1 PUSH2 0x1681 JUMP JUMPDEST PUSH2 0x1158 JUMP JUMPDEST STOP JUMPDEST CALLVALUE DUP1 ISZERO PUSH2 0x284 JUMPI PUSH1 0x0 DUP1 REVERT JUMPDEST POP PUSH2 0x29F PUSH1 0x4 DUP1 CALLDATASIZE SUB DUP2 ADD SWAP1 PUSH2 0x29A SWAP2 SWAP1 PUSH2 0x16C1 JUMP JUMPDEST PUSH2 0x137B JUMP JUMPDEST PUSH1 0x40 MLOAD PUSH2 0x2AE SWAP4 SWAP3 SWAP2 SWAP1 PUSH2 0x18E6 JUMP JUMPDEST PUSH1 0x40 MLOAD DUP1 SWAP2 SUB SWAP1 RETURN JUMPDEST CALLVALUE DUP1 ISZERO PUSH2 0x2C3 JUMPI PUSH1 0x0 DUP1 REVERT JUMPDEST POP PUSH2 0x2DE PUSH1 0x4 DUP1 CALLDATASIZE SUB DUP2 ADD SWAP1 PUSH2 0x2D9 SWAP2 SWAP1 PUSH2 0x1681 JUMP JUMPDEST PUSH2 0x13C5 JUMP JUMPDEST STOP JUMPDEST CALLER PUSH20 0xFFFFFFFFFFFFFFFFFFFFFFFFFFFFFFFFFFFFFFFF AND PUSH1 0x0 DUP1 SLOAD SWAP1 PUSH2 0x100 EXP SWAP1 DIV PUSH20 0xFFFFFFFFFFFFFFFFFFFFFFFFFFFFFFFFFFFFFFFF AND PUSH20 0xFFFFFFFFFFFFFFFFFFFFFFFFFFFFFFFFFFFFFFFF AND EQ PUSH2 0x36E JUMPI PUSH1 0x40 MLOAD PUSH32 0x8C379A000000000000000000000000000000000000000000000000000000000 DUP2 MSTORE PUSH1 0x4 ADD PUSH2 0x365 SWAP1 PUSH2 0x1969 JUMP JUMPDEST PUSH1 0x40 MLOAD DUP1 SWAP2 SUB SWAP1 REVERT JUMPDEST PUSH1 0x0 PUSH1 0x2 PUSH1 0x0 PUSH2 0x100 EXP DUP2 SLOAD DUP2 PUSH1 0xFF MUL NOT AND SWAP1 DUP4 PUSH1 0x6 DUP2 GT ISZERO PUSH2 0x394 JUMPI PUSH2 0x393 PUSH2 0x1838 JUMP JUMPDEST JUMPDEST MUL OR SWAP1 SSTORE POP PUSH1 0x4 PUSH1 0x40 MLOAD DUP1 PUSH1 0x60 ADD PUSH1 0x40 MSTORE DUP1 DUP5 DUP2 MSTORE PUSH1 0x20 ADD DUP4 PUSH20 0xFFFFFFFFFFFFFFFFFFFFFFFFFFFFFFFFFFFFFFFF AND DUP2 MSTORE PUSH1 0x20 ADD PUSH1 0x2 PUSH1 0x0 SWAP1 SLOAD SWAP1 PUSH2 0x100 EXP SWAP1 DIV PUSH1 0xFF AND PUSH1 0x6 DUP2 GT ISZERO PUSH2 0x3EA JUMPI PUSH2 0x3E9 PUSH2 0x1838 JUMP JUMPDEST JUMPDEST DUP2 MSTORE POP SWAP1 DUP1 PUSH1 0x1 DUP2 SLOAD ADD DUP1 DUP3 SSTORE DUP1 SWAP2 POP POP PUSH1 0x1 SWAP1 SUB SWAP1 PUSH1 0x0 MSTORE PUSH1 0x20 PUSH1 0x0 KECCAK256 SWAP1 PUSH1 0x2 MUL ADD PUSH1 0x0 SWAP1 SWAP2 SWAP1 SWAP2 SWAP1 SWAP2 POP PUSH1 0x0 DUP3 ADD MLOAD DUP2 PUSH1 0x0 ADD SSTORE PUSH1 0x20 DUP3 ADD MLOAD DUP2 PUSH1 0x1 ADD PUSH1 0x0 PUSH2 0x100 EXP DUP2 SLOAD DUP2 PUSH20 0xFFFFFFFFFFFFFFFFFFFFFFFFFFFFFFFFFFFFFFFF MUL NOT AND SWAP1 DUP4 PUSH20 0xFFFFFFFFFFFFFFFFFFFFFFFFFFFFFFFFFFFFFFFF AND MUL OR SWAP1 SSTORE POP PUSH1 0x40 DUP3 ADD MLOAD DUP2 PUSH1 0x1 ADD PUSH1 0x14 PUSH2 0x100 EXP DUP2 SLOAD DUP2 PUSH1 0xFF MUL NOT AND SWAP1 DUP4 PUSH1 0x6 DUP2 GT ISZERO PUSH2 0x492 JUMPI PUSH2 0x491 PUSH2 0x1838 JUMP JUMPDEST JUMPDEST MUL OR SWAP1 SSTORE POP POP POP PUSH1 0x2 PUSH1 0x0 SWAP1 SLOAD SWAP1 PUSH2 0x100 EXP SWAP1 DIV PUSH1 0xFF AND PUSH1 0x6 DUP2 GT ISZERO PUSH2 0x4BB JUMPI PUSH2 0x4BA PUSH2 0x1838 JUMP JUMPDEST JUMPDEST DUP2 PUSH20 0xFFFFFFFFFFFFFFFFFFFFFFFFFFFFFFFFFFFFFFFF AND DUP4 PUSH32 0xCC091C952960B84AF994B58E2349B735A74341BA5869F73ED41CE589750B6441 PUSH1 0x40 MLOAD PUSH1 0x40 MLOAD DUP1 SWAP2 SUB SWAP1 LOG4 POP POP JUMP JUMPDEST CALLER PUSH20 0xFFFFFFFFFFFFFFFFFFFFFFFFFFFFFFFFFFFFFFFF AND PUSH1 0x0 DUP1 SLOAD SWAP1 PUSH2 0x100 EXP SWAP1 DIV PUSH20 0xFFFFFFFFFFFFFFFFFFFFFFFFFFFFFFFFFFFFFFFF AND PUSH20 0xFFFFFFFFFFFFFFFFFFFFFFFFFFFFFFFFFFFFFFFF AND EQ PUSH2 0x591 JUMPI PUSH1 0x40 MLOAD PUSH32 0x8C379A000000000000000000000000000000000000000000000000000000000 DUP2 MSTORE PUSH1 0x4 ADD PUSH2 0x588 SWAP1 PUSH2 0x1969 JUMP JUMPDEST PUSH1 0x40 MLOAD DUP1 SWAP2 SUB SWAP1 REVERT JUMPDEST PUSH1 0x4 PUSH1 0x2 PUSH1 0x0 PUSH2 0x100 EXP DUP2 SLOAD DUP2 PUSH1 0xFF MUL NOT AND SWAP1 DUP4 PUSH1 0x6 DUP2 GT ISZERO PUSH2 0x5B7 JUMPI PUSH2 0x5B6 PUSH2 0x1838 JUMP JUMPDEST JUMPDEST MUL OR SWAP1 SSTORE POP PUSH1 0x4 PUSH1 0x40 MLOAD DUP1 PUSH1 0x60 ADD PUSH1 0x40 MSTORE DUP1 DUP5 DUP2 MSTORE PUSH1 0x20 ADD DUP4 PUSH20 0xFFFFFFFFFFFFFFFFFFFFFFFFFFFFFFFFFFFFFFFF AND DUP2 MSTORE PUSH1 0x20 ADD PUSH1 0x2 PUSH1 0x0 SWAP1 SLOAD SWAP1 PUSH2 0x100 EXP SWAP1 DIV PUSH1 0xFF AND PUSH1 0x6 DUP2 GT ISZERO PUSH2 0x60D JUMPI PUSH2 0x60C PUSH2 0x1838 JUMP JUMPDEST JUMPDEST DUP2 MSTORE POP SWAP1 DUP1 PUSH1 0x1 DUP2 SLOAD ADD DUP1 DUP3 SSTORE DUP1 SWAP2 POP POP PUSH1 0x1 SWAP1 SUB SWAP1 PUSH1 0x0 MSTORE PUSH1 0x20 PUSH1 0x0 KECCAK256 SWAP1 PUSH1 0x2 MUL ADD PUSH1 0x0 SWAP1 SWAP2 SWAP1 SWAP2 SWAP1 SWAP2 POP PUSH1 0x0 DUP3 ADD MLOAD DUP2 PUSH1 0x0 ADD SSTORE PUSH1 0x20 DUP3 ADD MLOAD DUP2 PUSH1 0x1 ADD PUSH1 0x0 PUSH2 0x100 EXP DUP2 SLOAD DUP2 PUSH20 0xFFFFFFFFFFFFFFFFFFFFFFFFFFFFFFFFFFFFFFFF MUL NOT AND SWAP1 DUP4 PUSH20 0xFFFFFFFFFFFFFFFFFFFFFFFFFFFFFFFFFFFFFFFF AND MUL OR SWAP1 SSTORE POP PUSH1 0x40 DUP3 ADD MLOAD DUP2 PUSH1 0x1 ADD PUSH1 0x14 PUSH2 0x100 EXP DUP2 SLOAD DUP2 PUSH1 0xFF MUL NOT AND SWAP1 DUP4 PUSH1 0x6 DUP2 GT ISZERO PUSH2 0x6B5 JUMPI PUSH2 0x6B4 PUSH2 0x1838 JUMP JUMPDEST JUMPDEST MUL OR SWAP1 SSTORE POP POP POP PUSH1 0x2 PUSH1 0x0 SWAP1 SLOAD SWAP1 PUSH2 0x100 EXP SWAP1 DIV PUSH1 0xFF AND PUSH1 0x6 DUP2 GT ISZERO PUSH2 0x6DE JUMPI PUSH2 0x6DD PUSH2 0x1838 JUMP JUMPDEST JUMPDEST DUP2 PUSH20 0xFFFFFFFFFFFFFFFFFFFFFFFFFFFFFFFFFFFFFFFF AND DUP4 PUSH32 0xCC091C952960B84AF994B58E2349B735A74341BA5869F73ED41CE589750B6441 PUSH1 0x40 MLOAD PUSH1 0x40 MLOAD DUP1 SWAP2 SUB SWAP1 LOG4 POP POP JUMP JUMPDEST CALLVALUE PUSH1 0x1 DUP2 SWAP1 SSTORE POP CALLER PUSH1 0x5 PUSH1 0x0 DUP4 DUP2 MSTORE PUSH1 0x20 ADD SWAP1 DUP2 MSTORE PUSH1 0x20 ADD PUSH1 0x0 KECCAK256 PUSH1 0x1 ADD PUSH1 0x0 PUSH2 0x100 EXP DUP2 SLOAD DUP2 PUSH20 0xFFFFFFFFFFFFFFFFFFFFFFFFFFFFFFFFFFFFFFFF MUL NOT AND SWAP1 DUP4 PUSH20 0xFFFFFFFFFFFFFFFFFFFFFFFFFFFFFFFFFFFFFFFF AND MUL OR SWAP1 SSTORE POP PUSH1 0x1 SLOAD PUSH1 0x5 PUSH1 0x0 DUP4 DUP2 MSTORE PUSH1 0x20 ADD SWAP1 DUP2 MSTORE PUSH1 0x20 ADD PUSH1 0x0 KECCAK256 PUSH1 0x0 ADD DUP2 SWAP1 SSTORE POP DUP1 PUSH1 0x5 PUSH1 0x0 DUP4 DUP2 MSTORE PUSH1 0x20 ADD SWAP1 DUP2 MSTORE PUSH1 0x20 ADD PUSH1 0x0 KECCAK256 PUSH1 0x2 ADD DUP2 SWAP1 SSTORE POP DUP1 CALLER PUSH20 0xFFFFFFFFFFFFFFFFFFFFFFFFFFFFFFFFFFFFFFFF AND PUSH1 0x1 SLOAD PUSH32 0xCFA45676592E00E4BCB2FC31B4369381509E94F94F38870561CB010FAB2D3B33 PUSH1 0x40 MLOAD PUSH1 0x40 MLOAD DUP1 SWAP2 SUB SWAP1 LOG4 POP JUMP JUMPDEST PUSH1 0x3 PUSH1 0x20 MSTORE DUP1 PUSH1 0x0 MSTORE PUSH1 0x40 PUSH1 0x0 KECCAK256 PUSH1 0x0 SWAP2 POP SWAP1 POP DUP1 PUSH1 0x0 ADD DUP1 SLOAD PUSH2 0x827 SWAP1 PUSH2 0x19B8 JUMP JUMPDEST DUP1 PUSH1 0x1F ADD PUSH1 0x20 DUP1 SWAP2 DIV MUL PUSH1 0x20 ADD PUSH1 0x40 MLOAD SWAP1 DUP2 ADD PUSH1 0x40 MSTORE DUP1 SWAP3 SWAP2 SWAP1 DUP2 DUP2 MSTORE PUSH1 0x20 ADD DUP3 DUP1 SLOAD PUSH2 0x853 SWAP1 PUSH2 0x19B8 JUMP JUMPDEST DUP1 ISZERO PUSH2 0x8A0 JUMPI DUP1 PUSH1 0x1F LT PUSH2 0x875 JUMPI PUSH2 0x100 DUP1 DUP4 SLOAD DIV MUL DUP4 MSTORE SWAP2 PUSH1 0x20 ADD SWAP2 PUSH2 0x8A0 JUMP JUMPDEST DUP3 ADD SWAP2 SWAP1 PUSH1 0x0 MSTORE PUSH1 0x20 PUSH1 0x0 KECCAK256 SWAP1 JUMPDEST DUP2 SLOAD DUP2 MSTORE SWAP1 PUSH1 0x1 ADD SWAP1 PUSH1 0x20 ADD DUP1 DUP4 GT PUSH2 0x883 JUMPI DUP3 SWAP1 SUB PUSH1 0x1F AND DUP3 ADD SWAP2 JUMPDEST POP POP POP POP POP SWAP1 DUP1 PUSH1 0x1 ADD PUSH1 0x0 SWAP1 SLOAD SWAP1 PUSH2 0x100 EXP SWAP1 DIV PUSH1 0xFF AND SWAP1 POP DUP3 JUMP JUMPDEST CALLER PUSH20 0xFFFFFFFFFFFFFFFFFFFFFFFFFFFFFFFFFFFFFFFF AND PUSH1 0x0 DUP1 SLOAD SWAP1 PUSH2 0x100 EXP SWAP1 DIV PUSH20 0xFFFFFFFFFFFFFFFFFFFFFFFFFFFFFFFFFFFFFFFF AND PUSH20 0xFFFFFFFFFFFFFFFFFFFFFFFFFFFFFFFFFFFFFFFF AND EQ PUSH2 0x94B JUMPI PUSH1 0x40 MLOAD PUSH32 0x8C379A000000000000000000000000000000000000000000000000000000000 DUP2 MSTORE PUSH1 0x4 ADD PUSH2 0x942 SWAP1 PUSH2 0x1969 JUMP JUMPDEST PUSH1 0x40 MLOAD DUP1 SWAP2 SUB SWAP1 REVERT JUMPDEST PUSH1 0x2 DUP1 PUSH1 0x0 PUSH2 0x100 EXP DUP2 SLOAD DUP2 PUSH1 0xFF MUL NOT AND SWAP1 DUP4 PUSH1 0x6 DUP2 GT ISZERO PUSH2 0x970 JUMPI PUSH2 0x96F PUSH2 0x1838 JUMP JUMPDEST JUMPDEST MUL OR SWAP1 SSTORE POP PUSH1 0x4 PUSH1 0x40 MLOAD DUP1 PUSH1 0x60 ADD PUSH1 0x40 MSTORE DUP1 DUP5 DUP2 MSTORE PUSH1 0x20 ADD DUP4 PUSH20 0xFFFFFFFFFFFFFFFFFFFFFFFFFFFFFFFFFFFFFFFF AND DUP2 MSTORE PUSH1 0x20 ADD PUSH1 0x2 PUSH1 0x0 SWAP1 SLOAD SWAP1 PUSH2 0x100 EXP SWAP1 DIV PUSH1 0xFF AND PUSH1 0x6 DUP2 GT ISZERO PUSH2 0x9C6 JUMPI PUSH2 0x9C5 PUSH2 0x1838 JUMP JUMPDEST JUMPDEST DUP2 MSTORE POP SWAP1 DUP1 PUSH1 0x1 DUP2 SLOAD ADD DUP1 DUP3 SSTORE DUP1 SWAP2 POP POP PUSH1 0x1 SWAP1 SUB SWAP1 PUSH1 0x0 MSTORE PUSH1 0x20 PUSH1 0x0 KECCAK256 SWAP1 PUSH1 0x2 MUL ADD PUSH1 0x0 SWAP1 SWAP2 SWAP1 SWAP2 SWAP1 SWAP2 POP PUSH1 0x0 DUP3 ADD MLOAD DUP2 PUSH1 0x0 ADD SSTORE PUSH1 0x20 DUP3 ADD MLOAD DUP2 PUSH1 0x1 ADD PUSH1 0x0 PUSH2 0x100 EXP DUP2 SLOAD DUP2 PUSH20 0xFFFFFFFFFFFFFFFFFFFFFFFFFFFFFFFFFFFFFFFF MUL NOT AND SWAP1 DUP4 PUSH20 0xFFFFFFFFFFFFFFFFFFFFFFFFFFFFFFFFFFFFFFFF AND MUL OR SWAP1 SSTORE POP PUSH1 0x40 DUP3 ADD MLOAD DUP2 PUSH1 0x1 ADD PUSH1 0x14 PUSH2 0x100 EXP DUP2 SLOAD DUP2 PUSH1 0xFF MUL NOT AND SWAP1 DUP4 PUSH1 0x6 DUP2 GT ISZERO PUSH2 0xA6E JUMPI PUSH2 0xA6D PUSH2 0x1838 JUMP JUMPDEST JUMPDEST MUL OR SWAP1 SSTORE POP POP POP PUSH1 0x2 PUSH1 0x0 SWAP1 SLOAD SWAP1 PUSH2 0x100 EXP SWAP1 DIV PUSH1 0xFF AND PUSH1 0x6 DUP2 GT ISZERO PUSH2 0xA97 JUMPI PUSH2 0xA96 PUSH2 0x1838 JUMP JUMPDEST JUMPDEST DUP2 PUSH20 0xFFFFFFFFFFFFFFFFFFFFFFFFFFFFFFFFFFFFFFFF AND DUP4 PUSH32 0xCC091C952960B84AF994B58E2349B735A74341BA5869F73ED41CE589750B6441 PUSH1 0x40 MLOAD PUSH1 0x40 MLOAD DUP1 SWAP2 SUB SWAP1 LOG4 POP POP JUMP JUMPDEST PUSH1 0x0 CALLER PUSH20 0xFFFFFFFFFFFFFFFFFFFFFFFFFFFFFFFFFFFFFFFF AND PUSH1 0x0 DUP1 SLOAD SWAP1 PUSH2 0x100 EXP SWAP1 DIV PUSH20 0xFFFFFFFFFFFFFFFFFFFFFFFFFFFFFFFFFFFFFFFF AND PUSH20 0xFFFFFFFFFFFFFFFFFFFFFFFFFFFFFFFFFFFFFFFF AND EQ PUSH2 0xB6F JUMPI PUSH1 0x40 MLOAD PUSH32 0x8C379A000000000000000000000000000000000000000000000000000000000 DUP2 MSTORE PUSH1 0x4 ADD PUSH2 0xB66 SWAP1 PUSH2 0x1969 JUMP JUMPDEST PUSH1 0x40 MLOAD DUP1 SWAP2 SUB SWAP1 REVERT JUMPDEST PUSH1 0x1 PUSH1 0x3 PUSH1 0x0 DUP5 PUSH20 0xFFFFFFFFFFFFFFFFFFFFFFFFFFFFFFFFFFFFFFFF AND PUSH20 0xFFFFFFFFFFFFFFFFFFFFFFFFFFFFFFFFFFFFFFFF AND DUP2 MSTORE PUSH1 0x20 ADD SWAP1 DUP2 MSTORE PUSH1 0x20 ADD PUSH1 0x0 KECCAK256 PUSH1 0x1 ADD PUSH1 0x0 PUSH2 0x100 EXP DUP2 SLOAD DUP2 PUSH1 0xFF MUL NOT AND SWAP1 DUP4 ISZERO ISZERO MUL OR SWAP1 SSTORE SWAP1 POP SWAP2 SWAP1 POP JUMP JUMPDEST CALLER PUSH20 0xFFFFFFFFFFFFFFFFFFFFFFFFFFFFFFFFFFFFFFFF AND PUSH1 0x0 DUP1 SLOAD SWAP1 PUSH2 0x100 EXP SWAP1 DIV PUSH20 0xFFFFFFFFFFFFFFFFFFFFFFFFFFFFFFFFFFFFFFFF AND PUSH20 0xFFFFFFFFFFFFFFFFFFFFFFFFFFFFFFFFFFFFFFFF AND EQ PUSH2 0xC5E JUMPI PUSH1 0x40 MLOAD PUSH32 0x8C379A000000000000000000000000000000000000000000000000000000000 DUP2 MSTORE PUSH1 0x4 ADD PUSH2 0xC55 SWAP1 PUSH2 0x1969 JUMP JUMPDEST PUSH1 0x40 MLOAD DUP1 SWAP2 SUB SWAP1 REVERT JUMPDEST PUSH1 0x3 PUSH1 0x2 PUSH1 0x0 PUSH2 0x100 EXP DUP2 SLOAD DUP2 PUSH1 0xFF MUL NOT AND SWAP1 DUP4 PUSH1 0x6 DUP2 GT ISZERO PUSH2 0xC84 JUMPI PUSH2 0xC83 PUSH2 0x1838 JUMP JUMPDEST JUMPDEST MUL OR SWAP1 SSTORE POP PUSH1 0x4 PUSH1 0x40 MLOAD DUP1 PUSH1 0x60 ADD PUSH1 0x40 MSTORE DUP1 DUP5 DUP2 MSTORE PUSH1 0x20 ADD DUP4 PUSH20 0xFFFFFFFFFFFFFFFFFFFFFFFFFFFFFFFFFFFFFFFF AND DUP2 MSTORE PUSH1 0x20 ADD PUSH1 0x2 PUSH1 0x0 SWAP1 SLOAD SWAP1 PUSH2 0x100 EXP SWAP1 DIV PUSH1 0xFF AND PUSH1 0x6 DUP2 GT ISZERO PUSH2 0xCDA JUMPI PUSH2 0xCD9 PUSH2 0x1838 JUMP JUMPDEST JUMPDEST DUP2 MSTORE POP SWAP1 DUP1 PUSH1 0x1 DUP2 SLOAD ADD DUP1 DUP3 SSTORE DUP1 SWAP2 POP POP PUSH1 0x1 SWAP1 SUB SWAP1 PUSH1 0x0 MSTORE PUSH1 0x20 PUSH1 0x0 KECCAK256 SWAP1 PUSH1 0x2 MUL ADD PUSH1 0x0 SWAP1 SWAP2 SWAP1 SWAP2 SWAP1 SWAP2 POP PUSH1 0x0 DUP3 ADD MLOAD DUP2 PUSH1 0x0 ADD SSTORE PUSH1 0x20 DUP3 ADD MLOAD DUP2 PUSH1 0x1 ADD PUSH1 0x0 PUSH2 0x100 EXP DUP2 SLOAD DUP2 PUSH20 0xFFFFFFFFFFFFFFFFFFFFFFFFFFFFFFFFFFFFFFFF MUL NOT AND SWAP1 DUP4 PUSH20 0xFFFFFFFFFFFFFFFFFFFFFFFFFFFFFFFFFFFFFFFF AND MUL OR SWAP1 SSTORE POP PUSH1 0x40 DUP3 ADD MLOAD DUP2 PUSH1 0x1 ADD PUSH1 0x14 PUSH2 0x100 EXP DUP2 SLOAD DUP2 PUSH1 0xFF MUL NOT AND SWAP1 DUP4 PUSH1 0x6 DUP2 GT ISZERO PUSH2 0xD82 JUMPI PUSH2 0xD81 PUSH2 0x1838 JUMP JUMPDEST JUMPDEST MUL OR SWAP1 SSTORE POP POP POP PUSH1 0x5 PUSH1 0x0 DUP4 DUP2 MSTORE PUSH1 0x20 ADD SWAP1 DUP2 MSTORE PUSH1 0x20 ADD PUSH1 0x0 KECCAK256 PUSH1 0x2 ADD SLOAD DUP3 EQ ISZERO PUSH2 0xE29 JUMPI PUSH1 0x0 DUP1 SLOAD SWAP1 PUSH2 0x100 EXP SWAP1 DIV PUSH20 0xFFFFFFFFFFFFFFFFFFFFFFFFFFFFFFFFFFFFFFFF AND PUSH20 0xFFFFFFFFFFFFFFFFFFFFFFFFFFFFFFFFFFFFFFFF AND PUSH2 0x8FC PUSH1 0x5 PUSH1 0x0 DUP6 DUP2 MSTORE PUSH1 0x20 ADD SWAP1 DUP2 MSTORE PUSH1 0x20 ADD PUSH1 0x0 KECCAK256 PUSH1 0x0 ADD SLOAD SWAP1 DUP2 ISZERO MUL SWAP1 PUSH1 0x40 MLOAD PUSH1 0x0 PUSH1 0x40 MLOAD DUP1 DUP4 SUB DUP2 DUP6 DUP9 DUP9 CALL SWAP4 POP POP POP POP ISZERO DUP1 ISZERO PUSH2 0xE23 JUMPI RETURNDATASIZE PUSH1 0x0 DUP1 RETURNDATACOPY RETURNDATASIZE PUSH1 0x0 REVERT JUMPDEST POP PUSH2 0xE64 JUMP JUMPDEST PUSH1 0x40 MLOAD PUSH32 0x8C379A000000000000000000000000000000000000000000000000000000000 DUP2 MSTORE PUSH1 0x4 ADD PUSH2 0xE5B SWAP1 PUSH2 0x1A36 JUMP JUMPDEST PUSH1 0x40 MLOAD DUP1 SWAP2 SUB SWAP1 REVERT JUMPDEST PUSH1 0x2 PUSH1 0x0 SWAP1 SLOAD SWAP1 PUSH2 0x100 EXP SWAP1 DIV PUSH1 0xFF AND PUSH1 0x6 DUP2 GT ISZERO PUSH2 0xE86 JUMPI PUSH2 0xE85 PUSH2 0x1838 JUMP JUMPDEST JUMPDEST DUP2 PUSH20 0xFFFFFFFFFFFFFFFFFFFFFFFFFFFFFFFFFFFFFFFF AND DUP4 PUSH32 0xCC091C952960B84AF994B58E2349B735A74341BA5869F73ED41CE589750B6441 PUSH1 0x40 MLOAD PUSH1 0x40 MLOAD DUP1 SWAP2 SUB SWAP1 LOG4 POP POP JUMP JUMPDEST CALLER PUSH20 0xFFFFFFFFFFFFFFFFFFFFFFFFFFFFFFFFFFFFFFFF AND PUSH1 0x0 DUP1 SLOAD SWAP1 PUSH2 0x100 EXP SWAP1 DIV PUSH20 0xFFFFFFFFFFFFFFFFFFFFFFFFFFFFFFFFFFFFFFFF AND PUSH20 0xFFFFFFFFFFFFFFFFFFFFFFFFFFFFFFFFFFFFFFFF AND EQ PUSH2 0xF5C JUMPI PUSH1 0x40 MLOAD PUSH32 0x8C379A000000000000000000000000000000000000000000000000000000000 DUP2 MSTORE PUSH1 0x4 ADD PUSH2 0xF53 SWAP1 PUSH2 0x1969 JUMP JUMPDEST PUSH1 0x40 MLOAD DUP1 SWAP2 SUB SWAP1 REVERT JUMPDEST PUSH1 0x1 PUSH1 0x2 PUSH1 0x0 PUSH2 0x100 EXP DUP2 SLOAD DUP2 PUSH1 0xFF MUL NOT AND SWAP1 DUP4 PUSH1 0x6 DUP2 GT ISZERO PUSH2 0xF82 JUMPI PUSH2 0xF81 PUSH2 0x1838 JUMP JUMPDEST JUMPDEST MUL OR SWAP1 SSTORE POP PUSH1 0x4 PUSH1 0x40 MLOAD DUP1 PUSH1 0x60 ADD PUSH1 0x40 MSTORE DUP1 DUP5 DUP2 MSTORE PUSH1 0x20 ADD DUP4 PUSH20 0xFFFFFFFFFFFFFFFFFFFFFFFFFFFFFFFFFFFFFFFF AND DUP2 MSTORE PUSH1 0x20 ADD PUSH1 0x2 PUSH1 0x0 SWAP1 SLOAD SWAP1 PUSH2 0x100 EXP SWAP1 DIV PUSH1 0xFF AND PUSH1 0x6 DUP2 GT ISZERO PUSH2 0xFD8 JUMPI PUSH2 0xFD7 PUSH2 0x1838 JUMP JUMPDEST JUMPDEST DUP2 MSTORE POP SWAP1 DUP1 PUSH1 0x1 DUP2 SLOAD ADD DUP1 DUP3 SSTORE DUP1 SWAP2 POP POP PUSH1 0x1 SWAP1 SUB SWAP1 PUSH1 0x0 MSTORE PUSH1 0x20 PUSH1 0x0 KECCAK256 SWAP1 PUSH1 0x2 MUL ADD PUSH1 0x0 SWAP1 SWAP2 SWAP1 SWAP2 SWAP1 SWAP2 POP PUSH1 0x0 DUP3 ADD MLOAD DUP2 PUSH1 0x0 ADD SSTORE PUSH1 0x20 DUP3 ADD MLOAD DUP2 PUSH1 0x1 ADD PUSH1 0x0 PUSH2 0x100 EXP DUP2 SLOAD DUP2 PUSH20 0xFFFFFFFFFFFFFFFFFFFFFFFFFFFFFFFFFFFFFFFF MUL NOT AND SWAP1 DUP4 PUSH20 0xFFFFFFFFFFFFFFFFFFFFFFFFFFFFFFFFFFFFFFFF AND MUL OR SWAP1 SSTORE POP PUSH1 0x40 DUP3 ADD MLOAD DUP2 PUSH1 0x1 ADD PUSH1 0x14 PUSH2 0x100 EXP DUP2 SLOAD DUP2 PUSH1 0xFF MUL NOT AND SWAP1 DUP4 PUSH1 0x6 DUP2 GT ISZERO PUSH2 0x1080 JUMPI PUSH2 0x107F PUSH2 0x1838 JUMP JUMPDEST JUMPDEST MUL OR SWAP1 SSTORE POP POP POP PUSH1 0x2 PUSH1 0x0 SWAP1 SLOAD SWAP1 PUSH2 0x100 EXP SWAP1 DIV PUSH1 0xFF AND PUSH1 0x6 DUP2 GT ISZERO PUSH2 0x10A9 JUMPI PUSH2 0x10A8 PUSH2 0x1838 JUMP JUMPDEST JUMPDEST DUP2 PUSH20 0xFFFFFFFFFFFFFFFFFFFFFFFFFFFFFFFFFFFFFFFF AND DUP4 PUSH32 0xCC091C952960B84AF994B58E2349B735A74341BA5869F73ED41CE589750B6441 PUSH1 0x40 MLOAD PUSH1 0x40 MLOAD DUP1 SWAP2 SUB SWAP1 LOG4 POP POP JUMP JUMPDEST PUSH1 0x4 DUP2 DUP2 SLOAD DUP2 LT PUSH2 0x1101 JUMPI PUSH1 0x0 DUP1 REVERT JUMPDEST SWAP1 PUSH1 0x0 MSTORE PUSH1 0x20 PUSH1 0x0 KECCAK256 SWAP1 PUSH1 0x2 MUL ADD PUSH1 0x0 SWAP2 POP SWAP1 POP DUP1 PUSH1 0x0 ADD SLOAD SWAP1 DUP1 PUSH1 0x1 ADD PUSH1 0x0 SWAP1 SLOAD SWAP1 PUSH2 0x100 EXP SWAP1 DIV PUSH20 0xFFFFFFFFFFFFFFFFFFFFFFFFFFFFFFFFFFFFFFFF AND SWAP1 DUP1 PUSH1 0x1 ADD PUSH1 0x14 SWAP1 SLOAD SWAP1 PUSH2 0x100 EXP SWAP1 DIV PUSH1 0xFF AND SWAP1 POP DUP4 JUMP JUMPDEST CALLER PUSH20 0xFFFFFFFFFFFFFFFFFFFFFFFFFFFFFFFFFFFFFFFF AND PUSH1 0x0 DUP1 SLOAD SWAP1 PUSH2 0x100 EXP SWAP1 DIV PUSH20 0xFFFFFFFFFFFFFFFFFFFFFFFFFFFFFFFFFFFFFFFF AND PUSH20 0xFFFFFFFFFFFFFFFFFFFFFFFFFFFFFFFFFFFFFFFF AND EQ PUSH2 0x11E6 JUMPI PUSH1 0x40 MLOAD PUSH32 0x8C379A000000000000000000000000000000000000000000000000000000000 DUP2 MSTORE PUSH1 0x4 ADD PUSH2 0x11DD SWAP1 PUSH2 0x1969 JUMP JUMPDEST PUSH1 0x40 MLOAD DUP1 SWAP2 SUB SWAP1 REVERT JUMPDEST PUSH1 0x6 PUSH1 0x2 PUSH1 0x0 PUSH2 0x100 EXP DUP2 SLOAD DUP2 PUSH1 0xFF MUL NOT AND SWAP1 DUP4 PUSH1 0x6 DUP2 GT ISZERO PUSH2 0x120C JUMPI PUSH2 0x120B PUSH2 0x1838 JUMP JUMPDEST JUMPDEST MUL OR SWAP1 SSTORE POP PUSH1 0x4 PUSH1 0x40 MLOAD DUP1 PUSH1 0x60 ADD PUSH1 0x40 MSTORE DUP1 DUP5 DUP2 MSTORE PUSH1 0x20 ADD DUP4 PUSH20 0xFFFFFFFFFFFFFFFFFFFFFFFFFFFFFFFFFFFFFFFF AND DUP2 MSTORE PUSH1 0x20 ADD PUSH1 0x2 PUSH1 0x0 SWAP1 SLOAD SWAP1 PUSH2 0x100 EXP SWAP1 DIV PUSH1 0xFF AND PUSH1 0x6 DUP2 GT ISZERO PUSH2 0x1262 JUMPI PUSH2 0x1261 PUSH2 0x1838 JUMP JUMPDEST JUMPDEST DUP2 MSTORE POP SWAP1 DUP1 PUSH1 0x1 DUP2 SLOAD ADD DUP1 DUP3 SSTORE DUP1 SWAP2 POP POP PUSH1 0x1 SWAP1 SUB SWAP1 PUSH1 0x0 MSTORE PUSH1 0x20 PUSH1 0x0 KECCAK256 SWAP1 PUSH1 0x2 MUL ADD PUSH1 0x0 SWAP1 SWAP2 SWAP1 SWAP2 SWAP1 SWAP2 POP PUSH1 0x0 DUP3 ADD MLOAD DUP2 PUSH1 0x0 ADD SSTORE PUSH1 0x20 DUP3 ADD MLOAD DUP2 PUSH1 0x1 ADD PUSH1 0x0 PUSH2 0x100 EXP DUP2 SLOAD DUP2 PUSH20 0xFFFFFFFFFFFFFFFFFFFFFFFFFFFFFFFFFFFFFFFF MUL NOT AND SWAP1 DUP4 PUSH20 0xFFFFFFFFFFFFFFFFFFFFFFFFFFFFFFFFFFFFFFFF AND MUL OR SWAP1 SSTORE POP PUSH1 0x40 DUP3 ADD MLOAD DUP2 PUSH1 0x1 ADD PUSH1 0x14 PUSH2 0x100 EXP DUP2 SLOAD DUP2 PUSH1 0xFF MUL NOT AND SWAP1 DUP4 PUSH1 0x6 DUP2 GT ISZERO PUSH2 0x130A JUMPI PUSH2 0x1309 PUSH2 0x1838 JUMP JUMPDEST JUMPDEST MUL OR SWAP1 SSTORE POP POP POP PUSH1 0x2 PUSH1 0x0 SWAP1 SLOAD SWAP1 PUSH2 0x100 EXP SWAP1 DIV PUSH1 0xFF AND PUSH1 0x6 DUP2 GT ISZERO PUSH2 0x1333 JUMPI PUSH2 0x1332 PUSH2 0x1838 JUMP JUMPDEST JUMPDEST DUP2 PUSH20 0xFFFFFFFFFFFFFFFFFFFFFFFFFFFFFFFFFFFFFFFF AND DUP4 PUSH32 0xCC091C952960B84AF994B58E2349B735A74341BA5869F73ED41CE589750B6441 PUSH1 0x40 MLOAD PUSH1 0x40 MLOAD DUP1 SWAP2 SUB SWAP1 LOG4 POP POP JUMP JUMPDEST PUSH1 0x5 PUSH1 0x20 MSTORE DUP1 PUSH1 0x0 MSTORE PUSH1 0x40 PUSH1 0x0 KECCAK256 PUSH1 0x0 SWAP2 POP SWAP1 POP DUP1 PUSH1 0x0 ADD SLOAD SWAP1 DUP1 PUSH1 0x1 ADD PUSH1 0x0 SWAP1 SLOAD SWAP1 PUSH2 0x100 EXP SWAP1 DIV PUSH20 0xFFFFFFFFFFFFFFFFFFFFFFFFFFFFFFFFFFFFFFFF AND SWAP1 DUP1 PUSH1 0x2 ADD SLOAD SWAP1 POP DUP4 JUMP JUMPDEST CALLER PUSH20 0xFFFFFFFFFFFFFFFFFFFFFFFFFFFFFFFFFFFFFFFF AND PUSH1 0x0 DUP1 SLOAD SWAP1 PUSH2 0x100 EXP SWAP1 DIV PUSH20 0xFFFFFFFFFFFFFFFFFFFFFFFFFFFFFFFFFFFFFFFF AND PUSH20 0xFFFFFFFFFFFFFFFFFFFFFFFFFFFFFFFFFFFFFFFF AND EQ PUSH2 0x1453 JUMPI PUSH1 0x40 MLOAD PUSH32 0x8C379A000000000000000000000000000000000000000000000000000000000 DUP2 MSTORE PUSH1 0x4 ADD PUSH2 0x144A SWAP1 PUSH2 0x1969 JUMP JUMPDEST PUSH1 0x40 MLOAD DUP1 SWAP2 SUB SWAP1 REVERT JUMPDEST PUSH1 0x5 PUSH1 0x2 PUSH1 0x0 PUSH2 0x100 EXP DUP2 SLOAD DUP2 PUSH1 0xFF MUL NOT AND SWAP1 DUP4 PUSH1 0x6 DUP2 GT ISZERO PUSH2 0x1479 JUMPI PUSH2 0x1478 PUSH2 0x1838 JUMP JUMPDEST JUMPDEST MUL OR SWAP1 SSTORE POP PUSH1 0x4 PUSH1 0x40 MLOAD DUP1 PUSH1 0x60 ADD PUSH1 0x40 MSTORE DUP1 DUP5 DUP2 MSTORE PUSH1 0x20 ADD DUP4 PUSH20 0xFFFFFFFFFFFFFFFFFFFFFFFFFFFFFFFFFFFFFFFF AND DUP2 MSTORE PUSH1 0x20 ADD PUSH1 0x2 PUSH1 0x0 SWAP1 SLOAD SWAP1 PUSH2 0x100 EXP SWAP1 DIV PUSH1 0xFF AND PUSH1 0x6 DUP2 GT ISZERO PUSH2 0x14CF JUMPI PUSH2 0x14CE PUSH2 0x1838 JUMP JUMPDEST JUMPDEST DUP2 MSTORE POP SWAP1 DUP1 PUSH1 0x1 DUP2 SLOAD ADD DUP1 DUP3 SSTORE DUP1 SWAP2 POP POP PUSH1 0x1 SWAP1 SUB SWAP1 PUSH1 0x0 MSTORE PUSH1 0x20 PUSH1 0x0 KECCAK256 SWAP1 PUSH1 0x2 MUL ADD PUSH1 0x0 SWAP1 SWAP2 SWAP1 SWAP2 SWAP1 SWAP2 POP PUSH1 0x0 DUP3 ADD MLOAD DUP2 PUSH1 0x0 ADD SSTORE PUSH1 0x20 DUP3 ADD MLOAD DUP2 PUSH1 0x1 ADD PUSH1 0x0 PUSH2 0x100 EXP DUP2 SLOAD DUP2 PUSH20 0xFFFFFFFFFFFFFFFFFFFFFFFFFFFFFFFFFFFFFFFF MUL NOT AND SWAP1 DUP4 PUSH20 0xFFFFFFFFFFFFFFFFFFFFFFFFFFFFFFFFFFFFFFFF AND MUL OR SWAP1 SSTORE POP PUSH1 0x40 DUP3 ADD MLOAD DUP2 PUSH1 0x1 ADD PUSH1 0x14 PUSH2 0x100 EXP DUP2 SLOAD DUP2 PUSH1 0xFF MUL NOT AND SWAP1 DUP4 PUSH1 0x6 DUP2 GT ISZERO PUSH2 0x1577 JUMPI PUSH2 0x1576 PUSH2 0x1838 JUMP JUMPDEST JUMPDEST MUL OR SWAP1 SSTORE POP POP POP PUSH1 0x2 PUSH1 0x0 SWAP1 SLOAD SWAP1 PUSH2 0x100 EXP SWAP1 DIV PUSH1 0xFF AND PUSH1 0x6 DUP2 GT ISZERO PUSH2 0x15A0 JUMPI PUSH2 0x159F PUSH2 0x1838 JUMP JUMPDEST JUMPDEST DUP2 PUSH20 0xFFFFFFFFFFFFFFFFFFFFFFFFFFFFFFFFFFFFFFFF AND DUP4 PUSH32 0xCC091C952960B84AF994B58E2349B735A74341BA5869F73ED41CE589750B6441 PUSH1 0x40 MLOAD PUSH1 0x40 MLOAD DUP1 SWAP2 SUB SWAP1 LOG4 POP POP JUMP JUMPDEST PUSH1 0x0 DUP1 REVERT JUMPDEST PUSH1 0x0 DUP2 SWAP1 POP SWAP2 SWAP1 POP JUMP JUMPDEST PUSH2 0x1600 DUP2 PUSH2 0x15ED JUMP JUMPDEST DUP2 EQ PUSH2 0x160B JUMPI PUSH1 0x0 DUP1 REVERT JUMPDEST POP JUMP JUMPDEST PUSH1 0x0 DUP2 CALLDATALOAD SWAP1 POP PUSH2 0x161D DUP2 PUSH2 0x15F7 JUMP JUMPDEST SWAP3 SWAP2 POP POP JUMP JUMPDEST PUSH1 0x0 PUSH20 0xFFFFFFFFFFFFFFFFFFFFFFFFFFFFFFFFFFFFFFFF DUP3 AND SWAP1 POP SWAP2 SWAP1 POP JUMP JUMPDEST PUSH1 0x0 PUSH2 0x164E DUP3 PUSH2 0x1623 JUMP JUMPDEST SWAP1 POP SWAP2 SWAP1 POP JUMP JUMPDEST PUSH2 0x165E DUP2 PUSH2 0x1643 JUMP JUMPDEST DUP2 EQ PUSH2 0x1669 JUMPI PUSH1 0x0 DUP1 REVERT JUMPDEST POP JUMP JUMPDEST PUSH1 0x0 DUP2 CALLDATALOAD SWAP1 POP PUSH2 0x167B DUP2 PUSH2 0x1655 JUMP JUMPDEST SWAP3 SWAP2 POP POP JUMP JUMPDEST PUSH1 0x0 DUP1 PUSH1 0x40 DUP4 DUP6 SUB SLT ISZERO PUSH2 0x1698 JUMPI PUSH2 0x1697 PUSH2 0x15E8 JUMP JUMPDEST JUMPDEST PUSH1 0x0 PUSH2 0x16A6 DUP6 DUP3 DUP7 ADD PUSH2 0x160E JUMP JUMPDEST SWAP3 POP POP PUSH1 0x20 PUSH2 0x16B7 DUP6 DUP3 DUP7 ADD PUSH2 0x166C JUMP JUMPDEST SWAP2 POP POP SWAP3 POP SWAP3 SWAP1 POP JUMP JUMPDEST PUSH1 0x0 PUSH1 0x20 DUP3 DUP5 SUB SLT ISZERO PUSH2 0x16D7 JUMPI PUSH2 0x16D6 PUSH2 0x15E8 JUMP JUMPDEST JUMPDEST PUSH1 0x0 PUSH2 0x16E5 DUP5 DUP3 DUP6 ADD PUSH2 0x160E JUMP JUMPDEST SWAP2 POP POP SWAP3 SWAP2 POP POP JUMP JUMPDEST PUSH1 0x0 PUSH1 0x20 DUP3 DUP5 SUB SLT ISZERO PUSH2 0x1704 JUMPI PUSH2 0x1703 PUSH2 0x15E8 JUMP JUMPDEST JUMPDEST PUSH1 0x0 PUSH2 0x1712 DUP5 DUP3 DUP6 ADD PUSH2 0x166C JUMP JUMPDEST SWAP2 POP POP SWAP3 SWAP2 POP POP JUMP JUMPDEST PUSH1 0x0 DUP2 MLOAD SWAP1 POP SWAP2 SWAP1 POP JUMP JUMPDEST PUSH1 0x0 DUP3 DUP3 MSTORE PUSH1 0x20 DUP3 ADD SWAP1 POP SWAP3 SWAP2 POP POP JUMP JUMPDEST PUSH1 0x0 JUMPDEST DUP4 DUP2 LT ISZERO PUSH2 0x1755 JUMPI DUP1 DUP3 ADD MLOAD DUP2 DUP5 ADD MSTORE PUSH1 0x20 DUP2 ADD SWAP1 POP PUSH2 0x173A JUMP JUMPDEST DUP4 DUP2 GT ISZERO PUSH2 0x1764 JUMPI PUSH1 0x0 DUP5 DUP5 ADD MSTORE JUMPDEST POP POP POP POP JUMP JUMPDEST PUSH1 0x0 PUSH1 0x1F NOT PUSH1 0x1F DUP4 ADD AND SWAP1 POP SWAP2 SWAP1 POP JUMP JUMPDEST PUSH1 0x0 PUSH2 0x1786 DUP3 PUSH2 0x171B JUMP JUMPDEST PUSH2 0x1790 DUP2 DUP6 PUSH2 0x1726 JUMP JUMPDEST SWAP4 POP PUSH2 0x17A0 DUP2 DUP6 PUSH1 0x20 DUP7 ADD PUSH2 0x1737 JUMP JUMPDEST PUSH2 0x17A9 DUP2 PUSH2 0x176A JUMP JUMPDEST DUP5 ADD SWAP2 POP POP SWAP3 SWAP2 POP POP JUMP JUMPDEST PUSH1 0x0 DUP2 ISZERO ISZERO SWAP1 POP SWAP2 SWAP1 POP JUMP JUMPDEST PUSH2 0x17C9 DUP2 PUSH2 0x17B4 JUMP JUMPDEST DUP3 MSTORE POP POP JUMP JUMPDEST PUSH1 0x0 PUSH1 0x40 DUP3 ADD SWAP1 POP DUP2 DUP2 SUB PUSH1 0x0 DUP4 ADD MSTORE PUSH2 0x17E9 DUP2 DUP6 PUSH2 0x177B JUMP JUMPDEST SWAP1 POP PUSH2 0x17F8 PUSH1 0x20 DUP4 ADD DUP5 PUSH2 0x17C0 JUMP JUMPDEST SWAP4 SWAP3 POP POP POP JUMP JUMPDEST PUSH1 0x0 PUSH1 0x20 DUP3 ADD SWAP1 POP PUSH2 0x1814 PUSH1 0x0 DUP4 ADD DUP5 PUSH2 0x17C0 JUMP JUMPDEST SWAP3 SWAP2 POP POP JUMP JUMPDEST PUSH2 0x1823 DUP2 PUSH2 0x15ED JUMP JUMPDEST DUP3 MSTORE POP POP JUMP JUMPDEST PUSH2 0x1832 DUP2 PUSH2 0x1643 JUMP JUMPDEST DUP3 MSTORE POP POP JUMP JUMPDEST PUSH32 0x4E487B7100000000000000000000000000000000000000000000000000000000 PUSH1 0x0 MSTORE PUSH1 0x21 PUSH1 0x4 MSTORE PUSH1 0x24 PUSH1 0x0 REVERT JUMPDEST PUSH1 0x7 DUP2 LT PUSH2 0x1878 JUMPI PUSH2 0x1877 PUSH2 0x1838 JUMP JUMPDEST JUMPDEST POP JUMP JUMPDEST PUSH1 0x0 DUP2 SWAP1 POP PUSH2 0x1889 DUP3 PUSH2 0x1867 JUMP JUMPDEST SWAP2 SWAP1 POP JUMP JUMPDEST PUSH1 0x0 PUSH2 0x1899 DUP3 PUSH2 0x187B JUMP JUMPDEST SWAP1 POP SWAP2 SWAP1 POP JUMP JUMPDEST PUSH2 0x18A9 DUP2 PUSH2 0x188E JUMP JUMPDEST DUP3 MSTORE POP POP JUMP JUMPDEST PUSH1 0x0 PUSH1 0x60 DUP3 ADD SWAP1 POP PUSH2 0x18C4 PUSH1 0x0 DUP4 ADD DUP7 PUSH2 0x181A JUMP JUMPDEST PUSH2 0x18D1 PUSH1 0x20 DUP4 ADD DUP6 PUSH2 0x1829 JUMP JUMPDEST PUSH2 0x18DE PUSH1 0x40 DUP4 ADD DUP5 PUSH2 0x18A0 JUMP JUMPDEST SWAP5 SWAP4 POP POP POP POP JUMP JUMPDEST PUSH1 0x0 PUSH1 0x60 DUP3 ADD SWAP1 POP PUSH2 0x18FB PUSH1 0x0 DUP4 ADD DUP7 PUSH2 0x181A JUMP JUMPDEST PUSH2 0x1908 PUSH1 0x20 DUP4 ADD DUP6 PUSH2 0x1829 JUMP JUMPDEST PUSH2 0x1915 PUSH1 0x40 DUP4 ADD DUP5 PUSH2 0x181A JUMP JUMPDEST SWAP5 SWAP4 POP POP POP POP JUMP JUMPDEST PUSH32 0x4E6F7420616E206F776E65722100000000000000000000000000000000000000 PUSH1 0x0 DUP3 ADD MSTORE POP JUMP JUMPDEST PUSH1 0x0 PUSH2 0x1953 PUSH1 0xD DUP4 PUSH2 0x1726 JUMP JUMPDEST SWAP2 POP PUSH2 0x195E DUP3 PUSH2 0x191D JUMP JUMPDEST PUSH1 0x20 DUP3 ADD SWAP1 POP SWAP2 SWAP1 POP JUMP JUMPDEST PUSH1 0x0 PUSH1 0x20 DUP3 ADD SWAP1 POP DUP2 DUP2 SUB PUSH1 0x0 DUP4 ADD MSTORE PUSH2 0x1982 DUP2 PUSH2 0x1946 JUMP JUMPDEST SWAP1 POP SWAP2 SWAP1 POP JUMP JUMPDEST PUSH32 0x4E487B7100000000000000000000000000000000000000000000000000000000 PUSH1 0x0 MSTORE PUSH1 0x22 PUSH1 0x4 MSTORE PUSH1 0x24 PUSH1 0x0 REVERT JUMPDEST PUSH1 0x0 PUSH1 0x2 DUP3 DIV SWAP1 POP PUSH1 0x1 DUP3 AND DUP1 PUSH2 0x19D0 JUMPI PUSH1 0x7F DUP3 AND SWAP2 POP JUMPDEST PUSH1 0x20 DUP3 LT DUP2 EQ ISZERO PUSH2 0x19E4 JUMPI PUSH2 0x19E3 PUSH2 0x1989 JUMP JUMPDEST JUMPDEST POP SWAP2 SWAP1 POP JUMP JUMPDEST PUSH32 0x496E76616C6964206F7264657220494400000000000000000000000000000000 PUSH1 0x0 DUP3 ADD MSTORE POP JUMP JUMPDEST PUSH1 0x0 PUSH2 0x1A20 PUSH1 0x10 DUP4 PUSH2 0x1726 JUMP JUMPDEST SWAP2 POP PUSH2 0x1A2B DUP3 PUSH2 0x19EA JUMP JUMPDEST PUSH1 0x20 DUP3 ADD SWAP1 POP SWAP2 SWAP1 POP JUMP JUMPDEST PUSH1 0x0 PUSH1 0x20 DUP3 ADD SWAP1 POP DUP2 DUP2 SUB PUSH1 0x0 DUP4 ADD MSTORE PUSH2 0x1A4F DUP2 PUSH2 0x1A13 JUMP JUMPDEST SWAP1 POP SWAP2 SWAP1 POP JUMP INVALID LOG2 PUSH5 0x6970667358 0x22 SLT KECCAK256 0xE5 PUSH1 0xE8 BALANCE DUP13 PUSH18 0x78859E7E6CBFE840FA0A8CC502C461F8CEF3 DELEGATECALL CREATE2 PUSH18 0xDC3188460D64736F6C634300080A00330000 "
				},
				"gasEstimates": {
					"creation": {
						"codeDepositCost": "1359200",
						"executionCost": "52182",
						"totalCost": "1411382"
					},
					"external": {
						"addAdmin(address)": "27293",
						"admins(address)": "infinite",
						"canceled(uint256,address)": "128606",
						"delivered(uint256,address)": "infinite",
						"in_production(uint256,address)": "128497",
						"in_stock(uint256,address)": "128585",
						"order_info(uint256)": "infinite",
						"order_payments(uint256)": "infinite",
						"paid(uint256,address)": "128518",
						"receiveMoney(uint256)": "97402",
						"returned(uint256,address)": "128562",
						"sent(uint256,address)": "128519"
					}
				},
				"methodIdentifiers": {
					"addAdmin(address)": "70480275",
					"admins(address)": "429b62e5",
					"canceled(uint256,address)": "cca6fe54",
					"delivered(uint256,address)": "7527b350",
					"in_production(uint256,address)": "17adafd1",
					"in_stock(uint256,address)": "697a4f05",
					"order_info(uint256)": "a7c47525",
					"order_payments(uint256)": "cbb11c37",
					"paid(uint256,address)": "a031fb7f",
					"receiveMoney(uint256)": "3194d29c",
					"returned(uint256,address)": "c100b815",
					"sent(uint256,address)": "27739afe"
				}
			},
			"storageLayout": {
				"storage": [
					{
						"astId": 4,
						"contract": "contracts/Lock.sol:Logistics",
						"label": "owner",
						"offset": 0,
						"slot": "0",
						"type": "t_address"
					},
					{
						"astId": 6,
						"contract": "contracts/Lock.sol:Logistics",
						"label": "balanceReceived",
						"offset": 0,
						"slot": "1",
						"type": "t_uint256"
					},
					{
						"astId": 45,
						"contract": "contracts/Lock.sol:Logistics",
						"label": "status_choice",
						"offset": 0,
						"slot": "2",
						"type": "t_enum(Status)42"
					},
					{
						"astId": 70,
						"contract": "contracts/Lock.sol:Logistics",
						"label": "admins",
						"offset": 0,
						"slot": "3",
						"type": "t_mapping(t_address,t_struct(Admin)50_storage)"
					},
					{
						"astId": 74,
						"contract": "contracts/Lock.sol:Logistics",
						"label": "order_info",
						"offset": 0,
						"slot": "4",
						"type": "t_array(t_struct(Order)58_storage)dyn_storage"
					},
					{
						"astId": 79,
						"contract": "contracts/Lock.sol:Logistics",
						"label": "order_payments",
						"offset": 0,
						"slot": "5",
						"type": "t_mapping(t_uint256,t_struct(OrderPayments)65_storage)"
					}
				],
				"types": {
					"t_address": {
						"encoding": "inplace",
						"label": "address",
						"numberOfBytes": "20"
					},
					"t_array(t_struct(Order)58_storage)dyn_storage": {
						"base": "t_struct(Order)58_storage",
						"encoding": "dynamic_array",
						"label": "struct Logistics.Order[]",
						"numberOfBytes": "32"
					},
					"t_bool": {
						"encoding": "inplace",
						"label": "bool",
						"numberOfBytes": "1"
					},
					"t_enum(Status)42": {
						"encoding": "inplace",
						"label": "enum Logistics.Status",
						"numberOfBytes": "1"
					},
					"t_mapping(t_address,t_struct(Admin)50_storage)": {
						"encoding": "mapping",
						"key": "t_address",
						"label": "mapping(address => struct Logistics.Admin)",
						"numberOfBytes": "32",
						"value": "t_struct(Admin)50_storage"
					},
					"t_mapping(t_uint256,t_struct(OrderPayments)65_storage)": {
						"encoding": "mapping",
						"key": "t_uint256",
						"label": "mapping(uint256 => struct Logistics.OrderPayments)",
						"numberOfBytes": "32",
						"value": "t_struct(OrderPayments)65_storage"
					},
					"t_string_storage": {
						"encoding": "bytes",
						"label": "string",
						"numberOfBytes": "32"
					},
					"t_struct(Admin)50_storage": {
						"encoding": "inplace",
						"label": "struct Logistics.Admin",
						"members": [
							{
								"astId": 47,
								"contract": "contracts/Lock.sol:Logistics",
								"label": "_name",
								"offset": 0,
								"slot": "0",
								"type": "t_string_storage"
							},
							{
								"astId": 49,
								"contract": "contracts/Lock.sol:Logistics",
								"label": "_isAdmin",
								"offset": 0,
								"slot": "1",
								"type": "t_bool"
							}
						],
						"numberOfBytes": "64"
					},
					"t_struct(Order)58_storage": {
						"encoding": "inplace",
						"label": "struct Logistics.Order",
						"members": [
							{
								"astId": 52,
								"contract": "contracts/Lock.sol:Logistics",
								"label": "_orderID",
								"offset": 0,
								"slot": "0",
								"type": "t_uint256"
							},
							{
								"astId": 54,
								"contract": "contracts/Lock.sol:Logistics",
								"label": "_receiver",
								"offset": 0,
								"slot": "1",
								"type": "t_address"
							},
							{
								"astId": 57,
								"contract": "contracts/Lock.sol:Logistics",
								"label": "_status",
								"offset": 20,
								"slot": "1",
								"type": "t_enum(Status)42"
							}
						],
						"numberOfBytes": "64"
					},
					"t_struct(OrderPayments)65_storage": {
						"encoding": "inplace",
						"label": "struct Logistics.OrderPayments",
						"members": [
							{
								"astId": 60,
								"contract": "contracts/Lock.sol:Logistics",
								"label": "_amount",
								"offset": 0,
								"slot": "0",
								"type": "t_uint256"
							},
							{
								"astId": 62,
								"contract": "contracts/Lock.sol:Logistics",
								"label": "_customer",
								"offset": 0,
								"slot": "1",
								"type": "t_address"
							},
							{
								"astId": 64,
								"contract": "contracts/Lock.sol:Logistics",
								"label": "_orderID",
								"offset": 0,
								"slot": "2",
								"type": "t_uint256"
							}
						],
						"numberOfBytes": "96"
					},
					"t_uint256": {
						"encoding": "inplace",
						"label": "uint256",
						"numberOfBytes": "32"
					}
				}
			},
			"userdoc": {
				"kind": "user",
				"methods": {},
				"version": 1
			}
		}
	}
}